:020000041000EA
:1000000000B5324B212058609868022188439860DF
:10001000D860186158612E4B002199600221596106
:100020000121F02299502B49196001219960352056
:1000300000F044F80222904214D00621196600F024
:1000400034F8196E01211966002018661A6600F04E
:100050002CF8196E196E196E052000F02FF8012189
:100060000842F9D1002199601B49196000215960AB
:100070001A491B48016001219960EB211966A021F2
:10008000196600F012F800219960164914480160C1
:100090000121996001BC002800D000471248134993
:1000A000086003C880F30888084703B5996A0420EC
:1000B0000142FBD001200142F8D103BD02B5186610
:1000C0001866FFF7F2FF186E186E02BD00000240BE
:1000D000000000180000070000035F00212200005C
:1000E000F4000018222000A00001001008ED00E03C
:1000F00000000000000000000000000074B24E7A12
:1001000000200420F7010010C3010010C5010010F9
:10011000C1010010C1010010C1010010C101001097
:10012000C1010010C1010010C1010010C701001081
:10013000C1010010C1010010C9010010CB01001065
:10014000CD010010CD010010CD010010CD01001037
:10015000CD010010CD010010CD010010CD01001027
:10016000CD010010CD010010CD010010CD01001017
:10017000CD010010CD010010CD010010CD01001007
:10018000CD010010CD010010CD010010CD010010F7
:10019000CD010010CD010010CD010010CD010010E7
:1001A000CD010010CD010010CD010010CD010010D7
:1001B000CD010010CD010010CD010010CD010010C7
:1001C00000BE00BE00BE00BE00BE00BEEFF3058054
:1001D000103800BEF2EB8871907D0210BC7D0210D9
:1001E0003402001090A31AE700201F49086006C8D7
:1001F00081F3088810471D48006800282FD10DA4FE
:100200000ECC002902D000F012F8F9E71849194A7B
:10021000002000E001C19142FCD1174988471749ED
:1002200088471749884700BEFDE701C901C29A42C5
:10023000FBD37047BC7D0210C0000020D8190020FD
:10024000D49602100000042000000420D49602106E
:10025000001004200010042000000000704709482E
:100260001AF0FEFE0047000008ED00E0000000D09C
:10027000D8190020D02E00209D9D0110C17B0110B7
:10028000599D01105756000006005250ABB3605301
:10029000E065021006005250861C0302F065021051
:1002A000060052505422A29DF865021005005250DB
:1002B000DE65F468D4960210F8B5C04610B5064C59
:1002C0002378002B07D1054B002B02D0044800E017
:1002D00000BF0123237010BDB01F002000000000EC
:1002E000384B0210044B10B5002B03D003490448CF
:1002F00000E000BF10BDC04600000000B41F002099
:10030000384B021010B5024822F0C0F910BDC046AB
:10031000D80F00200120704710B50400FFF7FAFF46
:10032000A04205D3A62080006043024BC01810BD38
:100330000020FCE7400D00200120704710B50400AC
:10034000FFF7E8FFA04204D33420444302480019D9
:1003500010BD0020FCE7C046D80F002010B582B0C9
:100360000C00144BC3185A4253415B00124A9B5E67
:100370008B4204D06B46DA1D1470002115E06B46E9
:10038000DA1D0D23137000210029F3D183699B0628
:10039000FCD41378036001310132F5E783699B06D1
:1003A000FCD413780360013101320029F6D002B089
:1003B00010BDC0460080FCBF842E002010B5002276
:1003C000012117F027FC10BD10B50122002117F004
:1003D00021FC10BD30B583B00C0000232DE06B462E
:1003E000DA1D1570002106E083699B06FCD41378A2
:1003F0000360013101320029F6D018E06B46DA1DA6
:100400000D231370002106E083699B06FCD413784A
:100410000360013101320029F6D01CE083699B069C
:10042000FCD413780360013101320029F6D023781F
:100430000D3B5A425341DBB201342578002D0FD0D9
:10044000002BCCD1074BC3185A4253415B00064ADC
:100450009B5EAB42D2D06B46DA1D15700021E4E7FB
:1004600003B030BD0080FCBF842E002010B518F012
:1004700073FD10BD30B583B00223022B08DD244A82
:100480001368013313600A20FFF7F0FF002418E01F
:10049000022B01D00133F0E71E4AD054FAE76B4635
:1004A000DA1D0D2313700021002913D11A4B9B690B
:1004B0009B06FBD41078184B186001310132F3E72A
:1004C0000134022C16DC134B1D5D144B00229B5E85
:1004D000AB42E4D06B46DA1D157000210029EFD144
:1004E0000D4B9B699B06FBD410780B4B18600131B8
:1004F0000132F3E70A20FFF7B9FF022303E0054AC0
:100500000021D1540133032BF9DD03B030BDC046C7
:10051000D42B00206C10002000400340842E0020CB
:1005200030B583B0022302E0264AD1540133062BB2
:1005300007DC022BF8D0C218033A1478214AD454AD
:10054000F4E7214A1368013313600A20FFF78EFF96
:10055000002411E06B46DA1D0D23137000210029E1
:1005600013D11A4B9B699B06FBD41078174B18606C
:1005700001310132F3E70134062C16DC114B1D5D0D
:10058000134B00229B5EAB42E4D06B46DA1D157024
:1005900000210029EFD10D4B9B699B06FBD41078FD
:1005A0000A4B186001310132F3E70A20FFF75EFFC2
:1005B000022303E0034A0021D1540133062BF9DD65
:1005C00003B030BD6C1000202C2C002000400340F4
:1005D000842E002010B5002118F092FC10BD000000
:1005E00070B51C2017F030FBD024240680235B0557
:1005F00063626361192017F027FB8025AD046562F3
:1006000065616420FFF732FFA5616420FFF72EFFCC
:10061000E12676023100484819F020F931004748B8
:1006200019F01CF90221002017F0DCFA0221012048
:1006300017F0D8FA0221042017F0D4FA022105207D
:1006400017F0D0FA0221092017F0CCFA0E2017F08B
:10065000FBFA112017F0F8FA8022D201626280239F
:100660009B02636262616361192017F0EDFA6562B3
:100670000B2017F0E9FA80231B0163621A2017F0A0
:10068000E3FA8023DB0463620A2017F0DDFA80239B
:10069000DB0063621B2017F0D7FA80231B0563621F
:1006A000002201211B2017F0B5FA062017F0CCFA22
:1006B0004023636200220121062017F0ABFA204B91
:1006C00001221A60162017F0BFFA8023DB03636251
:1006D0000F2017F0B9FA80231B026362132017F072
:1006E000B3FA80231B03A36200220121132017F019
:1006F00091FA122017F0A8FA8023DB02A3620022ED
:100700000121122017F086FA142017F09DFA802399
:100710005B03A36201220021142017F07BFA15204D
:1007200017F092FA80239B03A36201220021152077
:1007300017F070FA70BDC0460040034000800340CF
:100740004C1000200023244A1360244A1360244ADA
:100750001360244A1360244A1360244A1360244A15
:100760001360244A1360244A1360244A1360244A05
:100770002321117049205070053890701530D070C9
:10078000137153719371D371137253729372D37245
:10079000137353739373D373137453749374D37425
:1007A000137553759375D375137653769376D37605
:1007B000137753779377D377393813540130135421
:1007C0000130135453540131535401315354013106
:1007D0005354013153547047B4270020A42E0020F5
:1007E000D42B0020F0200020E8200020EC20002066
:1007F000E4200020F4200020282700202C270020BF
:10080000CC260020094B00221A705A709A70DA70B8
:100810001A715A719A71DA711A725A729A72DA727C
:100820001A735A739A73DA731A747047A4260020E5
:1008300010B5144B01221A60134A137801214B4062
:10084000DBB21370002B04D00F4B1B78002B0CD1A4
:1008500010BD0221052017F0C5F90121092017F06C
:10086000C1F90A481BF002FDEEE70121052017F04F
:10087000B9F90221092017F0B5F905481BF0F6FC7B
:10088000E6E7C04650100020C72E00203C4B021067
:10089000504B0210F0B583B001256AE06B46DA1DBB
:1008A0001670002100291AD1474B9B699B06FBD487
:1008B0001678454B1E6001310132F3E76B46DA1DB5
:1008C0000D2313700021002919D13F4B9B699B0612
:1008D000FBD417783C4B1F6001310132F3E70378FA
:1008E0000D3B5A425341DBB201300678002E16D040
:1008F000002BD3D1354B02229B5EB342DED06B4638
:10090000DA1D167000210029E9D12F4B9B699B0647
:10091000FBD416782C4B1E6001310132F3E7013411
:10092000FA239B009C422CD2D026360640277761C2
:10093000FA20FFF74FFEB761254B9C42EFD1002311
:100940002448D2E70024EBE76B46DA1D0D23137031
:10095000002108E01C4B9B699B06FBD410781A4BC6
:100960001860013101320029F4D011E0102D1FD0A0
:100970000135102D25DC184B5B78572BF8D1012D54
:10098000E0D0154B5C5D114B02229B5EA342DBD095
:100990006B46DA1D147000210029E7D10A4B9B69D0
:1009A0009B06FBD41078084B186001310132F3E745
:1009B0000A4B01221A600A4B00221A70FFF738FF17
:1009C000D6E703B0F0BDC04600800340842E00206F
:1009D000E7030000644B0210A4260020402D0020F5
:1009E000CA2E0020012800D07047344B1B78702B92
:1009F0002BD06E2BF8D1D0231B065B689B0204D54D
:100A0000D0231B065B68DB024ED4D0231B065B6839
:100A10009B0204D4D0231B065B68DB024BD4D0239B
:100A20001B065B689B0204D5D0231B065B68DB02B8
:100A3000DAD5D0231B065B689B02D5D4D0231B06D6
:100A40005B68DB02D0D40320CEE7D02212065268C6
:100A5000920204D4D02212065268D2021FD5D022AC
:100A600012065268920204D5D02212065268D202AF
:100A70001FD5D02212065268920204D4D022120648
:100A80005268D202B0D4D022120652689202B0D577
:100A9000D02212065268D202ABD50320A4E7084B3D
:100AA00000221A7000209FE7054B00221A700020D8
:100AB0009AE7022098E7022096E7C0461810002027
:100AC000C42E002030B583B0042800D1E6E006DC57
:100AD00001284AD003284ED10023A04874E00528FD
:100AE00049D100239E4812E16B46DA1D14700021A3
:100AF00000291AD19B4B9B699B06FBD41478994B18
:100B00001C6001310132F3E76B46DA1D0D231370CF
:100B10000021002919D1934B9B699B06FBD41578C2
:100B2000904B1D6001310132F3E703780D3B5A42CF
:100B30005341DBB201300478002C19D0002BD3D103
:100B4000894B02229B5EA342DED06B46DA1D1470F5
:100B500000210029E9D1834B9B699B06FBD41478C3
:100B6000804B1C6001310132F3E700237F48E2E74C
:100B7000012018F0F1F903B030BD6B46DA1D147096
:100B8000002100291AD1774B9B699B06FBD414786E
:100B9000744B1C6001310132F3E76B46DA1D0D2303
:100BA00013700021002919D16E4B9B699B06FBD461
:100BB00015786C4B1D6001310132F3E703780D3B72
:100BC0005A425341DBB201300478002C16D0002B7E
:100BD000D3D1654B02229B5EA342DED06B46DA1D69
:100BE000147000210029E9D15E4B9B699B06FBD460
:100BF00014785C4B1C6001310132F3E7012018F0DE
:100C0000ABF9FFF7FFFD0023594A1360594A1370EF
:100C1000594A1370594A1370ADE76B46DA1D1470C8
:100C2000002100291AD14F4B9B699B06FBD41478F5
:100C30004C4B1C6001310132F3E76B46DA1D0D238A
:100C400013700021002919D1464B9B699B06FBD4E8
:100C50001578444B1D6001310132F3E703780D3BF9
:100C60005A425341DBB201300478002C19D0002BDA
:100C7000D3D13D4B02229B5EA342DED06B46DA1DF0
:100C8000147000210029E9D1364B9B699B06FBD4E7
:100C90001478344B1C6001310132F3E700233848EB
:100CA000E2E7012018F058F9FFF7ACFD0023304AC5
:100CB0001360304A1370304A1370304A13705AE789
:100CC0006B46DA1D1470002100291AD1254B9B694F
:100CD0009B06FBD41478234B1C6001310132F3E7EF
:100CE0006B46DA1D0D2313700021002919D11D4B0D
:100CF0009B699B06FBD415781A4B1D6001310132AC
:100D0000F3E703780D3B5A425341DBB201300478DC
:100D1000002C16D0002BD3D1134B02229B5EA34292
:100D2000DED06B46DA1D147000210029E9D10D4B8D
:100D30009B699B06FBD414780A4B1C60013101327D
:100D4000F3E7012018F008F9FFF75CFD0023084ADB
:100D50001360084A1370084A13700CE7844B0210A2
:100D6000944B021000800340842E00206C4B021034
:100D7000402D0020B82E0020BC2E0020C62E0020C2
:100D80008C4B021010B500201BF0A0FA00201BF0C5
:100D90009DFA00201BF09AFA00201BF097FA002021
:100DA0001BF094FA00201BF091FA00201BF08EFA41
:100DB00000201BF08BFA00201BF088FA00201BF0AB
:100DC00085FA00201BF082FA00201BF07FFA002039
:100DD0001BF07CFA00201BF079FA00201BF076FA59
:100DE00000201BF073FA00201BF070FA00201BF0AB
:100DF0006DFA00201BF06AFA00201BF067FA002051
:100E00001BF064FA00201BF061FA00201BF05EFA70
:100E100000201BF05BFA00201BF058FA00201BF0AA
:100E200055FA00201BF052FA00201BF04FFA002068
:100E30001BF04CFA00201BF049FA00201BF046FA88
:100E400000201BF043FA00201BF040FA00201BF0AA
:100E50003DFA00201BF03AFA00201BF037FA002080
:100E60001BF034FA00201BF031FA00201BF02EFAA0
:100E700000201BF02BFA00201BF028FA00201BF0AA
:100E800025FA00201BF022FA00201BF01FFA002098
:100E90001BF01CFA00201BF019FA00201BF016FAB8
:100EA00000201BF013FA00201BF010FA00201BF0AA
:100EB0000DFA00201BF00AFA00201BF007FA0020B0
:100EC0001BF004FA00201BF001FA00201BF0FEF9D1
:100ED00000201BF0FBF900201BF0F8F900201BF0AC
:100EE000F5F900201BF0F2F900201BF0EFF90020CB
:100EF0001BF0ECF900201BF0E9F900201BF0E6F9EB
:100F000000201BF0E3F900201BF0E0F900201BF0AB
:100F1000DDF900201BF0DAF900201BF0D7F90020E2
:100F20001BF0D4F900201BF0D1F900201BF0CEF902
:100F300000201BF0CBF900201BF0C8F900201BF0AB
:100F4000C5F900201BF0C2F900201BF0BFF90020FA
:100F50001BF0BCF900201BF0B9F900201BF0B6F91A
:100F600000201BF0B3F900201BF0B0F900201BF0AB
:100F7000ADF900201BF0AAF900201BF0A7F9002012
:100F80001BF0A4F900201BF0A1F900201BF09EF932
:100F900000201BF09BF900201BF098F900201BF0AB
:100FA00095F900201BF092F900201BF08FF900202A
:100FB0001BF08CF900201BF089F900201BF086F94A
:100FC00000201BF083F900201BF080F900201BF0AB
:100FD0007DF900201BF07AF900201BF077F9002042
:100FE0001BF074F900201BF071F900201BF06EF962
:100FF00000201BF06BF900201BF068F900201BF0AB
:1010000065F900201BF062F900201BF05FF9002059
:101010001BF05CF900201BF059F900201BF056F979
:1010200000201BF053F900201BF050F900201BF0AA
:101030004DF900201BF04AF900201BF047F9002071
:101040001BF044F900201BF041F900201BF03EF991
:1010500000201BF03BF900201BF038F900201BF0AA
:1010600035F900201BF032F900201BF02FF9002089
:101070001BF02CF900201BF029F900201BF026F9A9
:1010800000201BF023F900201BF020F900201BF0AA
:101090001DF900201BF01AF900201BF017F90020A1
:1010A0001BF014F900201BF011F900201BF00EF9C1
:1010B00000201BF00BF900201BF008F900201BF0AA
:1010C00005F900201BF002F900201BF0FFF80020BA
:1010D0001BF0FCF800201BF0F9F800201BF0F6F8DC
:1010E00000201BF0F3F800201BF0F0F800201BF0AC
:1010F000EDF800201BF0EAF800201BF0E7F80020D4
:101100001BF0E4F800201BF0E1F800201BF0DEF8F3
:1011100000201BF0DBF800201BF0D8F800201BF0AB
:10112000D5F800201BF0D2F800201BF0CFF80020EB
:101130001BF0CCF800201BF0C9F800201BF0C6F80B
:1011400000201BF0C3F800201BF0C0F800201BF0AB
:10115000BDF800201BF0BAF800201BF0B7F8002003
:101160001BF0B4F800201BF0B1F800201BF0AEF823
:1011700000201BF0ABF800201BF0A8F800201BF0AB
:10118000A5F800201BF0A2F800201BF09FF800201B
:101190001BF09CF800201BF099F800201BF096F83B
:1011A00000201BF093F800201BF090F800201BF0AB
:1011B0008DF800201BF08AF800201BF087F8002033
:1011C0001BF084F800201BF081F800201BF07EF853
:1011D00000201BF07BF800201BF078F800201BF0AB
:1011E00075F800201BF072F800201BF06FF800204B
:1011F0001BF06CF800201BF069F800201BF066F86B
:1012000000201BF063F800201BF060F800201BF0AA
:101210005DF800201BF05AF800201BF057F8002062
:101220001BF054F800201BF051F800201BF04EF882
:1012300000201BF04BF800201BF048F800201BF0AA
:1012400045F800201BF042F800201BF03FF800207A
:101250001BF03CF800201BF039F800201BF036F89A
:1012600000201BF033F800201BF030F800201BF0AA
:101270002DF800201BF02AF800201BF027F8002092
:101280001BF024F800201BF021F800201BF01EF8B2
:1012900000201BF01BF800201BF018F800201BF0AA
:1012A00015F800201BF012F800201BF00FF80020AA
:1012B0001BF00CF800201BF009F800201BF006F8CA
:1012C00000201BF003F800201BF000F800201AF0AB
:1012D000FDFF00201AF0FAFF00201AF0F7FF0020AF
:1012E0001AF0F4FF00201AF0F1FF00201AF0EEFFD0
:1012F00000201AF0EBFF00201AF0E8FF00201AF09F
:10130000E5FF00201AF0E2FF00201AF0DFFF0020C6
:101310001AF0DCFF00201AF0D9FF00201AF0D6FFE7
:1013200000201AF0D3FF00201AF0D0FF00201AF09E
:10133000CDFF00201AF0CAFF00201AF0C7FF0020DE
:101340001AF0C4FF00201AF0C1FF00201AF0BEFFFF
:1013500000201AF0BBFF00201AF0B8FF00201AF09E
:10136000B5FF00201AF0B2FF00201AF0AFFF0020F6
:101370001AF0ACFF00201AF0A9FF00201AF0A6FF17
:1013800000201AF0A3FF00201AF0A0FF00201AF09E
:101390009DFF00201AF09AFF00201AF097FF00200E
:1013A0001AF094FF00201AF091FF00201AF08EFF2F
:1013B00000201AF08BFF00201AF088FF00201AF09E
:1013C00085FF00201AF082FF00201AF07FFF002026
:1013D0001AF07CFF00201AF079FF00201AF076FF47
:1013E00000201AF073FF00201AF070FF00201AF09E
:1013F0006DFF00201AF06AFF00201AF067FF00203E
:101400001AF064FF00201AF061FF00201AF05EFF5E
:1014100000201AF05BFF00201AF058FF00201AF09D
:1014200055FF00201AF052FF00201AF04FFF002055
:101430001AF04CFF00201AF049FF00201AF046FF76
:1014400000201AF043FF00201AF040FF00201AF09D
:101450003DFF00201AF03AFF00201AF037FF00206D
:101460001AF034FF00201AF031FF00201AF02EFF8E
:1014700000201AF02BFF00201AF028FF00201AF09D
:1014800025FF00201AF022FF00201AF01FFF002085
:101490001AF01CFF00201AF019FF00201AF016FFA6
:1014A00000201AF013FF00201AF010FF00201AF09D
:1014B0000DFF00201AF00AFF00201AF007FF00209D
:1014C0001AF004FF00201AF001FF00201AF0FEFEBF
:1014D00000201AF0FBFE00201AF0F8FE00201AF09F
:1014E000F5FE00201AF0F2FE00201AF0EFFE0020B8
:1014F0001AF0ECFE00201AF0E9FE00201AF0E6FED9
:1015000000201AF0E3FE00201AF0E0FE00201AF09E
:10151000DDFE00201AF0DAFE00201AF0D7FE0020CF
:101520001AF0D4FE00201AF0D1FE00201AF0CEFEF0
:1015300000201AF0CBFE00201AF0C8FE00201AF09E
:10154000C5FE00201AF0C2FE00201AF0BFFE0020E7
:101550001AF0BCFE00201AF0B9FE00201AF0B6FE08
:1015600000201AF0B3FE00201AF0B0FE00201AF09E
:10157000ADFE00201AF0AAFE00201AF0A7FE0020FF
:101580001AF0A4FE00201AF0A1FE00201AF09EFE20
:1015900000201AF09BFE00201AF098FE00201AF09E
:1015A00095FE00201AF092FE00201AF08FFE002017
:1015B0001AF08CFE00201AF089FE00201AF086FE38
:1015C00000201AF083FE00201AF080FE00201AF09E
:1015D0007DFE00201AF07AFE00201AF077FE00202F
:1015E0001AF074FE00201AF071FE00201AF06EFE50
:1015F00000201AF06BFE00201AF068FE00201AF09E
:1016000065FE00201AF062FE00201AF05FFE002046
:101610001AF05CFE00201AF059FE00201AF056FE67
:1016200000201AF053FE00201AF050FE00201AF09D
:101630004DFE00201AF04AFE00201AF047FE00205E
:101640001AF044FE00201AF041FE00201AF03EFE7F
:1016500000201AF03BFE00201AF038FE00201AF09D
:1016600035FE00201AF032FE00201AF02FFE002076
:101670001AF02CFE00201AF029FE00201AF026FE97
:1016800000201AF023FE00201AF020FE00201AF09D
:101690001DFE00201AF01AFE00201AF017FE00208E
:1016A0001AF014FE00201AF011FE00201AF00EFEAF
:1016B00000201AF00BFE00201AF008FE00201AF09D
:1016C00005FE00201AF002FE00201AF0FFFD0020A7
:1016D0001AF0FCFD00201AF0F9FD00201AF0F6FDCA
:1016E00000201AF0F3FD00201AF0F0FD00201AF09F
:1016F000EDFD00201AF0EAFD00201AF0E7FD0020C1
:101700001AF0E4FD00201AF0E1FD00201AF0DEFDE1
:1017100000201AF0DBFD00201AF0D8FD00201AF09E
:10172000D5FD00201AF0D2FD00201AF0CFFD0020D8
:101730001AF0CCFD00201AF0C9FD00201AF0C6FDF9
:1017400000201AF0C3FD00201AF0C0FD00201AF09E
:10175000BDFD00201AF0BAFD00201AF0B7FD0020F0
:101760001AF0B4FD00201AF0B1FD00201AF0AEFD11
:1017700000201AF0ABFD00201AF0A8FD00201AF09E
:10178000A5FD00201AF0A2FD00201AF09FFD002008
:101790001AF09CFD00201AF099FD00201AF096FD29
:1017A00000201AF093FD00201AF090FD00201AF09E
:1017B0008DFD00201AF08AFD00201AF087FD002020
:1017C0001AF084FD00201AF081FD00201AF07EFD41
:1017D00000201AF07BFD00201AF078FD00201AF09E
:1017E00075FD00201AF072FD00201AF06FFD002038
:1017F0001AF06CFD00201AF069FD00201AF066FD59
:1018000000201AF063FD00201AF060FD00201AF09D
:101810005DFD00201AF05AFD00201AF057FD00204F
:101820001AF054FD00201AF051FD00201AF04EFD70
:1018300000201AF04BFD00201AF048FD00201AF09D
:1018400045FD00201AF042FD00201AF03FFD002067
:101850001AF03CFD00201AF039FD00201AF036FD88
:1018600000201AF033FD00201AF030FD00201AF09D
:101870002DFD00201AF02AFD00201AF027FD00207F
:101880001AF024FD00201AF021FD00201AF01EFDA0
:1018900000201AF01BFD00201AF018FD00201AF09D
:1018A00015FD00201AF012FD00201AF00FFD002097
:1018B0001AF00CFD00201AF009FD00201AF006FDB8
:1018C00000201AF003FD00201AF000FD00201AF09D
:1018D000FDFC00201AF0FAFC00201AF0F7FC0020B2
:1018E0001AF0F4FC00201AF0F1FC00201AF0EEFCD3
:1018F00000201AF0EBFC00201AF0E8FC00201AF09F
:10190000E5FC00201AF0E2FC00201AF0DFFC0020C9
:101910001AF0DCFC00201AF0D9FC00201AF0D6FCEA
:1019200000201AF0D3FC00201AF0D0FC00201AF09E
:10193000CDFC00201AF0CAFC00201AF0C7FC0020E1
:101940001AF0C4FC00201AF0C1FC00201AF0BEFC02
:1019500000201AF0BBFC00201AF0B8FC00201AF09E
:10196000B5FC00201AF0B2FC00201AF0AFFC0020F9
:101970001AF0ACFC00201AF0A9FC00201AF0A6FC1A
:1019800000201AF0A3FC00201AF0A0FC00201AF09E
:101990009DFC00201AF09AFC00201AF097FC002011
:1019A0001AF094FC00201AF091FC00201AF08EFC32
:1019B00000201AF08BFC00201AF088FC00201AF09E
:1019C00085FC00201AF082FC00201AF07FFC002029
:1019D0001AF07CFC00201AF079FC00201AF076FC4A
:1019E00000201AF073FC00201AF070FC00201AF09E
:1019F0006DFC00201AF06AFC00201AF067FC002041
:101A00001AF064FC00201AF061FC00201AF05EFC61
:101A100000201AF05BFC00201AF058FC00201AF09D
:101A200055FC00201AF052FC00201AF04FFC002058
:101A30001AF04CFC00201AF049FC00201AF046FC79
:101A400000201AF043FC00201AF040FC00201AF09D
:101A50003DFC00201AF03AFC00201AF037FC002070
:101A60001AF034FC00201AF031FC00201AF02EFC91
:101A700000201AF02BFC00201AF028FC00201AF09D
:101A800025FC00201AF022FC00201AF01FFC002088
:101A90001AF01CFC00201AF019FC00201AF016FCA9
:101AA00000201AF013FC00201AF010FC00201AF09D
:101AB0000DFC00201AF00AFC00201AF007FC0020A0
:101AC0001AF004FC00201AF001FC00201AF0FEFBC2
:101AD00000201AF0FBFB00201AF0F8FB00201AF09F
:101AE000F5FB00201AF0F2FB00201AF0EFFB0020BB
:101AF0001AF0ECFB00201AF0E9FB00201AF0E6FBDC
:101B000000201AF0E3FB00201AF0E0FB00201AF09E
:101B1000DDFB00201AF0DAFB00201AF0D7FB0020D2
:101B20001AF0D4FB00201AF0D1FB00201AF0CEFBF3
:101B300000201AF0CBFB00201AF0C8FB00201AF09E
:101B4000C5FB00201AF0C2FB00201AF0BFFB0020EA
:101B50001AF0BCFB00201AF0B9FB00201AF0B6FB0B
:101B600000201AF0B3FB00201AF0B0FB00201AF09E
:101B7000ADFB00201AF0AAFB00201AF0A7FB002002
:101B80001AF0A4FB00201AF0A1FB00201AF09EFB23
:101B900000201AF09BFB00201AF098FB00201AF09E
:101BA00095FB00201AF092FB00201AF08FFB00201A
:101BB0001AF08CFB00201AF089FB00201AF086FB3B
:101BC00000201AF083FB00201AF080FB00201AF09E
:101BD0007DFB00201AF07AFB00201AF077FB002032
:101BE0001AF074FB00201AF071FB00201AF06EFB53
:101BF00000201AF06BFB00201AF068FB00201AF09E
:101C000065FB00201AF062FB00201AF05FFB002049
:101C10001AF05CFB00201AF059FB00201AF056FB6A
:101C200000201AF053FB00201AF050FB00201AF09D
:101C30004DFB00201AF04AFB00201AF047FB002061
:101C40001AF044FB00201AF041FB00201AF03EFB82
:101C500000201AF03BFB00201AF038FB00201AF09D
:101C600035FB00201AF032FB00201AF02FFB002079
:101C70001AF02CFB00201AF029FB00201AF026FB9A
:101C800000201AF023FB00201AF020FB00201AF09D
:101C90001DFB00201AF01AFB00201AF017FB002091
:101CA0001AF014FB00201AF011FB00201AF00EFBB2
:101CB00000201AF00BFB00201AF008FB00201AF09D
:101CC00005FB00201AF002FB00201AF0FFFA0020AA
:101CD0001AF0FCFA00201AF0F9FA00201AF0F6FACD
:101CE00000201AF0F3FA00201AF0F0FA00201AF09F
:101CF000EDFA00201AF0EAFA00201AF0E7FA0020C4
:101D00001AF0E4FA00201AF0E1FA00201AF0DEFAE4
:101D100000201AF0DBFA00201AF0D8FA00201AF09E
:101D2000D5FA00201AF0D2FA00201AF0CFFA0020DB
:101D30001AF0CCFA00201AF0C9FA00201AF0C6FAFC
:101D400000201AF0C3FA00201AF0C0FA00201AF09E
:101D5000BDFA00201AF0BAFA00201AF0B7FA0020F3
:101D60001AF0B4FA00201AF0B1FA00201AF0AEFA14
:101D700000201AF0ABFA00201AF0A8FA00201AF09E
:101D8000A5FA00201AF0A2FA00201AF09FFA00200B
:101D90001AF09CFA00201AF099FA00201AF096FA2C
:101DA00000201AF093FA00201AF090FA00201AF09E
:101DB0008DFA00201AF08AFA00201AF087FA002023
:101DC0001AF084FA00201AF081FA00201AF07EFA44
:101DD00000201AF07BFA00201AF078FA00201AF09E
:101DE00075FA00201AF072FA00201AF06FFA00203B
:101DF0001AF06CFA00201AF069FA00201AF066FA5C
:101E000000201AF063FA00201AF060FA00201AF09D
:101E10005DFA00201AF05AFA00201AF057FA002052
:101E20001AF054FA00201AF051FA00201AF04EFA73
:101E300000201AF04BFA00201AF048FA00201AF09D
:101E400045FA00201AF042FA00201AF03FFA00206A
:101E50001AF03CFA00201AF039FA00201AF036FA8B
:101E600000201AF033FA00201AF030FA00201AF09D
:101E70002DFA00201AF02AFA00201AF027FA002082
:101E80001AF024FA00201AF021FA00201AF01EFAA3
:101E900000201AF01BFA00201AF018FA00201AF09D
:101EA00015FA00201AF012FA00201AF00FFA00209A
:101EB0001AF00CFA00201AF009FA00201AF006FABB
:101EC00000201AF003FA00201AF000FA00201AF09D
:101ED000FDF900201AF0FAF900201AF0F7F90020B5
:101EE0001AF0F4F900201AF0F1F900201AF0EEF9D6
:101EF00000201AF0EBF900201AF0E8F900201AF09F
:101F0000E5F900201AF0E2F900201AF0DFF90020CC
:101F10001AF0DCF900201AF0D9F900201AF0D6F9ED
:101F200000201AF0D3F900201AF0D0F900201AF09E
:101F3000CDF900201AF0CAF900201AF0C7F90020E4
:101F40001AF0C4F900201AF0C1F900201AF0BEF905
:101F500000201AF0BBF900201AF0B8F900201AF09E
:101F6000B5F900201AF0B2F900201AF0AFF90020FC
:101F70001AF0ACF900201AF0A9F900201AF0A6F91D
:101F800000201AF0A3F900201AF0A0F900201AF09E
:101F90009DF900201AF09AF900201AF097F9002014
:101FA0001AF094F900201AF091F900201AF08EF935
:101FB00000201AF08BF900201AF088F900201AF09E
:101FC00085F900201AF082F900201AF07FF900202C
:101FD0001AF07CF900201AF079F900201AF076F94D
:101FE00000201AF073F900201AF070F900201AF09E
:101FF0006DF900201AF06AF900201AF067F9002044
:102000001AF064F900201AF061F900201AF05EF964
:1020100000201AF05BF900201AF058F900201AF09D
:1020200055F900201AF052F900201AF04FF900205B
:102030001AF04CF900201AF049F900201AF046F97C
:1020400000201AF043F900201AF040F900201AF09D
:102050003DF900201AF03AF900201AF037F9002073
:102060001AF034F900201AF031F900201AF02EF994
:1020700000201AF02BF900201AF028F900201AF09D
:1020800025F900201AF022F900201AF01FF900208B
:102090001AF01CF900201AF019F900201AF016F9AC
:1020A00000201AF013F900201AF010F900201AF09D
:1020B0000DF900201AF00AF900201AF007F90020A3
:1020C0001AF004F900201AF001F900201AF0FEF8C5
:1020D00000201AF0FBF800201AF0F8F800201AF09F
:1020E000F5F800201AF0F2F800201AF0EFF80020BE
:1020F0001AF0ECF800201AF0E9F800201AF0E6F8DF
:1021000000201AF0E3F800201AF0E0F800201AF09E
:10211000DDF800201AF0DAF800201AF0D7F80020D5
:102120001AF0D4F800201AF0D1F800201AF0CEF8F6
:1021300000201AF0CBF800201AF0C8F800201AF09E
:10214000C5F800201AF0C2F800201AF0BFF80020ED
:102150001AF0BCF800201AF0B9F800201AF0B6F80E
:1021600000201AF0B3F800201AF0B0F800201AF09E
:10217000ADF800201AF0AAF800201AF0A7F8002005
:102180001AF0A4F800201AF0A1F800201AF09EF826
:1021900000201AF09BF800201AF098F800201AF09E
:1021A00095F800201AF092F800201AF08FF800201D
:1021B0001AF08CF800201AF089F800201AF086F83E
:1021C00000201AF083F800201AF080F800201AF09E
:1021D0007DF800201AF07AF800201AF077F8002035
:1021E0001AF074F800201AF071F800201AF06EF856
:1021F00000201AF06BF800201AF068F800201AF09E
:1022000065F800201AF062F800201AF05FF800204C
:102210001AF05CF800201AF059F800201AF056F86D
:1022200000201AF053F800201AF050F800201AF09D
:102230004DF800201AF04AF800201AF047F8002064
:102240001AF044F800201AF041F800201AF03EF885
:1022500000201AF03BF800201AF038F800201AF09D
:1022600035F800201AF032F800201AF02FF800207C
:102270001AF02CF800201AF029F800201AF026F89D
:1022800000201AF023F800201AF020F800201AF09D
:102290001DF800201AF01AF800201AF017F8002094
:1022A0001AF014F800201AF011F800201AF00EF8B5
:1022B00000201AF00BF800201AF008F800201AF09D
:1022C00005F800201AF002F8002019F0FFFF0020A6
:1022D00019F0FCFF002019F0F9FF002019F0F6FFBB
:1022E000002019F0F3FF002019F0F0FF002019F092
:1022F000EDFF002019F0EAFF002019F0E7FF0020B1
:1023000019F0E4FF002019F0E1FF002019F0DEFFD2
:10231000002019F0DBFF002019F0D8FF002019F091
:10232000D5FF002019F0D2FF002019F0CFFF0020C8
:1023300019F0CCFF002019F0C9FF002019F0C6FFEA
:10234000002019F0C3FF002019F0C0FF002019F091
:10235000BDFF002019F0BAFF002019F0B7FF0020E0
:1023600019F0B4FF002019F0B1FF002019F0AEFF02
:10237000002019F0ABFF002019F0A8FF002019F091
:10238000A5FF002019F0A2FF002019F09FFF0020F8
:1023900019F09CFF002019F099FF002019F096FF1A
:1023A000002019F093FF002019F090FF002019F091
:1023B0008DFF002019F08AFF002019F087FF002010
:1023C00019F084FF002019F081FF002019F07EFF32
:1023D000002019F07BFF002019F078FF002019F091
:1023E00075FF002019F072FF002019F06FFF002028
:1023F00019F06CFF002019F069FF002019F066FF4A
:10240000002019F063FF002019F060FF002019F090
:102410005DFF002019F05AFF002019F057FF00203F
:1024200019F054FF002019F051FF002019F04EFF61
:10243000002019F04BFF002019F048FF002019F090
:1024400045FF002019F042FF002019F03FFF002057
:1024500019F03CFF002019F039FF002019F036FF79
:10246000002019F033FF002019F030FF002019F090
:102470002DFF002019F02AFF002019F027FF00206F
:1024800019F024FF002019F021FF002019F01EFF91
:10249000002019F01BFF002019F018FF002019F090
:1024A00015FF002019F012FF002019F00FFF002087
:1024B00019F00CFF002019F009FF002019F006FFA9
:1024C000002019F003FF002019F000FF002019F090
:1024D000FDFE002019F0FAFE002019F0F7FE0020A2
:1024E00019F0F4FE002019F0F1FE002019F0EEFEC4
:1024F000002019F0EBFE002019F0E8FE002019F092
:10250000E5FE002019F0E2FE002019F0DFFE0020B9
:1025100019F0DCFE002019F0D9FE002019F0D6FEDB
:10252000002019F0D3FE002019F0D0FE002019F091
:10253000CDFE002019F0CAFE002019F0C7FE0020D1
:1025400019F0C4FE002019F0C1FE002019F0BEFEF3
:10255000002019F0BBFE002019F0B8FE002019F091
:10256000B5FE002019F0B2FE002019F0AFFE0020E9
:1025700019F0ACFE002019F0A9FE002019F0A6FE0B
:10258000002019F0A3FE002019F0A0FE002019F091
:102590009DFE002019F09AFE002019F097FE002001
:1025A00019F094FE002019F091FE002019F08EFE23
:1025B000002019F08BFE002019F088FE002019F091
:1025C00085FE002019F082FE002019F07FFE002019
:1025D00019F07CFE002019F079FE002019F076FE3B
:1025E000002019F073FE002019F070FE002019F091
:1025F0006DFE002019F06AFE002019F067FE002031
:1026000019F064FE002019F061FE002019F05EFE52
:10261000002019F05BFE002019F058FE002019F090
:1026200055FE002019F052FE002019F04FFE002048
:1026300019F04CFE002019F049FE002019F046FE6A
:10264000002019F043FE002019F040FE002019F090
:102650003DFE002019F03AFE002019F037FE002060
:1026600019F034FE002019F031FE002019F02EFE82
:10267000002019F02BFE002019F028FE002019F090
:1026800025FE002019F022FE002019F01FFE002078
:1026900019F01CFE002019F019FE002019F016FE9A
:1026A000002019F013FE002019F010FE002019F090
:1026B0000DFE002019F00AFE002019F007FE002090
:1026C00019F004FE002019F001FE002019F0FEFDB3
:1026D000002019F0FBFD002019F0F8FD002019F092
:1026E000F5FD002019F0F2FD002019F0EFFD0020AB
:1026F00019F0ECFD002019F0E9FD002019F0E6FDCD
:10270000002019F0E3FD002019F0E0FD002019F091
:10271000DDFD002019F0DAFD002019F0D7FD0020C2
:1027200019F0D4FD002019F0D1FD002019F0CEFDE4
:10273000002019F0CBFD002019F0C8FD002019F091
:10274000C5FD002019F0C2FD002019F0BFFD0020DA
:1027500019F0BCFD002019F0B9FD002019F0B6FDFC
:10276000002019F0B3FD002019F0B0FD002019F091
:10277000ADFD002019F0AAFD002019F0A7FD0020F2
:1027800019F0A4FD002019F0A1FD002019F09EFD14
:10279000002019F09BFD002019F098FD002019F091
:1027A00095FD002019F092FD002019F08FFD00200A
:1027B00019F08CFD002019F089FD002019F086FD2C
:1027C000002019F083FD002019F080FD002019F091
:1027D0007DFD002019F07AFD002019F077FD002022
:1027E00019F074FD002019F071FD002019F06EFD44
:1027F000002019F06BFD002019F068FD002019F091
:1028000065FD002019F062FD002019F05FFD002039
:1028100019F05CFD002019F059FD002019F056FD5B
:10282000002019F053FD002019F050FD002019F090
:102830004DFD002019F04AFD002019F047FD002051
:1028400019F044FD002019F041FD002019F03EFD73
:10285000002019F03BFD002019F038FD002019F090
:1028600035FD002019F032FD002019F02FFD002069
:1028700019F02CFD002019F029FD002019F026FD8B
:10288000002019F023FD002019F020FD002019F090
:102890001DFD002019F01AFD002019F017FD002081
:1028A00019F014FD002019F011FD002019F00EFDA3
:1028B000002019F00BFD002019F008FD002019F090
:1028C00005FD002019F002FD002019F0FFFC00209A
:1028D00019F0FCFC002019F0F9FC002019F0F6FCBE
:1028E000002019F0F3FC002019F0F0FC002019F092
:1028F000EDFC002019F0EAFC002019F0E7FC0020B4
:1029000019F0E4FC002019F0E1FC002019F0DEFCD5
:10291000002019F0DBFC002019F0D8FC002019F091
:10292000D5FC002019F0D2FC002019F0CFFC0020CB
:1029300019F0CCFC002019F0C9FC002019F0C6FCED
:10294000002019F0C3FC002019F0C0FC002019F091
:10295000BDFC002019F0BAFC002019F0B7FC0020E3
:1029600019F0B4FC002019F0B1FC002019F0AEFC05
:10297000002019F0ABFC002019F0A8FC002019F091
:10298000A5FC002019F0A2FC002019F09FFC0020FB
:1029900019F09CFC002019F099FC002019F096FC1D
:1029A000002019F093FC002019F090FC002019F091
:1029B0008DFC002019F08AFC002019F087FC002013
:1029C00019F084FC002019F081FC002019F07EFC35
:1029D000002019F07BFC002019F078FC002019F091
:1029E00075FC002019F072FC002019F06FFC00202B
:1029F00019F06CFC002019F069FC002019F066FC4D
:102A0000002019F063FC002019F060FC002019F090
:102A10005DFC002019F05AFC002019F057FC002042
:102A200019F054FC002019F051FC002019F04EFC64
:102A3000002019F04BFC002019F048FC002019F090
:102A400045FC002019F042FC002019F03FFC00205A
:102A500019F03CFC002019F039FC002019F036FC7C
:102A6000002019F033FC002019F030FC002019F090
:102A70002DFC002019F02AFC002019F027FC002072
:102A800019F024FC002019F021FC002019F01EFC94
:102A9000002019F01BFC002019F018FC002019F090
:102AA00015FC002019F012FC002019F00FFC00208A
:102AB00019F00CFC002019F009FC002019F006FCAC
:102AC000002019F003FC002019F000FC002019F090
:102AD000FDFB002019F0FAFB002019F0F7FB0020A5
:102AE00019F0F4FB002019F0F1FB002019F0EEFBC7
:102AF000002019F0EBFB002019F0E8FB002019F092
:102B0000E5FB002019F0E2FB002019F0DFFB0020BC
:102B100019F0DCFB002019F0D9FB002019F0D6FBDE
:102B2000002019F0D3FB002019F0D0FB002019F091
:102B3000CDFB002019F0CAFB002019F0C7FB0020D4
:102B400019F0C4FB002019F0C1FB002019F0BEFBF6
:102B5000002019F0BBFB002019F0B8FB002019F091
:102B6000B5FB002019F0B2FB002019F0AFFB0020EC
:102B700019F0ACFB002019F0A9FB002019F0A6FB0E
:102B8000002019F0A3FB002019F0A0FB002019F091
:102B90009DFB002019F09AFB002019F097FB002004
:102BA00019F094FB002019F091FB002019F08EFB26
:102BB000002019F08BFB002019F088FB002019F091
:102BC00085FB002019F082FB002019F07FFB00201C
:102BD00019F07CFB002019F079FB002019F076FB3E
:102BE000002019F073FB002019F070FB002019F091
:102BF0006DFB002019F06AFB002019F067FB002034
:102C000019F064FB002019F061FB002019F05EFB55
:102C1000002019F05BFB002019F058FB002019F090
:102C200055FB002019F052FB002019F04FFB00204B
:102C300019F04CFB002019F049FB002019F046FB6D
:102C4000002019F043FB002019F040FB002019F090
:102C50003DFB002019F03AFB002019F037FB002063
:102C600019F034FB002019F031FB002019F02EFB85
:102C7000002019F02BFB002019F028FB002019F090
:102C800025FB002019F022FB002019F01FFB00207B
:102C900019F01CFB002019F019FB002019F016FB9D
:102CA000002019F013FB002019F010FB002019F090
:102CB0000DFB002019F00AFB002019F007FB002093
:102CC00019F004FB002019F001FB002019F0FEFAB6
:102CD000002019F0FBFA002019F0F8FA002019F092
:102CE000F5FA002019F0F2FA002019F0EFFA0020AE
:102CF00019F0ECFA002019F0E9FA002019F0E6FAD0
:102D0000002019F0E3FA002019F0E0FA002019F091
:102D1000DDFA002019F0DAFA002019F0D7FA0020C5
:102D200019F0D4FA002019F0D1FA002019F0CEFAE7
:102D3000002019F0CBFA002019F0C8FA002019F091
:102D4000C5FA002019F0C2FA002019F0BFFA0020DD
:102D500019F0BCFA002019F0B9FA002019F0B6FAFF
:102D6000002019F0B3FA002019F0B0FA002019F091
:102D7000ADFA002019F0AAFA002019F0A7FA0020F5
:102D800019F0A4FA002019F0A1FA002019F09EFA17
:102D9000002019F09BFA002019F098FA002019F091
:102DA00095FA002019F092FA002019F08FFA00200D
:102DB00019F08CFA002019F089FA002019F086FA2F
:102DC000002019F083FA002019F080FA002019F091
:102DD0007DFA002019F07AFA002019F077FA002025
:102DE00019F074FA002019F071FA002019F06EFA47
:102DF000002019F06BFA002019F068FA002019F091
:102E000065FA002019F062FA002019F05FFA00203C
:102E100019F05CFA002019F059FA002019F056FA5E
:102E2000002019F053FA002019F050FA002019F090
:102E30004DFA002019F04AFA002019F047FA002054
:102E400019F044FA002019F041FA002019F03EFA76
:102E5000002019F03BFA002019F038FA002019F090
:102E600035FA002019F032FA002019F02FFA00206C
:102E700019F02CFA002019F029FA002019F026FA8E
:102E8000002019F023FA002019F020FA002019F090
:102E90001DFA002019F01AFA002019F017FA002084
:102EA00019F014FA002019F011FA002019F00EFAA6
:102EB000002019F00BFA002019F008FA002019F090
:102EC00005FA002019F002FA002019F0FFF900209D
:102ED00019F0FCF9002019F0F9F9002019F0F6F9C1
:102EE000002019F0F3F9002019F0F0F9002019F092
:102EF000EDF9002019F0EAF9002019F0E7F90020B7
:102F000019F0E4F9002019F0E1F9002019F0DEF9D8
:102F1000002019F0DBF9002019F0D8F9002019F091
:102F2000D5F9002019F0D2F9002019F0CFF90020CE
:102F300019F0CCF9002019F0C9F9002019F0C6F9F0
:102F4000002019F0C3F9002019F0C0F9002019F091
:102F5000BDF9002019F0BAF9002019F0B7F90020E6
:102F600019F0B4F9002019F0B1F9002019F0AEF908
:102F7000002019F0ABF9002019F0A8F9002019F091
:102F8000A5F9002019F0A2F9002019F09FF90020FE
:102F900019F09CF9002019F099F9002019F096F920
:102FA000002019F093F9002019F090F9002019F091
:102FB0008DF9002019F08AF9002019F087F9002016
:102FC00019F084F9002019F081F9002019F07EF938
:102FD000002019F07BF9002019F078F9002019F091
:102FE00075F9002019F072F9002019F06FF900202E
:102FF00019F06CF9002019F069F9002019F066F950
:10300000002019F063F9002019F060F9002019F090
:103010005DF9002019F05AF9002019F057F9002045
:1030200019F054F9002019F051F9002019F04EF967
:10303000002019F04BF9002019F048F9002019F090
:1030400045F9002019F042F9002019F03FF900205D
:1030500019F03CF9002019F039F9002019F036F97F
:10306000002019F033F9002019F030F9002019F090
:103070002DF9002019F02AF9002019F027F9002075
:1030800019F024F9002019F021F9002019F01EF997
:10309000002019F01BF9002019F018F9002019F090
:1030A00015F9002019F012F9002019F00FF900208D
:1030B00019F00CF9002019F009F9002019F006F9AF
:1030C000002019F003F9002019F000F9002019F090
:1030D000FDF8002019F0FAF8002019F0F7F80020A8
:1030E00019F0F4F8002019F0F1F8002019F0EEF8CA
:1030F000002019F0EBF8002019F0E8F8002019F092
:10310000E5F8002019F0E2F8002019F0DFF80020BF
:1031100019F0DCF8002019F0D9F8002019F0D6F8E1
:10312000002019F0D3F8002019F0D0F8002019F091
:10313000CDF8002019F0CAF8002019F0C7F80020D7
:1031400019F0C4F8002019F0C1F8002019F0BEF8F9
:10315000002019F0BBF8002019F0B8F8002019F091
:10316000B5F8002019F0B2F8002019F0AFF80020EF
:1031700019F0ACF8002019F0A9F8002019F0A6F811
:10318000002019F0A3F8002019F0A0F8002019F091
:103190009DF8002019F09AF8002019F097F8002007
:1031A00019F094F8002019F091F8002019F08EF829
:1031B000002019F08BF8002019F088F8002019F091
:1031C00085F8002019F082F8002019F07FF800201F
:1031D00019F07CF8002019F079F8002019F076F841
:1031E000002019F073F8002019F070F8002019F091
:1031F0006DF8002019F06AF8002019F067F8002037
:1032000019F064F8002019F061F8002019F05EF858
:10321000002019F05BF8002019F058F8002019F090
:1032200055F8002019F052F8002019F04FF800204E
:1032300019F04CF8002019F049F8002019F046F870
:10324000002019F043F8002019F040F8002019F090
:103250003DF8002019F03AF8002019F037F8002066
:1032600019F034F8002019F031F8002019F02EF888
:10327000002019F02BF8002019F028F8002019F090
:1032800025F8002019F022F8002019F01FF800207E
:1032900019F01CF8002019F019F8002019F016F8A0
:1032A000002019F013F8002019F010F8002019F090
:1032B0000DF8002019F00AF8002019F007F8002096
:1032C00019F004F8002019F001F8002018F0FEFFB2
:1032D000002018F0FBFF002018F0F8FF002018F085
:1032E000F5FF002018F0F2FF002018F0EFFF00209B
:1032F00018F0ECFF002018F0E9FF002018F0E6FFBE
:10330000002018F0E3FF002018F0E0FF002018F084
:10331000DDFF002018F0DAFF002018F0D7FF0020B2
:1033200018F0D4FF002018F0D1FF002018F0CEFFD5
:10333000002018F0CBFF002018F0C8FF002018F084
:10334000C5FF002018F0C2FF002018F0BFFF0020CA
:1033500018F0BCFF002018F0B9FF002018F0B6FFED
:10336000002018F0B3FF002018F0B0FF002018F084
:10337000ADFF002018F0AAFF002018F0A7FF0020E2
:1033800018F0A4FF002018F0A1FF002018F09EFF05
:10339000002018F09BFF002018F098FF002018F084
:1033A00095FF002018F092FF002018F08FFF0020FA
:1033B00018F08CFF002018F089FF002018F086FF1D
:1033C000002018F083FF002018F080FF002018F084
:1033D0007DFF002018F07AFF002018F077FF002012
:1033E00018F074FF002018F071FF002018F06EFF35
:1033F000002018F06BFF002018F068FF002018F084
:1034000065FF002018F062FF002018F05FFF002029
:1034100018F05CFF002018F059FF002018F056FF4C
:10342000002018F053FF002018F050FF002018F083
:103430004DFF002018F04AFF002018F047FF002041
:1034400018F044FF002018F041FF002018F03EFF64
:10345000002018F03BFF002018F038FF002018F083
:1034600035FF002018F032FF002018F02FFF002059
:1034700018F02CFF002018F029FF002018F026FF7C
:10348000002018F023FF002018F020FF002018F083
:103490001DFF002018F01AFF002018F017FF002071
:1034A00018F014FF002018F011FF002018F00EFF94
:1034B000002018F00BFF002018F008FF002018F083
:1034C00005FF002018F002FF002018F0FFFE00208A
:1034D00018F0FCFE002018F0F9FE002018F0F6FEAF
:1034E000002018F0F3FE002018F0F0FE002018F085
:1034F000EDFE002018F0EAFE002018F0E7FE0020A4
:1035000018F0E4FE002018F0E1FE002018F0DEFEC6
:10351000002018F0DBFE002018F0D8FE002018F084
:10352000D5FE002018F0D2FE002018F0CFFE0020BB
:1035300018F0CCFE002018F0C9FE002018F0C6FEDE
:10354000002018F0C3FE002018F0C0FE002018F084
:10355000BDFE002018F0BAFE002018F0B7FE0020D3
:1035600018F0B4FE002018F0B1FE002018F0AEFEF6
:10357000002018F0ABFE002018F0A8FE002018F084
:10358000A5FE002018F0A2FE002018F09FFE0020EB
:1035900018F09CFE002018F099FE002018F096FE0E
:1035A000002018F093FE002018F090FE002018F084
:1035B0008DFE002018F08AFE002018F087FE002003
:1035C00018F084FE002018F081FE002018F07EFE26
:1035D000002018F07BFE002018F078FE002018F084
:1035E00075FE002018F072FE002018F06FFE00201B
:1035F00018F06CFE002018F069FE002018F066FE3E
:10360000002018F063FE002018F060FE002018F083
:103610005DFE002018F05AFE002018F057FE002032
:1036200018F054FE002018F051FE002018F04EFE55
:10363000002018F04BFE002018F048FE002018F083
:1036400045FE002018F042FE002018F03FFE00204A
:1036500018F03CFE002018F039FE002018F036FE6D
:10366000002018F033FE002018F030FE002018F083
:103670002DFE002018F02AFE002018F027FE002062
:1036800018F024FE002018F021FE002018F01EFE85
:10369000002018F01BFE002018F018FE002018F083
:1036A00015FE002018F012FE002018F00FFE00207A
:1036B00018F00CFE002018F009FE002018F006FE9D
:1036C000002018F003FE002018F000FE002018F083
:1036D000FDFD002018F0FAFD002018F0F7FD002095
:1036E00018F0F4FD002018F0F1FD002018F0EEFDB8
:1036F000002018F0EBFD002018F0E8FD002018F085
:10370000E5FD002018F0E2FD002018F0DFFD0020AC
:1037100018F0DCFD002018F0D9FD002018F0D6FDCF
:10372000002018F0D3FD002018F0D0FD002018F084
:10373000CDFD002018F0CAFD002018F0C7FD0020C4
:1037400018F0C4FD002018F0C1FD002018F0BEFDE7
:10375000002018F0BBFD002018F0B8FD002018F084
:10376000B5FD002018F0B2FD002018F0AFFD0020DC
:1037700018F0ACFD002018F0A9FD002018F0A6FDFF
:10378000002018F0A3FD002018F0A0FD002018F084
:103790009DFD002018F09AFD002018F097FD0020F4
:1037A00018F094FD002018F091FD002018F08EFD17
:1037B000002018F08BFD002018F088FD002018F084
:1037C00085FD002018F082FD002018F07FFD00200C
:1037D00018F07CFD002018F079FD002018F076FD2F
:1037E000002018F073FD002018F070FD002018F084
:1037F0006DFD002018F06AFD002018F067FD002024
:1038000018F064FD002018F061FD002018F05EFD46
:10381000002018F05BFD002018F058FD002018F083
:1038200055FD002018F052FD002018F04FFD00203B
:1038300018F04CFD002018F049FD002018F046FD5E
:10384000002018F043FD002018F040FD002018F083
:103850003DFD002018F03AFD002018F037FD002053
:1038600018F034FD002018F031FD002018F02EFD76
:10387000002018F02BFD002018F028FD002018F083
:1038800025FD002018F022FD002018F01FFD00206B
:1038900018F01CFD002018F019FD002018F016FD8E
:1038A000002018F013FD002018F010FD002018F083
:1038B0000DFD002018F00AFD002018F007FD002083
:1038C00018F004FD002018F001FD002018F0FEFCA7
:1038D000002018F0FBFC002018F0F8FC002018F085
:1038E000F5FC002018F0F2FC002018F0EFFC00209E
:1038F00018F0ECFC002018F0E9FC002018F0E6FCC1
:10390000002018F0E3FC002018F0E0FC002018F084
:10391000DDFC002018F0DAFC002018F0D7FC0020B5
:1039200018F0D4FC002018F0D1FC002018F0CEFCD8
:10393000002018F0CBFC002018F0C8FC002018F084
:10394000C5FC002018F0C2FC002018F0BFFC0020CD
:1039500018F0BCFC002018F0B9FC002018F0B6FCF0
:10396000002018F0B3FC002018F0B0FC002018F084
:10397000ADFC002018F0AAFC002018F0A7FC0020E5
:1039800018F0A4FC002018F0A1FC002018F09EFC08
:10399000002018F09BFC002018F098FC002018F084
:1039A00095FC002018F092FC002018F08FFC0020FD
:1039B00018F08CFC002018F089FC002018F086FC20
:1039C000002018F083FC002018F080FC002018F084
:1039D0007DFC002018F07AFC002018F077FC002015
:1039E00018F074FC002018F071FC002018F06EFC38
:1039F000002018F06BFC002018F068FC002018F084
:103A000065FC002018F062FC002018F05FFC00202C
:103A100018F05CFC002018F059FC002018F056FC4F
:103A2000002018F053FC002018F050FC002018F083
:103A30004DFC002018F04AFC002018F047FC002044
:103A400018F044FC002018F041FC002018F03EFC67
:103A5000002018F03BFC002018F038FC002018F083
:103A600035FC002018F032FC002018F02FFC00205C
:103A700018F02CFC002018F029FC002018F026FC7F
:103A8000002018F023FC002018F020FC002018F083
:103A90001DFC002018F01AFC002018F017FC002074
:103AA00018F014FC002018F011FC002018F00EFC97
:103AB000002018F00BFC002018F008FC002018F083
:103AC00005FC002018F002FC002018F0FFFB00208D
:103AD00018F0FCFB002018F0F9FB002018F0F6FBB2
:103AE000002018F0F3FB002018F0F0FB002018F085
:103AF000EDFB002018F0EAFB002018F0E7FB0020A7
:103B000018F0E4FB002018F0E1FB002018F0DEFBC9
:103B1000002018F0DBFB002018F0D8FB002018F084
:103B2000D5FB002018F0D2FB002018F0CFFB0020BE
:103B300018F0CCFB002018F0C9FB002018F0C6FBE1
:103B4000002018F0C3FB002018F0C0FB002018F084
:103B5000BDFB002018F0BAFB002018F0B7FB0020D6
:103B600018F0B4FB002018F0B1FB002018F0AEFBF9
:103B7000002018F0ABFB002018F0A8FB002018F084
:103B8000A5FB002018F0A2FB002018F09FFB0020EE
:103B900018F09CFB002018F099FB002018F096FB11
:103BA000002018F093FB002018F090FB002018F084
:103BB0008DFB002018F08AFB002018F087FB002006
:103BC00018F084FB002018F081FB002018F07EFB29
:103BD000002018F07BFB002018F078FB002018F084
:103BE00075FB002018F072FB002018F06FFB00201E
:103BF00018F06CFB002018F069FB002018F066FB41
:103C0000002018F063FB002018F060FB002018F083
:103C10005DFB002018F05AFB002018F057FB002035
:103C200018F054FB002018F051FB002018F04EFB58
:103C3000002018F04BFB002018F048FB002018F083
:103C400045FB002018F042FB002018F03FFB00204D
:103C500018F03CFB002018F039FB002018F036FB70
:103C6000002018F033FB002018F030FB002018F083
:103C70002DFB002018F02AFB002018F027FB002065
:103C800018F024FB002018F021FB002018F01EFB88
:103C9000002018F01BFB002018F018FB002018F083
:103CA00015FB002018F012FB002018F00FFB00207D
:103CB00018F00CFB002018F009FB002018F006FBA0
:103CC000002018F003FB002018F000FB002018F083
:103CD000FDFA002018F0FAFA002018F0F7FA002098
:103CE00018F0F4FA002018F0F1FA002018F0EEFABB
:103CF000002018F0EBFA002018F0E8FA002018F085
:103D0000E5FA002018F0E2FA002018F0DFFA0020AF
:103D100018F0DCFA002018F0D9FA002018F0D6FAD2
:103D2000002018F0D3FA002018F0D0FA002018F084
:103D3000CDFA002018F0CAFA002018F0C7FA0020C7
:103D400018F0C4FA002018F0C1FA002018F0BEFAEA
:103D5000002018F0BBFA002018F0B8FA002018F084
:103D6000B5FA002018F0B2FA002018F0AFFA0020DF
:103D700018F0ACFA002018F0A9FA002018F0A6FA02
:103D8000002018F0A3FA002018F0A0FA002018F084
:103D90009DFA002018F09AFA002018F097FA0020F7
:103DA00018F094FA002018F091FA002018F08EFA1A
:103DB000002018F08BFA002018F088FA002018F084
:103DC00085FA002018F082FA002018F07FFA00200F
:103DD00018F07CFA002018F079FA002018F076FA32
:103DE000002018F073FA002018F070FA002018F084
:103DF0006DFA002018F06AFA002018F067FA002027
:103E000018F064FA002018F061FA002018F05EFA49
:103E1000002018F05BFA002018F058FA002018F083
:103E200055FA002018F052FA002018F04FFA00203E
:103E300018F04CFA002018F049FA002018F046FA61
:103E4000002018F043FA002018F040FA002018F083
:103E50003DFA002018F03AFA002018F037FA002056
:103E600018F034FA002018F031FA002018F02EFA79
:103E7000002018F02BFA002018F028FA002018F083
:103E800025FA002018F022FA002018F01FFA00206E
:103E900018F01CFA002018F019FA002018F016FA91
:103EA000002018F013FA002018F010FA002018F083
:103EB0000DFA002018F00AFA002018F007FA002086
:103EC00018F004FA002018F001FA002018F0FEF9AA
:103ED000002018F0FBF9002018F0F8F9002018F085
:103EE000F5F9002018F0F2F9002018F0EFF90020A1
:103EF00018F0ECF9002018F0E9F9002018F0E6F9C4
:103F0000002018F0E3F9002018F0E0F9002018F084
:103F1000DDF9002018F0DAF9002018F0D7F90020B8
:103F200018F0D4F9002018F0D1F9002018F0CEF9DB
:103F3000002018F0CBF9002018F0C8F9002018F084
:103F4000C5F9002018F0C2F9002018F0BFF90020D0
:103F500018F0BCF9002018F0B9F9002018F0B6F9F3
:103F6000002018F0B3F9002018F0B0F9002018F084
:103F7000ADF9002018F0AAF9002018F0A7F90020E8
:103F800018F0A4F9002018F0A1F9002018F09EF90B
:103F9000002018F09BF9002018F098F9002018F084
:103FA00095F9002018F092F9002018F08FF9002000
:103FB00018F08CF9002018F089F9002018F086F923
:103FC000002018F083F9002018F080F9002018F084
:103FD0007DF9002018F07AF9002018F077F9002018
:103FE00018F074F9002018F071F9002018F06EF93B
:103FF000002018F06BF9002018F068F9002018F084
:1040000065F9002018F062F9002018F05FF900202F
:1040100018F05CF9002018F059F9002018F056F952
:10402000002018F053F9002018F050F9002018F083
:104030004DF9002018F04AF9002018F047F9002047
:1040400018F044F9002018F041F9002018F03EF96A
:10405000002018F03BF9002018F038F9002018F083
:1040600035F9002018F032F9002018F02FF900205F
:1040700018F02CF9002018F029F9002018F026F982
:10408000002018F023F9002018F020F9002018F083
:104090001DF9002018F01AF9002018F017F9002077
:1040A00018F014F9002018F011F9002018F00EF99A
:1040B000002018F00BF9002018F008F9002018F083
:1040C00005F9002018F002F9002018F0FFF8002090
:1040D00018F0FCF8002018F0F9F8002018F0F6F8B5
:1040E000002018F0F3F8002018F0F0F8002018F085
:1040F000EDF8002018F0EAF8002018F0E7F80020AA
:1041000018F0E4F8002018F0E1F8002018F0DEF8CC
:10411000002018F0DBF8002018F0D8F8002018F084
:10412000D5F8002018F0D2F8002018F0CFF80020C1
:1041300018F0CCF8002018F0C9F8002018F0C6F8E4
:10414000002018F0C3F8002018F0C0F8002018F084
:10415000BDF8002018F0BAF8002018F0B7F80020D9
:1041600018F0B4F8002018F0B1F8002018F0AEF8FC
:10417000002018F0ABF8002018F0A8F8002018F084
:10418000A5F8002018F0A2F8002018F09FF80020F1
:1041900018F09CF8002018F099F8002018F096F814
:1041A000002018F093F8002018F090F8002018F084
:1041B0008DF8002018F08AF8002018F087F8002009
:1041C00018F084F8002018F081F8002018F07EF82C
:1041D000002018F07BF8002018F078F8002018F084
:1041E00075F8002018F072F8002018F06FF8002021
:1041F00018F06CF8002018F069F8002018F066F844
:10420000002018F063F8002018F060F8002018F083
:104210005DF8002018F05AF8002018F057F8002038
:1042200018F054F8002018F051F8002018F04EF85B
:10423000002018F04BF8002018F048F8002018F083
:1042400045F8002018F042F8002018F03FF8002050
:1042500018F03CF8002018F039F8002018F036F873
:10426000002018F033F8002018F030F8002018F083
:104270002DF8002018F02AF8002018F027F8002068
:1042800018F024F8002018F021F8002018F01EF88B
:10429000002018F01BF8002018F018F8002018F083
:1042A00015F8002018F012F8002018F00FF8002080
:1042B00018F00CF8002018F009F8002018F006F8A3
:1042C000002018F003F8002018F000F8002017F084
:1042D000FDFF002017F0FAFF002017F0F7FF002085
:1042E00017F0F4FF002017F0F1FF002017F0EEFFA9
:1042F000002017F0EBFF002017F0E8FF002017F078
:10430000E5FF002017F0E2FF002017F0DFFF00209C
:1043100017F0DCFF002017F0D9FF002017F0D6FFC0
:10432000002017F0D3FF002017F0D0FF002017F077
:10433000CDFF002017F0CAFF002017F0C7FF0020B4
:1043400017F0C4FF002017F0C1FF002017F0BEFFD8
:10435000002017F0BBFF002017F0B8FF002017F077
:10436000B5FF002017F0B2FF002017F0AFFF0020CC
:1043700017F0ACFF002017F0A9FF002017F0A6FFF0
:10438000002017F0A3FF002017F0A0FF002017F077
:104390009DFF002017F09AFF002017F097FF0020E4
:1043A00017F094FF002017F091FF002017F08EFF08
:1043B000002017F08BFF002017F088FF002017F077
:1043C00085FF002017F082FF002017F07FFF0020FC
:1043D00017F07CFF002017F079FF002017F076FF20
:1043E000002017F073FF002017F070FF002017F077
:1043F0006DFF002017F06AFF002017F067FF002014
:1044000017F064FF002017F061FF002017F05EFF37
:10441000002017F05BFF002017F058FF002017F076
:1044200055FF002017F052FF002017F04FFF00202B
:1044300017F04CFF002017F049FF002017F046FF4F
:10444000002017F043FF002017F040FF002017F076
:104450003DFF002017F03AFF002017F037FF002043
:1044600017F034FF002017F031FF002017F02EFF67
:10447000002017F02BFF002017F028FF002017F076
:1044800025FF002017F022FF002017F01FFF00205B
:1044900017F01CFF002017F019FF002017F016FF7F
:1044A000002017F013FF002017F010FF002017F076
:1044B0000DFF002017F00AFF002017F007FF002073
:1044C00017F004FF002017F001FF002017F0FEFE98
:1044D000002017F0FBFE002017F0F8FE002017F078
:1044E000F5FE002017F0F2FE002017F0EFFE00208E
:1044F00017F0ECFE002017F0E9FE002017F0E6FEB2
:10450000002017F0E3FE002017F0E0FE002017F077
:10451000DDFE002017F0DAFE002017F0D7FE0020A5
:1045200017F0D4FE002017F0D1FE002017F0CEFEC9
:10453000002017F0CBFE002017F0C8FE002017F077
:10454000C5FE002017F0C2FE002017F0BFFE0020BD
:1045500017F0BCFE002017F0B9FE002017F0B6FEE1
:10456000002017F0B3FE002017F0B0FE002017F077
:10457000ADFE002017F0AAFE002017F0A7FE0020D5
:1045800017F0A4FE002017F0A1FE002017F09EFEF9
:10459000002017F09BFE002017F098FE002017F077
:1045A00095FE002017F092FE002017F08FFE0020ED
:1045B00017F08CFE002017F089FE002017F086FE11
:1045C000002017F083FE002017F080FE002017F077
:1045D0007DFE002017F07AFE002017F077FE002005
:1045E00017F074FE002017F071FE002017F06EFE29
:1045F000002017F06BFE002017F068FE002017F077
:1046000065FE002017F062FE002017F05FFE00201C
:1046100017F05CFE002017F059FE002017F056FE40
:10462000002017F053FE002017F050FE002017F076
:104630004DFE002017F04AFE002017F047FE002034
:1046400017F044FE002017F041FE002017F03EFE58
:10465000002017F03BFE002017F038FE002017F076
:1046600035FE002017F032FE002017F02FFE00204C
:1046700017F02CFE002017F029FE002017F026FE70
:10468000002017F023FE002017F020FE002017F076
:104690001DFE002017F01AFE002017F017FE002064
:1046A00017F014FE002017F011FE002017F00EFE88
:1046B000002017F00BFE002017F008FE002017F076
:1046C00005FE002017F002FE002017F0FFFD00207D
:1046D00017F0FCFD002017F0F9FD002017F0F6FDA3
:1046E000002017F0F3FD002017F0F0FD002017F078
:1046F000EDFD002017F0EAFD002017F0E7FD002097
:1047000017F0E4FD002017F0E1FD002017F0DEFDBA
:10471000002017F0DBFD002017F0D8FD002017F077
:10472000D5FD002017F0D2FD002017F0CFFD0020AE
:1047300017F0CCFD002017F0C9FD002017F0C6FDD2
:10474000002017F0C3FD002017F0C0FD002017F077
:10475000BDFD002017F0BAFD002017F0B7FD0020C6
:1047600017F0B4FD002017F0B1FD002017F0AEFDEA
:10477000002017F0ABFD002017F0A8FD002017F077
:10478000A5FD002017F0A2FD002017F09FFD0020DE
:1047900017F09CFD002017F099FD002017F096FD02
:1047A000002017F093FD002017F090FD002017F077
:1047B0008DFD002017F08AFD002017F087FD0020F6
:1047C00017F084FD002017F081FD002017F07EFD1A
:1047D000002017F07BFD002017F078FD002017F077
:1047E00075FD002017F072FD002017F06FFD00200E
:1047F00017F06CFD002017F069FD002017F066FD32
:10480000002017F063FD002017F060FD002017F076
:104810005DFD002017F05AFD002017F057FD002025
:1048200017F054FD002017F051FD002017F04EFD49
:10483000002017F04BFD002017F048FD002017F076
:1048400045FD002017F042FD002017F03FFD00203D
:1048500017F03CFD002017F039FD002017F036FD61
:10486000002017F033FD002017F030FD002017F076
:104870002DFD002017F02AFD002017F027FD002055
:1048800017F024FD002017F021FD002017F01EFD79
:10489000002017F01BFD002017F018FD002017F076
:1048A00015FD002017F012FD002017F00FFD00206D
:1048B00017F00CFD002017F009FD002017F006FD91
:1048C000002017F003FD002017F000FD002017F076
:1048D000FDFC002017F0FAFC002017F0F7FC002088
:1048E00017F0F4FC002017F0F1FC002017F0EEFCAC
:1048F000002017F0EBFC002017F0E8FC002017F078
:10490000E5FC002017F0E2FC002017F0DFFC00209F
:1049100017F0DCFC002017F0D9FC002017F0D6FCC3
:10492000002017F0D3FC002017F0D0FC002017F077
:10493000CDFC002017F0CAFC002017F0C7FC0020B7
:1049400017F0C4FC002017F0C1FC002017F0BEFCDB
:10495000002017F0BBFC002017F0B8FC002017F077
:10496000B5FC002017F0B2FC002017F0AFFC0020CF
:1049700017F0ACFC002017F0A9FC002017F0A6FCF3
:10498000002017F0A3FC002017F0A0FC002017F077
:104990009DFC002017F09AFC002017F097FC0020E7
:1049A00017F094FC002017F091FC002017F08EFC0B
:1049B000002017F08BFC002017F088FC002017F077
:1049C00085FC002017F082FC002017F07FFC0020FF
:1049D00017F07CFC002017F079FC002017F076FC23
:1049E000002017F073FC002017F070FC002017F077
:1049F0006DFC002017F06AFC002017F067FC002017
:104A000017F064FC002017F061FC002017F05EFC3A
:104A1000002017F05BFC002017F058FC002017F076
:104A200055FC002017F052FC002017F04FFC00202E
:104A300017F04CFC002017F049FC002017F046FC52
:104A4000002017F043FC002017F040FC002017F076
:104A50003DFC002017F03AFC002017F037FC002046
:104A600017F034FC002017F031FC002017F02EFC6A
:104A7000002017F02BFC002017F028FC002017F076
:104A800025FC002017F022FC002017F01FFC00205E
:104A900017F01CFC002017F019FC002017F016FC82
:104AA000002017F013FC002017F010FC002017F076
:104AB0000DFC002017F00AFC002017F007FC002076
:104AC00017F004FC002017F001FC002017F0FEFB9B
:104AD000002017F0FBFB002017F0F8FB002017F078
:104AE000F5FB002017F0F2FB002017F0EFFB002091
:104AF00017F0ECFB002017F0E9FB002017F0E6FBB5
:104B0000002017F0E3FB002017F0E0FB002017F077
:104B1000DDFB002017F0DAFB002017F0D7FB0020A8
:104B200017F0D4FB002017F0D1FB002017F0CEFBCC
:104B3000002017F0CBFB002017F0C8FB002017F077
:104B4000C5FB002017F0C2FB002017F0BFFB0020C0
:104B500017F0BCFB002017F0B9FB002017F0B6FBE4
:104B6000002017F0B3FB002017F0B0FB002017F077
:104B7000ADFB002017F0AAFB002017F0A7FB0020D8
:104B800017F0A4FB002017F0A1FB002017F09EFBFC
:104B9000002017F09BFB002017F098FB002017F077
:104BA00095FB002017F092FB002017F08FFB0020F0
:104BB00017F08CFB002017F089FB002017F086FB14
:104BC000002017F083FB002017F080FB002017F077
:104BD0007DFB002017F07AFB002017F077FB002008
:104BE00017F074FB002017F071FB002017F06EFB2C
:104BF000002017F06BFB002017F068FB002017F077
:104C000065FB002017F062FB002017F05FFB00201F
:104C100017F05CFB002017F059FB002017F056FB43
:104C2000002017F053FB002017F050FB002017F076
:104C30004DFB002017F04AFB002017F047FB002037
:104C400017F044FB002017F041FB002017F03EFB5B
:104C5000002017F03BFB002017F038FB002017F076
:104C600035FB002017F032FB002017F02FFB00204F
:104C700017F02CFB002017F029FB002017F026FB73
:104C8000002017F023FB002017F020FB002017F076
:104C90001DFB002017F01AFB002017F017FB002067
:104CA00017F014FB002017F011FB002017F00EFB8B
:104CB000002017F00BFB002017F008FB002017F076
:104CC00005FB002017F002FB002017F0FFFA002080
:104CD00017F0FCFA002017F0F9FA002017F0F6FAA6
:104CE000002017F0F3FA002017F0F0FA002017F078
:104CF000EDFA002017F0EAFA002017F0E7FA00209A
:104D000017F0E4FA002017F0E1FA002017F0DEFABD
:104D1000002017F0DBFA002017F0D8FA002017F077
:104D2000D5FA002017F0D2FA002017F0CFFA0020B1
:104D300017F0CCFA002017F0C9FA002017F0C6FAD5
:104D4000002017F0C3FA002017F0C0FA002017F077
:104D5000BDFA002017F0BAFA002017F0B7FA0020C9
:104D600017F0B4FA002017F0B1FA002017F0AEFAED
:104D7000002017F0ABFA002017F0A8FA002017F077
:104D8000A5FA002017F0A2FA002017F09FFA0020E1
:104D900017F09CFA002017F099FA002017F096FA05
:104DA000002017F093FA002017F090FA002017F077
:104DB0008DFA002017F08AFA002017F087FA0020F9
:104DC00017F084FA002017F081FA002017F07EFA1D
:104DD000002017F07BFA002017F078FA002017F077
:104DE00075FA002017F072FA002017F06FFA002011
:104DF00017F06CFA002017F069FA002017F066FA35
:104E0000002017F063FA002017F060FA002017F076
:104E10005DFA002017F05AFA002017F057FA002028
:104E200017F054FA002017F051FA002017F04EFA4C
:104E3000002017F04BFA002017F048FA002017F076
:104E400045FA002017F042FA002017F03FFA002040
:104E500017F03CFA002017F039FA002017F036FA64
:104E6000002017F033FA002017F030FA002017F076
:104E70002DFA002017F02AFA002017F027FA002058
:104E800017F024FA002017F021FA002017F01EFA7C
:104E9000002017F01BFA002017F018FA002017F076
:104EA00015FA002017F012FA002017F00FFA002070
:104EB00017F00CFA002017F009FA002017F006FA94
:104EC000002017F003FA002017F000FA002017F076
:104ED000FDF9002017F0FAF9002017F0F7F900208B
:104EE00017F0F4F9002017F0F1F9002017F0EEF9AF
:104EF000002017F0EBF9002017F0E8F9002017F078
:104F0000E5F9002017F0E2F9002017F0DFF90020A2
:104F100017F0DCF9002017F0D9F9002017F0D6F9C6
:104F2000002017F0D3F9002017F0D0F9002017F077
:104F3000CDF9002017F0CAF9002017F0C7F90020BA
:104F400017F0C4F9002017F0C1F9002017F0BEF9DE
:104F5000002017F0BBF9002017F0B8F9002017F077
:104F6000B5F9002017F0B2F9002017F0AFF90020D2
:104F700017F0ACF9002017F0A9F9002017F0A6F9F6
:104F8000002017F0A3F9002017F0A0F9002017F077
:104F90009DF9002017F09AF9002017F097F90020EA
:104FA00017F094F9002017F091F9002017F08EF90E
:104FB000002017F08BF9002017F088F9002017F077
:104FC00085F9002017F082F9002017F07FF9002002
:104FD00017F07CF9002017F079F9002017F076F926
:104FE000002017F073F9002017F070F9002017F077
:104FF0006DF9002017F06AF9002017F067F900201A
:1050000017F064F9002017F061F9002017F05EF93D
:10501000002017F05BF9002017F058F9002017F076
:1050200055F9002017F052F9002017F04FF9002031
:1050300017F04CF9002017F049F9002017F046F955
:10504000002017F043F9002017F040F9002017F076
:105050003DF9002017F03AF9002017F037F9002049
:1050600017F034F9002017F031F9002017F02EF96D
:10507000002017F02BF9002017F028F9002017F076
:1050800025F9002017F022F9002017F01FF9002061
:1050900017F01CF9002017F019F9002017F016F985
:1050A000002017F013F9002017F010F9002017F076
:1050B0000DF9002017F00AF9002017F007F9002079
:1050C00017F004F9002017F001F9002017F0FEF89E
:1050D000002017F0FBF8002017F0F8F8002017F078
:1050E000F5F8002017F0F2F8002017F0EFF8002094
:1050F00017F0ECF8002017F0E9F8002017F0E6F8B8
:10510000002017F0E3F8002017F0E0F8002017F077
:10511000DDF8002017F0DAF8002017F0D7F80020AB
:1051200017F0D4F8002017F0D1F8002017F0CEF8CF
:10513000002017F0CBF8002017F0C8F8002017F077
:10514000C5F8002017F0C2F8002017F0BFF80020C3
:1051500017F0BCF8002017F0B9F8002017F0B6F8E7
:10516000002017F0B3F8002017F0B0F8002017F077
:10517000ADF8002017F0AAF8002017F0A7F80020DB
:1051800017F0A4F8002017F0A1F8002017F09EF8FF
:10519000002017F09BF8002017F098F8002017F077
:1051A00095F8002017F092F8002017F08FF80020F3
:1051B00017F08CF8002017F089F8002017F086F817
:1051C000002017F083F8002017F080F8002017F077
:1051D0007DF8002017F07AF8002017F077F800200B
:1051E00017F074F8002017F071F8002017F06EF82F
:1051F000002017F06BF8002017F068F8002017F077
:1052000065F8002017F062F8002017F05FF8002022
:1052100017F05CF8002017F059F8002017F056F846
:10522000002017F053F8002017F050F8002017F076
:105230004DF8002017F04AF8002017F047F800203A
:1052400017F044F8002017F041F8002017F03EF85E
:10525000002017F03BF8002017F038F8002017F076
:1052600035F8002017F032F8002017F02FF8002052
:1052700017F02CF8002017F029F8002017F026F876
:10528000002017F023F8002017F020F8002017F076
:105290001DF8002017F01AF8002017F017F800206A
:1052A00017F014F8002017F011F8002017F00EF88E
:1052B000002017F00BF8002017F008F8002017F076
:1052C00005F8002017F002F8002016F0FFFF00207C
:1052D00016F0FCFF002016F0F9FF002016F0F6FF94
:1052E000002016F0F3FF002016F0F0FF002016F06B
:1052F000EDFF002016F0EAFF002016F0E7FF002087
:1053000016F0E4FF002016F0E1FF002016F0DEFFAB
:10531000002016F0DBFF002016F0D8FF002016F06A
:10532000D5FF002016F0D2FF002016F0CFFF00209E
:1053300016F0CCFF002016F0C9FF002016F0C6FFC3
:10534000002016F0C3FF002016F0C0FF002016F06A
:10535000BDFF002016F0BAFF002016F0B7FF0020B6
:1053600016F0B4FF002016F0B1FF002016F0AEFFDB
:10537000002016F0ABFF002016F0A8FF002016F06A
:10538000A5FF002016F0A2FF002016F09FFF0020CE
:1053900016F09CFF002016F099FF002016F096FFF3
:1053A000002016F093FF002016F090FF002016F06A
:1053B0008DFF002016F08AFF002016F087FF0020E6
:1053C00016F084FF002016F081FF002016F07EFF0B
:1053D000002016F07BFF002016F078FF002016F06A
:1053E00075FF002016F072FF002016F06FFF0020FE
:1053F00016F06CFF002016F069FF002016F066FF23
:10540000002016F063FF002016F060FF002016F069
:105410005DFF002016F05AFF002016F057FF002015
:1054200016F054FF002016F051FF002016F04EFF3A
:10543000002016F04BFF002016F048FF002016F069
:1054400045FF002016F042FF002016F03FFF00202D
:1054500016F03CFF002016F039FF002016F036FF52
:10546000002016F033FF002016F030FF002016F069
:105470002DFF002016F02AFF002016F027FF002045
:1054800016F024FF002016F021FF002016F01EFF6A
:10549000002016F01BFF002016F018FF002016F069
:1054A00015FF002016F012FF002016F00FFF00205D
:1054B00016F00CFF002016F009FF002016F006FF82
:1054C000002016F003FF002016F000FF002016F069
:1054D000FDFE002016F0FAFE002016F0F7FE002078
:1054E00016F0F4FE002016F0F1FE002016F0EEFE9D
:1054F000002016F0EBFE002016F0E8FE002016F06B
:10550000E5FE002016F0E2FE002016F0DFFE00208F
:1055100016F0DCFE002016F0D9FE002016F0D6FEB4
:10552000002016F0D3FE002016F0D0FE002016F06A
:10553000CDFE002016F0CAFE002016F0C7FE0020A7
:1055400016F0C4FE002016F0C1FE002016F0BEFECC
:10555000002016F0BBFE002016F0B8FE002016F06A
:10556000B5FE002016F0B2FE002016F0AFFE0020BF
:1055700016F0ACFE002016F0A9FE002016F0A6FEE4
:10558000002016F0A3FE002016F0A0FE002016F06A
:105590009DFE002016F09AFE002016F097FE0020D7
:1055A00016F094FE002016F091FE002016F08EFEFC
:1055B000002016F08BFE002016F088FE002016F06A
:1055C00085FE002016F082FE002016F07FFE0020EF
:1055D00016F07CFE002016F079FE002016F076FE14
:1055E000002016F073FE002016F070FE002016F06A
:1055F0006DFE002016F06AFE002016F067FE002007
:1056000016F064FE002016F061FE002016F05EFE2B
:10561000002016F05BFE002016F058FE002016F069
:1056200055FE002016F052FE002016F04FFE00201E
:1056300016F04CFE002016F049FE002016F046FE43
:10564000002016F043FE002016F040FE002016F069
:105650003DFE002016F03AFE002016F037FE002036
:1056600016F034FE002016F031FE002016F02EFE5B
:10567000002016F02BFE002016F028FE002016F069
:1056800025FE002016F022FE002016F01FFE00204E
:1056900016F01CFE002016F019FE002016F016FE73
:1056A000002016F013FE002016F010FE002016F069
:1056B0000DFE002016F00AFE002016F007FE002066
:1056C00016F004FE002016F001FE002016F0FEFD8C
:1056D000002016F0FBFD002016F0F8FD002016F06B
:1056E000F5FD002016F0F2FD002016F0EFFD002081
:1056F00016F0ECFD002016F0E9FD002016F0E6FDA6
:10570000002016F0E3FD002016F0E0FD002016F06A
:10571000DDFD002016F0DAFD002016F0D7FD002098
:1057200016F0D4FD002016F0D1FD002016F0CEFDBD
:10573000002016F0CBFD002016F0C8FD002016F06A
:10574000C5FD002016F0C2FD002016F0BFFD0020B0
:1057500016F0BCFD002016F0B9FD002016F0B6FDD5
:10576000002016F0B3FD002016F0B0FD002016F06A
:10577000ADFD002016F0AAFD002016F0A7FD0020C8
:1057800016F0A4FD002016F0A1FD002016F09EFDED
:10579000002016F09BFD002016F098FD002016F06A
:1057A00095FD002016F092FD002016F08FFD0020E0
:1057B00016F08CFD002016F089FD002016F086FD05
:1057C000002016F083FD002016F080FD002016F06A
:1057D0007DFD002016F07AFD002016F077FD0020F8
:1057E00016F074FD002016F071FD002016F06EFD1D
:1057F000002016F06BFD002016F068FD002016F06A
:1058000065FD002016F062FD002016F05FFD00200F
:1058100016F05CFD002016F059FD002016F056FD34
:10582000002016F053FD002016F050FD002016F069
:105830004DFD002016F04AFD002016F047FD002027
:1058400016F044FD002016F041FD002016F03EFD4C
:10585000002016F03BFD002016F038FD002016F069
:1058600035FD002016F032FD002016F02FFD00203F
:1058700016F02CFD002016F029FD002016F026FD64
:10588000002016F023FD002016F020FD002016F069
:105890001DFD002016F01AFD002016F017FD002057
:1058A00016F014FD002016F011FD002016F00EFD7C
:1058B000002016F00BFD002016F008FD002016F069
:1058C00005FD002016F002FD002016F0FFFC002070
:1058D00016F0FCFC002016F0F9FC002016F0F6FC97
:1058E000002016F0F3FC002016F0F0FC002016F06B
:1058F000EDFC002016F0EAFC002016F0E7FC00208A
:1059000016F0E4FC002016F0E1FC002016F0DEFCAE
:10591000002016F0DBFC002016F0D8FC002016F06A
:10592000D5FC002016F0D2FC002016F0CFFC0020A1
:1059300016F0CCFC002016F0C9FC002016F0C6FCC6
:10594000002016F0C3FC002016F0C0FC002016F06A
:10595000BDFC002016F0BAFC002016F0B7FC0020B9
:1059600016F0B4FC002016F0B1FC002016F0AEFCDE
:10597000002016F0ABFC002016F0A8FC002016F06A
:10598000A5FC002016F0A2FC002016F09FFC0020D1
:1059900016F09CFC002016F099FC002016F096FCF6
:1059A000002016F093FC002016F090FC002016F06A
:1059B0008DFC002016F08AFC002016F087FC0020E9
:1059C00016F084FC002016F081FC002016F07EFC0E
:1059D000002016F07BFC002016F078FC002016F06A
:1059E00075FC002016F072FC002016F06FFC002001
:1059F00016F06CFC002016F069FC002016F066FC26
:105A0000002016F063FC002016F060FC002016F069
:105A10005DFC002016F05AFC002016F057FC002018
:105A200016F054FC002016F051FC002016F04EFC3D
:105A3000002016F04BFC002016F048FC002016F069
:105A400045FC002016F042FC002016F03FFC002030
:105A500016F03CFC002016F039FC002016F036FC55
:105A6000002016F033FC002016F030FC002016F069
:105A70002DFC002016F02AFC002016F027FC002048
:105A800016F024FC002016F021FC002016F01EFC6D
:105A9000002016F01BFC002016F018FC002016F069
:105AA00015FC002016F012FC002016F00FFC002060
:105AB00016F00CFC002016F009FC002016F006FC85
:105AC000002016F003FC002016F000FC002016F069
:105AD000FDFB002016F0FAFB002016F0F7FB00207B
