:020000041000EA
:1000000000B5324B212058609868022188439860DF
:10001000D860186158612E4B002199600221596106
:100020000121F02299502B49196001219960352056
:1000300000F044F80222904214D00621196600F024
:1000400034F8196E01211966002018661A6600F04E
:100050002CF8196E196E196E052000F02FF8012189
:100060000842F9D1002199601B49196000215960AB
:100070001A491B48016001219960EB211966A021F2
:10008000196600F012F800219960164914480160C1
:100090000121996001BC002800D000471248134993
:1000A000086003C880F30888084703B5996A0420EC
:1000B0000142FBD001200142F8D103BD02B5186610
:1000C0001866FFF7F2FF186E186E02BD00000240BE
:1000D000000000180000070000035F00212200005C
:1000E000F4000018222000A00001001008ED00E03C
:1000F00000000000000000000000000074B24E7A12
:1001000000200420F7010010C3010010C5010010F9
:10011000C1010010C1010010C1010010C101001097
:10012000C1010010C1010010C1010010C701001081
:10013000C1010010C1010010C9010010CB01001065
:10014000CD010010CD010010CD010010CD01001037
:10015000CD010010CD010010CD010010CD01001027
:10016000CD010010CD010010CD010010CD01001017
:10017000CD010010CD010010CD010010CD01001007
:10018000CD010010CD010010CD010010CD010010F7
:10019000CD010010CD010010CD010010CD010010E7
:1001A000CD010010CD010010CD010010CD010010D7
:1001B000CD010010CD010010CD010010CD010010C7
:1001C00000BE00BE00BE00BE00BE00BE00F04BF888
:1001D000103800BEF2EB8871E01902100C1A021000
:1001E0003402001090A31AE700202149086006C8D5
:1001F00081F3088810471F48006800282FD10DA4FC
:100200000ECC002902D000F012F8F9E71A491B4A77
:10021000002000E001C19142FCD1194988471949E9
:1002200088471949884700BEFDE701C901C29A42C3
:10023000FBD370470C1A0210C00000206405002098
:10024000B01E02100000042000000420B01E0210A6
:1002500000100420001004200000000070470B482C
:100260001BF08CFF0047EFF30580C0B27047000021
:1002700008ED00E0000000D068050020D813002041
:1002800079AA0110998E011035AA01105756000065
:1002900006005250ABB3605390110210060052504A
:1002A000861C0302A0110210060052505422A29D87
:1002B000AC11021005005250DE65F468B01E021049
:1002C000F8B5C04610B5064C2378002B07D1054B76
:1002D000002B02D0044800E000BF0123237010BDB2
:1002E000700600200000000000010210044B10B551
:1002F000002B03D00349044800E000BF10BDC046F6
:1003000000000000740600200001021010B500F08B
:1003100033F916F0FBFC10BD10B582B00C00144B85
:10032000C3185A4253415B00124A9B5E8B4204D071
:100330006B46DA1D1470002115E06B46DA1D0D23A3
:10034000137000210029F3D183699B06FCD4137834
:10035000036001310132F5E783699B06FCD4137811
:100360000360013101320029F6D002B010BDC04651
:100370000080FCBFA013002030B583B00C00002328
:100380002DE06B46DA1D1570002106E083699B069F
:10039000FCD413780360013101320029F6D018E053
:1003A0006B46DA1D0D231370002106E083699B065E
:1003B000FCD413780360013101320029F6D01CE02F
:1003C00083699B06FCD41378036001310132002954
:1003D000F6D023780D3B5A425341DBB201342578E5
:1003E000002D0FD0002BCCD1074BC3185A425341DC
:1003F0005B00064A9B5EAB42D2D06B46DA1D15709D
:100400000021E4E703B030BD0080FCBFA013002052
:1004100010B519F0B3FE10BD30B583B00223022B26
:1004200008DD244A1368013313600A20FFF7F0FF48
:10043000002418E0022B01D00133F0E71E4AD0540B
:10044000FAE76B46DA1D0D2313700021002913D142
:100450001A4B9B699B06FBD41078184B186001312E
:100460000132F3E70134022C16DC134B1D5D144BF3
:1004700000229B5EAB42E4D06B46DA1D1570002172
:100480000029EFD10D4B9B699B06FBD410780B4BD9
:10049000186001310132F3E70A20FFF7B9FF0223A8
:1004A00003E0054A0021D1540133032BF9DD03B0E9
:1004B00030BDC0460411002040040020004003402D
:1004C000A013002030B583B0022302E0264AD154A5
:1004D0000133062B07DC022BF8D0C218033A14783C
:1004E000214AD454F4E7214A1368013313600A20E7
:1004F000FFF78EFF002411E06B46DA1D0D23137009
:100500000021002913D11A4B9B699B06FBD410785C
:10051000174B186001310132F3E70134062C16DC69
:10052000114B1D5D134B00229B5EAB42E4D06B462A
:10053000DA1D157000210029EFD10D4B9B699B0638
:10054000FBD410780A4B186001310132F3E70A201E
:10055000FFF75EFF022303E0034A0021D154013379
:10056000062BF9DD03B030BD4004002054110020FB
:1005700000400340A013002070B51CF0A7FE1C2013
:1005800018F0C4FCD024240680235B0563626361F9
:10059000192018F0BBFC8025AD04656265616420FC
:1005A000FFF736FFA5616420FFF732FF9626B601FC
:1005B00031003F481AF0FCF931003E481AF0F8F9D2
:1005C0000221002018F070FC0221012018F06CFCC0
:1005D0000221042018F068FC0221052018F064FCB8
:1005E0000E2018F093FC112018F090FC8022D2010C
:1005F000626280239B02636262616361192018F06A
:1006000085FC65620B2018F081FC80231B0163626E
:100610001A2018F07BFC8023DB0463620A2018F0A8
:1006200075FC8023DB0063621B2018F06FFC8023C5
:100630001B056362002201211B2018F04DFC0620DF
:1006400018F064FC4023636200220121062018F0A8
:1006500043FC162018F05AFC8023DB0363620F2052
:1006600018F054FC80231B026362132018F04EFC28
:1006700080231B03A36200220121132018F02CFC0D
:10068000142018F043FC80235B03A36201220021A5
:10069000142018F021FC152018F038FC80239B034F
:1006A000A36201220021152018F016FC70BDC0467F
:1006B00000400340008003400023244A1360244A82
:1006C0001360244A1360244A1360244A1360244AA6
:1006D0001360244A1360244A1360244A1360244A96
:1006E0001360244A232111704920507005389070FE
:1006F0001530D070137153719371D371137253729B
:100700009372D372137353739373D37313745374B9
:100710009374D374137553759375D3751376537699
:100720009376D376137753779377D37739381354F7
:1007300001301354013013545354013153540131D7
:10074000535401315354013153547047F00C00207D
:10075000C413002004110020A8060020A0060020D9
:10076000A40600209C060020AC060020740C00208B
:10077000780C0020200C0020012800D07047D023E6
:100780001B065B689B0204D4D0231B065B68DB025C
:100790001FD5D0231B065B689B0204D5D0231B0604
:1007A0005B68DB0217D5D0231B065B689B0204D471
:1007B000D0231B065B68DB02E0D4D0231B065B68FA
:1007C0009B02DBD5D0231B065B68DB02D6D503205A
:1007D000D4E70020D2E70220D0E7000030B583B094
:1007E000032846D0042800D18CE003B030BD6B460E
:1007F000DA1D1470002100291BD1464B9B699B0612
:10080000FBD41478434B1C6001310132F3E76B4693
:10081000DA1D0D231370002104E015783D4B1D6097
:1008200001310132002914D13A4B9B699B06FBD45C
:10083000F3E703780D3B5A425341DBB201300478B1
:10084000002C19D0002BD2D1334B02229B5EA34245
:10085000DDD06B46DA1D147000210029E9D12D4B43
:100860009B699B06FBD414782A4B1C600131013232
:10087000F3E700232948E2E7012019F07FFCB4E701
:100880006B46DA1D1470002100291BD1214B9B6996
:100890009B06FBD414781F4B1C6001310132F3E737
:1008A0006B46DA1D0D231370002104E01578194BF7
:1008B0001D6001310132002914D1164B9B699B0642
:1008C000FBD4F3E703780D3B5A425341DBB20130CE
:1008D0000478002C19D0002BD2D10F4B02229B5E42
:1008E000A342DDD06B46DA1D147000210029E9D146
:1008F000084B9B699B06FBD41478064B1C600131A6
:100900000132F3E700230648E2E7012019F036FC44
:100910006BE7C04600800340A013002000010210D6
:100920000801021010B500201CF0C4FC00201CF0CF
:10093000C1FC00201CF0BEFC00201CF0BBFC002011
:100940001CF0B8FC00201CF0B5FC00201CF0B2FC30
:1009500000201CF0AFFC00201CF0ACFC00201CF0C0
:10096000A9FC00201CF0A6FC00201CF0A3FC002029
:100970001CF0A0FC00201CF09DFC00201CF09AFC48
:1009800000201CF097FC00201CF094FC00201CF0C0
:1009900091FC00201CF08EFC00201CF08BFC002041
:1009A0001CF088FC00201CF085FC00201CF082FC60
:1009B00000201CF07FFC00201CF07CFC00201CF0C0
:1009C00079FC00201CF076FC00201CF073FC002059
:1009D0001CF070FC00201CF06DFC00201CF06AFC78
:1009E00000201CF067FC00201CF064FC00201CF0C0
:1009F00061FC00201CF05EFC00201CF05BFC002071
:100A00001CF058FC00201CF055FC00201CF052FC8F
:100A100000201CF04FFC00201CF04CFC00201CF0BF
:100A200049FC00201CF046FC00201CF043FC002088
:100A30001CF040FC00201CF03DFC00201CF03AFCA7
:100A400000201CF037FC00201CF034FC00201CF0BF
:100A500031FC00201CF02EFC00201CF02BFC0020A0
:100A60001CF028FC00201CF025FC00201CF022FCBF
:100A700000201CF01FFC00201CF01CFC00201CF0BF
:100A800019FC00201CF016FC00201CF013FC0020B8
:100A90001CF010FC00201CF00DFC00201CF00AFCD7
:100AA00000201CF007FC00201CF004FC00201CF0BF
:100AB00001FC00201CF0FEFB00201CF0FBFB0020D2
:100AC0001CF0F8FB00201CF0F5FB00201CF0F2FBF2
:100AD00000201CF0EFFB00201CF0ECFB00201CF0C1
:100AE000E9FB00201CF0E6FB00201CF0E3FB0020EB
:100AF0001CF0E0FB00201CF0DDFB00201CF0DAFB0A
:100B000000201CF0D7FB00201CF0D4FB00201CF0C0
:100B1000D1FB00201CF0CEFB00201CF0CBFB002002
:100B20001CF0C8FB00201CF0C5FB00201CF0C2FB21
:100B300000201CF0BFFB00201CF0BCFB00201CF0C0
:100B4000B9FB00201CF0B6FB00201CF0B3FB00201A
:100B50001CF0B0FB00201CF0ADFB00201CF0AAFB39
:100B600000201CF0A7FB00201CF0A4FB00201CF0C0
:100B7000A1FB00201CF09EFB00201CF09BFB002032
:100B80001CF098FB00201CF095FB00201CF092FB51
:100B900000201CF08FFB00201CF08CFB00201CF0C0
:100BA00089FB00201CF086FB00201CF083FB00204A
:100BB0001CF080FB00201CF07DFB00201CF07AFB69
:100BC00000201CF077FB00201CF074FB00201CF0C0
:100BD00071FB00201CF06EFB00201CF06BFB002062
:100BE0001CF068FB00201CF065FB00201CF062FB81
:100BF00000201CF05FFB00201CF05CFB00201CF0C0
:100C000059FB00201CF056FB00201CF053FB002079
:100C10001CF050FB00201CF04DFB00201CF04AFB98
:100C200000201CF047FB00201CF044FB00201CF0BF
:100C300041FB00201CF03EFB00201CF03BFB002091
:100C40001CF038FB00201CF035FB00201CF032FBB0
:100C500000201CF02FFB00201CF02CFB00201CF0BF
:100C600029FB00201CF026FB00201CF023FB0020A9
:100C70001CF020FB00201CF01DFB00201CF01AFBC8
:100C800000201CF017FB00201CF014FB00201CF0BF
:100C900011FB00201CF00EFB00201CF00BFB0020C1
:100CA0001CF008FB00201CF005FB00201CF002FBE0
:100CB00000201CF0FFFA00201CF0FCFA00201CF0C1
:100CC000F9FA00201CF0F6FA00201CF0F3FA0020DC
:100CD0001CF0F0FA00201CF0EDFA00201CF0EAFAFB
:100CE00000201CF0E7FA00201CF0E4FA00201CF0C1
:100CF000E1FA00201CF0DEFA00201CF0DBFA0020F4
:100D00001CF0D8FA00201CF0D5FA00201CF0D2FA12
:100D100000201CF0CFFA00201CF0CCFA00201CF0C0
:100D2000C9FA00201CF0C6FA00201CF0C3FA00200B
:100D30001CF0C0FA00201CF0BDFA00201CF0BAFA2A
:100D400000201CF0B7FA00201CF0B4FA00201CF0C0
:100D5000B1FA00201CF0AEFA00201CF0ABFA002023
:100D60001CF0A8FA00201CF0A5FA00201CF0A2FA42
:100D700000201CF09FFA00201CF09CFA00201CF0C0
:100D800099FA00201CF096FA00201CF093FA00203B
:100D90001CF090FA00201CF08DFA00201CF08AFA5A
:100DA00000201CF087FA00201CF084FA00201CF0C0
:100DB00081FA00201CF07EFA00201CF07BFA002053
:100DC0001CF078FA00201CF075FA00201CF072FA72
:100DD00000201CF06FFA00201CF06CFA00201CF0C0
:100DE00069FA00201CF066FA00201CF063FA00206B
:100DF0001CF060FA00201CF05DFA00201CF05AFA8A
:100E000000201CF057FA00201CF054FA00201CF0BF
:100E100051FA00201CF04EFA00201CF04BFA002082
:100E20001CF048FA00201CF045FA00201CF042FAA1
:100E300000201CF03FFA00201CF03CFA00201CF0BF
:100E400039FA00201CF036FA00201CF033FA00209A
:100E50001CF030FA00201CF02DFA00201CF02AFAB9
:100E600000201CF027FA00201CF024FA00201CF0BF
:100E700021FA00201CF01EFA00201CF01BFA0020B2
:100E80001CF018FA00201CF015FA00201CF012FAD1
:100E900000201CF00FFA00201CF00CFA00201CF0BF
:100EA00009FA00201CF006FA00201CF003FA0020CA
:100EB0001CF000FA00201CF0FDF900201CF0FAF9EB
:100EC00000201CF0F7F900201CF0F4F900201CF0C1
:100ED000F1F900201CF0EEF900201CF0EBF90020E5
:100EE0001CF0E8F900201CF0E5F900201CF0E2F904
:100EF00000201CF0DFF900201CF0DCF900201CF0C1
:100F0000D9F900201CF0D6F900201CF0D3F90020FC
:100F10001CF0D0F900201CF0CDF900201CF0CAF91B
:100F200000201CF0C7F900201CF0C4F900201CF0C0
:100F3000C1F900201CF0BEF900201CF0BBF9002014
:100F40001CF0B8F900201CF0B5F900201CF0B2F933
:100F500000201CF0AFF900201CF0ACF900201CF0C0
:100F6000A9F900201CF0A6F900201CF0A3F900202C
:100F70001CF0A0F900201CF09DF900201CF09AF94B
:100F800000201CF097F900201CF094F900201CF0C0
:100F900091F900201CF08EF900201CF08BF9002044
:100FA0001CF088F900201CF085F900201CF082F963
:100FB00000201CF07FF900201CF07CF900201CF0C0
:100FC00079F900201CF076F900201CF073F900205C
:100FD0001CF070F900201CF06DF900201CF06AF97B
:100FE00000201CF067F900201CF064F900201CF0C0
:100FF00061F900201CF05EF900201CF05BF9002074
:101000001CF058F900201CF055F900201CF052F992
:1010100000201CF04FF900201CF04CF900201CF0BF
:1010200049F900201CF046F900201CF043F900208B
:101030001CF040F900201CF03DF900201CF03AF9AA
:1010400000201CF037F900201CF034F900201CF0BF
:1010500031F900201CF02EF900201CF02BF90020A3
:101060001CF028F900201CF025F900201CF022F9C2
:1010700000201CF01FF900201CF01CF900201CF0BF
:1010800019F900201CF016F900201CF013F90020BB
:101090001CF010F900201CF00DF900201CF00AF9DA
:1010A00000201CF007F900201CF004F900201CF0BF
:1010B00001F900201CF0FEF800201CF0FBF80020D5
:1010C0001CF0F8F800201CF0F5F800201CF0F2F8F5
:1010D00000201CF0EFF800201CF0ECF800201CF0C1
:1010E000E9F800201CF0E6F800201CF0E3F80020EE
:1010F0001CF0E0F800201CF0DDF800201CF0DAF80D
:1011000000201CF0D7F800201CF0D4F800201CF0C0
:10111000D1F800201CF0CEF800201CF0CBF8002005
:101120001CF0C8F800201CF0C5F800201CF0C2F824
:1011300000201CF0BFF800201CF0BCF800201CF0C0
:10114000B9F800201CF0B6F800201CF0B3F800201D
:101150001CF0B0F800201CF0ADF800201CF0AAF83C
:1011600000201CF0A7F800201CF0A4F800201CF0C0
:10117000A1F800201CF09EF800201CF09BF8002035
:101180001CF098F800201CF095F800201CF092F854
:1011900000201CF08FF800201CF08CF800201CF0C0
:1011A00089F800201CF086F800201CF083F800204D
:1011B0001CF080F800201CF07DF800201CF07AF86C
:1011C00000201CF077F800201CF074F800201CF0C0
:1011D00071F800201CF06EF800201CF06BF8002065
:1011E0001CF068F800201CF065F800201CF062F884
:1011F00000201CF05FF800201CF05CF800201CF0C0
:1012000059F800201CF056F800201CF053F800207C
:101210001CF050F800201CF04DF800201CF04AF89B
:1012200000201CF047F800201CF044F800201CF0BF
:1012300041F800201CF03EF800201CF03BF8002094
:101240001CF038F800201CF035F800201CF032F8B3
:1012500000201CF02FF800201CF02CF800201CF0BF
:1012600029F800201CF026F800201CF023F80020AC
:101270001CF020F800201CF01DF800201CF01AF8CB
:1012800000201CF017F800201CF014F800201CF0BF
:1012900011F800201CF00EF800201CF00BF80020C4
:1012A0001CF008F800201CF005F800201CF002F8E3
:1012B00000201BF0FFFF00201BF0FCFF00201BF0B4
:1012C000F9FF00201BF0F6FF00201BF0F3FF0020C9
:1012D0001BF0F0FF00201BF0EDFF00201BF0EAFFE9
:1012E00000201BF0E7FF00201BF0E4FF00201BF0B4
:1012F000E1FF00201BF0DEFF00201BF0DBFF0020E1
:101300001BF0D8FF00201BF0D5FF00201BF0D2FF00
:1013100000201BF0CFFF00201BF0CCFF00201BF0B3
:10132000C9FF00201BF0C6FF00201BF0C3FF0020F8
:101330001BF0C0FF00201BF0BDFF00201BF0BAFF18
:1013400000201BF0B7FF00201BF0B4FF00201BF0B3
:10135000B1FF00201BF0AEFF00201BF0ABFF002010
:101360001BF0A8FF00201BF0A5FF00201BF0A2FF30
:1013700000201BF09FFF00201BF09CFF00201BF0B3
:1013800099FF00201BF096FF00201BF093FF002028
:101390001BF090FF00201BF08DFF00201BF08AFF48
:1013A00000201BF087FF00201BF084FF00201BF0B3
:1013B00081FF00201BF07EFF00201BF07BFF002040
:1013C0001BF078FF00201BF075FF00201BF072FF60
:1013D00000201BF06FFF00201BF06CFF00201BF0B3
:1013E00069FF00201BF066FF00201BF063FF002058
:1013F0001BF060FF00201BF05DFF00201BF05AFF78
:1014000000201BF057FF00201BF054FF00201BF0B2
:1014100051FF00201BF04EFF00201BF04BFF00206F
:101420001BF048FF00201BF045FF00201BF042FF8F
:1014300000201BF03FFF00201BF03CFF00201BF0B2
:1014400039FF00201BF036FF00201BF033FF002087
:101450001BF030FF00201BF02DFF00201BF02AFFA7
:1014600000201BF027FF00201BF024FF00201BF0B2
:1014700021FF00201BF01EFF00201BF01BFF00209F
:101480001BF018FF00201BF015FF00201BF012FFBF
:1014900000201BF00FFF00201BF00CFF00201BF0B2
:1014A00009FF00201BF006FF00201BF003FF0020B7
:1014B0001BF000FF00201BF0FDFE00201BF0FAFED9
:1014C00000201BF0F7FE00201BF0F4FE00201BF0B4
:1014D000F1FE00201BF0EEFE00201BF0EBFE0020D2
:1014E0001BF0E8FE00201BF0E5FE00201BF0E2FEF2
:1014F00000201BF0DFFE00201BF0DCFE00201BF0B4
:10150000D9FE00201BF0D6FE00201BF0D3FE0020E9
:101510001BF0D0FE00201BF0CDFE00201BF0CAFE09
:1015200000201BF0C7FE00201BF0C4FE00201BF0B3
:10153000C1FE00201BF0BEFE00201BF0BBFE002001
:101540001BF0B8FE00201BF0B5FE00201BF0B2FE21
:1015500000201BF0AFFE00201BF0ACFE00201BF0B3
:10156000A9FE00201BF0A6FE00201BF0A3FE002019
:101570001BF0A0FE00201BF09DFE00201BF09AFE39
:1015800000201BF097FE00201BF094FE00201BF0B3
:1015900091FE00201BF08EFE00201BF08BFE002031
:1015A0001BF088FE00201BF085FE00201BF082FE51
:1015B00000201BF07FFE00201BF07CFE00201BF0B3
:1015C00079FE00201BF076FE00201BF073FE002049
:1015D0001BF070FE00201BF06DFE00201BF06AFE69
:1015E00000201BF067FE00201BF064FE00201BF0B3
:1015F00061FE00201BF05EFE00201BF05BFE002061
:101600001BF058FE00201BF055FE00201BF052FE80
:1016100000201BF04FFE00201BF04CFE00201BF0B2
:1016200049FE00201BF046FE00201BF043FE002078
:101630001BF040FE00201BF03DFE00201BF03AFE98
:1016400000201BF037FE00201BF034FE00201BF0B2
:1016500031FE00201BF02EFE00201BF02BFE002090
:101660001BF028FE00201BF025FE00201BF022FEB0
:1016700000201BF01FFE00201BF01CFE00201BF0B2
:1016800019FE00201BF016FE00201BF013FE0020A8
:101690001BF010FE00201BF00DFE00201BF00AFEC8
:1016A00000201BF007FE00201BF004FE00201BF0B2
:1016B00001FE00201BF0FEFD00201BF0FBFD0020C2
:1016C0001BF0F8FD00201BF0F5FD00201BF0F2FDE3
:1016D00000201BF0EFFD00201BF0ECFD00201BF0B4
:1016E000E9FD00201BF0E6FD00201BF0E3FD0020DB
:1016F0001BF0E0FD00201BF0DDFD00201BF0DAFDFB
:1017000000201BF0D7FD00201BF0D4FD00201BF0B3
:10171000D1FD00201BF0CEFD00201BF0CBFD0020F2
:101720001BF0C8FD00201BF0C5FD00201BF0C2FD12
:1017300000201BF0BFFD00201BF0BCFD00201BF0B3
:10174000B9FD00201BF0B6FD00201BF0B3FD00200A
:101750001BF0B0FD00201BF0ADFD00201BF0AAFD2A
:1017600000201BF0A7FD00201BF0A4FD00201BF0B3
:10177000A1FD00201BF09EFD00201BF09BFD002022
:101780001BF098FD00201BF095FD00201BF092FD42
:1017900000201BF08FFD00201BF08CFD00201BF0B3
:1017A00089FD00201BF086FD00201BF083FD00203A
:1017B0001BF080FD00201BF07DFD00201BF07AFD5A
:1017C00000201BF077FD00201BF074FD00201BF0B3
:1017D00071FD00201BF06EFD00201BF06BFD002052
:1017E0001BF068FD00201BF065FD00201BF062FD72
:1017F00000201BF05FFD00201BF05CFD00201BF0B3
:1018000059FD00201BF056FD00201BF053FD002069
:101810001BF050FD00201BF04DFD00201BF04AFD89
:1018200000201BF047FD00201BF044FD00201BF0B2
:1018300041FD00201BF03EFD00201BF03BFD002081
:101840001BF038FD00201BF035FD00201BF032FDA1
:1018500000201BF02FFD00201BF02CFD00201BF0B2
:1018600029FD00201BF026FD00201BF023FD002099
:101870001BF020FD00201BF01DFD00201BF01AFDB9
:1018800000201BF017FD00201BF014FD00201BF0B2
:1018900011FD00201BF00EFD00201BF00BFD0020B1
:1018A0001BF008FD00201BF005FD00201BF002FDD1
:1018B00000201BF0FFFC00201BF0FCFC00201BF0B4
:1018C000F9FC00201BF0F6FC00201BF0F3FC0020CC
:1018D0001BF0F0FC00201BF0EDFC00201BF0EAFCEC
:1018E00000201BF0E7FC00201BF0E4FC00201BF0B4
:1018F000E1FC00201BF0DEFC00201BF0DBFC0020E4
:101900001BF0D8FC00201BF0D5FC00201BF0D2FC03
:1019100000201BF0CFFC00201BF0CCFC00201BF0B3
:10192000C9FC00201BF0C6FC00201BF0C3FC0020FB
:101930001BF0C0FC00201BF0BDFC00201BF0BAFC1B
:1019400000201BF0B7FC00201BF0B4FC00201BF0B3
:10195000B1FC00201BF0AEFC00201BF0ABFC002013
:101960001BF0A8FC00201BF0A5FC00201BF0A2FC33
:1019700000201BF09FFC00201BF09CFC00201BF0B3
:1019800099FC00201BF096FC00201BF093FC00202B
:101990001BF090FC00201BF08DFC00201BF08AFC4B
:1019A00000201BF087FC00201BF084FC00201BF0B3
:1019B00081FC00201BF07EFC00201BF07BFC002043
:1019C0001BF078FC00201BF075FC00201BF072FC63
:1019D00000201BF06FFC00201BF06CFC00201BF0B3
:1019E00069FC00201BF066FC00201BF063FC00205B
:1019F0001BF060FC00201BF05DFC00201BF05AFC7B
:101A000000201BF057FC00201BF054FC00201BF0B2
:101A100051FC00201BF04EFC00201BF04BFC002072
:101A20001BF048FC00201BF045FC00201BF042FC92
:101A300000201BF03FFC00201BF03CFC00201BF0B2
:101A400039FC00201BF036FC00201BF033FC00208A
:101A50001BF030FC00201BF02DFC00201BF02AFCAA
:101A600000201BF027FC00201BF024FC00201BF0B2
:101A700021FC00201BF01EFC00201BF01BFC0020A2
:101A80001BF018FC00201BF015FC00201BF012FCC2
:101A900000201BF00FFC00201BF00CFC00201BF0B2
:101AA00009FC00201BF006FC00201BF003FC0020BA
:101AB0001BF000FC00201BF0FDFB00201BF0FAFBDC
:101AC00000201BF0F7FB00201BF0F4FB00201BF0B4
:101AD000F1FB00201BF0EEFB00201BF0EBFB0020D5
:101AE0001BF0E8FB00201BF0E5FB00201BF0E2FBF5
:101AF00000201BF0DFFB00201BF0DCFB00201BF0B4
:101B0000D9FB00201BF0D6FB00201BF0D3FB0020EC
:101B10001BF0D0FB00201BF0CDFB00201BF0CAFB0C
:101B200000201BF0C7FB00201BF0C4FB00201BF0B3
:101B3000C1FB00201BF0BEFB00201BF0BBFB002004
:101B40001BF0B8FB00201BF0B5FB00201BF0B2FB24
:101B500000201BF0AFFB00201BF0ACFB00201BF0B3
:101B6000A9FB00201BF0A6FB00201BF0A3FB00201C
:101B70001BF0A0FB00201BF09DFB00201BF09AFB3C
:101B800000201BF097FB00201BF094FB00201BF0B3
:101B900091FB00201BF08EFB00201BF08BFB002034
:101BA0001BF088FB00201BF085FB00201BF082FB54
:101BB00000201BF07FFB00201BF07CFB00201BF0B3
:101BC00079FB00201BF076FB00201BF073FB00204C
:101BD0001BF070FB00201BF06DFB00201BF06AFB6C
:101BE00000201BF067FB00201BF064FB00201BF0B3
:101BF00061FB00201BF05EFB00201BF05BFB002064
:101C00001BF058FB00201BF055FB00201BF052FB83
:101C100000201BF04FFB00201BF04CFB00201BF0B2
:101C200049FB00201BF046FB00201BF043FB00207B
:101C30001BF040FB00201BF03DFB00201BF03AFB9B
:101C400000201BF037FB00201BF034FB00201BF0B2
:101C500031FB00201BF02EFB00201BF02BFB002093
:101C60001BF028FB00201BF025FB00201BF022FBB3
:101C700000201BF01FFB00201BF01CFB00201BF0B2
:101C800019FB00201BF016FB00201BF013FB0020AB
:101C90001BF010FB00201BF00DFB00201BF00AFBCB
:101CA00000201BF007FB00201BF004FB00201BF0B2
:101CB00001FB00201BF0FEFA00201BF0FBFA0020C5
:101CC0001BF0F8FA00201BF0F5FA00201BF0F2FAE6
:101CD00000201BF0EFFA00201BF0ECFA00201BF0B4
:101CE000E9FA00201BF0E6FA00201BF0E3FA0020DE
:101CF0001BF0E0FA00201BF0DDFA00201BF0DAFAFE
:101D000000201BF0D7FA00201BF0D4FA00201BF0B3
:101D1000D1FA00201BF0CEFA00201BF0CBFA0020F5
:101D20001BF0C8FA00201BF0C5FA00201BF0C2FA15
:101D300000201BF0BFFA00201BF0BCFA00201BF0B3
:101D4000B9FA00201BF0B6FA00201BF0B3FA00200D
:101D50001BF0B0FA00201BF0ADFA00201BF0AAFA2D
:101D600000201BF0A7FA00201BF0A4FA00201BF0B3
:101D7000A1FA00201BF09EFA00201BF09BFA002025
:101D80001BF098FA00201BF095FA00201BF092FA45
:101D900000201BF08FFA00201BF08CFA00201BF0B3
:101DA00089FA00201BF086FA00201BF083FA00203D
:101DB0001BF080FA00201BF07DFA00201BF07AFA5D
:101DC00000201BF077FA00201BF074FA00201BF0B3
:101DD00071FA00201BF06EFA00201BF06BFA002055
:101DE0001BF068FA00201BF065FA00201BF062FA75
:101DF00000201BF05FFA00201BF05CFA00201BF0B3
:101E000059FA00201BF056FA00201BF053FA00206C
:101E10001BF050FA00201BF04DFA00201BF04AFA8C
:101E200000201BF047FA00201BF044FA00201BF0B2
:101E300041FA00201BF03EFA00201BF03BFA002084
:101E40001BF038FA00201BF035FA00201BF032FAA4
:101E500000201BF02FFA00201BF02CFA00201BF0B2
:101E600029FA00201BF026FA00201BF023FA00209C
:101E70001BF020FA00201BF01DFA00201BF01AFABC
:101E800000201BF017FA00201BF014FA00201BF0B2
:101E900011FA00201BF00EFA00201BF00BFA0020B4
:101EA0001BF008FA00201BF005FA00201BF002FAD4
:101EB00000201BF0FFF900201BF0FCF900201BF0B4
:101EC000F9F900201BF0F6F900201BF0F3F90020CF
:101ED0001BF0F0F900201BF0EDF900201BF0EAF9EF
:101EE00000201BF0E7F900201BF0E4F900201BF0B4
:101EF000E1F900201BF0DEF900201BF0DBF90020E7
:101F00001BF0D8F900201BF0D5F900201BF0D2F906
:101F100000201BF0CFF900201BF0CCF900201BF0B3
:101F2000C9F900201BF0C6F900201BF0C3F90020FE
:101F30001BF0C0F900201BF0BDF900201BF0BAF91E
:101F400000201BF0B7F900201BF0B4F900201BF0B3
:101F5000B1F900201BF0AEF900201BF0ABF9002016
:101F60001BF0A8F900201BF0A5F900201BF0A2F936
:101F700000201BF09FF900201BF09CF900201BF0B3
:101F800099F900201BF096F900201BF093F900202E
:101F90001BF090F900201BF08DF900201BF08AF94E
:101FA00000201BF087F900201BF084F900201BF0B3
:101FB00081F900201BF07EF900201BF07BF9002046
:101FC0001BF078F900201BF075F900201BF072F966
:101FD00000201BF06FF900201BF06CF900201BF0B3
:101FE00069F900201BF066F900201BF063F900205E
:101FF0001BF060F900201BF05DF900201BF05AF97E
:1020000000201BF057F900201BF054F900201BF0B2
:1020100051F900201BF04EF900201BF04BF9002075
:102020001BF048F900201BF045F900201BF042F995
:1020300000201BF03FF900201BF03CF900201BF0B2
:1020400039F900201BF036F900201BF033F900208D
:102050001BF030F900201BF02DF900201BF02AF9AD
:1020600000201BF027F900201BF024F900201BF0B2
:1020700021F900201BF01EF900201BF01BF90020A5
:102080001BF018F900201BF015F900201BF012F9C5
:1020900000201BF00FF900201BF00CF900201BF0B2
:1020A00009F900201BF006F900201BF003F90020BD
:1020B0001BF000F900201BF0FDF800201BF0FAF8DF
:1020C00000201BF0F7F800201BF0F4F800201BF0B4
:1020D000F1F800201BF0EEF800201BF0EBF80020D8
:1020E0001BF0E8F800201BF0E5F800201BF0E2F8F8
:1020F00000201BF0DFF800201BF0DCF800201BF0B4
:10210000D9F800201BF0D6F800201BF0D3F80020EF
:102110001BF0D0F800201BF0CDF800201BF0CAF80F
:1021200000201BF0C7F800201BF0C4F800201BF0B3
:10213000C1F800201BF0BEF800201BF0BBF8002007
:102140001BF0B8F800201BF0B5F800201BF0B2F827
:1021500000201BF0AFF800201BF0ACF800201BF0B3
:10216000A9F800201BF0A6F800201BF0A3F800201F
:102170001BF0A0F800201BF09DF800201BF09AF83F
:1021800000201BF097F800201BF094F800201BF0B3
:1021900091F800201BF08EF800201BF08BF8002037
:1021A0001BF088F800201BF085F800201BF082F857
:1021B00000201BF07FF800201BF07CF800201BF0B3
:1021C00079F800201BF076F800201BF073F800204F
:1021D0001BF070F800201BF06DF800201BF06AF86F
:1021E00000201BF067F800201BF064F800201BF0B3
:1021F00061F800201BF05EF800201BF05BF8002067
:102200001BF058F800201BF055F800201BF052F886
:1022100000201BF04FF800201BF04CF800201BF0B2
:1022200049F800201BF046F800201BF043F800207E
:102230001BF040F800201BF03DF800201BF03AF89E
:1022400000201BF037F800201BF034F800201BF0B2
:1022500031F800201BF02EF800201BF02BF8002096
:102260001BF028F800201BF025F800201BF022F8B6
:1022700000201BF01FF800201BF01CF800201BF0B2
:1022800019F800201BF016F800201BF013F80020AE
:102290001BF010F800201BF00DF800201BF00AF8CE
:1022A00000201BF007F800201BF004F800201BF0B2
:1022B00001F800201AF0FEFF00201AF0FBFF0020BA
:1022C0001AF0F8FF00201AF0F5FF00201AF0F2FFD4
:1022D00000201AF0EFFF00201AF0ECFF00201AF0A7
:1022E000E9FF00201AF0E6FF00201AF0E3FF0020CB
:1022F0001AF0E0FF00201AF0DDFF00201AF0DAFFEC
:1023000000201AF0D7FF00201AF0D4FF00201AF0A6
:10231000D1FF00201AF0CEFF00201AF0CBFF0020E2
:102320001AF0C8FF00201AF0C5FF00201AF0C2FF03
:1023300000201AF0BFFF00201AF0BCFF00201AF0A6
:10234000B9FF00201AF0B6FF00201AF0B3FF0020FA
:102350001AF0B0FF00201AF0ADFF00201AF0AAFF1B
:1023600000201AF0A7FF00201AF0A4FF00201AF0A6
:10237000A1FF00201AF09EFF00201AF09BFF002012
:102380001AF098FF00201AF095FF00201AF092FF33
:1023900000201AF08FFF00201AF08CFF00201AF0A6
:1023A00089FF00201AF086FF00201AF083FF00202A
:1023B0001AF080FF00201AF07DFF00201AF07AFF4B
:1023C00000201AF077FF00201AF074FF00201AF0A6
:1023D00071FF00201AF06EFF00201AF06BFF002042
:1023E0001AF068FF00201AF065FF00201AF062FF63
:1023F00000201AF05FFF00201AF05CFF00201AF0A6
:1024000059FF00201AF056FF00201AF053FF002059
:102410001AF050FF00201AF04DFF00201AF04AFF7A
:1024200000201AF047FF00201AF044FF00201AF0A5
:1024300041FF00201AF03EFF00201AF03BFF002071
:102440001AF038FF00201AF035FF00201AF032FF92
:1024500000201AF02FFF00201AF02CFF00201AF0A5
:1024600029FF00201AF026FF00201AF023FF002089
:102470001AF020FF00201AF01DFF00201AF01AFFAA
:1024800000201AF017FF00201AF014FF00201AF0A5
:1024900011FF00201AF00EFF00201AF00BFF0020A1
:1024A0001AF008FF00201AF005FF00201AF002FFC2
:1024B00000201AF0FFFE00201AF0FCFE00201AF0A7
:1024C000F9FE00201AF0F6FE00201AF0F3FE0020BC
:1024D0001AF0F0FE00201AF0EDFE00201AF0EAFEDD
:1024E00000201AF0E7FE00201AF0E4FE00201AF0A7
:1024F000E1FE00201AF0DEFE00201AF0DBFE0020D4
:102500001AF0D8FE00201AF0D5FE00201AF0D2FEF4
:1025100000201AF0CFFE00201AF0CCFE00201AF0A6
:10252000C9FE00201AF0C6FE00201AF0C3FE0020EB
:102530001AF0C0FE00201AF0BDFE00201AF0BAFE0C
:1025400000201AF0B7FE00201AF0B4FE00201AF0A6
:10255000B1FE00201AF0AEFE00201AF0ABFE002003
:102560001AF0A8FE00201AF0A5FE00201AF0A2FE24
:1025700000201AF09FFE00201AF09CFE00201AF0A6
:1025800099FE00201AF096FE00201AF093FE00201B
:102590001AF090FE00201AF08DFE00201AF08AFE3C
:1025A00000201AF087FE00201AF084FE00201AF0A6
:1025B00081FE00201AF07EFE00201AF07BFE002033
:1025C0001AF078FE00201AF075FE00201AF072FE54
:1025D00000201AF06FFE00201AF06CFE00201AF0A6
:1025E00069FE00201AF066FE00201AF063FE00204B
:1025F0001AF060FE00201AF05DFE00201AF05AFE6C
:1026000000201AF057FE00201AF054FE00201AF0A5
:1026100051FE00201AF04EFE00201AF04BFE002062
:102620001AF048FE00201AF045FE00201AF042FE83
:1026300000201AF03FFE00201AF03CFE00201AF0A5
:1026400039FE00201AF036FE00201AF033FE00207A
:102650001AF030FE00201AF02DFE00201AF02AFE9B
:1026600000201AF027FE00201AF024FE00201AF0A5
:1026700021FE00201AF01EFE00201AF01BFE002092
:102680001AF018FE00201AF015FE00201AF012FEB3
:1026900000201AF00FFE00201AF00CFE00201AF0A5
:1026A00009FE00201AF006FE00201AF003FE0020AA
:1026B0001AF000FE00201AF0FDFD00201AF0FAFDCD
:1026C00000201AF0F7FD00201AF0F4FD00201AF0A7
:1026D000F1FD00201AF0EEFD00201AF0EBFD0020C5
:1026E0001AF0E8FD00201AF0E5FD00201AF0E2FDE6
:1026F00000201AF0DFFD00201AF0DCFD00201AF0A7
:10270000D9FD00201AF0D6FD00201AF0D3FD0020DC
:102710001AF0D0FD00201AF0CDFD00201AF0CAFDFD
:1027200000201AF0C7FD00201AF0C4FD00201AF0A6
:10273000C1FD00201AF0BEFD00201AF0BBFD0020F4
:102740001AF0B8FD00201AF0B5FD00201AF0B2FD15
:1027500000201AF0AFFD00201AF0ACFD00201AF0A6
:10276000A9FD00201AF0A6FD00201AF0A3FD00200C
:102770001AF0A0FD00201AF09DFD00201AF09AFD2D
:1027800000201AF097FD00201AF094FD00201AF0A6
:1027900091FD00201AF08EFD00201AF08BFD002024
:1027A0001AF088FD00201AF085FD00201AF082FD45
:1027B00000201AF07FFD00201AF07CFD00201AF0A6
:1027C00079FD00201AF076FD00201AF073FD00203C
:1027D0001AF070FD00201AF06DFD00201AF06AFD5D
:1027E00000201AF067FD00201AF064FD00201AF0A6
:1027F00061FD00201AF05EFD00201AF05BFD002054
:102800001AF058FD00201AF055FD00201AF052FD74
:1028100000201AF04FFD00201AF04CFD00201AF0A5
:1028200049FD00201AF046FD00201AF043FD00206B
:102830001AF040FD00201AF03DFD00201AF03AFD8C
:1028400000201AF037FD00201AF034FD00201AF0A5
:1028500031FD00201AF02EFD00201AF02BFD002083
:102860001AF028FD00201AF025FD00201AF022FDA4
:1028700000201AF01FFD00201AF01CFD00201AF0A5
:1028800019FD00201AF016FD00201AF013FD00209B
:102890001AF010FD00201AF00DFD00201AF00AFDBC
:1028A00000201AF007FD00201AF004FD00201AF0A5
:1028B00001FD00201AF0FEFC00201AF0FBFC0020B5
:1028C0001AF0F8FC00201AF0F5FC00201AF0F2FCD7
:1028D00000201AF0EFFC00201AF0ECFC00201AF0A7
:1028E000E9FC00201AF0E6FC00201AF0E3FC0020CE
:1028F0001AF0E0FC00201AF0DDFC00201AF0DAFCEF
:1029000000201AF0D7FC00201AF0D4FC00201AF0A6
:10291000D1FC00201AF0CEFC00201AF0CBFC0020E5
:102920001AF0C8FC00201AF0C5FC00201AF0C2FC06
:1029300000201AF0BFFC00201AF0BCFC00201AF0A6
:10294000B9FC00201AF0B6FC00201AF0B3FC0020FD
:102950001AF0B0FC00201AF0ADFC00201AF0AAFC1E
:1029600000201AF0A7FC00201AF0A4FC00201AF0A6
:10297000A1FC00201AF09EFC00201AF09BFC002015
:102980001AF098FC00201AF095FC00201AF092FC36
:1029900000201AF08FFC00201AF08CFC00201AF0A6
:1029A00089FC00201AF086FC00201AF083FC00202D
:1029B0001AF080FC00201AF07DFC00201AF07AFC4E
:1029C00000201AF077FC00201AF074FC00201AF0A6
:1029D00071FC00201AF06EFC00201AF06BFC002045
:1029E0001AF068FC00201AF065FC00201AF062FC66
:1029F00000201AF05FFC00201AF05CFC00201AF0A6
:102A000059FC00201AF056FC00201AF053FC00205C
:102A10001AF050FC00201AF04DFC00201AF04AFC7D
:102A200000201AF047FC00201AF044FC00201AF0A5
:102A300041FC00201AF03EFC00201AF03BFC002074
:102A40001AF038FC00201AF035FC00201AF032FC95
:102A500000201AF02FFC00201AF02CFC00201AF0A5
:102A600029FC00201AF026FC00201AF023FC00208C
:102A70001AF020FC00201AF01DFC00201AF01AFCAD
:102A800000201AF017FC00201AF014FC00201AF0A5
:102A900011FC00201AF00EFC00201AF00BFC0020A4
:102AA0001AF008FC00201AF005FC00201AF002FCC5
:102AB00000201AF0FFFB00201AF0FCFB00201AF0A7
:102AC000F9FB00201AF0F6FB00201AF0F3FB0020BF
:102AD0001AF0F0FB00201AF0EDFB00201AF0EAFBE0
:102AE00000201AF0E7FB00201AF0E4FB00201AF0A7
:102AF000E1FB00201AF0DEFB00201AF0DBFB0020D7
:102B00001AF0D8FB00201AF0D5FB00201AF0D2FBF7
:102B100000201AF0CFFB00201AF0CCFB00201AF0A6
:102B2000C9FB00201AF0C6FB00201AF0C3FB0020EE
:102B30001AF0C0FB00201AF0BDFB00201AF0BAFB0F
:102B400000201AF0B7FB00201AF0B4FB00201AF0A6
:102B5000B1FB00201AF0AEFB00201AF0ABFB002006
:102B60001AF0A8FB00201AF0A5FB00201AF0A2FB27
:102B700000201AF09FFB00201AF09CFB00201AF0A6
:102B800099FB00201AF096FB00201AF093FB00201E
:102B90001AF090FB00201AF08DFB00201AF08AFB3F
:102BA00000201AF087FB00201AF084FB00201AF0A6
:102BB00081FB00201AF07EFB00201AF07BFB002036
:102BC0001AF078FB00201AF075FB00201AF072FB57
:102BD00000201AF06FFB00201AF06CFB00201AF0A6
:102BE00069FB00201AF066FB00201AF063FB00204E
:102BF0001AF060FB00201AF05DFB00201AF05AFB6F
:102C000000201AF057FB00201AF054FB00201AF0A5
:102C100051FB00201AF04EFB00201AF04BFB002065
:102C20001AF048FB00201AF045FB00201AF042FB86
:102C300000201AF03FFB00201AF03CFB00201AF0A5
:102C400039FB00201AF036FB00201AF033FB00207D
:102C50001AF030FB00201AF02DFB00201AF02AFB9E
:102C600000201AF027FB00201AF024FB00201AF0A5
:102C700021FB00201AF01EFB00201AF01BFB002095
:102C80001AF018FB00201AF015FB00201AF012FBB6
:102C900000201AF00FFB00201AF00CFB00201AF0A5
:102CA00009FB00201AF006FB00201AF003FB0020AD
:102CB0001AF000FB00201AF0FDFA00201AF0FAFAD0
:102CC00000201AF0F7FA00201AF0F4FA00201AF0A7
:102CD000F1FA00201AF0EEFA00201AF0EBFA0020C8
:102CE0001AF0E8FA00201AF0E5FA00201AF0E2FAE9
:102CF00000201AF0DFFA00201AF0DCFA00201AF0A7
:102D0000D9FA00201AF0D6FA00201AF0D3FA0020DF
:102D10001AF0D0FA00201AF0CDFA00201AF0CAFA00
:102D200000201AF0C7FA00201AF0C4FA00201AF0A6
:102D3000C1FA00201AF0BEFA00201AF0BBFA0020F7
:102D40001AF0B8FA00201AF0B5FA00201AF0B2FA18
:102D500000201AF0AFFA00201AF0ACFA00201AF0A6
:102D6000A9FA00201AF0A6FA00201AF0A3FA00200F
:102D70001AF0A0FA00201AF09DFA00201AF09AFA30
:102D800000201AF097FA00201AF094FA00201AF0A6
:102D900091FA00201AF08EFA00201AF08BFA002027
:102DA0001AF088FA00201AF085FA00201AF082FA48
:102DB00000201AF07FFA00201AF07CFA00201AF0A6
:102DC00079FA00201AF076FA00201AF073FA00203F
:102DD0001AF070FA00201AF06DFA00201AF06AFA60
:102DE00000201AF067FA00201AF064FA00201AF0A6
:102DF00061FA00201AF05EFA00201AF05BFA002057
:102E00001AF058FA00201AF055FA00201AF052FA77
:102E100000201AF04FFA00201AF04CFA00201AF0A5
:102E200049FA00201AF046FA00201AF043FA00206E
:102E30001AF040FA00201AF03DFA00201AF03AFA8F
:102E400000201AF037FA00201AF034FA00201AF0A5
:102E500031FA00201AF02EFA00201AF02BFA002086
:102E60001AF028FA00201AF025FA00201AF022FAA7
:102E700000201AF01FFA00201AF01CFA00201AF0A5
:102E800019FA00201AF016FA00201AF013FA00209E
:102E90001AF010FA00201AF00DFA00201AF00AFABF
:102EA00000201AF007FA00201AF004FA00201AF0A5
:102EB00001FA00201AF0FEF900201AF0FBF90020B8
:102EC0001AF0F8F900201AF0F5F900201AF0F2F9DA
:102ED00000201AF0EFF900201AF0ECF900201AF0A7
:102EE000E9F900201AF0E6F900201AF0E3F90020D1
:102EF0001AF0E0F900201AF0DDF900201AF0DAF9F2
:102F000000201AF0D7F900201AF0D4F900201AF0A6
:102F1000D1F900201AF0CEF900201AF0CBF90020E8
:102F20001AF0C8F900201AF0C5F900201AF0C2F909
:102F300000201AF0BFF900201AF0BCF900201AF0A6
:102F4000B9F900201AF0B6F900201AF0B3F9002000
:102F50001AF0B0F900201AF0ADF900201AF0AAF921
:102F600000201AF0A7F900201AF0A4F900201AF0A6
:102F7000A1F900201AF09EF900201AF09BF9002018
:102F80001AF098F900201AF095F900201AF092F939
:102F900000201AF08FF900201AF08CF900201AF0A6
:102FA00089F900201AF086F900201AF083F9002030
:102FB0001AF080F900201AF07DF900201AF07AF951
:102FC00000201AF077F900201AF074F900201AF0A6
:102FD00071F900201AF06EF900201AF06BF9002048
:102FE0001AF068F900201AF065F900201AF062F969
:102FF00000201AF05FF900201AF05CF900201AF0A6
:1030000059F900201AF056F900201AF053F900205F
:103010001AF050F900201AF04DF900201AF04AF980
:1030200000201AF047F900201AF044F900201AF0A5
:1030300041F900201AF03EF900201AF03BF9002077
:103040001AF038F900201AF035F900201AF032F998
:1030500000201AF02FF900201AF02CF900201AF0A5
:1030600029F900201AF026F900201AF023F900208F
:103070001AF020F900201AF01DF900201AF01AF9B0
:1030800000201AF017F900201AF014F900201AF0A5
:1030900011F900201AF00EF900201AF00BF90020A7
:1030A0001AF008F900201AF005F900201AF002F9C8
:1030B00000201AF0FFF800201AF0FCF800201AF0A7
:1030C000F9F800201AF0F6F800201AF0F3F80020C2
:1030D0001AF0F0F800201AF0EDF800201AF0EAF8E3
:1030E00000201AF0E7F800201AF0E4F800201AF0A7
:1030F000E1F800201AF0DEF800201AF0DBF80020DA
:103100001AF0D8F800201AF0D5F800201AF0D2F8FA
:1031100000201AF0CFF800201AF0CCF800201AF0A6
:10312000C9F800201AF0C6F800201AF0C3F80020F1
:103130001AF0C0F800201AF0BDF800201AF0BAF812
:1031400000201AF0B7F800201AF0B4F800201AF0A6
:10315000B1F800201AF0AEF800201AF0ABF8002009
:103160001AF0A8F800201AF0A5F800201AF0A2F82A
:1031700000201AF09FF800201AF09CF800201AF0A6
:1031800099F800201AF096F800201AF093F8002021
:103190001AF090F800201AF08DF800201AF08AF842
:1031A00000201AF087F800201AF084F800201AF0A6
:1031B00081F800201AF07EF800201AF07BF8002039
:1031C0001AF078F800201AF075F800201AF072F85A
:1031D00000201AF06FF800201AF06CF800201AF0A6
:1031E00069F800201AF066F800201AF063F8002051
:1031F0001AF060F800201AF05DF800201AF05AF872
:1032000000201AF057F800201AF054F800201AF0A5
:1032100051F800201AF04EF800201AF04BF8002068
:103220001AF048F800201AF045F800201AF042F889
:1032300000201AF03FF800201AF03CF800201AF0A5
:1032400039F800201AF036F800201AF033F8002080
:103250001AF030F800201AF02DF800201AF02AF8A1
:1032600000201AF027F800201AF024F800201AF0A5
:1032700021F800201AF01EF800201AF01BF8002098
:103280001AF018F800201AF015F800201AF012F8B9
:1032900000201AF00FF800201AF00CF800201AF0A5
:1032A00009F800201AF006F800201AF003F80020B0
:1032B0001AF000F8002019F0FDFF002019F0FAFFC5
:1032C000002019F0F7FF002019F0F4FF002019F09A
:1032D000F1FF002019F0EEFF002019F0EBFF0020B5
:1032E00019F0E8FF002019F0E5FF002019F0E2FFD7
:1032F000002019F0DFFF002019F0DCFF002019F09A
:10330000D9FF002019F0D6FF002019F0D3FF0020CC
:1033100019F0D0FF002019F0CDFF002019F0CAFFEE
:10332000002019F0C7FF002019F0C4FF002019F099
:10333000C1FF002019F0BEFF002019F0BBFF0020E4
:1033400019F0B8FF002019F0B5FF002019F0B2FF06
:10335000002019F0AFFF002019F0ACFF002019F099
:10336000A9FF002019F0A6FF002019F0A3FF0020FC
:1033700019F0A0FF002019F09DFF002019F09AFF1E
:10338000002019F097FF002019F094FF002019F099
:1033900091FF002019F08EFF002019F08BFF002014
:1033A00019F088FF002019F085FF002019F082FF36
:1033B000002019F07FFF002019F07CFF002019F099
:1033C00079FF002019F076FF002019F073FF00202C
:1033D00019F070FF002019F06DFF002019F06AFF4E
:1033E000002019F067FF002019F064FF002019F099
:1033F00061FF002019F05EFF002019F05BFF002044
:1034000019F058FF002019F055FF002019F052FF65
:10341000002019F04FFF002019F04CFF002019F098
:1034200049FF002019F046FF002019F043FF00205B
:1034300019F040FF002019F03DFF002019F03AFF7D
:10344000002019F037FF002019F034FF002019F098
:1034500031FF002019F02EFF002019F02BFF002073
:1034600019F028FF002019F025FF002019F022FF95
:10347000002019F01FFF002019F01CFF002019F098
:1034800019FF002019F016FF002019F013FF00208B
:1034900019F010FF002019F00DFF002019F00AFFAD
:1034A000002019F007FF002019F004FF002019F098
:1034B00001FF002019F0FEFE002019F0FBFE0020A5
:1034C00019F0F8FE002019F0F5FE002019F0F2FEC8
:1034D000002019F0EFFE002019F0ECFE002019F09A
:1034E000E9FE002019F0E6FE002019F0E3FE0020BE
:1034F00019F0E0FE002019F0DDFE002019F0DAFEE0
:10350000002019F0D7FE002019F0D4FE002019F099
:10351000D1FE002019F0CEFE002019F0CBFE0020D5
:1035200019F0C8FE002019F0C5FE002019F0C2FEF7
:10353000002019F0BFFE002019F0BCFE002019F099
:10354000B9FE002019F0B6FE002019F0B3FE0020ED
:1035500019F0B0FE002019F0ADFE002019F0AAFE0F
:10356000002019F0A7FE002019F0A4FE002019F099
:10357000A1FE002019F09EFE002019F09BFE002005
:1035800019F098FE002019F095FE002019F092FE27
:10359000002019F08FFE002019F08CFE002019F099
:1035A00089FE002019F086FE002019F083FE00201D
:1035B00019F080FE002019F07DFE002019F07AFE3F
:1035C000002019F077FE002019F074FE002019F099
:1035D00071FE002019F06EFE002019F06BFE002035
:1035E00019F068FE002019F065FE002019F062FE57
:1035F000002019F05FFE002019F05CFE002019F099
:1036000059FE002019F056FE002019F053FE00204C
:1036100019F050FE002019F04DFE002019F04AFE6E
:10362000002019F047FE002019F044FE002019F098
:1036300041FE002019F03EFE002019F03BFE002064
:1036400019F038FE002019F035FE002019F032FE86
:10365000002019F02FFE002019F02CFE002019F098
:1036600029FE002019F026FE002019F023FE00207C
:1036700019F020FE002019F01DFE002019F01AFE9E
:10368000002019F017FE002019F014FE002019F098
:1036900011FE002019F00EFE002019F00BFE002094
:1036A00019F008FE002019F005FE002019F002FEB6
:1036B000002019F0FFFD002019F0FCFD002019F09A
:1036C000F9FD002019F0F6FD002019F0F3FD0020AF
:1036D00019F0F0FD002019F0EDFD002019F0EAFDD1
:1036E000002019F0E7FD002019F0E4FD002019F09A
:1036F000E1FD002019F0DEFD002019F0DBFD0020C7
:1037000019F0D8FD002019F0D5FD002019F0D2FDE8
:10371000002019F0CFFD002019F0CCFD002019F099
:10372000C9FD002019F0C6FD002019F0C3FD0020DE
:1037300019F0C0FD002019F0BDFD002019F0BAFD00
:10374000002019F0B7FD002019F0B4FD002019F099
:10375000B1FD002019F0AEFD002019F0ABFD0020F6
:1037600019F0A8FD002019F0A5FD002019F0A2FD18
:10377000002019F09FFD002019F09CFD002019F099
:1037800099FD002019F096FD002019F093FD00200E
:1037900019F090FD002019F08DFD002019F08AFD30
:1037A000002019F087FD002019F084FD002019F099
:1037B00081FD002019F07EFD002019F07BFD002026
:1037C00019F078FD002019F075FD002019F072FD48
:1037D000002019F06FFD002019F06CFD002019F099
:1037E00069FD002019F066FD002019F063FD00203E
:1037F00019F060FD002019F05DFD002019F05AFD60
:10380000002019F057FD002019F054FD002019F098
:1038100051FD002019F04EFD002019F04BFD002055
:1038200019F048FD002019F045FD002019F042FD77
:10383000002019F03FFD002019F03CFD002019F098
:1038400039FD002019F036FD002019F033FD00206D
:1038500019F030FD002019F02DFD002019F02AFD8F
:10386000002019F027FD002019F024FD002019F098
:1038700021FD002019F01EFD002019F01BFD002085
:1038800019F018FD002019F015FD002019F012FDA7
:10389000002019F00FFD002019F00CFD002019F098
:1038A00009FD002019F006FD002019F003FD00209D
:1038B00019F000FD002019F0FDFC002019F0FAFCC1
:1038C000002019F0F7FC002019F0F4FC002019F09A
:1038D000F1FC002019F0EEFC002019F0EBFC0020B8
:1038E00019F0E8FC002019F0E5FC002019F0E2FCDA
:1038F000002019F0DFFC002019F0DCFC002019F09A
:10390000D9FC002019F0D6FC002019F0D3FC0020CF
:1039100019F0D0FC002019F0CDFC002019F0CAFCF1
:10392000002019F0C7FC002019F0C4FC002019F099
:10393000C1FC002019F0BEFC002019F0BBFC0020E7
:1039400019F0B8FC002019F0B5FC002019F0B2FC09
:10395000002019F0AFFC002019F0ACFC002019F099
:10396000A9FC002019F0A6FC002019F0A3FC0020FF
:1039700019F0A0FC002019F09DFC002019F09AFC21
:10398000002019F097FC002019F094FC002019F099
:1039900091FC002019F08EFC002019F08BFC002017
:1039A00019F088FC002019F085FC002019F082FC39
:1039B000002019F07FFC002019F07CFC002019F099
:1039C00079FC002019F076FC002019F073FC00202F
:1039D00019F070FC002019F06DFC002019F06AFC51
:1039E000002019F067FC002019F064FC002019F099
:1039F00061FC002019F05EFC002019F05BFC002047
:103A000019F058FC002019F055FC002019F052FC68
:103A1000002019F04FFC002019F04CFC002019F098
:103A200049FC002019F046FC002019F043FC00205E
:103A300019F040FC002019F03DFC002019F03AFC80
:103A4000002019F037FC002019F034FC002019F098
:103A500031FC002019F02EFC002019F02BFC002076
:103A600019F028FC002019F025FC002019F022FC98
:103A7000002019F01FFC002019F01CFC002019F098
:103A800019FC002019F016FC002019F013FC00208E
:103A900019F010FC002019F00DFC002019F00AFCB0
:103AA000002019F007FC002019F004FC002019F098
:103AB00001FC002019F0FEFB002019F0FBFB0020A8
:103AC00019F0F8FB002019F0F5FB002019F0F2FBCB
:103AD000002019F0EFFB002019F0ECFB002019F09A
:103AE000E9FB002019F0E6FB002019F0E3FB0020C1
:103AF00019F0E0FB002019F0DDFB002019F0DAFBE3
:103B0000002019F0D7FB002019F0D4FB002019F099
:103B1000D1FB002019F0CEFB002019F0CBFB0020D8
:103B200019F0C8FB002019F0C5FB002019F0C2FBFA
:103B3000002019F0BFFB002019F0BCFB002019F099
:103B4000B9FB002019F0B6FB002019F0B3FB0020F0
:103B500019F0B0FB002019F0ADFB002019F0AAFB12
:103B6000002019F0A7FB002019F0A4FB002019F099
:103B7000A1FB002019F09EFB002019F09BFB002008
:103B800019F098FB002019F095FB002019F092FB2A
:103B9000002019F08FFB002019F08CFB002019F099
:103BA00089FB002019F086FB002019F083FB002020
:103BB00019F080FB002019F07DFB002019F07AFB42
:103BC000002019F077FB002019F074FB002019F099
:103BD00071FB002019F06EFB002019F06BFB002038
:103BE00019F068FB002019F065FB002019F062FB5A
:103BF000002019F05FFB002019F05CFB002019F099
:103C000059FB002019F056FB002019F053FB00204F
:103C100019F050FB002019F04DFB002019F04AFB71
:103C2000002019F047FB002019F044FB002019F098
:103C300041FB002019F03EFB002019F03BFB002067
:103C400019F038FB002019F035FB002019F032FB89
:103C5000002019F02FFB002019F02CFB002019F098
:103C600029FB002019F026FB002019F023FB00207F
:103C700019F020FB002019F01DFB002019F01AFBA1
:103C8000002019F017FB002019F014FB002019F098
:103C900011FB002019F00EFB002019F00BFB002097
:103CA00019F008FB002019F005FB002019F002FBB9
:103CB000002019F0FFFA002019F0FCFA002019F09A
:103CC000F9FA002019F0F6FA002019F0F3FA0020B2
:103CD00019F0F0FA002019F0EDFA002019F0EAFAD4
:103CE000002019F0E7FA002019F0E4FA002019F09A
:103CF000E1FA002019F0DEFA002019F0DBFA0020CA
:103D000019F0D8FA002019F0D5FA002019F0D2FAEB
:103D1000002019F0CFFA002019F0CCFA002019F099
:103D2000C9FA002019F0C6FA002019F0C3FA0020E1
:103D300019F0C0FA002019F0BDFA002019F0BAFA03
:103D4000002019F0B7FA002019F0B4FA002019F099
:103D5000B1FA002019F0AEFA002019F0ABFA0020F9
:103D600019F0A8FA002019F0A5FA002019F0A2FA1B
:103D7000002019F09FFA002019F09CFA002019F099
:103D800099FA002019F096FA002019F093FA002011
:103D900019F090FA002019F08DFA002019F08AFA33
:103DA000002019F087FA002019F084FA002019F099
:103DB00081FA002019F07EFA002019F07BFA002029
:103DC00019F078FA002019F075FA002019F072FA4B
:103DD000002019F06FFA002019F06CFA002019F099
:103DE00069FA002019F066FA002019F063FA002041
:103DF00019F060FA002019F05DFA002019F05AFA63
:103E0000002019F057FA002019F054FA002019F098
:103E100051FA002019F04EFA002019F04BFA002058
:103E200019F048FA002019F045FA002019F042FA7A
:103E3000002019F03FFA002019F03CFA002019F098
:103E400039FA002019F036FA002019F033FA002070
:103E500019F030FA002019F02DFA002019F02AFA92
:103E6000002019F027FA002019F024FA002019F098
:103E700021FA002019F01EFA002019F01BFA002088
:103E800019F018FA002019F015FA002019F012FAAA
:103E9000002019F00FFA002019F00CFA002019F098
:103EA00009FA002019F006FA002019F003FA0020A0
:103EB00019F000FA002019F0FDF9002019F0FAF9C4
:103EC000002019F0F7F9002019F0F4F9002019F09A
:103ED000F1F9002019F0EEF9002019F0EBF90020BB
:103EE00019F0E8F9002019F0E5F9002019F0E2F9DD
:103EF000002019F0DFF9002019F0DCF9002019F09A
:103F0000D9F9002019F0D6F9002019F0D3F90020D2
:103F100019F0D0F9002019F0CDF9002019F0CAF9F4
:103F2000002019F0C7F9002019F0C4F9002019F099
:103F3000C1F9002019F0BEF9002019F0BBF90020EA
:103F400019F0B8F9002019F0B5F9002019F0B2F90C
:103F5000002019F0AFF9002019F0ACF9002019F099
:103F6000A9F9002019F0A6F9002019F0A3F9002002
:103F700019F0A0F9002019F09DF9002019F09AF924
:103F8000002019F097F9002019F094F9002019F099
:103F900091F9002019F08EF9002019F08BF900201A
:103FA00019F088F9002019F085F9002019F082F93C
:103FB000002019F07FF9002019F07CF9002019F099
:103FC00079F9002019F076F9002019F073F9002032
:103FD00019F070F9002019F06DF9002019F06AF954
:103FE000002019F067F9002019F064F9002019F099
:103FF00061F9002019F05EF9002019F05BF900204A
:1040000019F058F9002019F055F9002019F052F96B
:10401000002019F04FF9002019F04CF9002019F098
:1040200049F9002019F046F9002019F043F9002061
:1040300019F040F9002019F03DF9002019F03AF983
:10404000002019F037F9002019F034F9002019F098
:1040500031F9002019F02EF9002019F02BF9002079
:1040600019F028F9002019F025F9002019F022F99B
:10407000002019F01FF9002019F01CF9002019F098
:1040800019F9002019F016F9002019F013F9002091
:1040900019F010F9002019F00DF9002019F00AF9B3
:1040A000002019F007F9002019F004F9002019F098
:1040B00001F9002019F0FEF8002019F0FBF80020AB
:1040C00019F0F8F8002019F0F5F8002019F0F2F8CE
:1040D000002019F0EFF8002019F0ECF8002019F09A
:1040E000E9F8002019F0E6F8002019F0E3F80020C4
:1040F00019F0E0F8002019F0DDF8002019F0DAF8E6
:10410000002019F0D7F8002019F0D4F8002019F099
:10411000D1F8002019F0CEF8002019F0CBF80020DB
:1041200019F0C8F8002019F0C5F8002019F0C2F8FD
:10413000002019F0BFF8002019F0BCF8002019F099
:10414000B9F8002019F0B6F8002019F0B3F80020F3
:1041500019F0B0F8002019F0ADF8002019F0AAF815
:10416000002019F0A7F8002019F0A4F8002019F099
:10417000A1F8002019F09EF8002019F09BF800200B
:1041800019F098F8002019F095F8002019F092F82D
:10419000002019F08FF8002019F08CF8002019F099
:1041A00089F8002019F086F8002019F083F8002023
:1041B00019F080F8002019F07DF8002019F07AF845
:1041C000002019F077F8002019F074F8002019F099
:1041D00071F8002019F06EF8002019F06BF800203B
:1041E00019F068F8002019F065F8002019F062F85D
:1041F000002019F05FF8002019F05CF8002019F099
:1042000059F8002019F056F8002019F053F8002052
:1042100019F050F8002019F04DF8002019F04AF874
:10422000002019F047F8002019F044F8002019F098
:1042300041F8002019F03EF8002019F03BF800206A
:1042400019F038F8002019F035F8002019F032F88C
:10425000002019F02FF8002019F02CF8002019F098
:1042600029F8002019F026F8002019F023F8002082
:1042700019F020F8002019F01DF8002019F01AF8A4
:10428000002019F017F8002019F014F8002019F098
:1042900011F8002019F00EF8002019F00BF800209A
:1042A00019F008F8002019F005F8002019F002F8BC
:1042B000002018F0FFFF002018F0FCFF002018F08D
:1042C000F9FF002018F0F6FF002018F0F3FF00209F
:1042D00018F0F0FF002018F0EDFF002018F0EAFFC2
:1042E000002018F0E7FF002018F0E4FF002018F08D
:1042F000E1FF002018F0DEFF002018F0DBFF0020B7
:1043000018F0D8FF002018F0D5FF002018F0D2FFD9
:10431000002018F0CFFF002018F0CCFF002018F08C
:10432000C9FF002018F0C6FF002018F0C3FF0020CE
:1043300018F0C0FF002018F0BDFF002018F0BAFFF1
:10434000002018F0B7FF002018F0B4FF002018F08C
:10435000B1FF002018F0AEFF002018F0ABFF0020E6
:1043600018F0A8FF002018F0A5FF002018F0A2FF09
:10437000002018F09FFF002018F09CFF002018F08C
:1043800099FF002018F096FF002018F093FF0020FE
:1043900018F090FF002018F08DFF002018F08AFF21
:1043A000002018F087FF002018F084FF002018F08C
:1043B00081FF002018F07EFF002018F07BFF002016
:1043C00018F078FF002018F075FF002018F072FF39
:1043D000002018F06FFF002018F06CFF002018F08C
:1043E00069FF002018F066FF002018F063FF00202E
:1043F00018F060FF002018F05DFF002018F05AFF51
:10440000002018F057FF002018F054FF002018F08B
:1044100051FF002018F04EFF002018F04BFF002045
:1044200018F048FF002018F045FF002018F042FF68
:10443000002018F03FFF002018F03CFF002018F08B
:1044400039FF002018F036FF002018F033FF00205D
:1044500018F030FF002018F02DFF002018F02AFF80
:10446000002018F027FF002018F024FF002018F08B
:1044700021FF002018F01EFF002018F01BFF002075
:1044800018F018FF002018F015FF002018F012FF98
:10449000002018F00FFF002018F00CFF002018F08B
:1044A00009FF002018F006FF002018F003FF00208D
:1044B00018F000FF002018F0FDFE002018F0FAFEB2
:1044C000002018F0F7FE002018F0F4FE002018F08D
:1044D000F1FE002018F0EEFE002018F0EBFE0020A8
:1044E00018F0E8FE002018F0E5FE002018F0E2FECB
:1044F000002018F0DFFE002018F0DCFE002018F08D
:10450000D9FE002018F0D6FE002018F0D3FE0020BF
:1045100018F0D0FE002018F0CDFE002018F0CAFEE2
:10452000002018F0C7FE002018F0C4FE002018F08C
:10453000C1FE002018F0BEFE002018F0BBFE0020D7
:1045400018F0B8FE002018F0B5FE002018F0B2FEFA
:10455000002018F0AFFE002018F0ACFE002018F08C
:10456000A9FE002018F0A6FE002018F0A3FE0020EF
:1045700018F0A0FE002018F09DFE002018F09AFE12
:10458000002018F097FE002018F094FE002018F08C
:1045900091FE002018F08EFE002018F08BFE002007
:1045A00018F088FE002018F085FE002018F082FE2A
:1045B000002018F07FFE002018F07CFE002018F08C
:1045C00079FE002018F076FE002018F073FE00201F
:1045D00018F070FE002018F06DFE002018F06AFE42
:1045E000002018F067FE002018F064FE002018F08C
:1045F00061FE002018F05EFE002018F05BFE002037
:1046000018F058FE002018F055FE002018F052FE59
:10461000002018F04FFE002018F04CFE002018F08B
:1046200049FE002018F046FE002018F043FE00204E
:1046300018F040FE002018F03DFE002018F03AFE71
:10464000002018F037FE002018F034FE002018F08B
:1046500031FE002018F02EFE002018F02BFE002066
:1046600018F028FE002018F025FE002018F022FE89
:10467000002018F01FFE002018F01CFE002018F08B
:1046800019FE002018F016FE002018F013FE00207E
:1046900018F010FE002018F00DFE002018F00AFEA1
:1046A000002018F007FE002018F004FE002018F08B
:1046B00001FE002018F0FEFD002018F0FBFD002098
:1046C00018F0F8FD002018F0F5FD002018F0F2FDBC
:1046D000002018F0EFFD002018F0ECFD002018F08D
:1046E000E9FD002018F0E6FD002018F0E3FD0020B1
:1046F00018F0E0FD002018F0DDFD002018F0DAFDD4
:10470000002018F0D7FD002018F0D4FD002018F08C
:10471000D1FD002018F0CEFD002018F0CBFD0020C8
:1047200018F0C8FD002018F0C5FD002018F0C2FDEB
:10473000002018F0BFFD002018F0BCFD002018F08C
:10474000B9FD002018F0B6FD002018F0B3FD0020E0
:1047500018F0B0FD002018F0ADFD002018F0AAFD03
:10476000002018F0A7FD002018F0A4FD002018F08C
:10477000A1FD002018F09EFD002018F09BFD0020F8
:1047800018F098FD002018F095FD002018F092FD1B
:10479000002018F08FFD002018F08CFD002018F08C
:1047A00089FD002018F086FD002018F083FD002010
:1047B00018F080FD002018F07DFD002018F07AFD33
:1047C000002018F077FD002018F074FD002018F08C
:1047D00071FD002018F06EFD002018F06BFD002028
:1047E00018F068FD002018F065FD002018F062FD4B
:1047F000002018F05FFD002018F05CFD002018F08C
:1048000059FD002018F056FD002018F053FD00203F
:1048100018F050FD002018F04DFD002018F04AFD62
:10482000002018F047FD002018F044FD002018F08B
:1048300041FD002018F03EFD002018F03BFD002057
:1048400018F038FD002018F035FD002018F032FD7A
:10485000002018F02FFD002018F02CFD002018F08B
:1048600029FD002018F026FD002018F023FD00206F
:1048700018F020FD002018F01DFD002018F01AFD92
:10488000002018F017FD002018F014FD002018F08B
:1048900011FD002018F00EFD002018F00BFD002087
:1048A00018F008FD002018F005FD002018F002FDAA
:1048B000002018F0FFFC002018F0FCFC002018F08D
:1048C000F9FC002018F0F6FC002018F0F3FC0020A2
:1048D00018F0F0FC002018F0EDFC002018F0EAFCC5
:1048E000002018F0E7FC002018F0E4FC002018F08D
:1048F000E1FC002018F0DEFC002018F0DBFC0020BA
:1049000018F0D8FC002018F0D5FC002018F0D2FCDC
:10491000002018F0CFFC002018F0CCFC002018F08C
:10492000C9FC002018F0C6FC002018F0C3FC0020D1
:1049300018F0C0FC002018F0BDFC002018F0BAFCF4
:10494000002018F0B7FC002018F0B4FC002018F08C
:10495000B1FC002018F0AEFC002018F0ABFC0020E9
:1049600018F0A8FC002018F0A5FC002018F0A2FC0C
:10497000002018F09FFC002018F09CFC002018F08C
:1049800099FC002018F096FC002018F093FC002001
:1049900018F090FC002018F08DFC002018F08AFC24
:1049A000002018F087FC002018F084FC002018F08C
:1049B00081FC002018F07EFC002018F07BFC002019
:1049C00018F078FC002018F075FC002018F072FC3C
:1049D000002018F06FFC002018F06CFC002018F08C
:1049E00069FC002018F066FC002018F063FC002031
:1049F00018F060FC002018F05DFC002018F05AFC54
:104A0000002018F057FC002018F054FC002018F08B
:104A100051FC002018F04EFC002018F04BFC002048
:104A200018F048FC002018F045FC002018F042FC6B
:104A3000002018F03FFC002018F03CFC002018F08B
:104A400039FC002018F036FC002018F033FC002060
:104A500018F030FC002018F02DFC002018F02AFC83
:104A6000002018F027FC002018F024FC002018F08B
:104A700021FC002018F01EFC002018F01BFC002078
:104A800018F018FC002018F015FC002018F012FC9B
:104A9000002018F00FFC002018F00CFC002018F08B
:104AA00009FC002018F006FC002018F003FC002090
:104AB00018F000FC002018F0FDFB002018F0FAFBB5
:104AC000002018F0F7FB002018F0F4FB002018F08D
:104AD000F1FB002018F0EEFB002018F0EBFB0020AB
:104AE00018F0E8FB002018F0E5FB002018F0E2FBCE
:104AF000002018F0DFFB002018F0DCFB002018F08D
:104B0000D9FB002018F0D6FB002018F0D3FB0020C2
:104B100018F0D0FB002018F0CDFB002018F0CAFBE5
:104B2000002018F0C7FB002018F0C4FB002018F08C
:104B3000C1FB002018F0BEFB002018F0BBFB0020DA
:104B400018F0B8FB002018F0B5FB002018F0B2FBFD
:104B5000002018F0AFFB002018F0ACFB002018F08C
:104B6000A9FB002018F0A6FB002018F0A3FB0020F2
:104B700018F0A0FB002018F09DFB002018F09AFB15
:104B8000002018F097FB002018F094FB002018F08C
:104B900091FB002018F08EFB002018F08BFB00200A
:104BA00018F088FB002018F085FB002018F082FB2D
:104BB000002018F07FFB002018F07CFB002018F08C
:104BC00079FB002018F076FB002018F073FB002022
:104BD00018F070FB002018F06DFB002018F06AFB45
:104BE000002018F067FB002018F064FB002018F08C
:104BF00061FB002018F05EFB002018F05BFB00203A
:104C000018F058FB002018F055FB002018F052FB5C
:104C1000002018F04FFB002018F04CFB002018F08B
:104C200049FB002018F046FB002018F043FB002051
:104C300018F040FB002018F03DFB002018F03AFB74
:104C4000002018F037FB002018F034FB002018F08B
:104C500031FB002018F02EFB002018F02BFB002069
:104C600018F028FB002018F025FB002018F022FB8C
:104C7000002018F01FFB002018F01CFB002018F08B
:104C800019FB002018F016FB002018F013FB002081
:104C900018F010FB002018F00DFB002018F00AFBA4
:104CA000002018F007FB002018F004FB002018F08B
:104CB00001FB002018F0FEFA002018F0FBFA00209B
:104CC00018F0F8FA002018F0F5FA002018F0F2FABF
:104CD000002018F0EFFA002018F0ECFA002018F08D
:104CE000E9FA002018F0E6FA002018F0E3FA0020B4
:104CF00018F0E0FA002018F0DDFA002018F0DAFAD7
:104D0000002018F0D7FA002018F0D4FA002018F08C
:104D1000D1FA002018F0CEFA002018F0CBFA0020CB
:104D200018F0C8FA002018F0C5FA002018F0C2FAEE
:104D3000002018F0BFFA002018F0BCFA002018F08C
:104D4000B9FA002018F0B6FA002018F0B3FA0020E3
:104D500018F0B0FA002018F0ADFA002018F0AAFA06
:104D6000002018F0A7FA002018F0A4FA002018F08C
:104D7000A1FA002018F09EFA002018F09BFA0020FB
:104D800018F098FA002018F095FA002018F092FA1E
:104D9000002018F08FFA002018F08CFA002018F08C
:104DA00089FA002018F086FA002018F083FA002013
:104DB00018F080FA002018F07DFA002018F07AFA36
:104DC000002018F077FA002018F074FA002018F08C
:104DD00071FA002018F06EFA002018F06BFA00202B
:104DE00018F068FA002018F065FA002018F062FA4E
:104DF000002018F05FFA002018F05CFA002018F08C
:104E000059FA002018F056FA002018F053FA002042
:104E100018F050FA002018F04DFA002018F04AFA65
:104E2000002018F047FA002018F044FA002018F08B
:104E300041FA002018F03EFA002018F03BFA00205A
:104E400018F038FA002018F035FA002018F032FA7D
:104E5000002018F02FFA002018F02CFA002018F08B
:104E600029FA002018F026FA002018F023FA002072
:104E700018F020FA002018F01DFA002018F01AFA95
:104E8000002018F017FA002018F014FA002018F08B
:104E900011FA002018F00EFA002018F00BFA00208A
:104EA00018F008FA002018F005FA002018F002FAAD
:104EB000002018F0FFF9002018F0FCF9002018F08D
:104EC000F9F9002018F0F6F9002018F0F3F90020A5
:104ED00018F0F0F9002018F0EDF9002018F0EAF9C8
:104EE000002018F0E7F9002018F0E4F9002018F08D
:104EF000E1F9002018F0DEF9002018F0DBF90020BD
:104F000018F0D8F9002018F0D5F9002018F0D2F9DF
:104F1000002018F0CFF9002018F0CCF9002018F08C
:104F2000C9F9002018F0C6F9002018F0C3F90020D4
:104F300018F0C0F9002018F0BDF9002018F0BAF9F7
:104F4000002018F0B7F9002018F0B4F9002018F08C
:104F5000B1F9002018F0AEF9002018F0ABF90020EC
:104F600018F0A8F9002018F0A5F9002018F0A2F90F
:104F7000002018F09FF9002018F09CF9002018F08C
:104F800099F9002018F096F9002018F093F9002004
:104F900018F090F9002018F08DF9002018F08AF927
:104FA000002018F087F9002018F084F9002018F08C
:104FB00081F9002018F07EF9002018F07BF900201C
:104FC00018F078F9002018F075F9002018F072F93F
:104FD000002018F06FF9002018F06CF9002018F08C
:104FE00069F9002018F066F9002018F063F9002034
:104FF00018F060F9002018F05DF9002018F05AF957
:10500000002018F057F9002018F054F9002018F08B
:1050100051F9002018F04EF9002018F04BF900204B
:1050200018F048F9002018F045F9002018F042F96E
:10503000002018F03FF9002018F03CF9002018F08B
:1050400039F9002018F036F9002018F033F9002063
:1050500018F030F9002018F02DF9002018F02AF986
:10506000002018F027F9002018F024F9002018F08B
:1050700021F9002018F01EF9002018F01BF900207B
:1050800018F018F9002018F015F9002018F012F99E
:10509000002018F00FF9002018F00CF9002018F08B
:1050A00009F9002018F006F9002018F003F9002093
:1050B00018F000F9002018F0FDF8002018F0FAF8B8
:1050C000002018F0F7F8002018F0F4F8002018F08D
:1050D000F1F8002018F0EEF8002018F0EBF80020AE
:1050E00018F0E8F8002018F0E5F8002018F0E2F8D1
:1050F000002018F0DFF8002018F0DCF8002018F08D
:10510000D9F8002018F0D6F8002018F0D3F80020C5
:1051100018F0D0F8002018F0CDF8002018F0CAF8E8
:10512000002018F0C7F8002018F0C4F8002018F08C
:10513000C1F8002018F0BEF8002018F0BBF80020DD
:1051400018F0B8F8002018F0B5F8002018F0B2F800
:10515000002018F0AFF8002018F0ACF8002018F08C
:10516000A9F8002018F0A6F8002018F0A3F80020F5
:1051700018F0A0F8002018F09DF8002018F09AF818
:10518000002018F097F8002018F094F8002018F08C
:1051900091F8002018F08EF8002018F08BF800200D
:1051A00018F088F8002018F085F8002018F082F830
:1051B000002018F07FF8002018F07CF8002018F08C
:1051C00079F8002018F076F8002018F073F8002025
:1051D00018F070F8002018F06DF8002018F06AF848
:1051E000002018F067F8002018F064F8002018F08C
:1051F00061F8002018F05EF8002018F05BF800203D
:1052000018F058F8002018F055F8002018F052F85F
:10521000002018F04FF8002018F04CF8002018F08B
:1052200049F8002018F046F8002018F043F8002054
:1052300018F040F8002018F03DF8002018F03AF877
:10524000002018F037F8002018F034F8002018F08B
:1052500031F8002018F02EF8002018F02BF800206C
:1052600018F028F8002018F025F8002018F022F88F
:10527000002018F01FF8002018F01CF8002018F08B
:1052800019F8002018F016F8002018F013F8002084
:1052900018F010F8002018F00DF8002018F00AF8A7
:1052A000002018F007F8002018F004F8002018F08B
:1052B00001F8002017F0FEFF002017F0FBFF002090
:1052C00017F0F8FF002017F0F5FF002017F0F2FFAD
:1052D000002017F0EFFF002017F0ECFF002017F080
:1052E000E9FF002017F0E6FF002017F0E3FF0020A1
:1052F00017F0E0FF002017F0DDFF002017F0DAFFC5
:10530000002017F0D7FF002017F0D4FF002017F07F
:10531000D1FF002017F0CEFF002017F0CBFF0020B8
:1053200017F0C8FF002017F0C5FF002017F0C2FFDC
:10533000002017F0BFFF002017F0BCFF002017F07F
:10534000B9FF002017F0B6FF002017F0B3FF0020D0
:1053500017F0B0FF002017F0ADFF002017F0AAFFF4
:10536000002017F0A7FF002017F0A4FF002017F07F
:10537000A1FF002017F09EFF002017F09BFF0020E8
:1053800017F098FF002017F095FF002017F092FF0C
:10539000002017F08FFF002017F08CFF002017F07F
:1053A00089FF002017F086FF002017F083FF002000
:1053B00017F080FF002017F07DFF002017F07AFF24
:1053C000002017F077FF002017F074FF002017F07F
:1053D00071FF002017F06EFF002017F06BFF002018
:1053E00017F068FF002017F065FF002017F062FF3C
:1053F000002017F05FFF002017F05CFF002017F07F
:1054000059FF002017F056FF002017F053FF00202F
:1054100017F050FF002017F04DFF002017F04AFF53
:10542000002017F047FF002017F044FF002017F07E
:1054300041FF002017F03EFF002017F03BFF002047
:1054400017F038FF002017F035FF002017F032FF6B
:10545000002017F02FFF002017F02CFF002017F07E
:1054600029FF002017F026FF002017F023FF00205F
:1054700017F020FF002017F01DFF002017F01AFF83
:10548000002017F017FF002017F014FF002017F07E
:1054900011FF002017F00EFF002017F00BFF002077
:1054A00017F008FF002017F005FF002017F002FF9B
:1054B000002017F0FFFE002017F0FCFE002017F080
:1054C000F9FE002017F0F6FE002017F0F3FE002092
:1054D00017F0F0FE002017F0EDFE002017F0EAFEB6
:1054E000002017F0E7FE002017F0E4FE002017F080
:1054F000E1FE002017F0DEFE002017F0DBFE0020AA
:1055000017F0D8FE002017F0D5FE002017F0D2FECD
:10551000002017F0CFFE002017F0CCFE002017F07F
:10552000C9FE002017F0C6FE002017F0C3FE0020C1
:1055300017F0C0FE002017F0BDFE002017F0BAFEE5
:10554000002017F0B7FE002017F0B4FE002017F07F
:10555000B1FE002017F0AEFE002017F0ABFE0020D9
:1055600017F0A8FE002017F0A5FE002017F0A2FEFD
:10557000002017F09FFE002017F09CFE002017F07F
:1055800099FE002017F096FE002017F093FE0020F1
:1055900017F090FE002017F08DFE002017F08AFE15
:1055A000002017F087FE002017F084FE002017F07F
:1055B00081FE002017F07EFE002017F07BFE002009
:1055C00017F078FE002017F075FE002017F072FE2D
:1055D000002017F06FFE002017F06CFE002017F07F
:1055E00069FE002017F066FE002017F063FE002021
:1055F00017F060FE002017F05DFE002017F05AFE45
:10560000002017F057FE002017F054FE002017F07E
:1056100051FE002017F04EFE002017F04BFE002038
:1056200017F048FE002017F045FE002017F042FE5C
:10563000002017F03FFE002017F03CFE002017F07E
:1056400039FE002017F036FE002017F033FE002050
:1056500017F030FE002017F02DFE002017F02AFE74
:10566000002017F027FE002017F024FE002017F07E
:1056700021FE002017F01EFE002017F01BFE002068
:1056800017F018FE002017F015FE002017F012FE8C
:10569000002017F00FFE002017F00CFE002017F07E
:1056A00009FE002017F006FE002017F003FE002080
:1056B00017F000FE002017F0FDFD002017F0FAFDA6
:1056C000002017F0F7FD002017F0F4FD002017F080
:1056D000F1FD002017F0EEFD002017F0EBFD00209B
:1056E00017F0E8FD002017F0E5FD002017F0E2FDBF
:1056F000002017F0DFFD002017F0DCFD002017F080
:10570000D9FD002017F0D6FD002017F0D3FD0020B2
:1057100017F0D0FD002017F0CDFD002017F0CAFDD6
:10572000002017F0C7FD002017F0C4FD002017F07F
:10573000C1FD002017F0BEFD002017F0BBFD0020CA
:1057400017F0B8FD002017F0B5FD002017F0B2FDEE
:10575000002017F0AFFD002017F0ACFD002017F07F
:10576000A9FD002017F0A6FD002017F0A3FD0020E2
:1057700017F0A0FD002017F09DFD002017F09AFD06
:10578000002017F097FD002017F094FD002017F07F
:1057900091FD002017F08EFD002017F08BFD0020FA
:1057A00017F088FD002017F085FD002017F082FD1E
:1057B000002017F07FFD002017F07CFD002017F07F
:1057C00079FD002017F076FD002017F073FD002012
:1057D00017F070FD002017F06DFD002017F06AFD36
:1057E000002017F067FD002017F064FD002017F07F
:1057F00061FD002017F05EFD002017F05BFD00202A
:1058000017F058FD002017F055FD002017F052FD4D
:10581000002017F04FFD002017F04CFD002017F07E
:1058200049FD002017F046FD002017F043FD002041
:1058300017F040FD002017F03DFD002017F03AFD65
:10584000002017F037FD002017F034FD002017F07E
:1058500031FD002017F02EFD002017F02BFD002059
:1058600017F028FD002017F025FD002017F022FD7D
:10587000002017F01FFD002017F01CFD002017F07E
:1058800019FD002017F016FD002017F013FD002071
:1058900017F010FD002017F00DFD002017F00AFD95
:1058A000002017F007FD002017F004FD002017F07E
:1058B00001FD002017F0FEFC002017F0FBFC00208B
:1058C00017F0F8FC002017F0F5FC002017F0F2FCB0
:1058D000002017F0EFFC002017F0ECFC002017F080
:1058E000E9FC002017F0E6FC002017F0E3FC0020A4
:1058F00017F0E0FC002017F0DDFC002017F0DAFCC8
:10590000002017F0D7FC002017F0D4FC002017F07F
:10591000D1FC002017F0CEFC002017F0CBFC0020BB
:1059200017F0C8FC002017F0C5FC002017F0C2FCDF
:10593000002017F0BFFC002017F0BCFC002017F07F
:10594000B9FC002017F0B6FC002017F0B3FC0020D3
:1059500017F0B0FC002017F0ADFC002017F0AAFCF7
:10596000002017F0A7FC002017F0A4FC002017F07F
:10597000A1FC002017F09EFC002017F09BFC0020EB
:1059800017F098FC002017F095FC002017F092FC0F
:10599000002017F08FFC002017F08CFC002017F07F
:1059A00089FC002017F086FC002017F083FC002003
:1059B00017F080FC002017F07DFC002017F07AFC27
:1059C000002017F077FC002017F074FC002017F07F
:1059D00071FC002017F06EFC002017F06BFC00201B
:1059E00017F068FC002017F065FC002017F062FC3F
:1059F000002017F05FFC002017F05CFC002017F07F
:105A000059FC002017F056FC002017F053FC002032
:105A100017F050FC002017F04DFC002017F04AFC56
:105A2000002017F047FC002017F044FC002017F07E
:105A300041FC002017F03EFC002017F03BFC00204A
:105A400017F038FC002017F035FC002017F032FC6E
:105A5000002017F02FFC002017F02CFC002017F07E
:105A600029FC002017F026FC002017F023FC002062
:105A700017F020FC002017F01DFC002017F01AFC86
:105A8000002017F017FC002017F014FC002017F07E
:105A900011FC002017F00EFC002017F00BFC00207A
:105AA00017F008FC002017F005FC002017F002FC9E
:105AB000002017F0FFFB002017F0FCFB002017F080
:105AC000F9FB002017F0F6FB002017F0F3FB002095
:105AD00017F0F0FB002017F0EDFB002017F0EAFBB9
