:020000041000EA
:1000000000B5324B212058609868022188439860DF
:10001000D860186158612E4B002199600221596106
:100020000121F02299502B49196001219960352056
:1000300000F044F80222904214D00621196600F024
:1000400034F8196E01211966002018661A6600F04E
:100050002CF8196E196E196E052000F02FF8012189
:100060000842F9D1002199601B49196000215960AB
:100070001A491B48016001219960EB211966A021F2
:10008000196600F012F800219960164914480160C1
:100090000121996001BC002800D000471248134993
:1000A000086003C880F30888084703B5996A0420EC
:1000B0000142FBD001200142F8D103BD02B5186610
:1000C0001866FFF7F2FF186E186E02BD00000240BE
:1000D000000000180000070000035F00212200005C
:1000E000F4000018222000A00001001008ED00E03C
:1000F00000000000000000000000000074B24E7A12
:1001000000200420F7010010C3010010C5010010F9
:10011000C1010010C1010010C1010010C101001097
:10012000C1010010C1010010C1010010C701001081
:10013000C1010010C1010010C9010010CB01001065
:10014000CD010010CD010010CD010010CD01001037
:10015000CD010010CD010010CD010010CD01001027
:10016000CD010010CD010010CD010010CD01001017
:10017000CD010010CD010010CD010010CD01001007
:10018000CD010010CD010010CD010010CD010010F7
:10019000CD010010CD010010CD010010CD010010E7
:1001A000CD010010CD010010CD010010CD010010D7
:1001B000CD010010CD010010CD010010CD010010C7
:1001C00000BE00BE00BE00BE00BE00BE00F04BF888
:1001D000103800BEF2EB8871C8AD0210F4AD021009
:1001E0003402001090A31AE700202149086006C8D5
:1001F00081F3088810471F48006800282FD10DA4FC
:100200000ECC002902D000F012F8F9E71A491B4A77
:10021000002000E001C19142FCD1194988471949E9
:1002200088471949884700BEFDE701C901C29A42C3
:10023000FBD37047F4AD0210C0000020181200205C
:100240004CBF021000000420000004204CBF02102C
:1002500000100420001004200000000070470B482C
:100260001EF0DCF80047EFF30580C0B270470000D5
:1002700008ED00E0000000D018120020D026002079
:10028000FDCC011061B00110B9CC0110575600002F
:1002900006005250ABB3605328950210060052502E
:1002A000861C030238950210060052505422A29D6B
:1002B0004095021005005250DE65F4684CBF0210F4
:1002C000F8B5C04610B5064C2378002B07D1054B76
:1002D000002B02D0044800E000BF0123237010BDB2
:1002E000F017002000000000A0820210044B10B59F
:1002F000002B03D00349044800E000BF10BDC046F6
:1003000000000000F4170020A082021010B502487F
:1003100025F01CFE10BDC04650080020012070478B
:1003200010B50400FFF7FAFFA04205D3A620800015
:100330006043024BC01810BD0020FCE7B805002048
:100340000120704710B50400FFF7E8FFA04204D376
:10035000342044430248001910BD0020FCE7C04689
:100360005008002030B583B00C0000232DE06B4610
:10037000DA1D1570002106E083699B06FCD4137812
:100380000360013101320029F6D018E06B46DA1D16
:100390000D231370002106E083699B06FCD41378BB
:1003A0000360013101320029F6D01CE083699B060D
:1003B000FCD413780360013101320029F6D0237890
:1003C0000D3B5A425341DBB201342578002D0FD04A
:1003D000002BCCD1074BC3185A4253415B00064A4D
:1003E0009B5EAB42D2D06B46DA1D15700021E4E76C
:1003F00003B030BD0080FCBF8C26002010B51BF080
:10040000BFFF10BD30B583B00223022B08DD244AA4
:100410001368013313600A20FFF7F0FF002418E08F
:10042000022B01D00133F0E71E4AD054FAE76B46A5
:10043000DA1D0D2313700021002913D11A4B9B697B
:100440009B06FBD41078184B186001310132F3E79A
:100450000134022C16DC134B1D5D144B00229B5EF5
:10046000AB42E4D06B46DA1D157000210029EFD1B4
:100470000D4B9B699B06FBD410780B4B1860013128
:100480000132F3E70A20FFF7B9FF022303E0054A30
:100490000021D1540133032BF9DD03B030BDC04638
:1004A000F0230020B8080020004003408C260020E4
:1004B00030B583B0022302E0264AD1540133062B23
:1004C00007DC022BF8D0C218033A1478214AD4541E
:1004D000F4E7214A1368013313600A20FFF78EFF07
:1004E000002411E06B46DA1D0D2313700021002952
:1004F00013D11A4B9B699B06FBD41078174B1860DD
:1005000001310132F3E70134062C16DC114B1D5D7D
:10051000134B00229B5EAB42E4D06B46DA1D157094
:1005200000210029EFD10D4B9B699B06FBD410786D
:100530000A4B186001310132F3E70A20FFF75EFF32
:10054000022303E0034A0021D1540133062BF9DDD5
:1005500003B030BDB8080020402400200040034014
:100560008C26002070B51C201AF0C2FDD024240671
:1005700080235B056362636119201AF0B9FD802551
:10058000AD04656265616420FFF738FFA5616420F2
:10059000FFF734FF9626B60131003F481CF02EFBD2
:1005A00031003E481CF02AFB022100201AF06EFDAB
:1005B000022101201AF06AFD022104201AF066FDD2
:1005C000022105201AF062FD0E201AF091FD112083
:1005D0001AF08EFD8022D201626280239B02636248
:1005E0006261636119201AF083FD65620B201AF0C5
:1005F0007FFD80231B0163621A201AF079FD80239E
:10060000DB0463620A201AF073FD8023DB0063625F
:100610001B201AF06DFD80231B056362002201215F
:100620001B201AF04BFD06201AF062FD4023636286
:100630000022012106201AF041FD16201AF058FD73
:100640008023DB0363620F201AF052FD80231B021C
:10065000636212201AF04CFD8023DB02A3620022A9
:10066000012112201AF02AFD14201AF041FD8023E6
:100670005B03A3620122002114201AF01FFD152044
:100680001AF036FD80239B03A3620122002115206E
:100690001AF014FD70BDC0460040034000800340C6
:1006A0000023244A1360244A1360244A1360244A16
:1006B0001360244A1360244A1360244A1360244AB6
:1006C0001360244A1360244A1360244A23211170C2
:1006D00049205070053890701530D07013715371E7
:1006E0009371D371137253729372D37213735373E2
:1006F0009373D373137453749374D37413755375C2
:100700009375D375137653769376D37613775377A1
:100710009377D3773938135401301354013013547D
:100720005354013153540131535401315354013165
:1007300053547047D81F0020B0260020F02300201B
:1007400030190020281900202C190020241900201D
:1007500034190020581F00205C1F0020001F0020BB
:10076000094B00221A705A709A70DA701A715A7115
:100770009A71DA711A725A729A72DA721A735A7319
:100780009A73DA737047C046E81E0020012800D033
:100790007047D0231B065B689B0204D4D0231B0642
:1007A0005B68DB021FD5D0231B065B689B0204D568
:1007B000D0231B065B68DB0217D5D0231B065B68C2
:1007C0009B0204D4D0231B065B68DB02E0D4D02359
:1007D0001B065B689B02DBD5D0231B065B68DB0234
:1007E000D6D50320D4E70020D2E70220D0E70000CE
:1007F00030B583B0042800D18FE0052800D1D4E0C3
:10080000032842D003B030BD6B46DA1D14700021BE
:1008100008E0694B9B699B06FBD41478664B1C600F
:10082000013101320029F4D003780D3B5A42534183
:10083000DBB201300478002C2AD0002BE4D15F4BCE
:1008400002229B5EA3420FD06B46DA1D147000217A
:100850000029E9D1584B9B699B06FBD41478564B71
:100860001C6001310132F3E76B46DA1D0D23137072
:1008700000210029E8D1504B9B699B06FBD41578D9
:100880004D4B1D6001310132F3E700234C48D1E7A5
:1008900001201BF075FDB5E76B46DA1D14700021D1
:1008A00008E0454B9B699B06FBD41478424B1C60C7
:1008B000013101320029F4D003780D3B5A425341F3
:1008C000DBB201300478002C2AD0002BE4D13B4B62
:1008D00002229B5EA3420FD06B46DA1D14700021EA
:1008E0000029E9D1344B9B699B06FBD41478324B29
:1008F0001C6001310132F3E76B46DA1D0D231370E2
:1009000000210029E8D12C4B9B699B06FBD415786C
:10091000294B1D6001310132F3E700232948D1E75B
:1009200001201BF02DFD6DE76B46DA1D14700021D0
:1009300008E0214B9B699B06FBD414781E4B1C607E
:10094000013101320029F4D003780D3B5A42534162
:10095000DBB201300478002C2AD0002BE4D1174BF5
:1009600002229B5EA3420FD06B46DA1D1470002159
:100970000029E9D1104B9B699B06FBD414780E4BE0
:100980001C6001310132F3E76B46DA1D0D23137051
:1009900000210029E8D1084B9B699B06FBD4157800
:1009A000054B1D6001310132F3E700230648D1E712
:1009B00001201BF0E5FC25E7008003408C26002089
:1009C000A4820210AC820210B482021010B5002082
:1009D0001EF03AFE00201EF037FE00201EF034FE0E
:1009E00000201EF031FE00201EF02EFE00201EF022
:1009F0002BFE00201EF028FE00201EF025FE002009
:100A00001EF022FE00201EF01FFE00201EF01CFE25
:100A100000201EF019FE00201EF016FE00201EF021
:100A200013FE00201EF010FE00201EF00DFE002020
:100A30001EF00AFE00201EF007FE00201EF004FE3D
:100A400000201EF001FE00201EF0FEFD00201EF022
:100A5000FBFD00201EF0F8FD00201EF0F5FD00203B
:100A60001EF0F2FD00201EF0EFFD00201EF0ECFD58
:100A700000201EF0E9FD00201EF0E6FD00201EF023
:100A8000E3FD00201EF0E0FD00201EF0DDFD002053
:100A90001EF0DAFD00201EF0D7FD00201EF0D4FD70
:100AA00000201EF0D1FD00201EF0CEFD00201EF023
:100AB000CBFD00201EF0C8FD00201EF0C5FD00206B
:100AC0001EF0C2FD00201EF0BFFD00201EF0BCFD88
:100AD00000201EF0B9FD00201EF0B6FD00201EF023
:100AE000B3FD00201EF0B0FD00201EF0ADFD002083
:100AF0001EF0AAFD00201EF0A7FD00201EF0A4FDA0
:100B000000201EF0A1FD00201EF09EFD00201EF022
:100B10009BFD00201EF098FD00201EF095FD00209A
:100B20001EF092FD00201EF08FFD00201EF08CFDB7
:100B300000201EF089FD00201EF086FD00201EF022
:100B400083FD00201EF080FD00201EF07DFD0020B2
:100B50001EF07AFD00201EF077FD00201EF074FDCF
:100B600000201EF071FD00201EF06EFD00201EF022
:100B70006BFD00201EF068FD00201EF065FD0020CA
:100B80001EF062FD00201EF05FFD00201EF05CFDE7
:100B900000201EF059FD00201EF056FD00201EF022
:100BA00053FD00201EF050FD00201EF04DFD0020E2
:100BB0001EF04AFD00201EF047FD00201EF044FDFF
:100BC00000201EF041FD00201EF03EFD00201EF022
:100BD0003BFD00201EF038FD00201EF035FD0020FA
:100BE0001EF032FD00201EF02FFD00201EF02CFD17
:100BF00000201EF029FD00201EF026FD00201EF022
:100C000023FD00201EF020FD00201EF01DFD002011
:100C10001EF01AFD00201EF017FD00201EF014FD2E
:100C200000201EF011FD00201EF00EFD00201EF021
:100C30000BFD00201EF008FD00201EF005FD002029
:100C40001EF002FD00201EF0FFFC00201EF0FCFC48
:100C500000201EF0F9FC00201EF0F6FC00201EF023
:100C6000F3FC00201EF0F0FC00201EF0EDFC002044
:100C70001EF0EAFC00201EF0E7FC00201EF0E4FC61
:100C800000201EF0E1FC00201EF0DEFC00201EF023
:100C9000DBFC00201EF0D8FC00201EF0D5FC00205C
:100CA0001EF0D2FC00201EF0CFFC00201EF0CCFC79
:100CB00000201EF0C9FC00201EF0C6FC00201EF023
:100CC000C3FC00201EF0C0FC00201EF0BDFC002074
:100CD0001EF0BAFC00201EF0B7FC00201EF0B4FC91
:100CE00000201EF0B1FC00201EF0AEFC00201EF023
:100CF000ABFC00201EF0A8FC00201EF0A5FC00208C
:100D00001EF0A2FC00201EF09FFC00201EF09CFCA8
:100D100000201EF099FC00201EF096FC00201EF022
:100D200093FC00201EF090FC00201EF08DFC0020A3
:100D30001EF08AFC00201EF087FC00201EF084FCC0
:100D400000201EF081FC00201EF07EFC00201EF022
:100D50007BFC00201EF078FC00201EF075FC0020BB
:100D60001EF072FC00201EF06FFC00201EF06CFCD8
:100D700000201EF069FC00201EF066FC00201EF022
:100D800063FC00201EF060FC00201EF05DFC0020D3
:100D90001EF05AFC00201EF057FC00201EF054FCF0
:100DA00000201EF051FC00201EF04EFC00201EF022
:100DB0004BFC00201EF048FC00201EF045FC0020EB
:100DC0001EF042FC00201EF03FFC00201EF03CFC08
:100DD00000201EF039FC00201EF036FC00201EF022
:100DE00033FC00201EF030FC00201EF02DFC002003
:100DF0001EF02AFC00201EF027FC00201EF024FC20
:100E000000201EF021FC00201EF01EFC00201EF021
:100E10001BFC00201EF018FC00201EF015FC00201A
:100E20001EF012FC00201EF00FFC00201EF00CFC37
:100E300000201EF009FC00201EF006FC00201EF021
:100E400003FC00201EF000FC00201EF0FDFB002033
:100E50001EF0FAFB00201EF0F7FB00201EF0F4FB52
:100E600000201EF0F1FB00201EF0EEFB00201EF023
:100E7000EBFB00201EF0E8FB00201EF0E5FB00204D
:100E80001EF0E2FB00201EF0DFFB00201EF0DCFB6A
:100E900000201EF0D9FB00201EF0D6FB00201EF023
:100EA000D3FB00201EF0D0FB00201EF0CDFB002065
:100EB0001EF0CAFB00201EF0C7FB00201EF0C4FB82
:100EC00000201EF0C1FB00201EF0BEFB00201EF023
:100ED000BBFB00201EF0B8FB00201EF0B5FB00207D
:100EE0001EF0B2FB00201EF0AFFB00201EF0ACFB9A
:100EF00000201EF0A9FB00201EF0A6FB00201EF023
:100F0000A3FB00201EF0A0FB00201EF09DFB002094
:100F10001EF09AFB00201EF097FB00201EF094FBB1
:100F200000201EF091FB00201EF08EFB00201EF022
:100F30008BFB00201EF088FB00201EF085FB0020AC
:100F40001EF082FB00201EF07FFB00201EF07CFBC9
:100F500000201EF079FB00201EF076FB00201EF022
:100F600073FB00201EF070FB00201EF06DFB0020C4
:100F70001EF06AFB00201EF067FB00201EF064FBE1
:100F800000201EF061FB00201EF05EFB00201EF022
:100F90005BFB00201EF058FB00201EF055FB0020DC
:100FA0001EF052FB00201EF04FFB00201EF04CFBF9
:100FB00000201EF049FB00201EF046FB00201EF022
:100FC00043FB00201EF040FB00201EF03DFB0020F4
:100FD0001EF03AFB00201EF037FB00201EF034FB11
:100FE00000201EF031FB00201EF02EFB00201EF022
:100FF0002BFB00201EF028FB00201EF025FB00200C
:101000001EF022FB00201EF01FFB00201EF01CFB28
:1010100000201EF019FB00201EF016FB00201EF021
:1010200013FB00201EF010FB00201EF00DFB002023
:101030001EF00AFB00201EF007FB00201EF004FB40
:1010400000201EF001FB00201EF0FEFA00201EF022
:10105000FBFA00201EF0F8FA00201EF0F5FA00203E
:101060001EF0F2FA00201EF0EFFA00201EF0ECFA5B
:1010700000201EF0E9FA00201EF0E6FA00201EF023
:10108000E3FA00201EF0E0FA00201EF0DDFA002056
:101090001EF0DAFA00201EF0D7FA00201EF0D4FA73
:1010A00000201EF0D1FA00201EF0CEFA00201EF023
:1010B000CBFA00201EF0C8FA00201EF0C5FA00206E
:1010C0001EF0C2FA00201EF0BFFA00201EF0BCFA8B
:1010D00000201EF0B9FA00201EF0B6FA00201EF023
:1010E000B3FA00201EF0B0FA00201EF0ADFA002086
:1010F0001EF0AAFA00201EF0A7FA00201EF0A4FAA3
:1011000000201EF0A1FA00201EF09EFA00201EF022
:101110009BFA00201EF098FA00201EF095FA00209D
:101120001EF092FA00201EF08FFA00201EF08CFABA
:1011300000201EF089FA00201EF086FA00201EF022
:1011400083FA00201EF080FA00201EF07DFA0020B5
:101150001EF07AFA00201EF077FA00201EF074FAD2
:1011600000201EF071FA00201EF06EFA00201EF022
:101170006BFA00201EF068FA00201EF065FA0020CD
:101180001EF062FA00201EF05FFA00201EF05CFAEA
:1011900000201EF059FA00201EF056FA00201EF022
:1011A00053FA00201EF050FA00201EF04DFA0020E5
:1011B0001EF04AFA00201EF047FA00201EF044FA02
:1011C00000201EF041FA00201EF03EFA00201EF022
:1011D0003BFA00201EF038FA00201EF035FA0020FD
:1011E0001EF032FA00201EF02FFA00201EF02CFA1A
:1011F00000201EF029FA00201EF026FA00201EF022
:1012000023FA00201EF020FA00201EF01DFA002014
:101210001EF01AFA00201EF017FA00201EF014FA31
:1012200000201EF011FA00201EF00EFA00201EF021
:101230000BFA00201EF008FA00201EF005FA00202C
:101240001EF002FA00201EF0FFF900201EF0FCF94B
:1012500000201EF0F9F900201EF0F6F900201EF023
:10126000F3F900201EF0F0F900201EF0EDF9002047
:101270001EF0EAF900201EF0E7F900201EF0E4F964
:1012800000201EF0E1F900201EF0DEF900201EF023
:10129000DBF900201EF0D8F900201EF0D5F900205F
:1012A0001EF0D2F900201EF0CFF900201EF0CCF97C
:1012B00000201EF0C9F900201EF0C6F900201EF023
:1012C000C3F900201EF0C0F900201EF0BDF9002077
:1012D0001EF0BAF900201EF0B7F900201EF0B4F994
:1012E00000201EF0B1F900201EF0AEF900201EF023
:1012F000ABF900201EF0A8F900201EF0A5F900208F
:101300001EF0A2F900201EF09FF900201EF09CF9AB
:1013100000201EF099F900201EF096F900201EF022
:1013200093F900201EF090F900201EF08DF90020A6
:101330001EF08AF900201EF087F900201EF084F9C3
:1013400000201EF081F900201EF07EF900201EF022
:101350007BF900201EF078F900201EF075F90020BE
:101360001EF072F900201EF06FF900201EF06CF9DB
:1013700000201EF069F900201EF066F900201EF022
:1013800063F900201EF060F900201EF05DF90020D6
:101390001EF05AF900201EF057F900201EF054F9F3
:1013A00000201EF051F900201EF04EF900201EF022
:1013B0004BF900201EF048F900201EF045F90020EE
:1013C0001EF042F900201EF03FF900201EF03CF90B
:1013D00000201EF039F900201EF036F900201EF022
:1013E00033F900201EF030F900201EF02DF9002006
:1013F0001EF02AF900201EF027F900201EF024F923
:1014000000201EF021F900201EF01EF900201EF021
:101410001BF900201EF018F900201EF015F900201D
:101420001EF012F900201EF00FF900201EF00CF93A
:1014300000201EF009F900201EF006F900201EF021
:1014400003F900201EF000F900201EF0FDF8002036
:101450001EF0FAF800201EF0F7F800201EF0F4F855
:1014600000201EF0F1F800201EF0EEF800201EF023
:10147000EBF800201EF0E8F800201EF0E5F8002050
:101480001EF0E2F800201EF0DFF800201EF0DCF86D
:1014900000201EF0D9F800201EF0D6F800201EF023
:1014A000D3F800201EF0D0F800201EF0CDF8002068
:1014B0001EF0CAF800201EF0C7F800201EF0C4F885
:1014C00000201EF0C1F800201EF0BEF800201EF023
:1014D000BBF800201EF0B8F800201EF0B5F8002080
:1014E0001EF0B2F800201EF0AFF800201EF0ACF89D
:1014F00000201EF0A9F800201EF0A6F800201EF023
:10150000A3F800201EF0A0F800201EF09DF8002097
:101510001EF09AF800201EF097F800201EF094F8B4
:1015200000201EF091F800201EF08EF800201EF022
:101530008BF800201EF088F800201EF085F80020AF
:101540001EF082F800201EF07FF800201EF07CF8CC
:1015500000201EF079F800201EF076F800201EF022
:1015600073F800201EF070F800201EF06DF80020C7
:101570001EF06AF800201EF067F800201EF064F8E4
:1015800000201EF061F800201EF05EF800201EF022
:101590005BF800201EF058F800201EF055F80020DF
:1015A0001EF052F800201EF04FF800201EF04CF8FC
:1015B00000201EF049F800201EF046F800201EF022
:1015C00043F800201EF040F800201EF03DF80020F7
:1015D0001EF03AF800201EF037F800201EF034F814
:1015E00000201EF031F800201EF02EF800201EF022
:1015F0002BF800201EF028F800201EF025F800200F
:101600001EF022F800201EF01FF800201EF01CF82B
:1016100000201EF019F800201EF016F800201EF021
:1016200013F800201EF010F800201EF00DF8002026
:101630001EF00AF800201EF007F800201EF004F843
:1016400000201EF001F800201DF0FEFF00201DF01C
:10165000FBFF00201DF0F8FF00201DF0F5FF00202B
:101660001DF0F2FF00201DF0EFFF00201DF0ECFF49
:1016700000201DF0E9FF00201DF0E6FF00201DF016
:10168000E3FF00201DF0E0FF00201DF0DDFF002043
:101690001DF0DAFF00201DF0D7FF00201DF0D4FF61
:1016A00000201DF0D1FF00201DF0CEFF00201DF016
:1016B000CBFF00201DF0C8FF00201DF0C5FF00205B
:1016C0001DF0C2FF00201DF0BFFF00201DF0BCFF79
:1016D00000201DF0B9FF00201DF0B6FF00201DF016
:1016E000B3FF00201DF0B0FF00201DF0ADFF002073
:1016F0001DF0AAFF00201DF0A7FF00201DF0A4FF91
:1017000000201DF0A1FF00201DF09EFF00201DF015
:101710009BFF00201DF098FF00201DF095FF00208A
:101720001DF092FF00201DF08FFF00201DF08CFFA8
:1017300000201DF089FF00201DF086FF00201DF015
:1017400083FF00201DF080FF00201DF07DFF0020A2
:101750001DF07AFF00201DF077FF00201DF074FFC0
:1017600000201DF071FF00201DF06EFF00201DF015
:101770006BFF00201DF068FF00201DF065FF0020BA
:101780001DF062FF00201DF05FFF00201DF05CFFD8
:1017900000201DF059FF00201DF056FF00201DF015
:1017A00053FF00201DF050FF00201DF04DFF0020D2
:1017B0001DF04AFF00201DF047FF00201DF044FFF0
:1017C00000201DF041FF00201DF03EFF00201DF015
:1017D0003BFF00201DF038FF00201DF035FF0020EA
:1017E0001DF032FF00201DF02FFF00201DF02CFF08
:1017F00000201DF029FF00201DF026FF00201DF015
:1018000023FF00201DF020FF00201DF01DFF002001
:101810001DF01AFF00201DF017FF00201DF014FF1F
:1018200000201DF011FF00201DF00EFF00201DF014
:101830000BFF00201DF008FF00201DF005FF002019
:101840001DF002FF00201DF0FFFE00201DF0FCFE39
:1018500000201DF0F9FE00201DF0F6FE00201DF016
:10186000F3FE00201DF0F0FE00201DF0EDFE002034
:101870001DF0EAFE00201DF0E7FE00201DF0E4FE52
:1018800000201DF0E1FE00201DF0DEFE00201DF016
:10189000DBFE00201DF0D8FE00201DF0D5FE00204C
:1018A0001DF0D2FE00201DF0CFFE00201DF0CCFE6A
:1018B00000201DF0C9FE00201DF0C6FE00201DF016
:1018C000C3FE00201DF0C0FE00201DF0BDFE002064
:1018D0001DF0BAFE00201DF0B7FE00201DF0B4FE82
:1018E00000201DF0B1FE00201DF0AEFE00201DF016
:1018F000ABFE00201DF0A8FE00201DF0A5FE00207C
:101900001DF0A2FE00201DF09FFE00201DF09CFE99
:1019100000201DF099FE00201DF096FE00201DF015
:1019200093FE00201DF090FE00201DF08DFE002093
:101930001DF08AFE00201DF087FE00201DF084FEB1
:1019400000201DF081FE00201DF07EFE00201DF015
:101950007BFE00201DF078FE00201DF075FE0020AB
:101960001DF072FE00201DF06FFE00201DF06CFEC9
:1019700000201DF069FE00201DF066FE00201DF015
:1019800063FE00201DF060FE00201DF05DFE0020C3
:101990001DF05AFE00201DF057FE00201DF054FEE1
:1019A00000201DF051FE00201DF04EFE00201DF015
:1019B0004BFE00201DF048FE00201DF045FE0020DB
:1019C0001DF042FE00201DF03FFE00201DF03CFEF9
:1019D00000201DF039FE00201DF036FE00201DF015
:1019E00033FE00201DF030FE00201DF02DFE0020F3
:1019F0001DF02AFE00201DF027FE00201DF024FE11
:101A000000201DF021FE00201DF01EFE00201DF014
:101A10001BFE00201DF018FE00201DF015FE00200A
:101A20001DF012FE00201DF00FFE00201DF00CFE28
:101A300000201DF009FE00201DF006FE00201DF014
:101A400003FE00201DF000FE00201DF0FDFD002023
:101A50001DF0FAFD00201DF0F7FD00201DF0F4FD43
:101A600000201DF0F1FD00201DF0EEFD00201DF016
:101A7000EBFD00201DF0E8FD00201DF0E5FD00203D
:101A80001DF0E2FD00201DF0DFFD00201DF0DCFD5B
:101A900000201DF0D9FD00201DF0D6FD00201DF016
:101AA000D3FD00201DF0D0FD00201DF0CDFD002055
:101AB0001DF0CAFD00201DF0C7FD00201DF0C4FD73
:101AC00000201DF0C1FD00201DF0BEFD00201DF016
:101AD000BBFD00201DF0B8FD00201DF0B5FD00206D
:101AE0001DF0B2FD00201DF0AFFD00201DF0ACFD8B
:101AF00000201DF0A9FD00201DF0A6FD00201DF016
:101B0000A3FD00201DF0A0FD00201DF09DFD002084
:101B10001DF09AFD00201DF097FD00201DF094FDA2
:101B200000201DF091FD00201DF08EFD00201DF015
:101B30008BFD00201DF088FD00201DF085FD00209C
:101B40001DF082FD00201DF07FFD00201DF07CFDBA
:101B500000201DF079FD00201DF076FD00201DF015
:101B600073FD00201DF070FD00201DF06DFD0020B4
:101B70001DF06AFD00201DF067FD00201DF064FDD2
:101B800000201DF061FD00201DF05EFD00201DF015
:101B90005BFD00201DF058FD00201DF055FD0020CC
:101BA0001DF052FD00201DF04FFD00201DF04CFDEA
:101BB00000201DF049FD00201DF046FD00201DF015
:101BC00043FD00201DF040FD00201DF03DFD0020E4
:101BD0001DF03AFD00201DF037FD00201DF034FD02
:101BE00000201DF031FD00201DF02EFD00201DF015
:101BF0002BFD00201DF028FD00201DF025FD0020FC
:101C00001DF022FD00201DF01FFD00201DF01CFD19
:101C100000201DF019FD00201DF016FD00201DF014
:101C200013FD00201DF010FD00201DF00DFD002013
:101C30001DF00AFD00201DF007FD00201DF004FD31
:101C400000201DF001FD00201DF0FEFC00201DF015
:101C5000FBFC00201DF0F8FC00201DF0F5FC00202E
:101C60001DF0F2FC00201DF0EFFC00201DF0ECFC4C
:101C700000201DF0E9FC00201DF0E6FC00201DF016
:101C8000E3FC00201DF0E0FC00201DF0DDFC002046
:101C90001DF0DAFC00201DF0D7FC00201DF0D4FC64
:101CA00000201DF0D1FC00201DF0CEFC00201DF016
:101CB000CBFC00201DF0C8FC00201DF0C5FC00205E
:101CC0001DF0C2FC00201DF0BFFC00201DF0BCFC7C
:101CD00000201DF0B9FC00201DF0B6FC00201DF016
:101CE000B3FC00201DF0B0FC00201DF0ADFC002076
:101CF0001DF0AAFC00201DF0A7FC00201DF0A4FC94
:101D000000201DF0A1FC00201DF09EFC00201DF015
:101D10009BFC00201DF098FC00201DF095FC00208D
:101D20001DF092FC00201DF08FFC00201DF08CFCAB
:101D300000201DF089FC00201DF086FC00201DF015
:101D400083FC00201DF080FC00201DF07DFC0020A5
:101D50001DF07AFC00201DF077FC00201DF074FCC3
:101D600000201DF071FC00201DF06EFC00201DF015
:101D70006BFC00201DF068FC00201DF065FC0020BD
:101D80001DF062FC00201DF05FFC00201DF05CFCDB
:101D900000201DF059FC00201DF056FC00201DF015
:101DA00053FC00201DF050FC00201DF04DFC0020D5
:101DB0001DF04AFC00201DF047FC00201DF044FCF3
:101DC00000201DF041FC00201DF03EFC00201DF015
:101DD0003BFC00201DF038FC00201DF035FC0020ED
:101DE0001DF032FC00201DF02FFC00201DF02CFC0B
:101DF00000201DF029FC00201DF026FC00201DF015
:101E000023FC00201DF020FC00201DF01DFC002004
:101E10001DF01AFC00201DF017FC00201DF014FC22
:101E200000201DF011FC00201DF00EFC00201DF014
:101E30000BFC00201DF008FC00201DF005FC00201C
:101E40001DF002FC00201DF0FFFB00201DF0FCFB3C
:101E500000201DF0F9FB00201DF0F6FB00201DF016
:101E6000F3FB00201DF0F0FB00201DF0EDFB002037
:101E70001DF0EAFB00201DF0E7FB00201DF0E4FB55
:101E800000201DF0E1FB00201DF0DEFB00201DF016
:101E9000DBFB00201DF0D8FB00201DF0D5FB00204F
:101EA0001DF0D2FB00201DF0CFFB00201DF0CCFB6D
:101EB00000201DF0C9FB00201DF0C6FB00201DF016
:101EC000C3FB00201DF0C0FB00201DF0BDFB002067
:101ED0001DF0BAFB00201DF0B7FB00201DF0B4FB85
:101EE00000201DF0B1FB00201DF0AEFB00201DF016
:101EF000ABFB00201DF0A8FB00201DF0A5FB00207F
:101F00001DF0A2FB00201DF09FFB00201DF09CFB9C
:101F100000201DF099FB00201DF096FB00201DF015
:101F200093FB00201DF090FB00201DF08DFB002096
:101F30001DF08AFB00201DF087FB00201DF084FBB4
:101F400000201DF081FB00201DF07EFB00201DF015
:101F50007BFB00201DF078FB00201DF075FB0020AE
:101F60001DF072FB00201DF06FFB00201DF06CFBCC
:101F700000201DF069FB00201DF066FB00201DF015
:101F800063FB00201DF060FB00201DF05DFB0020C6
:101F90001DF05AFB00201DF057FB00201DF054FBE4
:101FA00000201DF051FB00201DF04EFB00201DF015
:101FB0004BFB00201DF048FB00201DF045FB0020DE
:101FC0001DF042FB00201DF03FFB00201DF03CFBFC
:101FD00000201DF039FB00201DF036FB00201DF015
:101FE00033FB00201DF030FB00201DF02DFB0020F6
:101FF0001DF02AFB00201DF027FB00201DF024FB14
:1020000000201DF021FB00201DF01EFB00201DF014
:102010001BFB00201DF018FB00201DF015FB00200D
:102020001DF012FB00201DF00FFB00201DF00CFB2B
:1020300000201DF009FB00201DF006FB00201DF014
:1020400003FB00201DF000FB00201DF0FDFA002026
:102050001DF0FAFA00201DF0F7FA00201DF0F4FA46
:1020600000201DF0F1FA00201DF0EEFA00201DF016
:10207000EBFA00201DF0E8FA00201DF0E5FA002040
:102080001DF0E2FA00201DF0DFFA00201DF0DCFA5E
:1020900000201DF0D9FA00201DF0D6FA00201DF016
:1020A000D3FA00201DF0D0FA00201DF0CDFA002058
:1020B0001DF0CAFA00201DF0C7FA00201DF0C4FA76
:1020C00000201DF0C1FA00201DF0BEFA00201DF016
:1020D000BBFA00201DF0B8FA00201DF0B5FA002070
:1020E0001DF0B2FA00201DF0AFFA00201DF0ACFA8E
:1020F00000201DF0A9FA00201DF0A6FA00201DF016
:10210000A3FA00201DF0A0FA00201DF09DFA002087
:102110001DF09AFA00201DF097FA00201DF094FAA5
:1021200000201DF091FA00201DF08EFA00201DF015
:102130008BFA00201DF088FA00201DF085FA00209F
:102140001DF082FA00201DF07FFA00201DF07CFABD
:1021500000201DF079FA00201DF076FA00201DF015
:1021600073FA00201DF070FA00201DF06DFA0020B7
:102170001DF06AFA00201DF067FA00201DF064FAD5
:1021800000201DF061FA00201DF05EFA00201DF015
:102190005BFA00201DF058FA00201DF055FA0020CF
:1021A0001DF052FA00201DF04FFA00201DF04CFAED
:1021B00000201DF049FA00201DF046FA00201DF015
:1021C00043FA00201DF040FA00201DF03DFA0020E7
:1021D0001DF03AFA00201DF037FA00201DF034FA05
:1021E00000201DF031FA00201DF02EFA00201DF015
:1021F0002BFA00201DF028FA00201DF025FA0020FF
:102200001DF022FA00201DF01FFA00201DF01CFA1C
:1022100000201DF019FA00201DF016FA00201DF014
:1022200013FA00201DF010FA00201DF00DFA002016
:102230001DF00AFA00201DF007FA00201DF004FA34
:1022400000201DF001FA00201DF0FEF900201DF015
:10225000FBF900201DF0F8F900201DF0F5F9002031
:102260001DF0F2F900201DF0EFF900201DF0ECF94F
:1022700000201DF0E9F900201DF0E6F900201DF016
:10228000E3F900201DF0E0F900201DF0DDF9002049
:102290001DF0DAF900201DF0D7F900201DF0D4F967
:1022A00000201DF0D1F900201DF0CEF900201DF016
:1022B000CBF900201DF0C8F900201DF0C5F9002061
:1022C0001DF0C2F900201DF0BFF900201DF0BCF97F
:1022D00000201DF0B9F900201DF0B6F900201DF016
:1022E000B3F900201DF0B0F900201DF0ADF9002079
:1022F0001DF0AAF900201DF0A7F900201DF0A4F997
:1023000000201DF0A1F900201DF09EF900201DF015
:102310009BF900201DF098F900201DF095F9002090
:102320001DF092F900201DF08FF900201DF08CF9AE
:1023300000201DF089F900201DF086F900201DF015
:1023400083F900201DF080F900201DF07DF90020A8
:102350001DF07AF900201DF077F900201DF074F9C6
:1023600000201DF071F900201DF06EF900201DF015
:102370006BF900201DF068F900201DF065F90020C0
:102380001DF062F900201DF05FF900201DF05CF9DE
:1023900000201DF059F900201DF056F900201DF015
:1023A00053F900201DF050F900201DF04DF90020D8
:1023B0001DF04AF900201DF047F900201DF044F9F6
:1023C00000201DF041F900201DF03EF900201DF015
:1023D0003BF900201DF038F900201DF035F90020F0
:1023E0001DF032F900201DF02FF900201DF02CF90E
:1023F00000201DF029F900201DF026F900201DF015
:1024000023F900201DF020F900201DF01DF9002007
:102410001DF01AF900201DF017F900201DF014F925
:1024200000201DF011F900201DF00EF900201DF014
:102430000BF900201DF008F900201DF005F900201F
:102440001DF002F900201DF0FFF800201DF0FCF83F
:1024500000201DF0F9F800201DF0F6F800201DF016
:10246000F3F800201DF0F0F800201DF0EDF800203A
:102470001DF0EAF800201DF0E7F800201DF0E4F858
:1024800000201DF0E1F800201DF0DEF800201DF016
:10249000DBF800201DF0D8F800201DF0D5F8002052
:1024A0001DF0D2F800201DF0CFF800201DF0CCF870
:1024B00000201DF0C9F800201DF0C6F800201DF016
:1024C000C3F800201DF0C0F800201DF0BDF800206A
:1024D0001DF0BAF800201DF0B7F800201DF0B4F888
:1024E00000201DF0B1F800201DF0AEF800201DF016
:1024F000ABF800201DF0A8F800201DF0A5F8002082
:102500001DF0A2F800201DF09FF800201DF09CF89F
:1025100000201DF099F800201DF096F800201DF015
:1025200093F800201DF090F800201DF08DF8002099
:102530001DF08AF800201DF087F800201DF084F8B7
:1025400000201DF081F800201DF07EF800201DF015
:102550007BF800201DF078F800201DF075F80020B1
:102560001DF072F800201DF06FF800201DF06CF8CF
:1025700000201DF069F800201DF066F800201DF015
:1025800063F800201DF060F800201DF05DF80020C9
:102590001DF05AF800201DF057F800201DF054F8E7
:1025A00000201DF051F800201DF04EF800201DF015
:1025B0004BF800201DF048F800201DF045F80020E1
:1025C0001DF042F800201DF03FF800201DF03CF8FF
:1025D00000201DF039F800201DF036F800201DF015
:1025E00033F800201DF030F800201DF02DF80020F9
:1025F0001DF02AF800201DF027F800201DF024F817
:1026000000201DF021F800201DF01EF800201DF014
:102610001BF800201DF018F800201DF015F8002010
:102620001DF012F800201DF00FF800201DF00CF82E
:1026300000201DF009F800201DF006F800201DF014
:1026400003F800201DF000F800201CF0FDFF002022
:102650001CF0FAFF00201CF0F7FF00201CF0F4FF34
:1026600000201CF0F1FF00201CF0EEFF00201CF009
:10267000EBFF00201CF0E8FF00201CF0E5FF00202D
:102680001CF0E2FF00201CF0DFFF00201CF0DCFF4C
:1026900000201CF0D9FF00201CF0D6FF00201CF009
:1026A000D3FF00201CF0D0FF00201CF0CDFF002045
:1026B0001CF0CAFF00201CF0C7FF00201CF0C4FF64
:1026C00000201CF0C1FF00201CF0BEFF00201CF009
:1026D000BBFF00201CF0B8FF00201CF0B5FF00205D
:1026E0001CF0B2FF00201CF0AFFF00201CF0ACFF7C
:1026F00000201CF0A9FF00201CF0A6FF00201CF009
:10270000A3FF00201CF0A0FF00201CF09DFF002074
:102710001CF09AFF00201CF097FF00201CF094FF93
:1027200000201CF091FF00201CF08EFF00201CF008
:102730008BFF00201CF088FF00201CF085FF00208C
:102740001CF082FF00201CF07FFF00201CF07CFFAB
:1027500000201CF079FF00201CF076FF00201CF008
:1027600073FF00201CF070FF00201CF06DFF0020A4
:102770001CF06AFF00201CF067FF00201CF064FFC3
:1027800000201CF061FF00201CF05EFF00201CF008
:102790005BFF00201CF058FF00201CF055FF0020BC
:1027A0001CF052FF00201CF04FFF00201CF04CFFDB
:1027B00000201CF049FF00201CF046FF00201CF008
:1027C00043FF00201CF040FF00201CF03DFF0020D4
:1027D0001CF03AFF00201CF037FF00201CF034FFF3
:1027E00000201CF031FF00201CF02EFF00201CF008
:1027F0002BFF00201CF028FF00201CF025FF0020EC
:102800001CF022FF00201CF01FFF00201CF01CFF0A
:1028100000201CF019FF00201CF016FF00201CF007
:1028200013FF00201CF010FF00201CF00DFF002003
:102830001CF00AFF00201CF007FF00201CF004FF22
:1028400000201CF001FF00201CF0FEFE00201CF008
:10285000FBFE00201CF0F8FE00201CF0F5FE00201E
:102860001CF0F2FE00201CF0EFFE00201CF0ECFE3D
:1028700000201CF0E9FE00201CF0E6FE00201CF009
:10288000E3FE00201CF0E0FE00201CF0DDFE002036
:102890001CF0DAFE00201CF0D7FE00201CF0D4FE55
:1028A00000201CF0D1FE00201CF0CEFE00201CF009
:1028B000CBFE00201CF0C8FE00201CF0C5FE00204E
:1028C0001CF0C2FE00201CF0BFFE00201CF0BCFE6D
:1028D00000201CF0B9FE00201CF0B6FE00201CF009
:1028E000B3FE00201CF0B0FE00201CF0ADFE002066
:1028F0001CF0AAFE00201CF0A7FE00201CF0A4FE85
:1029000000201CF0A1FE00201CF09EFE00201CF008
:102910009BFE00201CF098FE00201CF095FE00207D
:102920001CF092FE00201CF08FFE00201CF08CFE9C
:1029300000201CF089FE00201CF086FE00201CF008
:1029400083FE00201CF080FE00201CF07DFE002095
:102950001CF07AFE00201CF077FE00201CF074FEB4
:1029600000201CF071FE00201CF06EFE00201CF008
:102970006BFE00201CF068FE00201CF065FE0020AD
:102980001CF062FE00201CF05FFE00201CF05CFECC
:1029900000201CF059FE00201CF056FE00201CF008
:1029A00053FE00201CF050FE00201CF04DFE0020C5
:1029B0001CF04AFE00201CF047FE00201CF044FEE4
:1029C00000201CF041FE00201CF03EFE00201CF008
:1029D0003BFE00201CF038FE00201CF035FE0020DD
:1029E0001CF032FE00201CF02FFE00201CF02CFEFC
:1029F00000201CF029FE00201CF026FE00201CF008
:102A000023FE00201CF020FE00201CF01DFE0020F4
:102A10001CF01AFE00201CF017FE00201CF014FE13
:102A200000201CF011FE00201CF00EFE00201CF007
:102A30000BFE00201CF008FE00201CF005FE00200C
:102A40001CF002FE00201CF0FFFD00201CF0FCFD2D
:102A500000201CF0F9FD00201CF0F6FD00201CF009
:102A6000F3FD00201CF0F0FD00201CF0EDFD002027
:102A70001CF0EAFD00201CF0E7FD00201CF0E4FD46
:102A800000201CF0E1FD00201CF0DEFD00201CF009
:102A9000DBFD00201CF0D8FD00201CF0D5FD00203F
:102AA0001CF0D2FD00201CF0CFFD00201CF0CCFD5E
:102AB00000201CF0C9FD00201CF0C6FD00201CF009
:102AC000C3FD00201CF0C0FD00201CF0BDFD002057
:102AD0001CF0BAFD00201CF0B7FD00201CF0B4FD76
:102AE00000201CF0B1FD00201CF0AEFD00201CF009
:102AF000ABFD00201CF0A8FD00201CF0A5FD00206F
:102B00001CF0A2FD00201CF09FFD00201CF09CFD8D
:102B100000201CF099FD00201CF096FD00201CF008
:102B200093FD00201CF090FD00201CF08DFD002086
:102B30001CF08AFD00201CF087FD00201CF084FDA5
:102B400000201CF081FD00201CF07EFD00201CF008
:102B50007BFD00201CF078FD00201CF075FD00209E
:102B60001CF072FD00201CF06FFD00201CF06CFDBD
:102B700000201CF069FD00201CF066FD00201CF008
:102B800063FD00201CF060FD00201CF05DFD0020B6
:102B90001CF05AFD00201CF057FD00201CF054FDD5
:102BA00000201CF051FD00201CF04EFD00201CF008
:102BB0004BFD00201CF048FD00201CF045FD0020CE
:102BC0001CF042FD00201CF03FFD00201CF03CFDED
:102BD00000201CF039FD00201CF036FD00201CF008
:102BE00033FD00201CF030FD00201CF02DFD0020E6
:102BF0001CF02AFD00201CF027FD00201CF024FD05
:102C000000201CF021FD00201CF01EFD00201CF007
:102C10001BFD00201CF018FD00201CF015FD0020FD
:102C20001CF012FD00201CF00FFD00201CF00CFD1C
:102C300000201CF009FD00201CF006FD00201CF007
:102C400003FD00201CF000FD00201CF0FDFC002016
:102C50001CF0FAFC00201CF0F7FC00201CF0F4FC37
:102C600000201CF0F1FC00201CF0EEFC00201CF009
:102C7000EBFC00201CF0E8FC00201CF0E5FC002030
:102C80001CF0E2FC00201CF0DFFC00201CF0DCFC4F
:102C900000201CF0D9FC00201CF0D6FC00201CF009
:102CA000D3FC00201CF0D0FC00201CF0CDFC002048
:102CB0001CF0CAFC00201CF0C7FC00201CF0C4FC67
:102CC00000201CF0C1FC00201CF0BEFC00201CF009
:102CD000BBFC00201CF0B8FC00201CF0B5FC002060
:102CE0001CF0B2FC00201CF0AFFC00201CF0ACFC7F
:102CF00000201CF0A9FC00201CF0A6FC00201CF009
:102D0000A3FC00201CF0A0FC00201CF09DFC002077
:102D10001CF09AFC00201CF097FC00201CF094FC96
:102D200000201CF091FC00201CF08EFC00201CF008
:102D30008BFC00201CF088FC00201CF085FC00208F
:102D40001CF082FC00201CF07FFC00201CF07CFCAE
:102D500000201CF079FC00201CF076FC00201CF008
:102D600073FC00201CF070FC00201CF06DFC0020A7
:102D70001CF06AFC00201CF067FC00201CF064FCC6
:102D800000201CF061FC00201CF05EFC00201CF008
:102D90005BFC00201CF058FC00201CF055FC0020BF
:102DA0001CF052FC00201CF04FFC00201CF04CFCDE
:102DB00000201CF049FC00201CF046FC00201CF008
:102DC00043FC00201CF040FC00201CF03DFC0020D7
:102DD0001CF03AFC00201CF037FC00201CF034FCF6
:102DE00000201CF031FC00201CF02EFC00201CF008
:102DF0002BFC00201CF028FC00201CF025FC0020EF
:102E00001CF022FC00201CF01FFC00201CF01CFC0D
:102E100000201CF019FC00201CF016FC00201CF007
:102E200013FC00201CF010FC00201CF00DFC002006
:102E30001CF00AFC00201CF007FC00201CF004FC25
:102E400000201CF001FC00201CF0FEFB00201CF008
:102E5000FBFB00201CF0F8FB00201CF0F5FB002021
:102E60001CF0F2FB00201CF0EFFB00201CF0ECFB40
:102E700000201CF0E9FB00201CF0E6FB00201CF009
:102E8000E3FB00201CF0E0FB00201CF0DDFB002039
:102E90001CF0DAFB00201CF0D7FB00201CF0D4FB58
:102EA00000201CF0D1FB00201CF0CEFB00201CF009
:102EB000CBFB00201CF0C8FB00201CF0C5FB002051
:102EC0001CF0C2FB00201CF0BFFB00201CF0BCFB70
:102ED00000201CF0B9FB00201CF0B6FB00201CF009
:102EE000B3FB00201CF0B0FB00201CF0ADFB002069
:102EF0001CF0AAFB00201CF0A7FB00201CF0A4FB88
:102F000000201CF0A1FB00201CF09EFB00201CF008
:102F10009BFB00201CF098FB00201CF095FB002080
:102F20001CF092FB00201CF08FFB00201CF08CFB9F
:102F300000201CF089FB00201CF086FB00201CF008
:102F400083FB00201CF080FB00201CF07DFB002098
:102F50001CF07AFB00201CF077FB00201CF074FBB7
:102F600000201CF071FB00201CF06EFB00201CF008
:102F70006BFB00201CF068FB00201CF065FB0020B0
:102F80001CF062FB00201CF05FFB00201CF05CFBCF
:102F900000201CF059FB00201CF056FB00201CF008
:102FA00053FB00201CF050FB00201CF04DFB0020C8
:102FB0001CF04AFB00201CF047FB00201CF044FBE7
:102FC00000201CF041FB00201CF03EFB00201CF008
:102FD0003BFB00201CF038FB00201CF035FB0020E0
:102FE0001CF032FB00201CF02FFB00201CF02CFBFF
:102FF00000201CF029FB00201CF026FB00201CF008
:1030000023FB00201CF020FB00201CF01DFB0020F7
:103010001CF01AFB00201CF017FB00201CF014FB16
:1030200000201CF011FB00201CF00EFB00201CF007
:103030000BFB00201CF008FB00201CF005FB00200F
:103040001CF002FB00201CF0FFFA00201CF0FCFA30
:1030500000201CF0F9FA00201CF0F6FA00201CF009
:10306000F3FA00201CF0F0FA00201CF0EDFA00202A
:103070001CF0EAFA00201CF0E7FA00201CF0E4FA49
:1030800000201CF0E1FA00201CF0DEFA00201CF009
:10309000DBFA00201CF0D8FA00201CF0D5FA002042
:1030A0001CF0D2FA00201CF0CFFA00201CF0CCFA61
:1030B00000201CF0C9FA00201CF0C6FA00201CF009
:1030C000C3FA00201CF0C0FA00201CF0BDFA00205A
:1030D0001CF0BAFA00201CF0B7FA00201CF0B4FA79
:1030E00000201CF0B1FA00201CF0AEFA00201CF009
:1030F000ABFA00201CF0A8FA00201CF0A5FA002072
:103100001CF0A2FA00201CF09FFA00201CF09CFA90
:1031100000201CF099FA00201CF096FA00201CF008
:1031200093FA00201CF090FA00201CF08DFA002089
:103130001CF08AFA00201CF087FA00201CF084FAA8
:1031400000201CF081FA00201CF07EFA00201CF008
:103150007BFA00201CF078FA00201CF075FA0020A1
:103160001CF072FA00201CF06FFA00201CF06CFAC0
:1031700000201CF069FA00201CF066FA00201CF008
:1031800063FA00201CF060FA00201CF05DFA0020B9
:103190001CF05AFA00201CF057FA00201CF054FAD8
:1031A00000201CF051FA00201CF04EFA00201CF008
:1031B0004BFA00201CF048FA00201CF045FA0020D1
:1031C0001CF042FA00201CF03FFA00201CF03CFAF0
:1031D00000201CF039FA00201CF036FA00201CF008
:1031E00033FA00201CF030FA00201CF02DFA0020E9
:1031F0001CF02AFA00201CF027FA00201CF024FA08
:1032000000201CF021FA00201CF01EFA00201CF007
:103210001BFA00201CF018FA00201CF015FA002000
:103220001CF012FA00201CF00FFA00201CF00CFA1F
:1032300000201CF009FA00201CF006FA00201CF007
:1032400003FA00201CF000FA00201CF0FDF9002019
:103250001CF0FAF900201CF0F7F900201CF0F4F93A
:1032600000201CF0F1F900201CF0EEF900201CF009
:10327000EBF900201CF0E8F900201CF0E5F9002033
:103280001CF0E2F900201CF0DFF900201CF0DCF952
:1032900000201CF0D9F900201CF0D6F900201CF009
:1032A000D3F900201CF0D0F900201CF0CDF900204B
:1032B0001CF0CAF900201CF0C7F900201CF0C4F96A
:1032C00000201CF0C1F900201CF0BEF900201CF009
:1032D000BBF900201CF0B8F900201CF0B5F9002063
:1032E0001CF0B2F900201CF0AFF900201CF0ACF982
:1032F00000201CF0A9F900201CF0A6F900201CF009
:10330000A3F900201CF0A0F900201CF09DF900207A
:103310001CF09AF900201CF097F900201CF094F999
:1033200000201CF091F900201CF08EF900201CF008
:103330008BF900201CF088F900201CF085F9002092
:103340001CF082F900201CF07FF900201CF07CF9B1
:1033500000201CF079F900201CF076F900201CF008
:1033600073F900201CF070F900201CF06DF90020AA
:103370001CF06AF900201CF067F900201CF064F9C9
:1033800000201CF061F900201CF05EF900201CF008
:103390005BF900201CF058F900201CF055F90020C2
:1033A0001CF052F900201CF04FF900201CF04CF9E1
:1033B00000201CF049F900201CF046F900201CF008
:1033C00043F900201CF040F900201CF03DF90020DA
:1033D0001CF03AF900201CF037F900201CF034F9F9
:1033E00000201CF031F900201CF02EF900201CF008
:1033F0002BF900201CF028F900201CF025F90020F2
:103400001CF022F900201CF01FF900201CF01CF910
:1034100000201CF019F900201CF016F900201CF007
:1034200013F900201CF010F900201CF00DF9002009
:103430001CF00AF900201CF007F900201CF004F928
:1034400000201CF001F900201CF0FEF800201CF008
:10345000FBF800201CF0F8F800201CF0F5F8002024
:103460001CF0F2F800201CF0EFF800201CF0ECF843
:1034700000201CF0E9F800201CF0E6F800201CF009
:10348000E3F800201CF0E0F800201CF0DDF800203C
:103490001CF0DAF800201CF0D7F800201CF0D4F85B
:1034A00000201CF0D1F800201CF0CEF800201CF009
:1034B000CBF800201CF0C8F800201CF0C5F8002054
:1034C0001CF0C2F800201CF0BFF800201CF0BCF873
:1034D00000201CF0B9F800201CF0B6F800201CF009
:1034E000B3F800201CF0B0F800201CF0ADF800206C
:1034F0001CF0AAF800201CF0A7F800201CF0A4F88B
:1035000000201CF0A1F800201CF09EF800201CF008
:103510009BF800201CF098F800201CF095F8002083
:103520001CF092F800201CF08FF800201CF08CF8A2
:1035300000201CF089F800201CF086F800201CF008
:1035400083F800201CF080F800201CF07DF800209B
:103550001CF07AF800201CF077F800201CF074F8BA
:1035600000201CF071F800201CF06EF800201CF008
:103570006BF800201CF068F800201CF065F80020B3
:103580001CF062F800201CF05FF800201CF05CF8D2
:1035900000201CF059F800201CF056F800201CF008
:1035A00053F800201CF050F800201CF04DF80020CB
:1035B0001CF04AF800201CF047F800201CF044F8EA
:1035C00000201CF041F800201CF03EF800201CF008
:1035D0003BF800201CF038F800201CF035F80020E3
:1035E0001CF032F800201CF02FF800201CF02CF802
:1035F00000201CF029F800201CF026F800201CF008
:1036000023F800201CF020F800201CF01DF80020FA
:103610001CF01AF800201CF017F800201CF014F819
:1036200000201CF011F800201CF00EF800201CF007
:103630000BF800201CF008F800201CF005F8002012
:103640001CF002F800201BF0FFFF00201BF0FCFF25
:1036500000201BF0F9FF00201BF0F6FF00201BF0FC
:10366000F3FF00201BF0F0FF00201BF0EDFF002017
:103670001BF0EAFF00201BF0E7FF00201BF0E4FF37
:1036800000201BF0E1FF00201BF0DEFF00201BF0FC
:10369000DBFF00201BF0D8FF00201BF0D5FF00202F
:1036A0001BF0D2FF00201BF0CFFF00201BF0CCFF4F
:1036B00000201BF0C9FF00201BF0C6FF00201BF0FC
:1036C000C3FF00201BF0C0FF00201BF0BDFF002047
:1036D0001BF0BAFF00201BF0B7FF00201BF0B4FF67
:1036E00000201BF0B1FF00201BF0AEFF00201BF0FC
:1036F000ABFF00201BF0A8FF00201BF0A5FF00205F
:103700001BF0A2FF00201BF09FFF00201BF09CFF7E
:1037100000201BF099FF00201BF096FF00201BF0FB
:1037200093FF00201BF090FF00201BF08DFF002076
:103730001BF08AFF00201BF087FF00201BF084FF96
:1037400000201BF081FF00201BF07EFF00201BF0FB
:103750007BFF00201BF078FF00201BF075FF00208E
:103760001BF072FF00201BF06FFF00201BF06CFFAE
:1037700000201BF069FF00201BF066FF00201BF0FB
:1037800063FF00201BF060FF00201BF05DFF0020A6
:103790001BF05AFF00201BF057FF00201BF054FFC6
:1037A00000201BF051FF00201BF04EFF00201BF0FB
:1037B0004BFF00201BF048FF00201BF045FF0020BE
:1037C0001BF042FF00201BF03FFF00201BF03CFFDE
:1037D00000201BF039FF00201BF036FF00201BF0FB
:1037E00033FF00201BF030FF00201BF02DFF0020D6
:1037F0001BF02AFF00201BF027FF00201BF024FFF6
:1038000000201BF021FF00201BF01EFF00201BF0FA
:103810001BFF00201BF018FF00201BF015FF0020ED
:103820001BF012FF00201BF00FFF00201BF00CFF0D
:1038300000201BF009FF00201BF006FF00201BF0FA
:1038400003FF00201BF000FF00201BF0FDFE002006
:103850001BF0FAFE00201BF0F7FE00201BF0F4FE28
:1038600000201BF0F1FE00201BF0EEFE00201BF0FC
:10387000EBFE00201BF0E8FE00201BF0E5FE002020
:103880001BF0E2FE00201BF0DFFE00201BF0DCFE40
:1038900000201BF0D9FE00201BF0D6FE00201BF0FC
:1038A000D3FE00201BF0D0FE00201BF0CDFE002038
:1038B0001BF0CAFE00201BF0C7FE00201BF0C4FE58
:1038C00000201BF0C1FE00201BF0BEFE00201BF0FC
:1038D000BBFE00201BF0B8FE00201BF0B5FE002050
:1038E0001BF0B2FE00201BF0AFFE00201BF0ACFE70
:1038F00000201BF0A9FE00201BF0A6FE00201BF0FC
:10390000A3FE00201BF0A0FE00201BF09DFE002067
:103910001BF09AFE00201BF097FE00201BF094FE87
:1039200000201BF091FE00201BF08EFE00201BF0FB
:103930008BFE00201BF088FE00201BF085FE00207F
:103940001BF082FE00201BF07FFE00201BF07CFE9F
:1039500000201BF079FE00201BF076FE00201BF0FB
:1039600073FE00201BF070FE00201BF06DFE002097
:103970001BF06AFE00201BF067FE00201BF064FEB7
:1039800000201BF061FE00201BF05EFE00201BF0FB
:103990005BFE00201BF058FE00201BF055FE0020AF
:1039A0001BF052FE00201BF04FFE00201BF04CFECF
:1039B00000201BF049FE00201BF046FE00201BF0FB
:1039C00043FE00201BF040FE00201BF03DFE0020C7
:1039D0001BF03AFE00201BF037FE00201BF034FEE7
:1039E00000201BF031FE00201BF02EFE00201BF0FB
:1039F0002BFE00201BF028FE00201BF025FE0020DF
:103A00001BF022FE00201BF01FFE00201BF01CFEFE
:103A100000201BF019FE00201BF016FE00201BF0FA
:103A200013FE00201BF010FE00201BF00DFE0020F6
:103A30001BF00AFE00201BF007FE00201BF004FE16
:103A400000201BF001FE00201BF0FEFD00201BF0FB
:103A5000FBFD00201BF0F8FD00201BF0F5FD002011
:103A60001BF0F2FD00201BF0EFFD00201BF0ECFD31
:103A700000201BF0E9FD00201BF0E6FD00201BF0FC
:103A8000E3FD00201BF0E0FD00201BF0DDFD002029
:103A90001BF0DAFD00201BF0D7FD00201BF0D4FD49
:103AA00000201BF0D1FD00201BF0CEFD00201BF0FC
:103AB000CBFD00201BF0C8FD00201BF0C5FD002041
:103AC0001BF0C2FD00201BF0BFFD00201BF0BCFD61
:103AD00000201BF0B9FD00201BF0B6FD00201BF0FC
:103AE000B3FD00201BF0B0FD00201BF0ADFD002059
:103AF0001BF0AAFD00201BF0A7FD00201BF0A4FD79
:103B000000201BF0A1FD00201BF09EFD00201BF0FB
:103B10009BFD00201BF098FD00201BF095FD002070
:103B20001BF092FD00201BF08FFD00201BF08CFD90
:103B300000201BF089FD00201BF086FD00201BF0FB
:103B400083FD00201BF080FD00201BF07DFD002088
:103B50001BF07AFD00201BF077FD00201BF074FDA8
:103B600000201BF071FD00201BF06EFD00201BF0FB
:103B70006BFD00201BF068FD00201BF065FD0020A0
:103B80001BF062FD00201BF05FFD00201BF05CFDC0
:103B900000201BF059FD00201BF056FD00201BF0FB
:103BA00053FD00201BF050FD00201BF04DFD0020B8
:103BB0001BF04AFD00201BF047FD00201BF044FDD8
:103BC00000201BF041FD00201BF03EFD00201BF0FB
:103BD0003BFD00201BF038FD00201BF035FD0020D0
:103BE0001BF032FD00201BF02FFD00201BF02CFDF0
:103BF00000201BF029FD00201BF026FD00201BF0FB
:103C000023FD00201BF020FD00201BF01DFD0020E7
:103C10001BF01AFD00201BF017FD00201BF014FD07
:103C200000201BF011FD00201BF00EFD00201BF0FA
:103C30000BFD00201BF008FD00201BF005FD0020FF
:103C40001BF002FD00201BF0FFFC00201BF0FCFC21
:103C500000201BF0F9FC00201BF0F6FC00201BF0FC
:103C6000F3FC00201BF0F0FC00201BF0EDFC00201A
:103C70001BF0EAFC00201BF0E7FC00201BF0E4FC3A
:103C800000201BF0E1FC00201BF0DEFC00201BF0FC
:103C9000DBFC00201BF0D8FC00201BF0D5FC002032
:103CA0001BF0D2FC00201BF0CFFC00201BF0CCFC52
:103CB00000201BF0C9FC00201BF0C6FC00201BF0FC
:103CC000C3FC00201BF0C0FC00201BF0BDFC00204A
:103CD0001BF0BAFC00201BF0B7FC00201BF0B4FC6A
:103CE00000201BF0B1FC00201BF0AEFC00201BF0FC
:103CF000ABFC00201BF0A8FC00201BF0A5FC002062
:103D00001BF0A2FC00201BF09FFC00201BF09CFC81
:103D100000201BF099FC00201BF096FC00201BF0FB
:103D200093FC00201BF090FC00201BF08DFC002079
:103D30001BF08AFC00201BF087FC00201BF084FC99
:103D400000201BF081FC00201BF07EFC00201BF0FB
:103D50007BFC00201BF078FC00201BF075FC002091
:103D60001BF072FC00201BF06FFC00201BF06CFCB1
:103D700000201BF069FC00201BF066FC00201BF0FB
:103D800063FC00201BF060FC00201BF05DFC0020A9
:103D90001BF05AFC00201BF057FC00201BF054FCC9
:103DA00000201BF051FC00201BF04EFC00201BF0FB
:103DB0004BFC00201BF048FC00201BF045FC0020C1
:103DC0001BF042FC00201BF03FFC00201BF03CFCE1
:103DD00000201BF039FC00201BF036FC00201BF0FB
:103DE00033FC00201BF030FC00201BF02DFC0020D9
:103DF0001BF02AFC00201BF027FC00201BF024FCF9
:103E000000201BF021FC00201BF01EFC00201BF0FA
:103E10001BFC00201BF018FC00201BF015FC0020F0
:103E20001BF012FC00201BF00FFC00201BF00CFC10
:103E300000201BF009FC00201BF006FC00201BF0FA
:103E400003FC00201BF000FC00201BF0FDFB002009
:103E50001BF0FAFB00201BF0F7FB00201BF0F4FB2B
:103E600000201BF0F1FB00201BF0EEFB00201BF0FC
:103E7000EBFB00201BF0E8FB00201BF0E5FB002023
:103E80001BF0E2FB00201BF0DFFB00201BF0DCFB43
:103E900000201BF0D9FB00201BF0D6FB00201BF0FC
:103EA000D3FB00201BF0D0FB00201BF0CDFB00203B
:103EB0001BF0CAFB00201BF0C7FB00201BF0C4FB5B
:103EC00000201BF0C1FB00201BF0BEFB00201BF0FC
:103ED000BBFB00201BF0B8FB00201BF0B5FB002053
:103EE0001BF0B2FB00201BF0AFFB00201BF0ACFB73
:103EF00000201BF0A9FB00201BF0A6FB00201BF0FC
:103F0000A3FB00201BF0A0FB00201BF09DFB00206A
:103F10001BF09AFB00201BF097FB00201BF094FB8A
:103F200000201BF091FB00201BF08EFB00201BF0FB
:103F30008BFB00201BF088FB00201BF085FB002082
:103F40001BF082FB00201BF07FFB00201BF07CFBA2
:103F500000201BF079FB00201BF076FB00201BF0FB
:103F600073FB00201BF070FB00201BF06DFB00209A
:103F70001BF06AFB00201BF067FB00201BF064FBBA
:103F800000201BF061FB00201BF05EFB00201BF0FB
:103F90005BFB00201BF058FB00201BF055FB0020B2
:103FA0001BF052FB00201BF04FFB00201BF04CFBD2
:103FB00000201BF049FB00201BF046FB00201BF0FB
:103FC00043FB00201BF040FB00201BF03DFB0020CA
:103FD0001BF03AFB00201BF037FB00201BF034FBEA
:103FE00000201BF031FB00201BF02EFB00201BF0FB
:103FF0002BFB00201BF028FB00201BF025FB0020E2
:104000001BF022FB00201BF01FFB00201BF01CFB01
:1040100000201BF019FB00201BF016FB00201BF0FA
:1040200013FB00201BF010FB00201BF00DFB0020F9
:104030001BF00AFB00201BF007FB00201BF004FB19
:1040400000201BF001FB00201BF0FEFA00201BF0FB
:10405000FBFA00201BF0F8FA00201BF0F5FA002014
:104060001BF0F2FA00201BF0EFFA00201BF0ECFA34
:1040700000201BF0E9FA00201BF0E6FA00201BF0FC
:10408000E3FA00201BF0E0FA00201BF0DDFA00202C
:104090001BF0DAFA00201BF0D7FA00201BF0D4FA4C
:1040A00000201BF0D1FA00201BF0CEFA00201BF0FC
:1040B000CBFA00201BF0C8FA00201BF0C5FA002044
:1040C0001BF0C2FA00201BF0BFFA00201BF0BCFA64
:1040D00000201BF0B9FA00201BF0B6FA00201BF0FC
:1040E000B3FA00201BF0B0FA00201BF0ADFA00205C
:1040F0001BF0AAFA00201BF0A7FA00201BF0A4FA7C
:1041000000201BF0A1FA00201BF09EFA00201BF0FB
:104110009BFA00201BF098FA00201BF095FA002073
:104120001BF092FA00201BF08FFA00201BF08CFA93
:1041300000201BF089FA00201BF086FA00201BF0FB
:1041400083FA00201BF080FA00201BF07DFA00208B
:104150001BF07AFA00201BF077FA00201BF074FAAB
:1041600000201BF071FA00201BF06EFA00201BF0FB
:104170006BFA00201BF068FA00201BF065FA0020A3
:104180001BF062FA00201BF05FFA00201BF05CFAC3
:1041900000201BF059FA00201BF056FA00201BF0FB
:1041A00053FA00201BF050FA00201BF04DFA0020BB
:1041B0001BF04AFA00201BF047FA00201BF044FADB
:1041C00000201BF041FA00201BF03EFA00201BF0FB
:1041D0003BFA00201BF038FA00201BF035FA0020D3
:1041E0001BF032FA00201BF02FFA00201BF02CFAF3
:1041F00000201BF029FA00201BF026FA00201BF0FB
:1042000023FA00201BF020FA00201BF01DFA0020EA
:104210001BF01AFA00201BF017FA00201BF014FA0A
:1042200000201BF011FA00201BF00EFA00201BF0FA
:104230000BFA00201BF008FA00201BF005FA002002
:104240001BF002FA00201BF0FFF900201BF0FCF924
:1042500000201BF0F9F900201BF0F6F900201BF0FC
:10426000F3F900201BF0F0F900201BF0EDF900201D
:104270001BF0EAF900201BF0E7F900201BF0E4F93D
:1042800000201BF0E1F900201BF0DEF900201BF0FC
:10429000DBF900201BF0D8F900201BF0D5F9002035
:1042A0001BF0D2F900201BF0CFF900201BF0CCF955
:1042B00000201BF0C9F900201BF0C6F900201BF0FC
:1042C000C3F900201BF0C0F900201BF0BDF900204D
:1042D0001BF0BAF900201BF0B7F900201BF0B4F96D
:1042E00000201BF0B1F900201BF0AEF900201BF0FC
:1042F000ABF900201BF0A8F900201BF0A5F9002065
:104300001BF0A2F900201BF09FF900201BF09CF984
:1043100000201BF099F900201BF096F900201BF0FB
:1043200093F900201BF090F900201BF08DF900207C
:104330001BF08AF900201BF087F900201BF084F99C
:1043400000201BF081F900201BF07EF900201BF0FB
:104350007BF900201BF078F900201BF075F9002094
:104360001BF072F900201BF06FF900201BF06CF9B4
:1043700000201BF069F900201BF066F900201BF0FB
:1043800063F900201BF060F900201BF05DF90020AC
:104390001BF05AF900201BF057F900201BF054F9CC
:1043A00000201BF051F900201BF04EF900201BF0FB
:1043B0004BF900201BF048F900201BF045F90020C4
:1043C0001BF042F900201BF03FF900201BF03CF9E4
:1043D00000201BF039F900201BF036F900201BF0FB
:1043E00033F900201BF030F900201BF02DF90020DC
:1043F0001BF02AF900201BF027F900201BF024F9FC
:1044000000201BF021F900201BF01EF900201BF0FA
:104410001BF900201BF018F900201BF015F90020F3
:104420001BF012F900201BF00FF900201BF00CF913
:1044300000201BF009F900201BF006F900201BF0FA
:1044400003F900201BF000F900201BF0FDF800200C
:104450001BF0FAF800201BF0F7F800201BF0F4F82E
:1044600000201BF0F1F800201BF0EEF800201BF0FC
:10447000EBF800201BF0E8F800201BF0E5F8002026
:104480001BF0E2F800201BF0DFF800201BF0DCF846
:1044900000201BF0D9F800201BF0D6F800201BF0FC
:1044A000D3F800201BF0D0F800201BF0CDF800203E
:1044B0001BF0CAF800201BF0C7F800201BF0C4F85E
:1044C00000201BF0C1F800201BF0BEF800201BF0FC
:1044D000BBF800201BF0B8F800201BF0B5F8002056
:1044E0001BF0B2F800201BF0AFF800201BF0ACF876
:1044F00000201BF0A9F800201BF0A6F800201BF0FC
:10450000A3F800201BF0A0F800201BF09DF800206D
:104510001BF09AF800201BF097F800201BF094F88D
:1045200000201BF091F800201BF08EF800201BF0FB
:104530008BF800201BF088F800201BF085F8002085
:104540001BF082F800201BF07FF800201BF07CF8A5
:1045500000201BF079F800201BF076F800201BF0FB
:1045600073F800201BF070F800201BF06DF800209D
:104570001BF06AF800201BF067F800201BF064F8BD
:1045800000201BF061F800201BF05EF800201BF0FB
:104590005BF800201BF058F800201BF055F80020B5
:1045A0001BF052F800201BF04FF800201BF04CF8D5
:1045B00000201BF049F800201BF046F800201BF0FB
:1045C00043F800201BF040F800201BF03DF80020CD
:1045D0001BF03AF800201BF037F800201BF034F8ED
:1045E00000201BF031F800201BF02EF800201BF0FB
:1045F0002BF800201BF028F800201BF025F80020E5
:104600001BF022F800201BF01FF800201BF01CF804
:1046100000201BF019F800201BF016F800201BF0FA
:1046200013F800201BF010F800201BF00DF80020FC
:104630001BF00AF800201BF007F800201BF004F81C
:1046400000201BF001F800201AF0FEFF00201AF0F5
:10465000FBFF00201AF0F8FF00201AF0F5FF002001
:104660001AF0F2FF00201AF0EFFF00201AF0ECFF22
:1046700000201AF0E9FF00201AF0E6FF00201AF0EF
:10468000E3FF00201AF0E0FF00201AF0DDFF002019
:104690001AF0DAFF00201AF0D7FF00201AF0D4FF3A
:1046A00000201AF0D1FF00201AF0CEFF00201AF0EF
:1046B000CBFF00201AF0C8FF00201AF0C5FF002031
:1046C0001AF0C2FF00201AF0BFFF00201AF0BCFF52
:1046D00000201AF0B9FF00201AF0B6FF00201AF0EF
:1046E000B3FF00201AF0B0FF00201AF0ADFF002049
:1046F0001AF0AAFF00201AF0A7FF00201AF0A4FF6A
:1047000000201AF0A1FF00201AF09EFF00201AF0EE
:104710009BFF00201AF098FF00201AF095FF002060
:104720001AF092FF00201AF08FFF00201AF08CFF81
:1047300000201AF089FF00201AF086FF00201AF0EE
:1047400083FF00201AF080FF00201AF07DFF002078
:104750001AF07AFF00201AF077FF00201AF074FF99
:1047600000201AF071FF00201AF06EFF00201AF0EE
:104770006BFF00201AF068FF00201AF065FF002090
:104780001AF062FF00201AF05FFF00201AF05CFFB1
:1047900000201AF059FF00201AF056FF00201AF0EE
:1047A00053FF00201AF050FF00201AF04DFF0020A8
:1047B0001AF04AFF00201AF047FF00201AF044FFC9
:1047C00000201AF041FF00201AF03EFF00201AF0EE
:1047D0003BFF00201AF038FF00201AF035FF0020C0
:1047E0001AF032FF00201AF02FFF00201AF02CFFE1
:1047F00000201AF029FF00201AF026FF00201AF0EE
:1048000023FF00201AF020FF00201AF01DFF0020D7
:104810001AF01AFF00201AF017FF00201AF014FFF8
:1048200000201AF011FF00201AF00EFF00201AF0ED
:104830000BFF00201AF008FF00201AF005FF0020EF
:104840001AF002FF00201AF0FFFE00201AF0FCFE12
:1048500000201AF0F9FE00201AF0F6FE00201AF0EF
:10486000F3FE00201AF0F0FE00201AF0EDFE00200A
:104870001AF0EAFE00201AF0E7FE00201AF0E4FE2B
:1048800000201AF0E1FE00201AF0DEFE00201AF0EF
:10489000DBFE00201AF0D8FE00201AF0D5FE002022
:1048A0001AF0D2FE00201AF0CFFE00201AF0CCFE43
:1048B00000201AF0C9FE00201AF0C6FE00201AF0EF
:1048C000C3FE00201AF0C0FE00201AF0BDFE00203A
:1048D0001AF0BAFE00201AF0B7FE00201AF0B4FE5B
:1048E00000201AF0B1FE00201AF0AEFE00201AF0EF
:1048F000ABFE00201AF0A8FE00201AF0A5FE002052
:104900001AF0A2FE00201AF09FFE00201AF09CFE72
:1049100000201AF099FE00201AF096FE00201AF0EE
:1049200093FE00201AF090FE00201AF08DFE002069
:104930001AF08AFE00201AF087FE00201AF084FE8A
:1049400000201AF081FE00201AF07EFE00201AF0EE
:104950007BFE00201AF078FE00201AF075FE002081
:104960001AF072FE00201AF06FFE00201AF06CFEA2
:1049700000201AF069FE00201AF066FE00201AF0EE
:1049800063FE00201AF060FE00201AF05DFE002099
:104990001AF05AFE00201AF057FE00201AF054FEBA
:1049A00000201AF051FE00201AF04EFE00201AF0EE
:1049B0004BFE00201AF048FE00201AF045FE0020B1
:1049C0001AF042FE00201AF03FFE00201AF03CFED2
:1049D00000201AF039FE00201AF036FE00201AF0EE
:1049E00033FE00201AF030FE00201AF02DFE0020C9
:1049F0001AF02AFE00201AF027FE00201AF024FEEA
:104A000000201AF021FE00201AF01EFE00201AF0ED
:104A10001BFE00201AF018FE00201AF015FE0020E0
:104A20001AF012FE00201AF00FFE00201AF00CFE01
:104A300000201AF009FE00201AF006FE00201AF0ED
:104A400003FE00201AF000FE00201AF0FDFD0020F9
:104A50001AF0FAFD00201AF0F7FD00201AF0F4FD1C
:104A600000201AF0F1FD00201AF0EEFD00201AF0EF
:104A7000EBFD00201AF0E8FD00201AF0E5FD002013
:104A80001AF0E2FD00201AF0DFFD00201AF0DCFD34
:104A900000201AF0D9FD00201AF0D6FD00201AF0EF
:104AA000D3FD00201AF0D0FD00201AF0CDFD00202B
:104AB0001AF0CAFD00201AF0C7FD00201AF0C4FD4C
:104AC00000201AF0C1FD00201AF0BEFD00201AF0EF
:104AD000BBFD00201AF0B8FD00201AF0B5FD002043
:104AE0001AF0B2FD00201AF0AFFD00201AF0ACFD64
:104AF00000201AF0A9FD00201AF0A6FD00201AF0EF
:104B0000A3FD00201AF0A0FD00201AF09DFD00205A
:104B10001AF09AFD00201AF097FD00201AF094FD7B
:104B200000201AF091FD00201AF08EFD00201AF0EE
:104B30008BFD00201AF088FD00201AF085FD002072
:104B40001AF082FD00201AF07FFD00201AF07CFD93
:104B500000201AF079FD00201AF076FD00201AF0EE
:104B600073FD00201AF070FD00201AF06DFD00208A
:104B70001AF06AFD00201AF067FD00201AF064FDAB
:104B800000201AF061FD00201AF05EFD00201AF0EE
:104B90005BFD00201AF058FD00201AF055FD0020A2
:104BA0001AF052FD00201AF04FFD00201AF04CFDC3
:104BB00000201AF049FD00201AF046FD00201AF0EE
:104BC00043FD00201AF040FD00201AF03DFD0020BA
:104BD0001AF03AFD00201AF037FD00201AF034FDDB
:104BE00000201AF031FD00201AF02EFD00201AF0EE
:104BF0002BFD00201AF028FD00201AF025FD0020D2
:104C00001AF022FD00201AF01FFD00201AF01CFDF2
:104C100000201AF019FD00201AF016FD00201AF0ED
:104C200013FD00201AF010FD00201AF00DFD0020E9
:104C30001AF00AFD00201AF007FD00201AF004FD0A
:104C400000201AF001FD00201AF0FEFC00201AF0EE
:104C5000FBFC00201AF0F8FC00201AF0F5FC002004
:104C60001AF0F2FC00201AF0EFFC00201AF0ECFC25
:104C700000201AF0E9FC00201AF0E6FC00201AF0EF
:104C8000E3FC00201AF0E0FC00201AF0DDFC00201C
:104C90001AF0DAFC00201AF0D7FC00201AF0D4FC3D
:104CA00000201AF0D1FC00201AF0CEFC00201AF0EF
:104CB000CBFC00201AF0C8FC00201AF0C5FC002034
:104CC0001AF0C2FC00201AF0BFFC00201AF0BCFC55
:104CD00000201AF0B9FC00201AF0B6FC00201AF0EF
:104CE000B3FC00201AF0B0FC00201AF0ADFC00204C
:104CF0001AF0AAFC00201AF0A7FC00201AF0A4FC6D
:104D000000201AF0A1FC00201AF09EFC00201AF0EE
:104D10009BFC00201AF098FC00201AF095FC002063
:104D20001AF092FC00201AF08FFC00201AF08CFC84
:104D300000201AF089FC00201AF086FC00201AF0EE
:104D400083FC00201AF080FC00201AF07DFC00207B
:104D50001AF07AFC00201AF077FC00201AF074FC9C
:104D600000201AF071FC00201AF06EFC00201AF0EE
:104D70006BFC00201AF068FC00201AF065FC002093
:104D80001AF062FC00201AF05FFC00201AF05CFCB4
:104D900000201AF059FC00201AF056FC00201AF0EE
:104DA00053FC00201AF050FC00201AF04DFC0020AB
:104DB0001AF04AFC00201AF047FC00201AF044FCCC
:104DC00000201AF041FC00201AF03EFC00201AF0EE
:104DD0003BFC00201AF038FC00201AF035FC0020C3
:104DE0001AF032FC00201AF02FFC00201AF02CFCE4
:104DF00000201AF029FC00201AF026FC00201AF0EE
:104E000023FC00201AF020FC00201AF01DFC0020DA
:104E10001AF01AFC00201AF017FC00201AF014FCFB
:104E200000201AF011FC00201AF00EFC00201AF0ED
:104E30000BFC00201AF008FC00201AF005FC0020F2
:104E40001AF002FC00201AF0FFFB00201AF0FCFB15
:104E500000201AF0F9FB00201AF0F6FB00201AF0EF
:104E6000F3FB00201AF0F0FB00201AF0EDFB00200D
:104E70001AF0EAFB00201AF0E7FB00201AF0E4FB2E
:104E800000201AF0E1FB00201AF0DEFB00201AF0EF
:104E9000DBFB00201AF0D8FB00201AF0D5FB002025
:104EA0001AF0D2FB00201AF0CFFB00201AF0CCFB46
:104EB00000201AF0C9FB00201AF0C6FB00201AF0EF
:104EC000C3FB00201AF0C0FB00201AF0BDFB00203D
:104ED0001AF0BAFB00201AF0B7FB00201AF0B4FB5E
:104EE00000201AF0B1FB00201AF0AEFB00201AF0EF
:104EF000ABFB00201AF0A8FB00201AF0A5FB002055
:104F00001AF0A2FB00201AF09FFB00201AF09CFB75
:104F100000201AF099FB00201AF096FB00201AF0EE
:104F200093FB00201AF090FB00201AF08DFB00206C
:104F30001AF08AFB00201AF087FB00201AF084FB8D
:104F400000201AF081FB00201AF07EFB00201AF0EE
:104F50007BFB00201AF078FB00201AF075FB002084
:104F60001AF072FB00201AF06FFB00201AF06CFBA5
:104F700000201AF069FB00201AF066FB00201AF0EE
:104F800063FB00201AF060FB00201AF05DFB00209C
:104F90001AF05AFB00201AF057FB00201AF054FBBD
:104FA00000201AF051FB00201AF04EFB00201AF0EE
:104FB0004BFB00201AF048FB00201AF045FB0020B4
:104FC0001AF042FB00201AF03FFB00201AF03CFBD5
:104FD00000201AF039FB00201AF036FB00201AF0EE
:104FE00033FB00201AF030FB00201AF02DFB0020CC
:104FF0001AF02AFB00201AF027FB00201AF024FBED
:1050000000201AF021FB00201AF01EFB00201AF0ED
:105010001BFB00201AF018FB00201AF015FB0020E3
:105020001AF012FB00201AF00FFB00201AF00CFB04
:1050300000201AF009FB00201AF006FB00201AF0ED
:1050400003FB00201AF000FB00201AF0FDFA0020FC
:105050001AF0FAFA00201AF0F7FA00201AF0F4FA1F
:1050600000201AF0F1FA00201AF0EEFA00201AF0EF
:10507000EBFA00201AF0E8FA00201AF0E5FA002016
:105080001AF0E2FA00201AF0DFFA00201AF0DCFA37
:1050900000201AF0D9FA00201AF0D6FA00201AF0EF
:1050A000D3FA00201AF0D0FA00201AF0CDFA00202E
:1050B0001AF0CAFA00201AF0C7FA00201AF0C4FA4F
:1050C00000201AF0C1FA00201AF0BEFA00201AF0EF
:1050D000BBFA00201AF0B8FA00201AF0B5FA002046
:1050E0001AF0B2FA00201AF0AFFA00201AF0ACFA67
:1050F00000201AF0A9FA00201AF0A6FA00201AF0EF
:10510000A3FA00201AF0A0FA00201AF09DFA00205D
:105110001AF09AFA00201AF097FA00201AF094FA7E
:1051200000201AF091FA00201AF08EFA00201AF0EE
:105130008BFA00201AF088FA00201AF085FA002075
:105140001AF082FA00201AF07FFA00201AF07CFA96
:1051500000201AF079FA00201AF076FA00201AF0EE
:1051600073FA00201AF070FA00201AF06DFA00208D
:105170001AF06AFA00201AF067FA00201AF064FAAE
:1051800000201AF061FA00201AF05EFA00201AF0EE
:105190005BFA00201AF058FA00201AF055FA0020A5
:1051A0001AF052FA00201AF04FFA00201AF04CFAC6
:1051B00000201AF049FA00201AF046FA00201AF0EE
:1051C00043FA00201AF040FA00201AF03DFA0020BD
:1051D0001AF03AFA00201AF037FA00201AF034FADE
:1051E00000201AF031FA00201AF02EFA00201AF0EE
:1051F0002BFA00201AF028FA00201AF025FA0020D5
:105200001AF022FA00201AF01FFA00201AF01CFAF5
:1052100000201AF019FA00201AF016FA00201AF0ED
:1052200013FA00201AF010FA00201AF00DFA0020EC
:105230001AF00AFA00201AF007FA00201AF004FA0D
:1052400000201AF001FA00201AF0FEF900201AF0EE
:10525000FBF900201AF0F8F900201AF0F5F9002007
:105260001AF0F2F900201AF0EFF900201AF0ECF928
:1052700000201AF0E9F900201AF0E6F900201AF0EF
:10528000E3F900201AF0E0F900201AF0DDF900201F
:105290001AF0DAF900201AF0D7F900201AF0D4F940
:1052A00000201AF0D1F900201AF0CEF900201AF0EF
:1052B000CBF900201AF0C8F900201AF0C5F9002037
:1052C0001AF0C2F900201AF0BFF900201AF0BCF958
:1052D00000201AF0B9F900201AF0B6F900201AF0EF
:1052E000B3F900201AF0B0F900201AF0ADF900204F
:1052F0001AF0AAF900201AF0A7F900201AF0A4F970
:1053000000201AF0A1F900201AF09EF900201AF0EE
:105310009BF900201AF098F900201AF095F9002066
:105320001AF092F900201AF08FF900201AF08CF987
:1053300000201AF089F900201AF086F900201AF0EE
:1053400083F900201AF080F900201AF07DF900207E
:105350001AF07AF900201AF077F900201AF074F99F
:1053600000201AF071F900201AF06EF900201AF0EE
:105370006BF900201AF068F900201AF065F9002096
:105380001AF062F900201AF05FF900201AF05CF9B7
:1053900000201AF059F900201AF056F900201AF0EE
:1053A00053F900201AF050F900201AF04DF90020AE
:1053B0001AF04AF900201AF047F900201AF044F9CF
:1053C00000201AF041F900201AF03EF900201AF0EE
:1053D0003BF900201AF038F900201AF035F90020C6
:1053E0001AF032F900201AF02FF900201AF02CF9E7
:1053F00000201AF029F900201AF026F900201AF0EE
:1054000023F900201AF020F900201AF01DF90020DD
:105410001AF01AF900201AF017F900201AF014F9FE
:1054200000201AF011F900201AF00EF900201AF0ED
:105430000BF900201AF008F900201AF005F90020F5
:105440001AF002F900201AF0FFF800201AF0FCF818
:1054500000201AF0F9F800201AF0F6F800201AF0EF
:10546000F3F800201AF0F0F800201AF0EDF8002010
:105470001AF0EAF800201AF0E7F800201AF0E4F831
:1054800000201AF0E1F800201AF0DEF800201AF0EF
:10549000DBF800201AF0D8F800201AF0D5F8002028
:1054A0001AF0D2F800201AF0CFF800201AF0CCF849
:1054B00000201AF0C9F800201AF0C6F800201AF0EF
:1054C000C3F800201AF0C0F800201AF0BDF8002040
:1054D0001AF0BAF800201AF0B7F800201AF0B4F861
:1054E00000201AF0B1F800201AF0AEF800201AF0EF
:1054F000ABF800201AF0A8F800201AF0A5F8002058
:105500001AF0A2F800201AF09FF800201AF09CF878
:1055100000201AF099F800201AF096F800201AF0EE
:1055200093F800201AF090F800201AF08DF800206F
:105530001AF08AF800201AF087F800201AF084F890
:1055400000201AF081F800201AF07EF800201AF0EE
:105550007BF800201AF078F800201AF075F8002087
:105560001AF072F800201AF06FF800201AF06CF8A8
:1055700000201AF069F800201AF066F800201AF0EE
:1055800063F800201AF060F800201AF05DF800209F
:105590001AF05AF800201AF057F800201AF054F8C0
:1055A00000201AF051F800201AF04EF800201AF0EE
:1055B0004BF800201AF048F800201AF045F80020B7
:1055C0001AF042F800201AF03FF800201AF03CF8D8
:1055D00000201AF039F800201AF036F800201AF0EE
:1055E00033F800201AF030F800201AF02DF80020CF
:1055F0001AF02AF800201AF027F800201AF024F8F0
:1056000000201AF021F800201AF01EF800201AF0ED
:105610001BF800201AF018F800201AF015F80020E6
:105620001AF012F800201AF00FF800201AF00CF807
:1056300000201AF009F800201AF006F800201AF0ED
:1056400003F800201AF000F8002019F0FDFF0020F8
:1056500019F0FAFF002019F0F7FF002019F0F4FF0D
:10566000002019F0F1FF002019F0EEFF002019F0E2
:10567000EBFF002019F0E8FF002019F0E5FF002003
:1056800019F0E2FF002019F0DFFF002019F0DCFF25
:10569000002019F0D9FF002019F0D6FF002019F0E2
:1056A000D3FF002019F0D0FF002019F0CDFF00201B
:1056B00019F0CAFF002019F0C7FF002019F0C4FF3D
:1056C000002019F0C1FF002019F0BEFF002019F0E2
:1056D000BBFF002019F0B8FF002019F0B5FF002033
:1056E00019F0B2FF002019F0AFFF002019F0ACFF55
:1056F000002019F0A9FF002019F0A6FF002019F0E2
:10570000A3FF002019F0A0FF002019F09DFF00204A
:1057100019F09AFF002019F097FF002019F094FF6C
:10572000002019F091FF002019F08EFF002019F0E1
:105730008BFF002019F088FF002019F085FF002062
:1057400019F082FF002019F07FFF002019F07CFF84
:10575000002019F079FF002019F076FF002019F0E1
:1057600073FF002019F070FF002019F06DFF00207A
:1057700019F06AFF002019F067FF002019F064FF9C
:10578000002019F061FF002019F05EFF002019F0E1
:105790005BFF002019F058FF002019F055FF002092
:1057A00019F052FF002019F04FFF002019F04CFFB4
:1057B000002019F049FF002019F046FF002019F0E1
:1057C00043FF002019F040FF002019F03DFF0020AA
:1057D00019F03AFF002019F037FF002019F034FFCC
:1057E000002019F031FF002019F02EFF002019F0E1
:1057F0002BFF002019F028FF002019F025FF0020C2
:1058000019F022FF002019F01FFF002019F01CFFE3
:10581000002019F019FF002019F016FF002019F0E0
:1058200013FF002019F010FF002019F00DFF0020D9
:1058300019F00AFF002019F007FF002019F004FFFB
:10584000002019F001FF002019F0FEFE002019F0E1
:10585000FBFE002019F0F8FE002019F0F5FE0020F4
:1058600019F0F2FE002019F0EFFE002019F0ECFE16
:10587000002019F0E9FE002019F0E6FE002019F0E2
:10588000E3FE002019F0E0FE002019F0DDFE00200C
:1058900019F0DAFE002019F0D7FE002019F0D4FE2E
:1058A000002019F0D1FE002019F0CEFE002019F0E2
:1058B000CBFE002019F0C8FE002019F0C5FE002024
:1058C00019F0C2FE002019F0BFFE002019F0BCFE46
:1058D000002019F0B9FE002019F0B6FE002019F0E2
:1058E000B3FE002019F0B0FE002019F0ADFE00203C
:1058F00019F0AAFE002019F0A7FE002019F0A4FE5E
:10590000002019F0A1FE002019F09EFE002019F0E1
:105910009BFE002019F098FE002019F095FE002053
:1059200019F092FE002019F08FFE002019F08CFE75
:10593000002019F089FE002019F086FE002019F0E1
:1059400083FE002019F080FE002019F07DFE00206B
:1059500019F07AFE002019F077FE002019F074FE8D
:10596000002019F071FE002019F06EFE002019F0E1
:105970006BFE002019F068FE002019F065FE002083
:1059800019F062FE002019F05FFE002019F05CFEA5
:10599000002019F059FE002019F056FE002019F0E1
:1059A00053FE002019F050FE002019F04DFE00209B
:1059B00019F04AFE002019F047FE002019F044FEBD
:1059C000002019F041FE002019F03EFE002019F0E1
:1059D0003BFE002019F038FE002019F035FE0020B3
:1059E00019F032FE002019F02FFE002019F02CFED5
:1059F000002019F029FE002019F026FE002019F0E1
:105A000023FE002019F020FE002019F01DFE0020CA
:105A100019F01AFE002019F017FE002019F014FEEC
:105A2000002019F011FE002019F00EFE002019F0E0
:105A30000BFE002019F008FE002019F005FE0020E2
:105A400019F002FE002019F0FFFD002019F0FCFD06
:105A5000002019F0F9FD002019F0F6FD002019F0E2
:105A6000F3FD002019F0F0FD002019F0EDFD0020FD
:105A700019F0EAFD002019F0E7FD002019F0E4FD1F
:105A8000002019F0E1FD002019F0DEFD002019F0E2
:105A9000DBFD002019F0D8FD002019F0D5FD002015
:105AA00019F0D2FD002019F0CFFD002019F0CCFD37
:105AB000002019F0C9FD002019F0C6FD002019F0E2
:105AC000C3FD002019F0C0FD002019F0BDFD00202D
:105AD00019F0BAFD002019F0B7FD002019F0B4FD4F
