:020000041000EA
:1000000000B5324B212058609868022188439860DF
:10001000D860186158612E4B002199600221596106
:100020000121F02299502B49196001219960352056
:1000300000F044F80222904214D00621196600F024
:1000400034F8196E01211966002018661A6600F04E
:100050002CF8196E196E196E052000F02FF8012189
:100060000842F9D1002199601B49196000215960AB
:100070001A491B48016001219960EB211966A021F2
:10008000196600F012F800219960164914480160C1
:100090000121996001BC002800D000471248134993
:1000A000086003C880F30888084703B5996A0420EC
:1000B0000142FBD001200142F8D103BD02B5186610
:1000C0001866FFF7F2FF186E186E02BD00000240BE
:1000D000000000180000070000035F00212200005C
:1000E000F4000018222000A00001001008ED00E03C
:1000F00000000000000000000000000074B24E7A12
:1001000000200420F7010010C3010010C5010010F9
:10011000C1010010C1010010C1010010C101001097
:10012000C1010010C1010010C1010010C701001081
:10013000C1010010C1010010C9010010CB01001065
:10014000CD010010CD010010CD010010CD01001037
:10015000CD010010CD010010CD010010CD01001027
:10016000CD010010CD010010CD010010CD01001017
:10017000CD010010CD010010CD010010CD01001007
:10018000CD010010CD010010CD010010CD010010F7
:10019000CD010010CD010010CD010010CD010010E7
:1001A000CD010010CD010010CD010010CD010010D7
:1001B000CD010010CD010010CD010010CD010010C7
:1001C00000BE00BE00BE00BE00BE00BE00F04BF888
:1001D000103800BEF2EB88718CAE0210B8AE02107F
:1001E0003402001090A31AE700202149086006C8D5
:1001F00081F3088810471F48006800282FD10DA4FC
:100200000ECC002902D000F012F8F9E71A491B4A77
:10021000002000E001C19142FCD1194988471949E9
:1002200088471949884700BEFDE701C901C29A42C3
:10023000FBD37047B8AE0210C00000201812002097
:1002400010C00210000004200000042010C00210A2
:1002500000100420001004200000000070470B482C
:100260001EF034F90047EFF30580C0B2704700007C
:1002700008ED00E0000000D018120020D026002079
:10028000ADCD011019B1011069CD01105756000014
:1002900006005250ABB36053E09502100600525076
:1002A000861C0302F0950210060052505422A29DB3
:1002B000F895021005005250DE65F46810C0021077
:1002C000F8B5C04610B5064C2378002B07D1054B76
:1002D000002B02D0044800E000BF0123237010BDB2
:1002E000F01700200000000050830210044B10B5EE
:1002F000002B03D00349044800E000BF10BDC046F6
:1003000000000000F41700205083021010B50248CE
:1003100025F074FE10BDC046500800200120704733
:1003200010B50400FFF7FAFFA04205D3A620800015
:100330006043024BC01810BD0020FCE7B805002048
:100340000120704710B50400FFF7E8FFA04204D376
:10035000342044430248001910BD0020FCE7C04689
:100360005008002030B583B00C0000232DE06B4610
:10037000DA1D1570002106E083699B06FCD4137812
:100380000360013101320029F6D018E06B46DA1D16
:100390000D231370002106E083699B06FCD41378BB
:1003A0000360013101320029F6D01CE083699B060D
:1003B000FCD413780360013101320029F6D0237890
:1003C0000D3B5A425341DBB201342578002D0FD04A
:1003D000002BCCD1074BC3185A4253415B00064A4D
:1003E0009B5EAB42D2D06B46DA1D15700021E4E76C
:1003F00003B030BD0080FCBF8C26002010B51CF07F
:1004000017F810BD30B583B00223022B08DD244A53
:100410001368013313600A20FFF7F0FF002418E08F
:10042000022B01D00133F0E71E4AD054FAE76B46A5
:10043000DA1D0D2313700021002913D11A4B9B697B
:100440009B06FBD41078184B186001310132F3E79A
:100450000134022C16DC134B1D5D144B00229B5EF5
:10046000AB42E4D06B46DA1D157000210029EFD1B4
:100470000D4B9B699B06FBD410780B4B1860013128
:100480000132F3E70A20FFF7B9FF022303E0054A30
:100490000021D1540133032BF9DD03B030BDC04638
:1004A000F0230020B8080020004003408C260020E4
:1004B00030B583B0022302E0264AD1540133062B23
:1004C00007DC022BF8D0C218033A1478214AD4541E
:1004D000F4E7214A1368013313600A20FFF78EFF07
:1004E000002411E06B46DA1D0D2313700021002952
:1004F00013D11A4B9B699B06FBD41078174B1860DD
:1005000001310132F3E70134062C16DC114B1D5D7D
:10051000134B00229B5EAB42E4D06B46DA1D157094
:1005200000210029EFD10D4B9B699B06FBD410786D
:100530000A4B186001310132F3E70A20FFF75EFF32
:10054000022303E0034A0021D1540133062BF9DDD5
:1005500003B030BDB8080020402400200040034014
:100560008C26002070B51C201AF01AFED024240618
:1005700080235B056362636119201AF011FE8025F8
:10058000AD04656265616420FFF738FFA5616420F2
:10059000FFF734FF9626B60131003F481CF086FB7A
:1005A00031003E481CF082FB022100201AF0C6FDFB
:1005B000022101201AF0C2FD022104201AF0BEFD22
:1005C000022105201AF0BAFD0E201AF0E9FD1120D3
:1005D0001AF0E6FD8022D201626280239B026362F0
:1005E0006261636119201AF0DBFD65620B201AF06D
:1005F000D7FD80231B0163621A201AF0D1FD8023EE
:10060000DB0463620A201AF0CBFD8023DB00636207
:100610001B201AF0C5FD80231B0563620022012107
:100620001B201AF0A3FD06201AF0BAFD40236362D6
:100630000022012106201AF099FD16201AF0B0FDC3
:100640008023DB0363620F201AF0AAFD80231B02C4
:10065000636212201AF0A4FD8023DB02A362002251
:10066000012112201AF082FD14201AF099FD802336
:100670005B03A3620122002114201AF077FD1520EC
:100680001AF08EFD80239B03A36201220021152016
:100690001AF06CFD70BDC04600400340008003406E
:1006A0000023244A1360244A1360244A1360244A16
:1006B0001360244A1360244A1360244A1360244AB6
:1006C0001360244A1360244A1360244A23211170C2
:1006D00049205070053890701530D07013715371E7
:1006E0009371D371137253729372D37213735373E2
:1006F0009373D373137453749374D37413755375C2
:100700009375D375137653769376D37613775377A1
:100710009377D3773938135401301354013013547D
:100720005354013153540131535401315354013165
:1007300053547047D81F0020B0260020F02300201B
:1007400030190020281900202C190020241900201D
:1007500034190020581F00205C1F0020001F0020BB
:10076000094B00221A705A709A70DA701A715A7115
:100770009A71DA711A725A729A72DA721A735A7319
:100780009A73DA737047C046E81E0020012800D033
:100790007047D0231B065B689B0204D4D0231B0642
:1007A0005B68DB021FD5D0231B065B689B0204D568
:1007B000D0231B065B68DB0217D5D0231B065B68C2
:1007C0009B0204D4D0231B065B68DB02E0D4D02359
:1007D0001B065B689B02DBD5D0231B065B68DB0234
:1007E000D6D50320D4E70020D2E70220D0E70000CE
:1007F00030B583B0042800D18FE0052800D1D4E0C3
:10080000032842D003B030BD6B46DA1D14700021BE
:1008100008E0694B9B699B06FBD41478664B1C600F
:10082000013101320029F4D003780D3B5A42534183
:10083000DBB201300478002C2AD0002BE4D15F4BCE
:1008400002229B5EA3420FD06B46DA1D147000217A
:100850000029E9D1584B9B699B06FBD41478564B71
:100860001C6001310132F3E76B46DA1D0D23137072
:1008700000210029E8D1504B9B699B06FBD41578D9
:100880004D4B1D6001310132F3E700234C48D1E7A5
:1008900001201BF0CDFDB5E76B46DA1D1470002179
:1008A00008E0454B9B699B06FBD41478424B1C60C7
:1008B000013101320029F4D003780D3B5A425341F3
:1008C000DBB201300478002C2AD0002BE4D13B4B62
:1008D00002229B5EA3420FD06B46DA1D14700021EA
:1008E0000029E9D1344B9B699B06FBD41478324B29
:1008F0001C6001310132F3E76B46DA1D0D231370E2
:1009000000210029E8D12C4B9B699B06FBD415786C
:10091000294B1D6001310132F3E700232948D1E75B
:1009200001201BF085FD6DE76B46DA1D1470002178
:1009300008E0214B9B699B06FBD414781E4B1C607E
:10094000013101320029F4D003780D3B5A42534162
:10095000DBB201300478002C2AD0002BE4D1174BF5
:1009600002229B5EA3420FD06B46DA1D1470002159
:100970000029E9D1104B9B699B06FBD414780E4BE0
:100980001C6001310132F3E76B46DA1D0D23137051
:1009900000210029E8D1084B9B699B06FBD4157800
:1009A000054B1D6001310132F3E700230648D1E712
:1009B00001201BF03DFD25E7008003408C26002030
:1009C000548302105C8302106483021010B500206F
:1009D0001EF092FE00201EF08FFE00201EF08CFE06
:1009E00000201EF089FE00201EF086FE00201EF072
:1009F00083FE00201EF080FE00201EF07DFE002001
:100A00001EF07AFE00201EF077FE00201EF074FE1D
:100A100000201EF071FE00201EF06EFE00201EF071
:100A20006BFE00201EF068FE00201EF065FE002018
:100A30001EF062FE00201EF05FFE00201EF05CFE35
:100A400000201EF059FE00201EF056FE00201EF071
:100A500053FE00201EF050FE00201EF04DFE002030
:100A60001EF04AFE00201EF047FE00201EF044FE4D
:100A700000201EF041FE00201EF03EFE00201EF071
:100A80003BFE00201EF038FE00201EF035FE002048
:100A90001EF032FE00201EF02FFE00201EF02CFE65
:100AA00000201EF029FE00201EF026FE00201EF071
:100AB00023FE00201EF020FE00201EF01DFE002060
:100AC0001EF01AFE00201EF017FE00201EF014FE7D
:100AD00000201EF011FE00201EF00EFE00201EF071
:100AE0000BFE00201EF008FE00201EF005FE002078
:100AF0001EF002FE00201EF0FFFD00201EF0FCFD97
:100B000000201EF0F9FD00201EF0F6FD00201EF072
:100B1000F3FD00201EF0F0FD00201EF0EDFD002092
:100B20001EF0EAFD00201EF0E7FD00201EF0E4FDAF
:100B300000201EF0E1FD00201EF0DEFD00201EF072
:100B4000DBFD00201EF0D8FD00201EF0D5FD0020AA
:100B50001EF0D2FD00201EF0CFFD00201EF0CCFDC7
:100B600000201EF0C9FD00201EF0C6FD00201EF072
:100B7000C3FD00201EF0C0FD00201EF0BDFD0020C2
:100B80001EF0BAFD00201EF0B7FD00201EF0B4FDDF
:100B900000201EF0B1FD00201EF0AEFD00201EF072
:100BA000ABFD00201EF0A8FD00201EF0A5FD0020DA
:100BB0001EF0A2FD00201EF09FFD00201EF09CFDF7
:100BC00000201EF099FD00201EF096FD00201EF072
:100BD00093FD00201EF090FD00201EF08DFD0020F2
:100BE0001EF08AFD00201EF087FD00201EF084FD0F
:100BF00000201EF081FD00201EF07EFD00201EF072
:100C00007BFD00201EF078FD00201EF075FD002009
:100C10001EF072FD00201EF06FFD00201EF06CFD26
:100C200000201EF069FD00201EF066FD00201EF071
:100C300063FD00201EF060FD00201EF05DFD002021
:100C40001EF05AFD00201EF057FD00201EF054FD3E
:100C500000201EF051FD00201EF04EFD00201EF071
:100C60004BFD00201EF048FD00201EF045FD002039
:100C70001EF042FD00201EF03FFD00201EF03CFD56
:100C800000201EF039FD00201EF036FD00201EF071
:100C900033FD00201EF030FD00201EF02DFD002051
:100CA0001EF02AFD00201EF027FD00201EF024FD6E
:100CB00000201EF021FD00201EF01EFD00201EF071
:100CC0001BFD00201EF018FD00201EF015FD002069
:100CD0001EF012FD00201EF00FFD00201EF00CFD86
:100CE00000201EF009FD00201EF006FD00201EF071
:100CF00003FD00201EF000FD00201EF0FDFC002082
:100D00001EF0FAFC00201EF0F7FC00201EF0F4FCA0
:100D100000201EF0F1FC00201EF0EEFC00201EF072
:100D2000EBFC00201EF0E8FC00201EF0E5FC00209B
:100D30001EF0E2FC00201EF0DFFC00201EF0DCFCB8
:100D400000201EF0D9FC00201EF0D6FC00201EF072
:100D5000D3FC00201EF0D0FC00201EF0CDFC0020B3
:100D60001EF0CAFC00201EF0C7FC00201EF0C4FCD0
:100D700000201EF0C1FC00201EF0BEFC00201EF072
:100D8000BBFC00201EF0B8FC00201EF0B5FC0020CB
:100D90001EF0B2FC00201EF0AFFC00201EF0ACFCE8
:100DA00000201EF0A9FC00201EF0A6FC00201EF072
:100DB000A3FC00201EF0A0FC00201EF09DFC0020E3
:100DC0001EF09AFC00201EF097FC00201EF094FC00
:100DD00000201EF091FC00201EF08EFC00201EF072
:100DE0008BFC00201EF088FC00201EF085FC0020FB
:100DF0001EF082FC00201EF07FFC00201EF07CFC18
:100E000000201EF079FC00201EF076FC00201EF071
:100E100073FC00201EF070FC00201EF06DFC002012
:100E20001EF06AFC00201EF067FC00201EF064FC2F
:100E300000201EF061FC00201EF05EFC00201EF071
:100E40005BFC00201EF058FC00201EF055FC00202A
:100E50001EF052FC00201EF04FFC00201EF04CFC47
:100E600000201EF049FC00201EF046FC00201EF071
:100E700043FC00201EF040FC00201EF03DFC002042
:100E80001EF03AFC00201EF037FC00201EF034FC5F
:100E900000201EF031FC00201EF02EFC00201EF071
:100EA0002BFC00201EF028FC00201EF025FC00205A
:100EB0001EF022FC00201EF01FFC00201EF01CFC77
:100EC00000201EF019FC00201EF016FC00201EF071
:100ED00013FC00201EF010FC00201EF00DFC002072
:100EE0001EF00AFC00201EF007FC00201EF004FC8F
:100EF00000201EF001FC00201EF0FEFB00201EF072
:100F0000FBFB00201EF0F8FB00201EF0F5FB00208C
:100F10001EF0F2FB00201EF0EFFB00201EF0ECFBA9
:100F200000201EF0E9FB00201EF0E6FB00201EF072
:100F3000E3FB00201EF0E0FB00201EF0DDFB0020A4
:100F40001EF0DAFB00201EF0D7FB00201EF0D4FBC1
:100F500000201EF0D1FB00201EF0CEFB00201EF072
:100F6000CBFB00201EF0C8FB00201EF0C5FB0020BC
:100F70001EF0C2FB00201EF0BFFB00201EF0BCFBD9
:100F800000201EF0B9FB00201EF0B6FB00201EF072
:100F9000B3FB00201EF0B0FB00201EF0ADFB0020D4
:100FA0001EF0AAFB00201EF0A7FB00201EF0A4FBF1
:100FB00000201EF0A1FB00201EF09EFB00201EF072
:100FC0009BFB00201EF098FB00201EF095FB0020EC
:100FD0001EF092FB00201EF08FFB00201EF08CFB09
:100FE00000201EF089FB00201EF086FB00201EF072
:100FF00083FB00201EF080FB00201EF07DFB002004
:101000001EF07AFB00201EF077FB00201EF074FB20
:1010100000201EF071FB00201EF06EFB00201EF071
:101020006BFB00201EF068FB00201EF065FB00201B
:101030001EF062FB00201EF05FFB00201EF05CFB38
:1010400000201EF059FB00201EF056FB00201EF071
:1010500053FB00201EF050FB00201EF04DFB002033
:101060001EF04AFB00201EF047FB00201EF044FB50
:1010700000201EF041FB00201EF03EFB00201EF071
:101080003BFB00201EF038FB00201EF035FB00204B
:101090001EF032FB00201EF02FFB00201EF02CFB68
:1010A00000201EF029FB00201EF026FB00201EF071
:1010B00023FB00201EF020FB00201EF01DFB002063
:1010C0001EF01AFB00201EF017FB00201EF014FB80
:1010D00000201EF011FB00201EF00EFB00201EF071
:1010E0000BFB00201EF008FB00201EF005FB00207B
:1010F0001EF002FB00201EF0FFFA00201EF0FCFA9A
:1011000000201EF0F9FA00201EF0F6FA00201EF072
:10111000F3FA00201EF0F0FA00201EF0EDFA002095
:101120001EF0EAFA00201EF0E7FA00201EF0E4FAB2
:1011300000201EF0E1FA00201EF0DEFA00201EF072
:10114000DBFA00201EF0D8FA00201EF0D5FA0020AD
:101150001EF0D2FA00201EF0CFFA00201EF0CCFACA
:1011600000201EF0C9FA00201EF0C6FA00201EF072
:10117000C3FA00201EF0C0FA00201EF0BDFA0020C5
:101180001EF0BAFA00201EF0B7FA00201EF0B4FAE2
:1011900000201EF0B1FA00201EF0AEFA00201EF072
:1011A000ABFA00201EF0A8FA00201EF0A5FA0020DD
:1011B0001EF0A2FA00201EF09FFA00201EF09CFAFA
:1011C00000201EF099FA00201EF096FA00201EF072
:1011D00093FA00201EF090FA00201EF08DFA0020F5
:1011E0001EF08AFA00201EF087FA00201EF084FA12
:1011F00000201EF081FA00201EF07EFA00201EF072
:101200007BFA00201EF078FA00201EF075FA00200C
:101210001EF072FA00201EF06FFA00201EF06CFA29
:1012200000201EF069FA00201EF066FA00201EF071
:1012300063FA00201EF060FA00201EF05DFA002024
:101240001EF05AFA00201EF057FA00201EF054FA41
:1012500000201EF051FA00201EF04EFA00201EF071
:101260004BFA00201EF048FA00201EF045FA00203C
:101270001EF042FA00201EF03FFA00201EF03CFA59
:1012800000201EF039FA00201EF036FA00201EF071
:1012900033FA00201EF030FA00201EF02DFA002054
:1012A0001EF02AFA00201EF027FA00201EF024FA71
:1012B00000201EF021FA00201EF01EFA00201EF071
:1012C0001BFA00201EF018FA00201EF015FA00206C
:1012D0001EF012FA00201EF00FFA00201EF00CFA89
:1012E00000201EF009FA00201EF006FA00201EF071
:1012F00003FA00201EF000FA00201EF0FDF9002085
:101300001EF0FAF900201EF0F7F900201EF0F4F9A3
:1013100000201EF0F1F900201EF0EEF900201EF072
:10132000EBF900201EF0E8F900201EF0E5F900209E
:101330001EF0E2F900201EF0DFF900201EF0DCF9BB
:1013400000201EF0D9F900201EF0D6F900201EF072
:10135000D3F900201EF0D0F900201EF0CDF90020B6
:101360001EF0CAF900201EF0C7F900201EF0C4F9D3
:1013700000201EF0C1F900201EF0BEF900201EF072
:10138000BBF900201EF0B8F900201EF0B5F90020CE
:101390001EF0B2F900201EF0AFF900201EF0ACF9EB
:1013A00000201EF0A9F900201EF0A6F900201EF072
:1013B000A3F900201EF0A0F900201EF09DF90020E6
:1013C0001EF09AF900201EF097F900201EF094F903
:1013D00000201EF091F900201EF08EF900201EF072
:1013E0008BF900201EF088F900201EF085F90020FE
:1013F0001EF082F900201EF07FF900201EF07CF91B
:1014000000201EF079F900201EF076F900201EF071
:1014100073F900201EF070F900201EF06DF9002015
:101420001EF06AF900201EF067F900201EF064F932
:1014300000201EF061F900201EF05EF900201EF071
:101440005BF900201EF058F900201EF055F900202D
:101450001EF052F900201EF04FF900201EF04CF94A
:1014600000201EF049F900201EF046F900201EF071
:1014700043F900201EF040F900201EF03DF9002045
:101480001EF03AF900201EF037F900201EF034F962
:1014900000201EF031F900201EF02EF900201EF071
:1014A0002BF900201EF028F900201EF025F900205D
:1014B0001EF022F900201EF01FF900201EF01CF97A
:1014C00000201EF019F900201EF016F900201EF071
:1014D00013F900201EF010F900201EF00DF9002075
:1014E0001EF00AF900201EF007F900201EF004F992
:1014F00000201EF001F900201EF0FEF800201EF072
:10150000FBF800201EF0F8F800201EF0F5F800208F
:101510001EF0F2F800201EF0EFF800201EF0ECF8AC
:1015200000201EF0E9F800201EF0E6F800201EF072
:10153000E3F800201EF0E0F800201EF0DDF80020A7
:101540001EF0DAF800201EF0D7F800201EF0D4F8C4
:1015500000201EF0D1F800201EF0CEF800201EF072
:10156000CBF800201EF0C8F800201EF0C5F80020BF
:101570001EF0C2F800201EF0BFF800201EF0BCF8DC
:1015800000201EF0B9F800201EF0B6F800201EF072
:10159000B3F800201EF0B0F800201EF0ADF80020D7
:1015A0001EF0AAF800201EF0A7F800201EF0A4F8F4
:1015B00000201EF0A1F800201EF09EF800201EF072
:1015C0009BF800201EF098F800201EF095F80020EF
:1015D0001EF092F800201EF08FF800201EF08CF80C
:1015E00000201EF089F800201EF086F800201EF072
:1015F00083F800201EF080F800201EF07DF8002007
:101600001EF07AF800201EF077F800201EF074F823
:1016100000201EF071F800201EF06EF800201EF071
:101620006BF800201EF068F800201EF065F800201E
:101630001EF062F800201EF05FF800201EF05CF83B
:1016400000201EF059F800201EF056F800201EF071
:1016500053F800201EF050F800201EF04DF8002036
:101660001EF04AF800201EF047F800201EF044F853
:1016700000201EF041F800201EF03EF800201EF071
:101680003BF800201EF038F800201EF035F800204E
:101690001EF032F800201EF02FF800201EF02CF86B
:1016A00000201EF029F800201EF026F800201EF071
:1016B00023F800201EF020F800201EF01DF8002066
:1016C0001EF01AF800201EF017F800201EF014F883
:1016D00000201EF011F800201EF00EF800201EF071
:1016E0000BF800201EF008F800201EF005F800207E
:1016F0001EF002F800201DF0FFFF00201DF0FCFF8F
:1017000000201DF0F9FF00201DF0F6FF00201DF065
:10171000F3FF00201DF0F0FF00201DF0EDFF002082
:101720001DF0EAFF00201DF0E7FF00201DF0E4FFA0
:1017300000201DF0E1FF00201DF0DEFF00201DF065
:10174000DBFF00201DF0D8FF00201DF0D5FF00209A
:101750001DF0D2FF00201DF0CFFF00201DF0CCFFB8
:1017600000201DF0C9FF00201DF0C6FF00201DF065
:10177000C3FF00201DF0C0FF00201DF0BDFF0020B2
:101780001DF0BAFF00201DF0B7FF00201DF0B4FFD0
:1017900000201DF0B1FF00201DF0AEFF00201DF065
:1017A000ABFF00201DF0A8FF00201DF0A5FF0020CA
:1017B0001DF0A2FF00201DF09FFF00201DF09CFFE8
:1017C00000201DF099FF00201DF096FF00201DF065
:1017D00093FF00201DF090FF00201DF08DFF0020E2
:1017E0001DF08AFF00201DF087FF00201DF084FF00
:1017F00000201DF081FF00201DF07EFF00201DF065
:101800007BFF00201DF078FF00201DF075FF0020F9
:101810001DF072FF00201DF06FFF00201DF06CFF17
:1018200000201DF069FF00201DF066FF00201DF064
:1018300063FF00201DF060FF00201DF05DFF002011
:101840001DF05AFF00201DF057FF00201DF054FF2F
:1018500000201DF051FF00201DF04EFF00201DF064
:101860004BFF00201DF048FF00201DF045FF002029
:101870001DF042FF00201DF03FFF00201DF03CFF47
:1018800000201DF039FF00201DF036FF00201DF064
:1018900033FF00201DF030FF00201DF02DFF002041
:1018A0001DF02AFF00201DF027FF00201DF024FF5F
:1018B00000201DF021FF00201DF01EFF00201DF064
:1018C0001BFF00201DF018FF00201DF015FF002059
:1018D0001DF012FF00201DF00FFF00201DF00CFF77
:1018E00000201DF009FF00201DF006FF00201DF064
:1018F00003FF00201DF000FF00201DF0FDFE002072
:101900001DF0FAFE00201DF0F7FE00201DF0F4FE91
:1019100000201DF0F1FE00201DF0EEFE00201DF065
:10192000EBFE00201DF0E8FE00201DF0E5FE00208B
:101930001DF0E2FE00201DF0DFFE00201DF0DCFEA9
:1019400000201DF0D9FE00201DF0D6FE00201DF065
:10195000D3FE00201DF0D0FE00201DF0CDFE0020A3
:101960001DF0CAFE00201DF0C7FE00201DF0C4FEC1
:1019700000201DF0C1FE00201DF0BEFE00201DF065
:10198000BBFE00201DF0B8FE00201DF0B5FE0020BB
:101990001DF0B2FE00201DF0AFFE00201DF0ACFED9
:1019A00000201DF0A9FE00201DF0A6FE00201DF065
:1019B000A3FE00201DF0A0FE00201DF09DFE0020D3
:1019C0001DF09AFE00201DF097FE00201DF094FEF1
:1019D00000201DF091FE00201DF08EFE00201DF065
:1019E0008BFE00201DF088FE00201DF085FE0020EB
:1019F0001DF082FE00201DF07FFE00201DF07CFE09
:101A000000201DF079FE00201DF076FE00201DF064
:101A100073FE00201DF070FE00201DF06DFE002002
:101A20001DF06AFE00201DF067FE00201DF064FE20
:101A300000201DF061FE00201DF05EFE00201DF064
:101A40005BFE00201DF058FE00201DF055FE00201A
:101A50001DF052FE00201DF04FFE00201DF04CFE38
:101A600000201DF049FE00201DF046FE00201DF064
:101A700043FE00201DF040FE00201DF03DFE002032
:101A80001DF03AFE00201DF037FE00201DF034FE50
:101A900000201DF031FE00201DF02EFE00201DF064
:101AA0002BFE00201DF028FE00201DF025FE00204A
:101AB0001DF022FE00201DF01FFE00201DF01CFE68
:101AC00000201DF019FE00201DF016FE00201DF064
:101AD00013FE00201DF010FE00201DF00DFE002062
:101AE0001DF00AFE00201DF007FE00201DF004FE80
:101AF00000201DF001FE00201DF0FEFD00201DF065
:101B0000FBFD00201DF0F8FD00201DF0F5FD00207C
:101B10001DF0F2FD00201DF0EFFD00201DF0ECFD9A
:101B200000201DF0E9FD00201DF0E6FD00201DF065
:101B3000E3FD00201DF0E0FD00201DF0DDFD002094
:101B40001DF0DAFD00201DF0D7FD00201DF0D4FDB2
:101B500000201DF0D1FD00201DF0CEFD00201DF065
:101B6000CBFD00201DF0C8FD00201DF0C5FD0020AC
:101B70001DF0C2FD00201DF0BFFD00201DF0BCFDCA
:101B800000201DF0B9FD00201DF0B6FD00201DF065
:101B9000B3FD00201DF0B0FD00201DF0ADFD0020C4
:101BA0001DF0AAFD00201DF0A7FD00201DF0A4FDE2
:101BB00000201DF0A1FD00201DF09EFD00201DF065
:101BC0009BFD00201DF098FD00201DF095FD0020DC
:101BD0001DF092FD00201DF08FFD00201DF08CFDFA
:101BE00000201DF089FD00201DF086FD00201DF065
:101BF00083FD00201DF080FD00201DF07DFD0020F4
:101C00001DF07AFD00201DF077FD00201DF074FD11
:101C100000201DF071FD00201DF06EFD00201DF064
:101C20006BFD00201DF068FD00201DF065FD00200B
:101C30001DF062FD00201DF05FFD00201DF05CFD29
:101C400000201DF059FD00201DF056FD00201DF064
:101C500053FD00201DF050FD00201DF04DFD002023
:101C60001DF04AFD00201DF047FD00201DF044FD41
:101C700000201DF041FD00201DF03EFD00201DF064
:101C80003BFD00201DF038FD00201DF035FD00203B
:101C90001DF032FD00201DF02FFD00201DF02CFD59
:101CA00000201DF029FD00201DF026FD00201DF064
:101CB00023FD00201DF020FD00201DF01DFD002053
:101CC0001DF01AFD00201DF017FD00201DF014FD71
:101CD00000201DF011FD00201DF00EFD00201DF064
:101CE0000BFD00201DF008FD00201DF005FD00206B
:101CF0001DF002FD00201DF0FFFC00201DF0FCFC8B
:101D000000201DF0F9FC00201DF0F6FC00201DF065
:101D1000F3FC00201DF0F0FC00201DF0EDFC002085
:101D20001DF0EAFC00201DF0E7FC00201DF0E4FCA3
:101D300000201DF0E1FC00201DF0DEFC00201DF065
:101D4000DBFC00201DF0D8FC00201DF0D5FC00209D
:101D50001DF0D2FC00201DF0CFFC00201DF0CCFCBB
:101D600000201DF0C9FC00201DF0C6FC00201DF065
:101D7000C3FC00201DF0C0FC00201DF0BDFC0020B5
:101D80001DF0BAFC00201DF0B7FC00201DF0B4FCD3
:101D900000201DF0B1FC00201DF0AEFC00201DF065
:101DA000ABFC00201DF0A8FC00201DF0A5FC0020CD
:101DB0001DF0A2FC00201DF09FFC00201DF09CFCEB
:101DC00000201DF099FC00201DF096FC00201DF065
:101DD00093FC00201DF090FC00201DF08DFC0020E5
:101DE0001DF08AFC00201DF087FC00201DF084FC03
:101DF00000201DF081FC00201DF07EFC00201DF065
:101E00007BFC00201DF078FC00201DF075FC0020FC
:101E10001DF072FC00201DF06FFC00201DF06CFC1A
:101E200000201DF069FC00201DF066FC00201DF064
:101E300063FC00201DF060FC00201DF05DFC002014
:101E40001DF05AFC00201DF057FC00201DF054FC32
:101E500000201DF051FC00201DF04EFC00201DF064
:101E60004BFC00201DF048FC00201DF045FC00202C
:101E70001DF042FC00201DF03FFC00201DF03CFC4A
:101E800000201DF039FC00201DF036FC00201DF064
:101E900033FC00201DF030FC00201DF02DFC002044
:101EA0001DF02AFC00201DF027FC00201DF024FC62
:101EB00000201DF021FC00201DF01EFC00201DF064
:101EC0001BFC00201DF018FC00201DF015FC00205C
:101ED0001DF012FC00201DF00FFC00201DF00CFC7A
:101EE00000201DF009FC00201DF006FC00201DF064
:101EF00003FC00201DF000FC00201DF0FDFB002075
:101F00001DF0FAFB00201DF0F7FB00201DF0F4FB94
:101F100000201DF0F1FB00201DF0EEFB00201DF065
:101F2000EBFB00201DF0E8FB00201DF0E5FB00208E
:101F30001DF0E2FB00201DF0DFFB00201DF0DCFBAC
:101F400000201DF0D9FB00201DF0D6FB00201DF065
:101F5000D3FB00201DF0D0FB00201DF0CDFB0020A6
:101F60001DF0CAFB00201DF0C7FB00201DF0C4FBC4
:101F700000201DF0C1FB00201DF0BEFB00201DF065
:101F8000BBFB00201DF0B8FB00201DF0B5FB0020BE
:101F90001DF0B2FB00201DF0AFFB00201DF0ACFBDC
:101FA00000201DF0A9FB00201DF0A6FB00201DF065
:101FB000A3FB00201DF0A0FB00201DF09DFB0020D6
:101FC0001DF09AFB00201DF097FB00201DF094FBF4
:101FD00000201DF091FB00201DF08EFB00201DF065
:101FE0008BFB00201DF088FB00201DF085FB0020EE
:101FF0001DF082FB00201DF07FFB00201DF07CFB0C
:1020000000201DF079FB00201DF076FB00201DF064
:1020100073FB00201DF070FB00201DF06DFB002005
:102020001DF06AFB00201DF067FB00201DF064FB23
:1020300000201DF061FB00201DF05EFB00201DF064
:102040005BFB00201DF058FB00201DF055FB00201D
:102050001DF052FB00201DF04FFB00201DF04CFB3B
:1020600000201DF049FB00201DF046FB00201DF064
:1020700043FB00201DF040FB00201DF03DFB002035
:102080001DF03AFB00201DF037FB00201DF034FB53
:1020900000201DF031FB00201DF02EFB00201DF064
:1020A0002BFB00201DF028FB00201DF025FB00204D
:1020B0001DF022FB00201DF01FFB00201DF01CFB6B
:1020C00000201DF019FB00201DF016FB00201DF064
:1020D00013FB00201DF010FB00201DF00DFB002065
:1020E0001DF00AFB00201DF007FB00201DF004FB83
:1020F00000201DF001FB00201DF0FEFA00201DF065
:10210000FBFA00201DF0F8FA00201DF0F5FA00207F
:102110001DF0F2FA00201DF0EFFA00201DF0ECFA9D
:1021200000201DF0E9FA00201DF0E6FA00201DF065
:10213000E3FA00201DF0E0FA00201DF0DDFA002097
:102140001DF0DAFA00201DF0D7FA00201DF0D4FAB5
:1021500000201DF0D1FA00201DF0CEFA00201DF065
:10216000CBFA00201DF0C8FA00201DF0C5FA0020AF
:102170001DF0C2FA00201DF0BFFA00201DF0BCFACD
:1021800000201DF0B9FA00201DF0B6FA00201DF065
:10219000B3FA00201DF0B0FA00201DF0ADFA0020C7
:1021A0001DF0AAFA00201DF0A7FA00201DF0A4FAE5
:1021B00000201DF0A1FA00201DF09EFA00201DF065
:1021C0009BFA00201DF098FA00201DF095FA0020DF
:1021D0001DF092FA00201DF08FFA00201DF08CFAFD
:1021E00000201DF089FA00201DF086FA00201DF065
:1021F00083FA00201DF080FA00201DF07DFA0020F7
:102200001DF07AFA00201DF077FA00201DF074FA14
:1022100000201DF071FA00201DF06EFA00201DF064
:102220006BFA00201DF068FA00201DF065FA00200E
:102230001DF062FA00201DF05FFA00201DF05CFA2C
:1022400000201DF059FA00201DF056FA00201DF064
:1022500053FA00201DF050FA00201DF04DFA002026
:102260001DF04AFA00201DF047FA00201DF044FA44
:1022700000201DF041FA00201DF03EFA00201DF064
:102280003BFA00201DF038FA00201DF035FA00203E
:102290001DF032FA00201DF02FFA00201DF02CFA5C
:1022A00000201DF029FA00201DF026FA00201DF064
:1022B00023FA00201DF020FA00201DF01DFA002056
:1022C0001DF01AFA00201DF017FA00201DF014FA74
:1022D00000201DF011FA00201DF00EFA00201DF064
:1022E0000BFA00201DF008FA00201DF005FA00206E
:1022F0001DF002FA00201DF0FFF900201DF0FCF98E
:1023000000201DF0F9F900201DF0F6F900201DF065
:10231000F3F900201DF0F0F900201DF0EDF9002088
:102320001DF0EAF900201DF0E7F900201DF0E4F9A6
:1023300000201DF0E1F900201DF0DEF900201DF065
:10234000DBF900201DF0D8F900201DF0D5F90020A0
:102350001DF0D2F900201DF0CFF900201DF0CCF9BE
:1023600000201DF0C9F900201DF0C6F900201DF065
:10237000C3F900201DF0C0F900201DF0BDF90020B8
:102380001DF0BAF900201DF0B7F900201DF0B4F9D6
:1023900000201DF0B1F900201DF0AEF900201DF065
:1023A000ABF900201DF0A8F900201DF0A5F90020D0
:1023B0001DF0A2F900201DF09FF900201DF09CF9EE
:1023C00000201DF099F900201DF096F900201DF065
:1023D00093F900201DF090F900201DF08DF90020E8
:1023E0001DF08AF900201DF087F900201DF084F906
:1023F00000201DF081F900201DF07EF900201DF065
:102400007BF900201DF078F900201DF075F90020FF
:102410001DF072F900201DF06FF900201DF06CF91D
:1024200000201DF069F900201DF066F900201DF064
:1024300063F900201DF060F900201DF05DF9002017
:102440001DF05AF900201DF057F900201DF054F935
:1024500000201DF051F900201DF04EF900201DF064
:102460004BF900201DF048F900201DF045F900202F
:102470001DF042F900201DF03FF900201DF03CF94D
:1024800000201DF039F900201DF036F900201DF064
:1024900033F900201DF030F900201DF02DF9002047
:1024A0001DF02AF900201DF027F900201DF024F965
:1024B00000201DF021F900201DF01EF900201DF064
:1024C0001BF900201DF018F900201DF015F900205F
:1024D0001DF012F900201DF00FF900201DF00CF97D
:1024E00000201DF009F900201DF006F900201DF064
:1024F00003F900201DF000F900201DF0FDF8002078
:102500001DF0FAF800201DF0F7F800201DF0F4F897
:1025100000201DF0F1F800201DF0EEF800201DF065
:10252000EBF800201DF0E8F800201DF0E5F8002091
:102530001DF0E2F800201DF0DFF800201DF0DCF8AF
:1025400000201DF0D9F800201DF0D6F800201DF065
:10255000D3F800201DF0D0F800201DF0CDF80020A9
:102560001DF0CAF800201DF0C7F800201DF0C4F8C7
:1025700000201DF0C1F800201DF0BEF800201DF065
:10258000BBF800201DF0B8F800201DF0B5F80020C1
:102590001DF0B2F800201DF0AFF800201DF0ACF8DF
:1025A00000201DF0A9F800201DF0A6F800201DF065
:1025B000A3F800201DF0A0F800201DF09DF80020D9
:1025C0001DF09AF800201DF097F800201DF094F8F7
:1025D00000201DF091F800201DF08EF800201DF065
:1025E0008BF800201DF088F800201DF085F80020F1
:1025F0001DF082F800201DF07FF800201DF07CF80F
:1026000000201DF079F800201DF076F800201DF064
:1026100073F800201DF070F800201DF06DF8002008
:102620001DF06AF800201DF067F800201DF064F826
:1026300000201DF061F800201DF05EF800201DF064
:102640005BF800201DF058F800201DF055F8002020
:102650001DF052F800201DF04FF800201DF04CF83E
:1026600000201DF049F800201DF046F800201DF064
:1026700043F800201DF040F800201DF03DF8002038
:102680001DF03AF800201DF037F800201DF034F856
:1026900000201DF031F800201DF02EF800201DF064
:1026A0002BF800201DF028F800201DF025F8002050
:1026B0001DF022F800201DF01FF800201DF01CF86E
:1026C00000201DF019F800201DF016F800201DF064
:1026D00013F800201DF010F800201DF00DF8002068
:1026E0001DF00AF800201DF007F800201DF004F886
:1026F00000201DF001F800201CF0FEFF00201CF05F
:10270000FBFF00201CF0F8FF00201CF0F5FF00206C
:102710001CF0F2FF00201CF0EFFF00201CF0ECFF8B
:1027200000201CF0E9FF00201CF0E6FF00201CF058
:10273000E3FF00201CF0E0FF00201CF0DDFF002084
:102740001CF0DAFF00201CF0D7FF00201CF0D4FFA3
:1027500000201CF0D1FF00201CF0CEFF00201CF058
:10276000CBFF00201CF0C8FF00201CF0C5FF00209C
:102770001CF0C2FF00201CF0BFFF00201CF0BCFFBB
:1027800000201CF0B9FF00201CF0B6FF00201CF058
:10279000B3FF00201CF0B0FF00201CF0ADFF0020B4
:1027A0001CF0AAFF00201CF0A7FF00201CF0A4FFD3
:1027B00000201CF0A1FF00201CF09EFF00201CF058
:1027C0009BFF00201CF098FF00201CF095FF0020CC
:1027D0001CF092FF00201CF08FFF00201CF08CFFEB
:1027E00000201CF089FF00201CF086FF00201CF058
:1027F00083FF00201CF080FF00201CF07DFF0020E4
:102800001CF07AFF00201CF077FF00201CF074FF02
:1028100000201CF071FF00201CF06EFF00201CF057
:102820006BFF00201CF068FF00201CF065FF0020FB
:102830001CF062FF00201CF05FFF00201CF05CFF1A
:1028400000201CF059FF00201CF056FF00201CF057
:1028500053FF00201CF050FF00201CF04DFF002013
:102860001CF04AFF00201CF047FF00201CF044FF32
:1028700000201CF041FF00201CF03EFF00201CF057
:102880003BFF00201CF038FF00201CF035FF00202B
:102890001CF032FF00201CF02FFF00201CF02CFF4A
:1028A00000201CF029FF00201CF026FF00201CF057
:1028B00023FF00201CF020FF00201CF01DFF002043
:1028C0001CF01AFF00201CF017FF00201CF014FF62
:1028D00000201CF011FF00201CF00EFF00201CF057
:1028E0000BFF00201CF008FF00201CF005FF00205B
:1028F0001CF002FF00201CF0FFFE00201CF0FCFE7C
:1029000000201CF0F9FE00201CF0F6FE00201CF058
:10291000F3FE00201CF0F0FE00201CF0EDFE002075
:102920001CF0EAFE00201CF0E7FE00201CF0E4FE94
:1029300000201CF0E1FE00201CF0DEFE00201CF058
:10294000DBFE00201CF0D8FE00201CF0D5FE00208D
:102950001CF0D2FE00201CF0CFFE00201CF0CCFEAC
:1029600000201CF0C9FE00201CF0C6FE00201CF058
:10297000C3FE00201CF0C0FE00201CF0BDFE0020A5
:102980001CF0BAFE00201CF0B7FE00201CF0B4FEC4
:1029900000201CF0B1FE00201CF0AEFE00201CF058
:1029A000ABFE00201CF0A8FE00201CF0A5FE0020BD
:1029B0001CF0A2FE00201CF09FFE00201CF09CFEDC
:1029C00000201CF099FE00201CF096FE00201CF058
:1029D00093FE00201CF090FE00201CF08DFE0020D5
:1029E0001CF08AFE00201CF087FE00201CF084FEF4
:1029F00000201CF081FE00201CF07EFE00201CF058
:102A00007BFE00201CF078FE00201CF075FE0020EC
:102A10001CF072FE00201CF06FFE00201CF06CFE0B
:102A200000201CF069FE00201CF066FE00201CF057
:102A300063FE00201CF060FE00201CF05DFE002004
:102A40001CF05AFE00201CF057FE00201CF054FE23
:102A500000201CF051FE00201CF04EFE00201CF057
:102A60004BFE00201CF048FE00201CF045FE00201C
:102A70001CF042FE00201CF03FFE00201CF03CFE3B
:102A800000201CF039FE00201CF036FE00201CF057
:102A900033FE00201CF030FE00201CF02DFE002034
:102AA0001CF02AFE00201CF027FE00201CF024FE53
:102AB00000201CF021FE00201CF01EFE00201CF057
:102AC0001BFE00201CF018FE00201CF015FE00204C
:102AD0001CF012FE00201CF00FFE00201CF00CFE6B
:102AE00000201CF009FE00201CF006FE00201CF057
:102AF00003FE00201CF000FE00201CF0FDFD002065
:102B00001CF0FAFD00201CF0F7FD00201CF0F4FD85
:102B100000201CF0F1FD00201CF0EEFD00201CF058
:102B2000EBFD00201CF0E8FD00201CF0E5FD00207E
:102B30001CF0E2FD00201CF0DFFD00201CF0DCFD9D
:102B400000201CF0D9FD00201CF0D6FD00201CF058
:102B5000D3FD00201CF0D0FD00201CF0CDFD002096
:102B60001CF0CAFD00201CF0C7FD00201CF0C4FDB5
:102B700000201CF0C1FD00201CF0BEFD00201CF058
:102B8000BBFD00201CF0B8FD00201CF0B5FD0020AE
:102B90001CF0B2FD00201CF0AFFD00201CF0ACFDCD
:102BA00000201CF0A9FD00201CF0A6FD00201CF058
:102BB000A3FD00201CF0A0FD00201CF09DFD0020C6
:102BC0001CF09AFD00201CF097FD00201CF094FDE5
:102BD00000201CF091FD00201CF08EFD00201CF058
:102BE0008BFD00201CF088FD00201CF085FD0020DE
:102BF0001CF082FD00201CF07FFD00201CF07CFDFD
:102C000000201CF079FD00201CF076FD00201CF057
:102C100073FD00201CF070FD00201CF06DFD0020F5
:102C20001CF06AFD00201CF067FD00201CF064FD14
:102C300000201CF061FD00201CF05EFD00201CF057
:102C40005BFD00201CF058FD00201CF055FD00200D
:102C50001CF052FD00201CF04FFD00201CF04CFD2C
:102C600000201CF049FD00201CF046FD00201CF057
:102C700043FD00201CF040FD00201CF03DFD002025
:102C80001CF03AFD00201CF037FD00201CF034FD44
:102C900000201CF031FD00201CF02EFD00201CF057
:102CA0002BFD00201CF028FD00201CF025FD00203D
:102CB0001CF022FD00201CF01FFD00201CF01CFD5C
:102CC00000201CF019FD00201CF016FD00201CF057
:102CD00013FD00201CF010FD00201CF00DFD002055
:102CE0001CF00AFD00201CF007FD00201CF004FD74
:102CF00000201CF001FD00201CF0FEFC00201CF058
:102D0000FBFC00201CF0F8FC00201CF0F5FC00206F
:102D10001CF0F2FC00201CF0EFFC00201CF0ECFC8E
:102D200000201CF0E9FC00201CF0E6FC00201CF058
:102D3000E3FC00201CF0E0FC00201CF0DDFC002087
:102D40001CF0DAFC00201CF0D7FC00201CF0D4FCA6
:102D500000201CF0D1FC00201CF0CEFC00201CF058
:102D6000CBFC00201CF0C8FC00201CF0C5FC00209F
:102D70001CF0C2FC00201CF0BFFC00201CF0BCFCBE
:102D800000201CF0B9FC00201CF0B6FC00201CF058
:102D9000B3FC00201CF0B0FC00201CF0ADFC0020B7
:102DA0001CF0AAFC00201CF0A7FC00201CF0A4FCD6
:102DB00000201CF0A1FC00201CF09EFC00201CF058
:102DC0009BFC00201CF098FC00201CF095FC0020CF
:102DD0001CF092FC00201CF08FFC00201CF08CFCEE
:102DE00000201CF089FC00201CF086FC00201CF058
:102DF00083FC00201CF080FC00201CF07DFC0020E7
:102E00001CF07AFC00201CF077FC00201CF074FC05
:102E100000201CF071FC00201CF06EFC00201CF057
:102E20006BFC00201CF068FC00201CF065FC0020FE
:102E30001CF062FC00201CF05FFC00201CF05CFC1D
:102E400000201CF059FC00201CF056FC00201CF057
:102E500053FC00201CF050FC00201CF04DFC002016
:102E60001CF04AFC00201CF047FC00201CF044FC35
:102E700000201CF041FC00201CF03EFC00201CF057
:102E80003BFC00201CF038FC00201CF035FC00202E
:102E90001CF032FC00201CF02FFC00201CF02CFC4D
:102EA00000201CF029FC00201CF026FC00201CF057
:102EB00023FC00201CF020FC00201CF01DFC002046
:102EC0001CF01AFC00201CF017FC00201CF014FC65
:102ED00000201CF011FC00201CF00EFC00201CF057
:102EE0000BFC00201CF008FC00201CF005FC00205E
:102EF0001CF002FC00201CF0FFFB00201CF0FCFB7F
:102F000000201CF0F9FB00201CF0F6FB00201CF058
:102F1000F3FB00201CF0F0FB00201CF0EDFB002078
:102F20001CF0EAFB00201CF0E7FB00201CF0E4FB97
:102F300000201CF0E1FB00201CF0DEFB00201CF058
:102F4000DBFB00201CF0D8FB00201CF0D5FB002090
:102F50001CF0D2FB00201CF0CFFB00201CF0CCFBAF
:102F600000201CF0C9FB00201CF0C6FB00201CF058
:102F7000C3FB00201CF0C0FB00201CF0BDFB0020A8
:102F80001CF0BAFB00201CF0B7FB00201CF0B4FBC7
:102F900000201CF0B1FB00201CF0AEFB00201CF058
:102FA000ABFB00201CF0A8FB00201CF0A5FB0020C0
:102FB0001CF0A2FB00201CF09FFB00201CF09CFBDF
:102FC00000201CF099FB00201CF096FB00201CF058
:102FD00093FB00201CF090FB00201CF08DFB0020D8
:102FE0001CF08AFB00201CF087FB00201CF084FBF7
:102FF00000201CF081FB00201CF07EFB00201CF058
:103000007BFB00201CF078FB00201CF075FB0020EF
:103010001CF072FB00201CF06FFB00201CF06CFB0E
:1030200000201CF069FB00201CF066FB00201CF057
:1030300063FB00201CF060FB00201CF05DFB002007
:103040001CF05AFB00201CF057FB00201CF054FB26
:1030500000201CF051FB00201CF04EFB00201CF057
:103060004BFB00201CF048FB00201CF045FB00201F
:103070001CF042FB00201CF03FFB00201CF03CFB3E
:1030800000201CF039FB00201CF036FB00201CF057
:1030900033FB00201CF030FB00201CF02DFB002037
:1030A0001CF02AFB00201CF027FB00201CF024FB56
:1030B00000201CF021FB00201CF01EFB00201CF057
:1030C0001BFB00201CF018FB00201CF015FB00204F
:1030D0001CF012FB00201CF00FFB00201CF00CFB6E
:1030E00000201CF009FB00201CF006FB00201CF057
:1030F00003FB00201CF000FB00201CF0FDFA002068
:103100001CF0FAFA00201CF0F7FA00201CF0F4FA88
:1031100000201CF0F1FA00201CF0EEFA00201CF058
:10312000EBFA00201CF0E8FA00201CF0E5FA002081
:103130001CF0E2FA00201CF0DFFA00201CF0DCFAA0
:1031400000201CF0D9FA00201CF0D6FA00201CF058
:10315000D3FA00201CF0D0FA00201CF0CDFA002099
:103160001CF0CAFA00201CF0C7FA00201CF0C4FAB8
:1031700000201CF0C1FA00201CF0BEFA00201CF058
:10318000BBFA00201CF0B8FA00201CF0B5FA0020B1
:103190001CF0B2FA00201CF0AFFA00201CF0ACFAD0
:1031A00000201CF0A9FA00201CF0A6FA00201CF058
:1031B000A3FA00201CF0A0FA00201CF09DFA0020C9
:1031C0001CF09AFA00201CF097FA00201CF094FAE8
:1031D00000201CF091FA00201CF08EFA00201CF058
:1031E0008BFA00201CF088FA00201CF085FA0020E1
:1031F0001CF082FA00201CF07FFA00201CF07CFA00
:1032000000201CF079FA00201CF076FA00201CF057
:1032100073FA00201CF070FA00201CF06DFA0020F8
:103220001CF06AFA00201CF067FA00201CF064FA17
:1032300000201CF061FA00201CF05EFA00201CF057
:103240005BFA00201CF058FA00201CF055FA002010
:103250001CF052FA00201CF04FFA00201CF04CFA2F
:1032600000201CF049FA00201CF046FA00201CF057
:1032700043FA00201CF040FA00201CF03DFA002028
:103280001CF03AFA00201CF037FA00201CF034FA47
:1032900000201CF031FA00201CF02EFA00201CF057
:1032A0002BFA00201CF028FA00201CF025FA002040
:1032B0001CF022FA00201CF01FFA00201CF01CFA5F
:1032C00000201CF019FA00201CF016FA00201CF057
:1032D00013FA00201CF010FA00201CF00DFA002058
:1032E0001CF00AFA00201CF007FA00201CF004FA77
:1032F00000201CF001FA00201CF0FEF900201CF058
:10330000FBF900201CF0F8F900201CF0F5F9002072
:103310001CF0F2F900201CF0EFF900201CF0ECF991
:1033200000201CF0E9F900201CF0E6F900201CF058
:10333000E3F900201CF0E0F900201CF0DDF900208A
:103340001CF0DAF900201CF0D7F900201CF0D4F9A9
:1033500000201CF0D1F900201CF0CEF900201CF058
:10336000CBF900201CF0C8F900201CF0C5F90020A2
:103370001CF0C2F900201CF0BFF900201CF0BCF9C1
:1033800000201CF0B9F900201CF0B6F900201CF058
:10339000B3F900201CF0B0F900201CF0ADF90020BA
:1033A0001CF0AAF900201CF0A7F900201CF0A4F9D9
:1033B00000201CF0A1F900201CF09EF900201CF058
:1033C0009BF900201CF098F900201CF095F90020D2
:1033D0001CF092F900201CF08FF900201CF08CF9F1
:1033E00000201CF089F900201CF086F900201CF058
:1033F00083F900201CF080F900201CF07DF90020EA
:103400001CF07AF900201CF077F900201CF074F908
:1034100000201CF071F900201CF06EF900201CF057
:103420006BF900201CF068F900201CF065F9002001
:103430001CF062F900201CF05FF900201CF05CF920
:1034400000201CF059F900201CF056F900201CF057
:1034500053F900201CF050F900201CF04DF9002019
:103460001CF04AF900201CF047F900201CF044F938
:1034700000201CF041F900201CF03EF900201CF057
:103480003BF900201CF038F900201CF035F9002031
:103490001CF032F900201CF02FF900201CF02CF950
:1034A00000201CF029F900201CF026F900201CF057
:1034B00023F900201CF020F900201CF01DF9002049
:1034C0001CF01AF900201CF017F900201CF014F968
:1034D00000201CF011F900201CF00EF900201CF057
:1034E0000BF900201CF008F900201CF005F9002061
:1034F0001CF002F900201CF0FFF800201CF0FCF882
:1035000000201CF0F9F800201CF0F6F800201CF058
:10351000F3F800201CF0F0F800201CF0EDF800207B
:103520001CF0EAF800201CF0E7F800201CF0E4F89A
:1035300000201CF0E1F800201CF0DEF800201CF058
:10354000DBF800201CF0D8F800201CF0D5F8002093
:103550001CF0D2F800201CF0CFF800201CF0CCF8B2
:1035600000201CF0C9F800201CF0C6F800201CF058
:10357000C3F800201CF0C0F800201CF0BDF80020AB
:103580001CF0BAF800201CF0B7F800201CF0B4F8CA
:1035900000201CF0B1F800201CF0AEF800201CF058
:1035A000ABF800201CF0A8F800201CF0A5F80020C3
:1035B0001CF0A2F800201CF09FF800201CF09CF8E2
:1035C00000201CF099F800201CF096F800201CF058
:1035D00093F800201CF090F800201CF08DF80020DB
:1035E0001CF08AF800201CF087F800201CF084F8FA
:1035F00000201CF081F800201CF07EF800201CF058
:103600007BF800201CF078F800201CF075F80020F2
:103610001CF072F800201CF06FF800201CF06CF811
:1036200000201CF069F800201CF066F800201CF057
:1036300063F800201CF060F800201CF05DF800200A
:103640001CF05AF800201CF057F800201CF054F829
:1036500000201CF051F800201CF04EF800201CF057
:103660004BF800201CF048F800201CF045F8002022
:103670001CF042F800201CF03FF800201CF03CF841
:1036800000201CF039F800201CF036F800201CF057
:1036900033F800201CF030F800201CF02DF800203A
:1036A0001CF02AF800201CF027F800201CF024F859
:1036B00000201CF021F800201CF01EF800201CF057
:1036C0001BF800201CF018F800201CF015F8002052
:1036D0001CF012F800201CF00FF800201CF00CF871
:1036E00000201CF009F800201CF006F800201CF057
:1036F00003F800201CF000F800201BF0FDFF002064
:103700001BF0FAFF00201BF0F7FF00201BF0F4FF76
:1037100000201BF0F1FF00201BF0EEFF00201BF04B
:10372000EBFF00201BF0E8FF00201BF0E5FF00206E
:103730001BF0E2FF00201BF0DFFF00201BF0DCFF8E
:1037400000201BF0D9FF00201BF0D6FF00201BF04B
:10375000D3FF00201BF0D0FF00201BF0CDFF002086
:103760001BF0CAFF00201BF0C7FF00201BF0C4FFA6
:1037700000201BF0C1FF00201BF0BEFF00201BF04B
:10378000BBFF00201BF0B8FF00201BF0B5FF00209E
:103790001BF0B2FF00201BF0AFFF00201BF0ACFFBE
:1037A00000201BF0A9FF00201BF0A6FF00201BF04B
:1037B000A3FF00201BF0A0FF00201BF09DFF0020B6
:1037C0001BF09AFF00201BF097FF00201BF094FFD6
:1037D00000201BF091FF00201BF08EFF00201BF04B
:1037E0008BFF00201BF088FF00201BF085FF0020CE
:1037F0001BF082FF00201BF07FFF00201BF07CFFEE
:1038000000201BF079FF00201BF076FF00201BF04A
:1038100073FF00201BF070FF00201BF06DFF0020E5
:103820001BF06AFF00201BF067FF00201BF064FF05
:1038300000201BF061FF00201BF05EFF00201BF04A
:103840005BFF00201BF058FF00201BF055FF0020FD
:103850001BF052FF00201BF04FFF00201BF04CFF1D
:1038600000201BF049FF00201BF046FF00201BF04A
:1038700043FF00201BF040FF00201BF03DFF002015
:103880001BF03AFF00201BF037FF00201BF034FF35
:1038900000201BF031FF00201BF02EFF00201BF04A
:1038A0002BFF00201BF028FF00201BF025FF00202D
:1038B0001BF022FF00201BF01FFF00201BF01CFF4D
:1038C00000201BF019FF00201BF016FF00201BF04A
:1038D00013FF00201BF010FF00201BF00DFF002045
:1038E0001BF00AFF00201BF007FF00201BF004FF65
:1038F00000201BF001FF00201BF0FEFE00201BF04B
:10390000FBFE00201BF0F8FE00201BF0F5FE00205F
:103910001BF0F2FE00201BF0EFFE00201BF0ECFE7F
:1039200000201BF0E9FE00201BF0E6FE00201BF04B
:10393000E3FE00201BF0E0FE00201BF0DDFE002077
:103940001BF0DAFE00201BF0D7FE00201BF0D4FE97
:1039500000201BF0D1FE00201BF0CEFE00201BF04B
:10396000CBFE00201BF0C8FE00201BF0C5FE00208F
:103970001BF0C2FE00201BF0BFFE00201BF0BCFEAF
:1039800000201BF0B9FE00201BF0B6FE00201BF04B
:10399000B3FE00201BF0B0FE00201BF0ADFE0020A7
:1039A0001BF0AAFE00201BF0A7FE00201BF0A4FEC7
:1039B00000201BF0A1FE00201BF09EFE00201BF04B
:1039C0009BFE00201BF098FE00201BF095FE0020BF
:1039D0001BF092FE00201BF08FFE00201BF08CFEDF
:1039E00000201BF089FE00201BF086FE00201BF04B
:1039F00083FE00201BF080FE00201BF07DFE0020D7
:103A00001BF07AFE00201BF077FE00201BF074FEF6
:103A100000201BF071FE00201BF06EFE00201BF04A
:103A20006BFE00201BF068FE00201BF065FE0020EE
:103A30001BF062FE00201BF05FFE00201BF05CFE0E
:103A400000201BF059FE00201BF056FE00201BF04A
:103A500053FE00201BF050FE00201BF04DFE002006
:103A60001BF04AFE00201BF047FE00201BF044FE26
:103A700000201BF041FE00201BF03EFE00201BF04A
:103A80003BFE00201BF038FE00201BF035FE00201E
:103A90001BF032FE00201BF02FFE00201BF02CFE3E
:103AA00000201BF029FE00201BF026FE00201BF04A
:103AB00023FE00201BF020FE00201BF01DFE002036
:103AC0001BF01AFE00201BF017FE00201BF014FE56
:103AD00000201BF011FE00201BF00EFE00201BF04A
:103AE0000BFE00201BF008FE00201BF005FE00204E
:103AF0001BF002FE00201BF0FFFD00201BF0FCFD70
:103B000000201BF0F9FD00201BF0F6FD00201BF04B
:103B1000F3FD00201BF0F0FD00201BF0EDFD002068
:103B20001BF0EAFD00201BF0E7FD00201BF0E4FD88
:103B300000201BF0E1FD00201BF0DEFD00201BF04B
:103B4000DBFD00201BF0D8FD00201BF0D5FD002080
:103B50001BF0D2FD00201BF0CFFD00201BF0CCFDA0
:103B600000201BF0C9FD00201BF0C6FD00201BF04B
:103B7000C3FD00201BF0C0FD00201BF0BDFD002098
:103B80001BF0BAFD00201BF0B7FD00201BF0B4FDB8
:103B900000201BF0B1FD00201BF0AEFD00201BF04B
:103BA000ABFD00201BF0A8FD00201BF0A5FD0020B0
:103BB0001BF0A2FD00201BF09FFD00201BF09CFDD0
:103BC00000201BF099FD00201BF096FD00201BF04B
:103BD00093FD00201BF090FD00201BF08DFD0020C8
:103BE0001BF08AFD00201BF087FD00201BF084FDE8
:103BF00000201BF081FD00201BF07EFD00201BF04B
:103C00007BFD00201BF078FD00201BF075FD0020DF
:103C10001BF072FD00201BF06FFD00201BF06CFDFF
:103C200000201BF069FD00201BF066FD00201BF04A
:103C300063FD00201BF060FD00201BF05DFD0020F7
:103C40001BF05AFD00201BF057FD00201BF054FD17
:103C500000201BF051FD00201BF04EFD00201BF04A
:103C60004BFD00201BF048FD00201BF045FD00200F
:103C70001BF042FD00201BF03FFD00201BF03CFD2F
:103C800000201BF039FD00201BF036FD00201BF04A
:103C900033FD00201BF030FD00201BF02DFD002027
:103CA0001BF02AFD00201BF027FD00201BF024FD47
:103CB00000201BF021FD00201BF01EFD00201BF04A
:103CC0001BFD00201BF018FD00201BF015FD00203F
:103CD0001BF012FD00201BF00FFD00201BF00CFD5F
:103CE00000201BF009FD00201BF006FD00201BF04A
:103CF00003FD00201BF000FD00201BF0FDFC002058
:103D00001BF0FAFC00201BF0F7FC00201BF0F4FC79
:103D100000201BF0F1FC00201BF0EEFC00201BF04B
:103D2000EBFC00201BF0E8FC00201BF0E5FC002071
:103D30001BF0E2FC00201BF0DFFC00201BF0DCFC91
:103D400000201BF0D9FC00201BF0D6FC00201BF04B
:103D5000D3FC00201BF0D0FC00201BF0CDFC002089
:103D60001BF0CAFC00201BF0C7FC00201BF0C4FCA9
:103D700000201BF0C1FC00201BF0BEFC00201BF04B
:103D8000BBFC00201BF0B8FC00201BF0B5FC0020A1
:103D90001BF0B2FC00201BF0AFFC00201BF0ACFCC1
:103DA00000201BF0A9FC00201BF0A6FC00201BF04B
:103DB000A3FC00201BF0A0FC00201BF09DFC0020B9
:103DC0001BF09AFC00201BF097FC00201BF094FCD9
:103DD00000201BF091FC00201BF08EFC00201BF04B
:103DE0008BFC00201BF088FC00201BF085FC0020D1
:103DF0001BF082FC00201BF07FFC00201BF07CFCF1
:103E000000201BF079FC00201BF076FC00201BF04A
:103E100073FC00201BF070FC00201BF06DFC0020E8
:103E20001BF06AFC00201BF067FC00201BF064FC08
:103E300000201BF061FC00201BF05EFC00201BF04A
:103E40005BFC00201BF058FC00201BF055FC002000
:103E50001BF052FC00201BF04FFC00201BF04CFC20
:103E600000201BF049FC00201BF046FC00201BF04A
:103E700043FC00201BF040FC00201BF03DFC002018
:103E80001BF03AFC00201BF037FC00201BF034FC38
:103E900000201BF031FC00201BF02EFC00201BF04A
:103EA0002BFC00201BF028FC00201BF025FC002030
:103EB0001BF022FC00201BF01FFC00201BF01CFC50
:103EC00000201BF019FC00201BF016FC00201BF04A
:103ED00013FC00201BF010FC00201BF00DFC002048
:103EE0001BF00AFC00201BF007FC00201BF004FC68
:103EF00000201BF001FC00201BF0FEFB00201BF04B
:103F0000FBFB00201BF0F8FB00201BF0F5FB002062
:103F10001BF0F2FB00201BF0EFFB00201BF0ECFB82
:103F200000201BF0E9FB00201BF0E6FB00201BF04B
:103F3000E3FB00201BF0E0FB00201BF0DDFB00207A
:103F40001BF0DAFB00201BF0D7FB00201BF0D4FB9A
:103F500000201BF0D1FB00201BF0CEFB00201BF04B
:103F6000CBFB00201BF0C8FB00201BF0C5FB002092
:103F70001BF0C2FB00201BF0BFFB00201BF0BCFBB2
:103F800000201BF0B9FB00201BF0B6FB00201BF04B
:103F9000B3FB00201BF0B0FB00201BF0ADFB0020AA
:103FA0001BF0AAFB00201BF0A7FB00201BF0A4FBCA
:103FB00000201BF0A1FB00201BF09EFB00201BF04B
:103FC0009BFB00201BF098FB00201BF095FB0020C2
:103FD0001BF092FB00201BF08FFB00201BF08CFBE2
:103FE00000201BF089FB00201BF086FB00201BF04B
:103FF00083FB00201BF080FB00201BF07DFB0020DA
:104000001BF07AFB00201BF077FB00201BF074FBF9
:1040100000201BF071FB00201BF06EFB00201BF04A
:104020006BFB00201BF068FB00201BF065FB0020F1
:104030001BF062FB00201BF05FFB00201BF05CFB11
:1040400000201BF059FB00201BF056FB00201BF04A
:1040500053FB00201BF050FB00201BF04DFB002009
:104060001BF04AFB00201BF047FB00201BF044FB29
:1040700000201BF041FB00201BF03EFB00201BF04A
:104080003BFB00201BF038FB00201BF035FB002021
:104090001BF032FB00201BF02FFB00201BF02CFB41
:1040A00000201BF029FB00201BF026FB00201BF04A
:1040B00023FB00201BF020FB00201BF01DFB002039
:1040C0001BF01AFB00201BF017FB00201BF014FB59
:1040D00000201BF011FB00201BF00EFB00201BF04A
:1040E0000BFB00201BF008FB00201BF005FB002051
:1040F0001BF002FB00201BF0FFFA00201BF0FCFA73
:1041000000201BF0F9FA00201BF0F6FA00201BF04B
:10411000F3FA00201BF0F0FA00201BF0EDFA00206B
:104120001BF0EAFA00201BF0E7FA00201BF0E4FA8B
:1041300000201BF0E1FA00201BF0DEFA00201BF04B
:10414000DBFA00201BF0D8FA00201BF0D5FA002083
:104150001BF0D2FA00201BF0CFFA00201BF0CCFAA3
:1041600000201BF0C9FA00201BF0C6FA00201BF04B
:10417000C3FA00201BF0C0FA00201BF0BDFA00209B
:104180001BF0BAFA00201BF0B7FA00201BF0B4FABB
:1041900000201BF0B1FA00201BF0AEFA00201BF04B
:1041A000ABFA00201BF0A8FA00201BF0A5FA0020B3
:1041B0001BF0A2FA00201BF09FFA00201BF09CFAD3
:1041C00000201BF099FA00201BF096FA00201BF04B
:1041D00093FA00201BF090FA00201BF08DFA0020CB
:1041E0001BF08AFA00201BF087FA00201BF084FAEB
:1041F00000201BF081FA00201BF07EFA00201BF04B
:104200007BFA00201BF078FA00201BF075FA0020E2
:104210001BF072FA00201BF06FFA00201BF06CFA02
:1042200000201BF069FA00201BF066FA00201BF04A
:1042300063FA00201BF060FA00201BF05DFA0020FA
:104240001BF05AFA00201BF057FA00201BF054FA1A
:1042500000201BF051FA00201BF04EFA00201BF04A
:104260004BFA00201BF048FA00201BF045FA002012
:104270001BF042FA00201BF03FFA00201BF03CFA32
:1042800000201BF039FA00201BF036FA00201BF04A
:1042900033FA00201BF030FA00201BF02DFA00202A
:1042A0001BF02AFA00201BF027FA00201BF024FA4A
:1042B00000201BF021FA00201BF01EFA00201BF04A
:1042C0001BFA00201BF018FA00201BF015FA002042
:1042D0001BF012FA00201BF00FFA00201BF00CFA62
:1042E00000201BF009FA00201BF006FA00201BF04A
:1042F00003FA00201BF000FA00201BF0FDF900205B
:104300001BF0FAF900201BF0F7F900201BF0F4F97C
:1043100000201BF0F1F900201BF0EEF900201BF04B
:10432000EBF900201BF0E8F900201BF0E5F9002074
:104330001BF0E2F900201BF0DFF900201BF0DCF994
:1043400000201BF0D9F900201BF0D6F900201BF04B
:10435000D3F900201BF0D0F900201BF0CDF900208C
:104360001BF0CAF900201BF0C7F900201BF0C4F9AC
:1043700000201BF0C1F900201BF0BEF900201BF04B
:10438000BBF900201BF0B8F900201BF0B5F90020A4
:104390001BF0B2F900201BF0AFF900201BF0ACF9C4
:1043A00000201BF0A9F900201BF0A6F900201BF04B
:1043B000A3F900201BF0A0F900201BF09DF90020BC
:1043C0001BF09AF900201BF097F900201BF094F9DC
:1043D00000201BF091F900201BF08EF900201BF04B
:1043E0008BF900201BF088F900201BF085F90020D4
:1043F0001BF082F900201BF07FF900201BF07CF9F4
:1044000000201BF079F900201BF076F900201BF04A
:1044100073F900201BF070F900201BF06DF90020EB
:104420001BF06AF900201BF067F900201BF064F90B
:1044300000201BF061F900201BF05EF900201BF04A
:104440005BF900201BF058F900201BF055F9002003
:104450001BF052F900201BF04FF900201BF04CF923
:1044600000201BF049F900201BF046F900201BF04A
:1044700043F900201BF040F900201BF03DF900201B
:104480001BF03AF900201BF037F900201BF034F93B
:1044900000201BF031F900201BF02EF900201BF04A
:1044A0002BF900201BF028F900201BF025F9002033
:1044B0001BF022F900201BF01FF900201BF01CF953
:1044C00000201BF019F900201BF016F900201BF04A
:1044D00013F900201BF010F900201BF00DF900204B
:1044E0001BF00AF900201BF007F900201BF004F96B
:1044F00000201BF001F900201BF0FEF800201BF04B
:10450000FBF800201BF0F8F800201BF0F5F8002065
:104510001BF0F2F800201BF0EFF800201BF0ECF885
:1045200000201BF0E9F800201BF0E6F800201BF04B
:10453000E3F800201BF0E0F800201BF0DDF800207D
:104540001BF0DAF800201BF0D7F800201BF0D4F89D
:1045500000201BF0D1F800201BF0CEF800201BF04B
:10456000CBF800201BF0C8F800201BF0C5F8002095
:104570001BF0C2F800201BF0BFF800201BF0BCF8B5
:1045800000201BF0B9F800201BF0B6F800201BF04B
:10459000B3F800201BF0B0F800201BF0ADF80020AD
:1045A0001BF0AAF800201BF0A7F800201BF0A4F8CD
:1045B00000201BF0A1F800201BF09EF800201BF04B
:1045C0009BF800201BF098F800201BF095F80020C5
:1045D0001BF092F800201BF08FF800201BF08CF8E5
:1045E00000201BF089F800201BF086F800201BF04B
:1045F00083F800201BF080F800201BF07DF80020DD
:104600001BF07AF800201BF077F800201BF074F8FC
:1046100000201BF071F800201BF06EF800201BF04A
:104620006BF800201BF068F800201BF065F80020F4
:104630001BF062F800201BF05FF800201BF05CF814
:1046400000201BF059F800201BF056F800201BF04A
:1046500053F800201BF050F800201BF04DF800200C
:104660001BF04AF800201BF047F800201BF044F82C
:1046700000201BF041F800201BF03EF800201BF04A
:104680003BF800201BF038F800201BF035F8002024
:104690001BF032F800201BF02FF800201BF02CF844
:1046A00000201BF029F800201BF026F800201BF04A
:1046B00023F800201BF020F800201BF01DF800203C
:1046C0001BF01AF800201BF017F800201BF014F85C
:1046D00000201BF011F800201BF00EF800201BF04A
:1046E0000BF800201BF008F800201BF005F8002054
:1046F0001BF002F800201AF0FFFF00201AF0FCFF68
:1047000000201AF0F9FF00201AF0F6FF00201AF03E
:10471000F3FF00201AF0F0FF00201AF0EDFF002058
:104720001AF0EAFF00201AF0E7FF00201AF0E4FF79
:1047300000201AF0E1FF00201AF0DEFF00201AF03E
:10474000DBFF00201AF0D8FF00201AF0D5FF002070
:104750001AF0D2FF00201AF0CFFF00201AF0CCFF91
:1047600000201AF0C9FF00201AF0C6FF00201AF03E
:10477000C3FF00201AF0C0FF00201AF0BDFF002088
:104780001AF0BAFF00201AF0B7FF00201AF0B4FFA9
:1047900000201AF0B1FF00201AF0AEFF00201AF03E
:1047A000ABFF00201AF0A8FF00201AF0A5FF0020A0
:1047B0001AF0A2FF00201AF09FFF00201AF09CFFC1
:1047C00000201AF099FF00201AF096FF00201AF03E
:1047D00093FF00201AF090FF00201AF08DFF0020B8
:1047E0001AF08AFF00201AF087FF00201AF084FFD9
:1047F00000201AF081FF00201AF07EFF00201AF03E
:104800007BFF00201AF078FF00201AF075FF0020CF
:104810001AF072FF00201AF06FFF00201AF06CFFF0
:1048200000201AF069FF00201AF066FF00201AF03D
:1048300063FF00201AF060FF00201AF05DFF0020E7
:104840001AF05AFF00201AF057FF00201AF054FF08
:1048500000201AF051FF00201AF04EFF00201AF03D
:104860004BFF00201AF048FF00201AF045FF0020FF
:104870001AF042FF00201AF03FFF00201AF03CFF20
:1048800000201AF039FF00201AF036FF00201AF03D
:1048900033FF00201AF030FF00201AF02DFF002017
:1048A0001AF02AFF00201AF027FF00201AF024FF38
:1048B00000201AF021FF00201AF01EFF00201AF03D
:1048C0001BFF00201AF018FF00201AF015FF00202F
:1048D0001AF012FF00201AF00FFF00201AF00CFF50
:1048E00000201AF009FF00201AF006FF00201AF03D
:1048F00003FF00201AF000FF00201AF0FDFE002048
:104900001AF0FAFE00201AF0F7FE00201AF0F4FE6A
:1049100000201AF0F1FE00201AF0EEFE00201AF03E
:10492000EBFE00201AF0E8FE00201AF0E5FE002061
:104930001AF0E2FE00201AF0DFFE00201AF0DCFE82
:1049400000201AF0D9FE00201AF0D6FE00201AF03E
:10495000D3FE00201AF0D0FE00201AF0CDFE002079
:104960001AF0CAFE00201AF0C7FE00201AF0C4FE9A
:1049700000201AF0C1FE00201AF0BEFE00201AF03E
:10498000BBFE00201AF0B8FE00201AF0B5FE002091
:104990001AF0B2FE00201AF0AFFE00201AF0ACFEB2
:1049A00000201AF0A9FE00201AF0A6FE00201AF03E
:1049B000A3FE00201AF0A0FE00201AF09DFE0020A9
:1049C0001AF09AFE00201AF097FE00201AF094FECA
:1049D00000201AF091FE00201AF08EFE00201AF03E
:1049E0008BFE00201AF088FE00201AF085FE0020C1
:1049F0001AF082FE00201AF07FFE00201AF07CFEE2
:104A000000201AF079FE00201AF076FE00201AF03D
:104A100073FE00201AF070FE00201AF06DFE0020D8
:104A20001AF06AFE00201AF067FE00201AF064FEF9
:104A300000201AF061FE00201AF05EFE00201AF03D
:104A40005BFE00201AF058FE00201AF055FE0020F0
:104A50001AF052FE00201AF04FFE00201AF04CFE11
:104A600000201AF049FE00201AF046FE00201AF03D
:104A700043FE00201AF040FE00201AF03DFE002008
:104A80001AF03AFE00201AF037FE00201AF034FE29
:104A900000201AF031FE00201AF02EFE00201AF03D
:104AA0002BFE00201AF028FE00201AF025FE002020
:104AB0001AF022FE00201AF01FFE00201AF01CFE41
:104AC00000201AF019FE00201AF016FE00201AF03D
:104AD00013FE00201AF010FE00201AF00DFE002038
:104AE0001AF00AFE00201AF007FE00201AF004FE59
:104AF00000201AF001FE00201AF0FEFD00201AF03E
:104B0000FBFD00201AF0F8FD00201AF0F5FD002052
:104B10001AF0F2FD00201AF0EFFD00201AF0ECFD73
:104B200000201AF0E9FD00201AF0E6FD00201AF03E
:104B3000E3FD00201AF0E0FD00201AF0DDFD00206A
:104B40001AF0DAFD00201AF0D7FD00201AF0D4FD8B
:104B500000201AF0D1FD00201AF0CEFD00201AF03E
:104B6000CBFD00201AF0C8FD00201AF0C5FD002082
:104B70001AF0C2FD00201AF0BFFD00201AF0BCFDA3
:104B800000201AF0B9FD00201AF0B6FD00201AF03E
:104B9000B3FD00201AF0B0FD00201AF0ADFD00209A
:104BA0001AF0AAFD00201AF0A7FD00201AF0A4FDBB
:104BB00000201AF0A1FD00201AF09EFD00201AF03E
:104BC0009BFD00201AF098FD00201AF095FD0020B2
:104BD0001AF092FD00201AF08FFD00201AF08CFDD3
:104BE00000201AF089FD00201AF086FD00201AF03E
:104BF00083FD00201AF080FD00201AF07DFD0020CA
:104C00001AF07AFD00201AF077FD00201AF074FDEA
:104C100000201AF071FD00201AF06EFD00201AF03D
:104C20006BFD00201AF068FD00201AF065FD0020E1
:104C30001AF062FD00201AF05FFD00201AF05CFD02
:104C400000201AF059FD00201AF056FD00201AF03D
:104C500053FD00201AF050FD00201AF04DFD0020F9
:104C60001AF04AFD00201AF047FD00201AF044FD1A
:104C700000201AF041FD00201AF03EFD00201AF03D
:104C80003BFD00201AF038FD00201AF035FD002011
:104C90001AF032FD00201AF02FFD00201AF02CFD32
:104CA00000201AF029FD00201AF026FD00201AF03D
:104CB00023FD00201AF020FD00201AF01DFD002029
:104CC0001AF01AFD00201AF017FD00201AF014FD4A
:104CD00000201AF011FD00201AF00EFD00201AF03D
:104CE0000BFD00201AF008FD00201AF005FD002041
:104CF0001AF002FD00201AF0FFFC00201AF0FCFC64
:104D000000201AF0F9FC00201AF0F6FC00201AF03E
:104D1000F3FC00201AF0F0FC00201AF0EDFC00205B
:104D20001AF0EAFC00201AF0E7FC00201AF0E4FC7C
:104D300000201AF0E1FC00201AF0DEFC00201AF03E
:104D4000DBFC00201AF0D8FC00201AF0D5FC002073
:104D50001AF0D2FC00201AF0CFFC00201AF0CCFC94
:104D600000201AF0C9FC00201AF0C6FC00201AF03E
:104D7000C3FC00201AF0C0FC00201AF0BDFC00208B
:104D80001AF0BAFC00201AF0B7FC00201AF0B4FCAC
:104D900000201AF0B1FC00201AF0AEFC00201AF03E
:104DA000ABFC00201AF0A8FC00201AF0A5FC0020A3
:104DB0001AF0A2FC00201AF09FFC00201AF09CFCC4
:104DC00000201AF099FC00201AF096FC00201AF03E
:104DD00093FC00201AF090FC00201AF08DFC0020BB
:104DE0001AF08AFC00201AF087FC00201AF084FCDC
:104DF00000201AF081FC00201AF07EFC00201AF03E
:104E00007BFC00201AF078FC00201AF075FC0020D2
:104E10001AF072FC00201AF06FFC00201AF06CFCF3
:104E200000201AF069FC00201AF066FC00201AF03D
:104E300063FC00201AF060FC00201AF05DFC0020EA
:104E40001AF05AFC00201AF057FC00201AF054FC0B
:104E500000201AF051FC00201AF04EFC00201AF03D
:104E60004BFC00201AF048FC00201AF045FC002002
:104E70001AF042FC00201AF03FFC00201AF03CFC23
:104E800000201AF039FC00201AF036FC00201AF03D
:104E900033FC00201AF030FC00201AF02DFC00201A
:104EA0001AF02AFC00201AF027FC00201AF024FC3B
:104EB00000201AF021FC00201AF01EFC00201AF03D
:104EC0001BFC00201AF018FC00201AF015FC002032
:104ED0001AF012FC00201AF00FFC00201AF00CFC53
:104EE00000201AF009FC00201AF006FC00201AF03D
:104EF00003FC00201AF000FC00201AF0FDFB00204B
:104F00001AF0FAFB00201AF0F7FB00201AF0F4FB6D
:104F100000201AF0F1FB00201AF0EEFB00201AF03E
:104F2000EBFB00201AF0E8FB00201AF0E5FB002064
:104F30001AF0E2FB00201AF0DFFB00201AF0DCFB85
:104F400000201AF0D9FB00201AF0D6FB00201AF03E
:104F5000D3FB00201AF0D0FB00201AF0CDFB00207C
:104F60001AF0CAFB00201AF0C7FB00201AF0C4FB9D
:104F700000201AF0C1FB00201AF0BEFB00201AF03E
:104F8000BBFB00201AF0B8FB00201AF0B5FB002094
:104F90001AF0B2FB00201AF0AFFB00201AF0ACFBB5
:104FA00000201AF0A9FB00201AF0A6FB00201AF03E
:104FB000A3FB00201AF0A0FB00201AF09DFB0020AC
:104FC0001AF09AFB00201AF097FB00201AF094FBCD
:104FD00000201AF091FB00201AF08EFB00201AF03E
:104FE0008BFB00201AF088FB00201AF085FB0020C4
:104FF0001AF082FB00201AF07FFB00201AF07CFBE5
:1050000000201AF079FB00201AF076FB00201AF03D
:1050100073FB00201AF070FB00201AF06DFB0020DB
:105020001AF06AFB00201AF067FB00201AF064FBFC
:1050300000201AF061FB00201AF05EFB00201AF03D
:105040005BFB00201AF058FB00201AF055FB0020F3
:105050001AF052FB00201AF04FFB00201AF04CFB14
:1050600000201AF049FB00201AF046FB00201AF03D
:1050700043FB00201AF040FB00201AF03DFB00200B
:105080001AF03AFB00201AF037FB00201AF034FB2C
:1050900000201AF031FB00201AF02EFB00201AF03D
:1050A0002BFB00201AF028FB00201AF025FB002023
:1050B0001AF022FB00201AF01FFB00201AF01CFB44
:1050C00000201AF019FB00201AF016FB00201AF03D
:1050D00013FB00201AF010FB00201AF00DFB00203B
:1050E0001AF00AFB00201AF007FB00201AF004FB5C
:1050F00000201AF001FB00201AF0FEFA00201AF03E
:10510000FBFA00201AF0F8FA00201AF0F5FA002055
:105110001AF0F2FA00201AF0EFFA00201AF0ECFA76
:1051200000201AF0E9FA00201AF0E6FA00201AF03E
:10513000E3FA00201AF0E0FA00201AF0DDFA00206D
:105140001AF0DAFA00201AF0D7FA00201AF0D4FA8E
:1051500000201AF0D1FA00201AF0CEFA00201AF03E
:10516000CBFA00201AF0C8FA00201AF0C5FA002085
:105170001AF0C2FA00201AF0BFFA00201AF0BCFAA6
:1051800000201AF0B9FA00201AF0B6FA00201AF03E
:10519000B3FA00201AF0B0FA00201AF0ADFA00209D
:1051A0001AF0AAFA00201AF0A7FA00201AF0A4FABE
:1051B00000201AF0A1FA00201AF09EFA00201AF03E
:1051C0009BFA00201AF098FA00201AF095FA0020B5
:1051D0001AF092FA00201AF08FFA00201AF08CFAD6
:1051E00000201AF089FA00201AF086FA00201AF03E
:1051F00083FA00201AF080FA00201AF07DFA0020CD
:105200001AF07AFA00201AF077FA00201AF074FAED
:1052100000201AF071FA00201AF06EFA00201AF03D
:105220006BFA00201AF068FA00201AF065FA0020E4
:105230001AF062FA00201AF05FFA00201AF05CFA05
:1052400000201AF059FA00201AF056FA00201AF03D
:1052500053FA00201AF050FA00201AF04DFA0020FC
:105260001AF04AFA00201AF047FA00201AF044FA1D
:1052700000201AF041FA00201AF03EFA00201AF03D
:105280003BFA00201AF038FA00201AF035FA002014
:105290001AF032FA00201AF02FFA00201AF02CFA35
:1052A00000201AF029FA00201AF026FA00201AF03D
:1052B00023FA00201AF020FA00201AF01DFA00202C
:1052C0001AF01AFA00201AF017FA00201AF014FA4D
:1052D00000201AF011FA00201AF00EFA00201AF03D
:1052E0000BFA00201AF008FA00201AF005FA002044
:1052F0001AF002FA00201AF0FFF900201AF0FCF967
:1053000000201AF0F9F900201AF0F6F900201AF03E
:10531000F3F900201AF0F0F900201AF0EDF900205E
:105320001AF0EAF900201AF0E7F900201AF0E4F97F
:1053300000201AF0E1F900201AF0DEF900201AF03E
:10534000DBF900201AF0D8F900201AF0D5F9002076
:105350001AF0D2F900201AF0CFF900201AF0CCF997
:1053600000201AF0C9F900201AF0C6F900201AF03E
:10537000C3F900201AF0C0F900201AF0BDF900208E
:105380001AF0BAF900201AF0B7F900201AF0B4F9AF
:1053900000201AF0B1F900201AF0AEF900201AF03E
:1053A000ABF900201AF0A8F900201AF0A5F90020A6
:1053B0001AF0A2F900201AF09FF900201AF09CF9C7
:1053C00000201AF099F900201AF096F900201AF03E
:1053D00093F900201AF090F900201AF08DF90020BE
:1053E0001AF08AF900201AF087F900201AF084F9DF
:1053F00000201AF081F900201AF07EF900201AF03E
:105400007BF900201AF078F900201AF075F90020D5
:105410001AF072F900201AF06FF900201AF06CF9F6
:1054200000201AF069F900201AF066F900201AF03D
:1054300063F900201AF060F900201AF05DF90020ED
:105440001AF05AF900201AF057F900201AF054F90E
:1054500000201AF051F900201AF04EF900201AF03D
:105460004BF900201AF048F900201AF045F9002005
:105470001AF042F900201AF03FF900201AF03CF926
:1054800000201AF039F900201AF036F900201AF03D
:1054900033F900201AF030F900201AF02DF900201D
:1054A0001AF02AF900201AF027F900201AF024F93E
:1054B00000201AF021F900201AF01EF900201AF03D
:1054C0001BF900201AF018F900201AF015F9002035
:1054D0001AF012F900201AF00FF900201AF00CF956
:1054E00000201AF009F900201AF006F900201AF03D
:1054F00003F900201AF000F900201AF0FDF800204E
:105500001AF0FAF800201AF0F7F800201AF0F4F870
:1055100000201AF0F1F800201AF0EEF800201AF03E
:10552000EBF800201AF0E8F800201AF0E5F8002067
:105530001AF0E2F800201AF0DFF800201AF0DCF888
:1055400000201AF0D9F800201AF0D6F800201AF03E
:10555000D3F800201AF0D0F800201AF0CDF800207F
:105560001AF0CAF800201AF0C7F800201AF0C4F8A0
:1055700000201AF0C1F800201AF0BEF800201AF03E
:10558000BBF800201AF0B8F800201AF0B5F8002097
:105590001AF0B2F800201AF0AFF800201AF0ACF8B8
:1055A00000201AF0A9F800201AF0A6F800201AF03E
:1055B000A3F800201AF0A0F800201AF09DF80020AF
:1055C0001AF09AF800201AF097F800201AF094F8D0
:1055D00000201AF091F800201AF08EF800201AF03E
:1055E0008BF800201AF088F800201AF085F80020C7
:1055F0001AF082F800201AF07FF800201AF07CF8E8
:1056000000201AF079F800201AF076F800201AF03D
:1056100073F800201AF070F800201AF06DF80020DE
:105620001AF06AF800201AF067F800201AF064F8FF
:1056300000201AF061F800201AF05EF800201AF03D
:105640005BF800201AF058F800201AF055F80020F6
:105650001AF052F800201AF04FF800201AF04CF817
:1056600000201AF049F800201AF046F800201AF03D
:1056700043F800201AF040F800201AF03DF800200E
:105680001AF03AF800201AF037F800201AF034F82F
:1056900000201AF031F800201AF02EF800201AF03D
:1056A0002BF800201AF028F800201AF025F8002026
:1056B0001AF022F800201AF01FF800201AF01CF847
:1056C00000201AF019F800201AF016F800201AF03D
:1056D00013F800201AF010F800201AF00DF800203E
:1056E0001AF00AF800201AF007F800201AF004F85F
:1056F00000201AF001F8002019F0FEFF002019F038
:10570000FBFF002019F0F8FF002019F0F5FF002042
:1057100019F0F2FF002019F0EFFF002019F0ECFF64
:10572000002019F0E9FF002019F0E6FF002019F031
:10573000E3FF002019F0E0FF002019F0DDFF00205A
:1057400019F0DAFF002019F0D7FF002019F0D4FF7C
:10575000002019F0D1FF002019F0CEFF002019F031
:10576000CBFF002019F0C8FF002019F0C5FF002072
:1057700019F0C2FF002019F0BFFF002019F0BCFF94
:10578000002019F0B9FF002019F0B6FF002019F031
:10579000B3FF002019F0B0FF002019F0ADFF00208A
:1057A00019F0AAFF002019F0A7FF002019F0A4FFAC
:1057B000002019F0A1FF002019F09EFF002019F031
:1057C0009BFF002019F098FF002019F095FF0020A2
:1057D00019F092FF002019F08FFF002019F08CFFC4
:1057E000002019F089FF002019F086FF002019F031
:1057F00083FF002019F080FF002019F07DFF0020BA
:1058000019F07AFF002019F077FF002019F074FFDB
:10581000002019F071FF002019F06EFF002019F030
:105820006BFF002019F068FF002019F065FF0020D1
:1058300019F062FF002019F05FFF002019F05CFFF3
:10584000002019F059FF002019F056FF002019F030
:1058500053FF002019F050FF002019F04DFF0020E9
:1058600019F04AFF002019F047FF002019F044FF0B
:10587000002019F041FF002019F03EFF002019F030
:105880003BFF002019F038FF002019F035FF002001
:1058900019F032FF002019F02FFF002019F02CFF23
:1058A000002019F029FF002019F026FF002019F030
:1058B00023FF002019F020FF002019F01DFF002019
:1058C00019F01AFF002019F017FF002019F014FF3B
:1058D000002019F011FF002019F00EFF002019F030
:1058E0000BFF002019F008FF002019F005FF002031
:1058F00019F002FF002019F0FFFE002019F0FCFE55
:10590000002019F0F9FE002019F0F6FE002019F031
:10591000F3FE002019F0F0FE002019F0EDFE00204B
:1059200019F0EAFE002019F0E7FE002019F0E4FE6D
:10593000002019F0E1FE002019F0DEFE002019F031
:10594000DBFE002019F0D8FE002019F0D5FE002063
:1059500019F0D2FE002019F0CFFE002019F0CCFE85
:10596000002019F0C9FE002019F0C6FE002019F031
:10597000C3FE002019F0C0FE002019F0BDFE00207B
:1059800019F0BAFE002019F0B7FE002019F0B4FE9D
:10599000002019F0B1FE002019F0AEFE002019F031
:1059A000ABFE002019F0A8FE002019F0A5FE002093
:1059B00019F0A2FE002019F09FFE002019F09CFEB5
:1059C000002019F099FE002019F096FE002019F031
:1059D00093FE002019F090FE002019F08DFE0020AB
:1059E00019F08AFE002019F087FE002019F084FECD
:1059F000002019F081FE002019F07EFE002019F031
:105A00007BFE002019F078FE002019F075FE0020C2
:105A100019F072FE002019F06FFE002019F06CFEE4
:105A2000002019F069FE002019F066FE002019F030
:105A300063FE002019F060FE002019F05DFE0020DA
:105A400019F05AFE002019F057FE002019F054FEFC
:105A5000002019F051FE002019F04EFE002019F030
:105A60004BFE002019F048FE002019F045FE0020F2
:105A700019F042FE002019F03FFE002019F03CFE14
:105A8000002019F039FE002019F036FE002019F030
:105A900033FE002019F030FE002019F02DFE00200A
:105AA00019F02AFE002019F027FE002019F024FE2C
:105AB000002019F021FE002019F01EFE002019F030
:105AC0001BFE002019F018FE002019F015FE002022
:105AD00019F012FE002019F00FFE002019F00CFE44
