:020000041000EA
:1000000000B5324B212058609868022188439860DF
:10001000D860186158612E4B002199600221596106
:100020000121F02299502B49196001219960352056
:1000300000F044F80222904214D00621196600F024
:1000400034F8196E01211966002018661A6600F04E
:100050002CF8196E196E196E052000F02FF8012189
:100060000842F9D1002199601B49196000215960AB
:100070001A491B48016001219960EB211966A021F2
:10008000196600F012F800219960164914480160C1
:100090000121996001BC002800D000471248134993
:1000A000086003C880F30888084703B5996A0420EC
:1000B0000142FBD001200142F8D103BD02B5186610
:1000C0001866FFF7F2FF186E186E02BD00000240BE
:1000D000000000180000070000035F00212200005C
:1000E000F4000018222000A00001001008ED00E03C
:1000F00000000000000000000000000074B24E7A12
:1001000000200420F7010010C3010010C5010010F9
:10011000C1010010C1010010C1010010C101001097
:10012000C1010010C1010010C1010010C701001081
:10013000C1010010C1010010C9010010CB01001065
:10014000CD010010CD010010CD010010CD01001037
:10015000CD010010CD010010CD010010CD01001027
:10016000CD010010CD010010CD010010CD01001017
:10017000CD010010CD010010CD010010CD01001007
:10018000CD010010CD010010CD010010CD010010F7
:10019000CD010010CD010010CD010010CD010010E7
:1001A000CD010010CD010010CD010010CD010010D7
:1001B000CD010010CD010010CD010010CD010010C7
:1001C00000BE00BE00BE00BE00BE00BEEFF3058054
:1001D000103800BEF2EB887178A00210A4A00210C3
:1001E0003402001090A31AE700201F49086006C8D7
:1001F00081F3088810471D48006800282FD10DA4FE
:100200000ECC002902D000F012F8F9E71849194A7B
:10021000002000E001C19142FCD1174988471749ED
:1002200088471749884700BEFDE701C901C29A42C5
:10023000FBD37047A4A00210C0000020181A0020B1
:10024000FCB902100000042000000420FCB90210D8
:10025000001004200010042000000000704709482E
:100260001CF0BEFE0047000008ED00E0000000D0DA
:10027000181A0020382F00201DBD0110419B0110CD
:10028000D9BC01105756000006005250ABB3605362
:10029000C888021006005250861C0302D88802103B
:1002A000060052505422A29DE088021005005250D0
:1002B000DE65F468FCB90210F8B5C04610B5064C0E
:1002C0002378002B07D1054B002B02D0044800E017
:1002D00000BF0123237010BDF01F002000000000AC
:1002E000B86A0210044B10B5002B03D00349044830
:1002F00000E000BF10BDC04600000000F41F002059
:10030000B86A021010B5024824F080F910BDC0464A
:10031000D80F00200120704710B50400FFF7FAFF46
:10032000A04205D3A62080006043024BC01810BD38
:100330000020FCE7400D00200120704710B50400AC
:10034000FFF7E8FFA04204D33420444302480019D9
:1003500010BD0020FCE7C046D80F002010B582B0C9
:100360000C00144BC3185A4253415B00124A9B5E67
:100370008B4204D06B46DA1D1470002115E06B46E9
:10038000DA1D0D23137000210029F3D183699B0628
:10039000FCD41378036001310132F5E783699B06D1
:1003A000FCD413780360013101320029F6D002B089
:1003B00010BDC0460080FCBFD42E002010B5002226
:1003C000012119F0E7FB10BD10B50122002119F041
:1003D000E1FB10BD30B583B00C0000232DE06B466F
:1003E000DA1D1570002106E083699B06FCD41378A2
:1003F0000360013101320029F6D018E06B46DA1DA6
:100400000D231370002106E083699B06FCD413784A
:100410000360013101320029F6D01CE083699B069C
:10042000FCD413780360013101320029F6D023781F
:100430000D3B5A425341DBB201342578002D0FD0D9
:10044000002BCCD1074BC3185A4253415B00064ADC
:100450009B5EAB42D2D06B46DA1D15700021E4E7FB
:1004600003B030BD0080FCBFD42E002010B51AF0C0
:1004700033FD10BD30B583B00223022B08DD244AC2
:100480001368013313600A20FFF7F0FF002418E01F
:10049000022B01D00133F0E71E4AD054FAE76B4635
:1004A000DA1D0D2313700021002913D11A4B9B690B
:1004B0009B06FBD41078184B186001310132F3E72A
:1004C0000134022C16DC134B1D5D144B00229B5E85
:1004D000AB42E4D06B46DA1D157000210029EFD144
:1004E0000D4B9B699B06FBD410780B4B18600131B8
:1004F0000132F3E70A20FFF7B9FF022303E0054AC0
:100500000021D1540133032BF9DD03B030BDC046C7
:10051000202C0020A810002000400340D42E0020F2
:1005200010B500211AF0ACFC10BD000070B51C2005
:1005300019F04AFBD024240680235B0563626361C3
:10054000192019F041FB8025AD04656265616420C6
:10055000FFF78CFFA5616420FFF788FFE1263603D3
:10056000310048481BF03AF9310047481BF036F992
:100570000221002019F0F6FA0221012019F0F2FA06
:100580000221042019F0EEFA0221052019F0EAFAFE
:100590000221092019F0E6FA0E2019F015FB1120AE
:1005A00019F012FB8022D201626280239B026362F7
:1005B00062616361192019F007FB65620B2019F075
:1005C00003FB80231B0163621A2019F0FDFA8023CC
:1005D000DB0463620A2019F0F7FA8023DB00636210
:1005E0001B2019F0F1FA80231B0563620022012110
:1005F0001B2019F0CFFA062019F0E6FA40236362B7
:1006000000220121062019F0C5FA204B01221A60B0
:10061000162019F0D9FA8023DB0363620F2019F04A
:10062000D3FA80231B026362132019F0CDFA8023D2
:100630001B03A36200220121132019F0ABFA122040
:1006400019F0C2FA8023DB02A362002201211220EA
:1006500019F0A0FA142019F0B7FA80235B03A36203
:1006600001220021142019F095FA152019F0ACFA96
:1006700080239B03A36201220021152019F08AFA2E
:1006800070BDC04600400340008003406C10002055
:100690000023244A1360244A1360244A1360244A26
:1006A0001360244A1360244A1360244A1360244AC6
:1006B0001360244A1360244A1360244A23211170D2
:1006C00049205070053890701530D07013715371F7
:1006D0009371D371137253729372D37213735373F2
:1006E0009373D373137453749374D37413755375D2
:1006F0009375D375137653769376D37613775377B2
:100700009377D3773938135401301354013013548D
:100710005354013153540131535401315354013175
:100720005354704700280020F02E0020202C002079
:1007300030210020282100202C210020242100200D
:10074000342100207427002078270020182700205B
:10075000124B00221A705A709A70DA701A715A711C
:100760009A71DA711A725A729A72DA721A735A7329
:100770009A73DA731A745A749A74DA741A755A7509
:100780009A75DA751A765A769A76DA761A775A77E9
:100790009A77DA7720215A547047C046F026002015
:1007A00010B51A4B1B68322B0CD0184B1B68312B21
:1007B00015D0174B1B78002B15D0154B1B78002B31
:1007C0001AD110BD134B1B68002BEED13220FFF75E
:1007D0004DFE0F4A137801214B401370E5E70C4B97
:1007E00001221A70E5E70221052019F0BBF9012169
:1007F000092019F0B7F9E0E70121052019F0B2F955
:100800000221092019F0AEF9DBE7C04618100020DC
:1008100074100020902D0020F0B583B0012448E131
:10082000AC4B1B68002B00D14AE1012C00D111E137
:10083000A94B1D5DA94B02229B5EAB4200D10BE18F
:100840006B46DA1D157000211DE1FA20FFF768FEE6
:10085000D0231B0640229A61A14B9D420DD0013549
:10086000FA239B009D42E3D29E4B1B786E2BECD16A
:10087000D0231B0640225A61E7E79B4B1B78732B62
:100880005DD06E2B12D0984B1B786E2BE7D1974B17
:100890001B68322BE3D1964B1B78002B00D093E0E2
:1008A000934B1B78002BDAD19248A6E08F4B1B6844
:1008B000312BE8D10023904827E06B46DA1D1670F3
:1008C000002104E016788D4B1E60013101320029B1
:1008D00015D18A4B9B699B06FBD4F3E76B46DA1D67
:1008E0000D2313700021002919D1844B9B699B06AD
:1008F000FBD41778814B1F6001310132F3E7037895
:100900000D3B5A425341DBB201300678002EBAD07B
:10091000002BD2D1714B02229B5EB342DED06B46DC
:10092000DA1D167000210029E9D1744B9B699B06E2
:10093000FBD41678714B1E6001310132F3E70023BE
:100940006D48E2E76B46DA1D1670002108E06B4B3C
:100950009B699B06FBD41678684B1E6001310132FF
:100960000029F4D003780D3B5A425341DBB20130E9
:100970000678002E94D0002BE4D1584B02229B5EC7
:10098000B3420FD06B46DA1D167000210029E9D161
:100990005A4B9B699B06FBD41678584B1E6001315D
:1009A0000132F3E76B46DA1D0D231370002108E0D6
:1009B000524B9B699B06FBD41778504B1F6001314B
:1009C00001320029F4D0DDE700234B48D0E76B4625
:1009D000DA1D1670002108E0484B9B699B06FBD48A
:1009E0001678464B1E60013101320029F4D003789D
:1009F0000D3B5A425341DBB201300678002E00D144
:100A00002DE7002BE3D1354B02229B5EB3420FD082
:100A10006B46DA1D167000210029E8D1374B9B691F
:100A20009B06FBD41678354B1E6001310132F3E78B
:100A30006B46DA1D0D231370002108E02F4B9B69D4
:100A40009B06FBD417782D4B1F6001310132002922
:100A5000F4D0DDE7002503E76B46DA1D0D231370A4
:100A6000002108E0254B9B699B06FBD41078234BA3
:100A70001860013101320029F4D0E1E610781F4BF3
:100A8000186001310132002904D11C4B9B699B067F
:100A9000FBD4F3E7102C13D1194B01221A60194B28
:100AA00000221A70FFF77CFE0AE00A4B01221A604E
:100AB0000134102C0BDC084B5B78572B00D1AFE6D0
:100AC000044B1B68002BF3D1102CF1D1EDE703B0E0
:100AD000F0BDC046582C0020F0260020D42E002067
:100AE000E70300000C1000200D100020181000205B
:100AF00074100020C46A0210BC6A02100080034017
:100B0000902D0020322F0020012800D07047344B58
:100B10001B78702B2BD06E2BF8D1D0231B065B6873
:100B20009B0204D5D0231B065B68DB024ED4D02386
:100B30001B065B689B0204D4D0231B065B68DB02A8
:100B40004BD4D0231B065B689B0204D5D0231B0625
:100B50005B68DB02DAD5D0231B065B689B02D5D429
:100B6000D0231B065B68DB02D0D40320CEE7D02263
:100B700012065268920204D4D02212065268D2029F
:100B80001FD5D02212065268920204D5D022120636
:100B90005268D2021FD5D02212065268920204D4A3
:100BA000D02212065268D202B0D4D0221206526865
:100BB0009202B0D5D02212065268D202ABD50320E1
:100BC000A4E7084B00221A7000209FE7054B002283
:100BD0001A7000209AE7022098E7022096E7C046A4
:100BE0001C1000202D2F002030B583B0042800D128
:100BF000ABE009DC012850D0032854D1A5481DF0F2
:100C0000F5FA0023A44877E005284CD1A3481DF04D
:100C1000EDFA0023A24815E16B46DA1D147000219D
:100C200000291AD19F4B9B699B06FBD414789D4BDE
:100C30001C6001310132F3E76B46DA1D0D2313709E
:100C40000021002919D1974B9B699B06FBD415788D
:100C5000944B1D6001310132F3E703780D3B5A429A
:100C60005341DBB201300478002C19D0002BD3D1D2
:100C70008D4B02229B5EA342DED06B46DA1D1470C0
:100C800000210029E9D1874B9B699B06FBD414788E
:100C9000844B1C6001310132F3E700238348E2E713
:100CA00001201AF019F903B030BD6B46DA1D14703B
:100CB000002100291AD17B4B9B699B06FBD4147839
:100CC000784B1C6001310132F3E76B46DA1D0D23CE
:100CD00013700021002919D1724B9B699B06FBD42C
:100CE0001578704B1D6001310132F3E703780D3B3D
:100CF0005A425341DBB201300478002C16D0002B4D
:100D0000D3D1694B02229B5EA342DED06B46DA1D33
:100D1000147000210029E9D1624B9B699B06FBD42A
:100D20001478604B1C6001310132F3E701201AF0A6
:100D3000D3F8FFF70DFD00235D4A13605D4A137081
:100D40005D4A13705D4A1370ADE75D481DF04EFAC1
:100D500000235C4826E06B46DA1D14700021002950
:100D60001AD1504B9B699B06FBD414784D4B1C60E9
:100D700001310132F3E76B46DA1D0D2313700021B8
:100D8000002919D1474B9B699B06FBD41578454B2D
:100D90001D6001310132F3E703780D3B5A425341A4
:100DA000DBB201300478002C16D0002BD3D13E4B9F
:100DB00002229B5EA342DED06B46DA1D1470002136
:100DC0000029E9D1374B9B699B06FBD41478354B3E
:100DD0001C6001310132F3E701201AF07DF8FFF7C2
:100DE000B7FC0023324A1360324A1370324A137040
:100DF000324A137057E76B46DA1D14700021002940
:100E00001AD1284B9B699B06FBD41478254B1C6098
:100E100001310132F3E76B46DA1D0D231370002117
:100E2000002919D11F4B9B699B06FBD415781D4BDC
:100E30001D6001310132F3E703780D3B5A42534103
:100E4000DBB201300478002C16D0002BD3D1164B26
:100E500002229B5EA342DED06B46DA1D1470002195
:100E60000029E9D10F4B9B699B06FBD414780D4BED
:100E70001C6001310132F3E701201AF02DF8FFF771
:100E800067FC00230A4A13600A4A13700A4A137067
:100E900009E7C046FC6A0210E46A0210346B0210D3
:100EA000F46A021000800340D42E0020CC6A0210A5
:100EB000902D0020212F0020252F00202F2F0020F3
:100EC000186B0210EC6A021010B500201DF0BEF97C
:100ED00000201DF0BBF900201DF0B8F900201DF026
:100EE000B5F900201DF0B2F900201DF0AFF9002087
:100EF0001DF0ACF900201DF0A9F900201DF0A6F9A5
:100F000000201DF0A3F900201DF0A0F900201DF025
:100F10009DF900201DF09AF900201DF097F900209E
:100F20001DF094F900201DF091F900201DF08EF9BC
:100F300000201DF08BF900201DF088F900201DF025
:100F400085F900201DF082F900201DF07FF90020B6
:100F50001DF07CF900201DF079F900201DF076F9D4
:100F600000201DF073F900201DF070F900201DF025
:100F70006DF900201DF06AF900201DF067F90020CE
:100F80001DF064F900201DF061F900201DF05EF9EC
:100F900000201DF05BF900201DF058F900201DF025
:100FA00055F900201DF052F900201DF04FF90020E6
:100FB0001DF04CF900201DF049F900201DF046F904
:100FC00000201DF043F900201DF040F900201DF025
:100FD0003DF900201DF03AF900201DF037F90020FE
:100FE0001DF034F900201DF031F900201DF02EF91C
:100FF00000201DF02BF900201DF028F900201DF025
:1010000025F900201DF022F900201DF01FF9002015
:101010001DF01CF900201DF019F900201DF016F933
:1010200000201DF013F900201DF010F900201DF024
:101030000DF900201DF00AF900201DF007F900202D
:101040001DF004F900201DF001F900201DF0FEF84C
:1010500000201DF0FBF800201DF0F8F800201DF026
:10106000F5F800201DF0F2F800201DF0EFF8002048
:101070001DF0ECF800201DF0E9F800201DF0E6F866
:1010800000201DF0E3F800201DF0E0F800201DF026
:10109000DDF800201DF0DAF800201DF0D7F8002060
:1010A0001DF0D4F800201DF0D1F800201DF0CEF87E
:1010B00000201DF0CBF800201DF0C8F800201DF026
:1010C000C5F800201DF0C2F800201DF0BFF8002078
:1010D0001DF0BCF800201DF0B9F800201DF0B6F896
:1010E00000201DF0B3F800201DF0B0F800201DF026
:1010F000ADF800201DF0AAF800201DF0A7F8002090
:101100001DF0A4F800201DF0A1F800201DF09EF8AD
:1011100000201DF09BF800201DF098F800201DF025
:1011200095F800201DF092F800201DF08FF80020A7
:101130001DF08CF800201DF089F800201DF086F8C5
:1011400000201DF083F800201DF080F800201DF025
:101150007DF800201DF07AF800201DF077F80020BF
:101160001DF074F800201DF071F800201DF06EF8DD
:1011700000201DF06BF800201DF068F800201DF025
:1011800065F800201DF062F800201DF05FF80020D7
:101190001DF05CF800201DF059F800201DF056F8F5
:1011A00000201DF053F800201DF050F800201DF025
:1011B0004DF800201DF04AF800201DF047F80020EF
:1011C0001DF044F800201DF041F800201DF03EF80D
:1011D00000201DF03BF800201DF038F800201DF025
:1011E00035F800201DF032F800201DF02FF8002007
:1011F0001DF02CF800201DF029F800201DF026F825
:1012000000201DF023F800201DF020F800201DF024
:101210001DF800201DF01AF800201DF017F800201E
:101220001DF014F800201DF011F800201DF00EF83C
:1012300000201DF00BF800201DF008F800201DF024
:1012400005F800201DF002F800201CF0FFFF002030
:101250001CF0FCFF00201CF0F9FF00201CF0F6FF42
:1012600000201CF0F3FF00201CF0F0FF00201CF019
:10127000EDFF00201CF0EAFF00201CF0E7FF00203B
:101280001CF0E4FF00201CF0E1FF00201CF0DEFF5A
:1012900000201CF0DBFF00201CF0D8FF00201CF019
:1012A000D5FF00201CF0D2FF00201CF0CFFF002053
:1012B0001CF0CCFF00201CF0C9FF00201CF0C6FF72
:1012C00000201CF0C3FF00201CF0C0FF00201CF019
:1012D000BDFF00201CF0BAFF00201CF0B7FF00206B
:1012E0001CF0B4FF00201CF0B1FF00201CF0AEFF8A
:1012F00000201CF0ABFF00201CF0A8FF00201CF019
:10130000A5FF00201CF0A2FF00201CF09FFF002082
:101310001CF09CFF00201CF099FF00201CF096FFA1
:1013200000201CF093FF00201CF090FF00201CF018
:101330008DFF00201CF08AFF00201CF087FF00209A
:101340001CF084FF00201CF081FF00201CF07EFFB9
:1013500000201CF07BFF00201CF078FF00201CF018
:1013600075FF00201CF072FF00201CF06FFF0020B2
:101370001CF06CFF00201CF069FF00201CF066FFD1
:1013800000201CF063FF00201CF060FF00201CF018
:101390005DFF00201CF05AFF00201CF057FF0020CA
:1013A0001CF054FF00201CF051FF00201CF04EFFE9
:1013B00000201CF04BFF00201CF048FF00201CF018
:1013C00045FF00201CF042FF00201CF03FFF0020E2
:1013D0001CF03CFF00201CF039FF00201CF036FF01
:1013E00000201CF033FF00201CF030FF00201CF018
:1013F0002DFF00201CF02AFF00201CF027FF0020FA
:101400001CF024FF00201CF021FF00201CF01EFF18
:1014100000201CF01BFF00201CF018FF00201CF017
:1014200015FF00201CF012FF00201CF00FFF002011
:101430001CF00CFF00201CF009FF00201CF006FF30
:1014400000201CF003FF00201CF000FF00201CF017
:10145000FDFE00201CF0FAFE00201CF0F7FE00202C
:101460001CF0F4FE00201CF0F1FE00201CF0EEFE4B
:1014700000201CF0EBFE00201CF0E8FE00201CF019
:10148000E5FE00201CF0E2FE00201CF0DFFE002044
:101490001CF0DCFE00201CF0D9FE00201CF0D6FE63
:1014A00000201CF0D3FE00201CF0D0FE00201CF019
:1014B000CDFE00201CF0CAFE00201CF0C7FE00205C
:1014C0001CF0C4FE00201CF0C1FE00201CF0BEFE7B
:1014D00000201CF0BBFE00201CF0B8FE00201CF019
:1014E000B5FE00201CF0B2FE00201CF0AFFE002074
:1014F0001CF0ACFE00201CF0A9FE00201CF0A6FE93
:1015000000201CF0A3FE00201CF0A0FE00201CF018
:101510009DFE00201CF09AFE00201CF097FE00208B
:101520001CF094FE00201CF091FE00201CF08EFEAA
:1015300000201CF08BFE00201CF088FE00201CF018
:1015400085FE00201CF082FE00201CF07FFE0020A3
:101550001CF07CFE00201CF079FE00201CF076FEC2
:1015600000201CF073FE00201CF070FE00201CF018
:101570006DFE00201CF06AFE00201CF067FE0020BB
:101580001CF064FE00201CF061FE00201CF05EFEDA
:1015900000201CF05BFE00201CF058FE00201CF018
:1015A00055FE00201CF052FE00201CF04FFE0020D3
:1015B0001CF04CFE00201CF049FE00201CF046FEF2
:1015C00000201CF043FE00201CF040FE00201CF018
:1015D0003DFE00201CF03AFE00201CF037FE0020EB
:1015E0001CF034FE00201CF031FE00201CF02EFE0A
:1015F00000201CF02BFE00201CF028FE00201CF018
:1016000025FE00201CF022FE00201CF01FFE002002
:101610001CF01CFE00201CF019FE00201CF016FE21
:1016200000201CF013FE00201CF010FE00201CF017
:101630000DFE00201CF00AFE00201CF007FE00201A
:101640001CF004FE00201CF001FE00201CF0FEFD3A
:1016500000201CF0FBFD00201CF0F8FD00201CF019
:10166000F5FD00201CF0F2FD00201CF0EFFD002035
:101670001CF0ECFD00201CF0E9FD00201CF0E6FD54
:1016800000201CF0E3FD00201CF0E0FD00201CF019
:10169000DDFD00201CF0DAFD00201CF0D7FD00204D
:1016A0001CF0D4FD00201CF0D1FD00201CF0CEFD6C
:1016B00000201CF0CBFD00201CF0C8FD00201CF019
:1016C000C5FD00201CF0C2FD00201CF0BFFD002065
:1016D0001CF0BCFD00201CF0B9FD00201CF0B6FD84
:1016E00000201CF0B3FD00201CF0B0FD00201CF019
:1016F000ADFD00201CF0AAFD00201CF0A7FD00207D
:101700001CF0A4FD00201CF0A1FD00201CF09EFD9B
:1017100000201CF09BFD00201CF098FD00201CF018
:1017200095FD00201CF092FD00201CF08FFD002094
:101730001CF08CFD00201CF089FD00201CF086FDB3
:1017400000201CF083FD00201CF080FD00201CF018
:101750007DFD00201CF07AFD00201CF077FD0020AC
:101760001CF074FD00201CF071FD00201CF06EFDCB
:1017700000201CF06BFD00201CF068FD00201CF018
:1017800065FD00201CF062FD00201CF05FFD0020C4
:101790001CF05CFD00201CF059FD00201CF056FDE3
:1017A00000201CF053FD00201CF050FD00201CF018
:1017B0004DFD00201CF04AFD00201CF047FD0020DC
:1017C0001CF044FD00201CF041FD00201CF03EFDFB
:1017D00000201CF03BFD00201CF038FD00201CF018
:1017E00035FD00201CF032FD00201CF02FFD0020F4
:1017F0001CF02CFD00201CF029FD00201CF026FD13
:1018000000201CF023FD00201CF020FD00201CF017
:101810001DFD00201CF01AFD00201CF017FD00200B
:101820001CF014FD00201CF011FD00201CF00EFD2A
:1018300000201CF00BFD00201CF008FD00201CF017
:1018400005FD00201CF002FD00201CF0FFFC002024
:101850001CF0FCFC00201CF0F9FC00201CF0F6FC45
:1018600000201CF0F3FC00201CF0F0FC00201CF019
:10187000EDFC00201CF0EAFC00201CF0E7FC00203E
:101880001CF0E4FC00201CF0E1FC00201CF0DEFC5D
:1018900000201CF0DBFC00201CF0D8FC00201CF019
:1018A000D5FC00201CF0D2FC00201CF0CFFC002056
:1018B0001CF0CCFC00201CF0C9FC00201CF0C6FC75
:1018C00000201CF0C3FC00201CF0C0FC00201CF019
:1018D000BDFC00201CF0BAFC00201CF0B7FC00206E
:1018E0001CF0B4FC00201CF0B1FC00201CF0AEFC8D
:1018F00000201CF0ABFC00201CF0A8FC00201CF019
:10190000A5FC00201CF0A2FC00201CF09FFC002085
:101910001CF09CFC00201CF099FC00201CF096FCA4
:1019200000201CF093FC00201CF090FC00201CF018
:101930008DFC00201CF08AFC00201CF087FC00209D
:101940001CF084FC00201CF081FC00201CF07EFCBC
:1019500000201CF07BFC00201CF078FC00201CF018
:1019600075FC00201CF072FC00201CF06FFC0020B5
:101970001CF06CFC00201CF069FC00201CF066FCD4
:1019800000201CF063FC00201CF060FC00201CF018
:101990005DFC00201CF05AFC00201CF057FC0020CD
:1019A0001CF054FC00201CF051FC00201CF04EFCEC
:1019B00000201CF04BFC00201CF048FC00201CF018
:1019C00045FC00201CF042FC00201CF03FFC0020E5
:1019D0001CF03CFC00201CF039FC00201CF036FC04
:1019E00000201CF033FC00201CF030FC00201CF018
:1019F0002DFC00201CF02AFC00201CF027FC0020FD
:101A00001CF024FC00201CF021FC00201CF01EFC1B
:101A100000201CF01BFC00201CF018FC00201CF017
:101A200015FC00201CF012FC00201CF00FFC002014
:101A30001CF00CFC00201CF009FC00201CF006FC33
:101A400000201CF003FC00201CF000FC00201CF017
:101A5000FDFB00201CF0FAFB00201CF0F7FB00202F
:101A60001CF0F4FB00201CF0F1FB00201CF0EEFB4E
:101A700000201CF0EBFB00201CF0E8FB00201CF019
:101A8000E5FB00201CF0E2FB00201CF0DFFB002047
:101A90001CF0DCFB00201CF0D9FB00201CF0D6FB66
:101AA00000201CF0D3FB00201CF0D0FB00201CF019
:101AB000CDFB00201CF0CAFB00201CF0C7FB00205F
:101AC0001CF0C4FB00201CF0C1FB00201CF0BEFB7E
:101AD00000201CF0BBFB00201CF0B8FB00201CF019
:101AE000B5FB00201CF0B2FB00201CF0AFFB002077
:101AF0001CF0ACFB00201CF0A9FB00201CF0A6FB96
:101B000000201CF0A3FB00201CF0A0FB00201CF018
:101B10009DFB00201CF09AFB00201CF097FB00208E
:101B20001CF094FB00201CF091FB00201CF08EFBAD
:101B300000201CF08BFB00201CF088FB00201CF018
:101B400085FB00201CF082FB00201CF07FFB0020A6
:101B50001CF07CFB00201CF079FB00201CF076FBC5
:101B600000201CF073FB00201CF070FB00201CF018
:101B70006DFB00201CF06AFB00201CF067FB0020BE
:101B80001CF064FB00201CF061FB00201CF05EFBDD
:101B900000201CF05BFB00201CF058FB00201CF018
:101BA00055FB00201CF052FB00201CF04FFB0020D6
:101BB0001CF04CFB00201CF049FB00201CF046FBF5
:101BC00000201CF043FB00201CF040FB00201CF018
:101BD0003DFB00201CF03AFB00201CF037FB0020EE
:101BE0001CF034FB00201CF031FB00201CF02EFB0D
:101BF00000201CF02BFB00201CF028FB00201CF018
:101C000025FB00201CF022FB00201CF01FFB002005
:101C10001CF01CFB00201CF019FB00201CF016FB24
:101C200000201CF013FB00201CF010FB00201CF017
:101C30000DFB00201CF00AFB00201CF007FB00201D
:101C40001CF004FB00201CF001FB00201CF0FEFA3D
:101C500000201CF0FBFA00201CF0F8FA00201CF019
:101C6000F5FA00201CF0F2FA00201CF0EFFA002038
:101C70001CF0ECFA00201CF0E9FA00201CF0E6FA57
:101C800000201CF0E3FA00201CF0E0FA00201CF019
:101C9000DDFA00201CF0DAFA00201CF0D7FA002050
:101CA0001CF0D4FA00201CF0D1FA00201CF0CEFA6F
:101CB00000201CF0CBFA00201CF0C8FA00201CF019
:101CC000C5FA00201CF0C2FA00201CF0BFFA002068
:101CD0001CF0BCFA00201CF0B9FA00201CF0B6FA87
:101CE00000201CF0B3FA00201CF0B0FA00201CF019
:101CF000ADFA00201CF0AAFA00201CF0A7FA002080
:101D00001CF0A4FA00201CF0A1FA00201CF09EFA9E
:101D100000201CF09BFA00201CF098FA00201CF018
:101D200095FA00201CF092FA00201CF08FFA002097
:101D30001CF08CFA00201CF089FA00201CF086FAB6
:101D400000201CF083FA00201CF080FA00201CF018
:101D50007DFA00201CF07AFA00201CF077FA0020AF
:101D60001CF074FA00201CF071FA00201CF06EFACE
:101D700000201CF06BFA00201CF068FA00201CF018
:101D800065FA00201CF062FA00201CF05FFA0020C7
:101D90001CF05CFA00201CF059FA00201CF056FAE6
:101DA00000201CF053FA00201CF050FA00201CF018
:101DB0004DFA00201CF04AFA00201CF047FA0020DF
:101DC0001CF044FA00201CF041FA00201CF03EFAFE
:101DD00000201CF03BFA00201CF038FA00201CF018
:101DE00035FA00201CF032FA00201CF02FFA0020F7
:101DF0001CF02CFA00201CF029FA00201CF026FA16
:101E000000201CF023FA00201CF020FA00201CF017
:101E10001DFA00201CF01AFA00201CF017FA00200E
:101E20001CF014FA00201CF011FA00201CF00EFA2D
:101E300000201CF00BFA00201CF008FA00201CF017
:101E400005FA00201CF002FA00201CF0FFF9002027
:101E50001CF0FCF900201CF0F9F900201CF0F6F948
:101E600000201CF0F3F900201CF0F0F900201CF019
:101E7000EDF900201CF0EAF900201CF0E7F9002041
:101E80001CF0E4F900201CF0E1F900201CF0DEF960
:101E900000201CF0DBF900201CF0D8F900201CF019
:101EA000D5F900201CF0D2F900201CF0CFF9002059
:101EB0001CF0CCF900201CF0C9F900201CF0C6F978
:101EC00000201CF0C3F900201CF0C0F900201CF019
:101ED000BDF900201CF0BAF900201CF0B7F9002071
:101EE0001CF0B4F900201CF0B1F900201CF0AEF990
:101EF00000201CF0ABF900201CF0A8F900201CF019
:101F0000A5F900201CF0A2F900201CF09FF9002088
:101F10001CF09CF900201CF099F900201CF096F9A7
:101F200000201CF093F900201CF090F900201CF018
:101F30008DF900201CF08AF900201CF087F90020A0
:101F40001CF084F900201CF081F900201CF07EF9BF
:101F500000201CF07BF900201CF078F900201CF018
:101F600075F900201CF072F900201CF06FF90020B8
:101F70001CF06CF900201CF069F900201CF066F9D7
:101F800000201CF063F900201CF060F900201CF018
:101F90005DF900201CF05AF900201CF057F90020D0
:101FA0001CF054F900201CF051F900201CF04EF9EF
:101FB00000201CF04BF900201CF048F900201CF018
:101FC00045F900201CF042F900201CF03FF90020E8
:101FD0001CF03CF900201CF039F900201CF036F907
:101FE00000201CF033F900201CF030F900201CF018
:101FF0002DF900201CF02AF900201CF027F9002000
:102000001CF024F900201CF021F900201CF01EF91E
:1020100000201CF01BF900201CF018F900201CF017
:1020200015F900201CF012F900201CF00FF9002017
:102030001CF00CF900201CF009F900201CF006F936
:1020400000201CF003F900201CF000F900201CF017
:10205000FDF800201CF0FAF800201CF0F7F8002032
:102060001CF0F4F800201CF0F1F800201CF0EEF851
:1020700000201CF0EBF800201CF0E8F800201CF019
:10208000E5F800201CF0E2F800201CF0DFF800204A
:102090001CF0DCF800201CF0D9F800201CF0D6F869
:1020A00000201CF0D3F800201CF0D0F800201CF019
:1020B000CDF800201CF0CAF800201CF0C7F8002062
:1020C0001CF0C4F800201CF0C1F800201CF0BEF881
:1020D00000201CF0BBF800201CF0B8F800201CF019
:1020E000B5F800201CF0B2F800201CF0AFF800207A
:1020F0001CF0ACF800201CF0A9F800201CF0A6F899
:1021000000201CF0A3F800201CF0A0F800201CF018
:102110009DF800201CF09AF800201CF097F8002091
:102120001CF094F800201CF091F800201CF08EF8B0
:1021300000201CF08BF800201CF088F800201CF018
:1021400085F800201CF082F800201CF07FF80020A9
:102150001CF07CF800201CF079F800201CF076F8C8
:1021600000201CF073F800201CF070F800201CF018
:102170006DF800201CF06AF800201CF067F80020C1
:102180001CF064F800201CF061F800201CF05EF8E0
:1021900000201CF05BF800201CF058F800201CF018
:1021A00055F800201CF052F800201CF04FF80020D9
:1021B0001CF04CF800201CF049F800201CF046F8F8
:1021C00000201CF043F800201CF040F800201CF018
:1021D0003DF800201CF03AF800201CF037F80020F1
:1021E0001CF034F800201CF031F800201CF02EF810
:1021F00000201CF02BF800201CF028F800201CF018
:1022000025F800201CF022F800201CF01FF8002008
:102210001CF01CF800201CF019F800201CF016F827
:1022200000201CF013F800201CF010F800201CF017
:102230000DF800201CF00AF800201CF007F8002020
:102240001CF004F800201CF001F800201BF0FEFF39
:1022500000201BF0FBFF00201BF0F8FF00201BF00C
:10226000F5FF00201BF0F2FF00201BF0EFFF002025
:102270001BF0ECFF00201BF0E9FF00201BF0E6FF45
:1022800000201BF0E3FF00201BF0E0FF00201BF00C
:10229000DDFF00201BF0DAFF00201BF0D7FF00203D
:1022A0001BF0D4FF00201BF0D1FF00201BF0CEFF5D
:1022B00000201BF0CBFF00201BF0C8FF00201BF00C
:1022C000C5FF00201BF0C2FF00201BF0BFFF002055
:1022D0001BF0BCFF00201BF0B9FF00201BF0B6FF75
:1022E00000201BF0B3FF00201BF0B0FF00201BF00C
:1022F000ADFF00201BF0AAFF00201BF0A7FF00206D
:102300001BF0A4FF00201BF0A1FF00201BF09EFF8C
:1023100000201BF09BFF00201BF098FF00201BF00B
:1023200095FF00201BF092FF00201BF08FFF002084
:102330001BF08CFF00201BF089FF00201BF086FFA4
:1023400000201BF083FF00201BF080FF00201BF00B
:102350007DFF00201BF07AFF00201BF077FF00209C
:102360001BF074FF00201BF071FF00201BF06EFFBC
:1023700000201BF06BFF00201BF068FF00201BF00B
:1023800065FF00201BF062FF00201BF05FFF0020B4
:102390001BF05CFF00201BF059FF00201BF056FFD4
:1023A00000201BF053FF00201BF050FF00201BF00B
:1023B0004DFF00201BF04AFF00201BF047FF0020CC
:1023C0001BF044FF00201BF041FF00201BF03EFFEC
:1023D00000201BF03BFF00201BF038FF00201BF00B
:1023E00035FF00201BF032FF00201BF02FFF0020E4
:1023F0001BF02CFF00201BF029FF00201BF026FF04
:1024000000201BF023FF00201BF020FF00201BF00A
:102410001DFF00201BF01AFF00201BF017FF0020FB
:102420001BF014FF00201BF011FF00201BF00EFF1B
:1024300000201BF00BFF00201BF008FF00201BF00A
:1024400005FF00201BF002FF00201BF0FFFE002014
:102450001BF0FCFE00201BF0F9FE00201BF0F6FE36
:1024600000201BF0F3FE00201BF0F0FE00201BF00C
:10247000EDFE00201BF0EAFE00201BF0E7FE00202E
:102480001BF0E4FE00201BF0E1FE00201BF0DEFE4E
:1024900000201BF0DBFE00201BF0D8FE00201BF00C
:1024A000D5FE00201BF0D2FE00201BF0CFFE002046
:1024B0001BF0CCFE00201BF0C9FE00201BF0C6FE66
:1024C00000201BF0C3FE00201BF0C0FE00201BF00C
:1024D000BDFE00201BF0BAFE00201BF0B7FE00205E
:1024E0001BF0B4FE00201BF0B1FE00201BF0AEFE7E
:1024F00000201BF0ABFE00201BF0A8FE00201BF00C
:10250000A5FE00201BF0A2FE00201BF09FFE002075
:102510001BF09CFE00201BF099FE00201BF096FE95
:1025200000201BF093FE00201BF090FE00201BF00B
:102530008DFE00201BF08AFE00201BF087FE00208D
:102540001BF084FE00201BF081FE00201BF07EFEAD
:1025500000201BF07BFE00201BF078FE00201BF00B
:1025600075FE00201BF072FE00201BF06FFE0020A5
:102570001BF06CFE00201BF069FE00201BF066FEC5
:1025800000201BF063FE00201BF060FE00201BF00B
:102590005DFE00201BF05AFE00201BF057FE0020BD
:1025A0001BF054FE00201BF051FE00201BF04EFEDD
:1025B00000201BF04BFE00201BF048FE00201BF00B
:1025C00045FE00201BF042FE00201BF03FFE0020D5
:1025D0001BF03CFE00201BF039FE00201BF036FEF5
:1025E00000201BF033FE00201BF030FE00201BF00B
:1025F0002DFE00201BF02AFE00201BF027FE0020ED
:102600001BF024FE00201BF021FE00201BF01EFE0C
:1026100000201BF01BFE00201BF018FE00201BF00A
:1026200015FE00201BF012FE00201BF00FFE002004
:102630001BF00CFE00201BF009FE00201BF006FE24
:1026400000201BF003FE00201BF000FE00201BF00A
:10265000FDFD00201BF0FAFD00201BF0F7FD00201F
:102660001BF0F4FD00201BF0F1FD00201BF0EEFD3F
:1026700000201BF0EBFD00201BF0E8FD00201BF00C
:10268000E5FD00201BF0E2FD00201BF0DFFD002037
:102690001BF0DCFD00201BF0D9FD00201BF0D6FD57
:1026A00000201BF0D3FD00201BF0D0FD00201BF00C
:1026B000CDFD00201BF0CAFD00201BF0C7FD00204F
:1026C0001BF0C4FD00201BF0C1FD00201BF0BEFD6F
:1026D00000201BF0BBFD00201BF0B8FD00201BF00C
:1026E000B5FD00201BF0B2FD00201BF0AFFD002067
:1026F0001BF0ACFD00201BF0A9FD00201BF0A6FD87
:1027000000201BF0A3FD00201BF0A0FD00201BF00B
:102710009DFD00201BF09AFD00201BF097FD00207E
:102720001BF094FD00201BF091FD00201BF08EFD9E
:1027300000201BF08BFD00201BF088FD00201BF00B
:1027400085FD00201BF082FD00201BF07FFD002096
:102750001BF07CFD00201BF079FD00201BF076FDB6
:1027600000201BF073FD00201BF070FD00201BF00B
:102770006DFD00201BF06AFD00201BF067FD0020AE
:102780001BF064FD00201BF061FD00201BF05EFDCE
:1027900000201BF05BFD00201BF058FD00201BF00B
:1027A00055FD00201BF052FD00201BF04FFD0020C6
:1027B0001BF04CFD00201BF049FD00201BF046FDE6
:1027C00000201BF043FD00201BF040FD00201BF00B
:1027D0003DFD00201BF03AFD00201BF037FD0020DE
:1027E0001BF034FD00201BF031FD00201BF02EFDFE
:1027F00000201BF02BFD00201BF028FD00201BF00B
:1028000025FD00201BF022FD00201BF01FFD0020F5
:102810001BF01CFD00201BF019FD00201BF016FD15
:1028200000201BF013FD00201BF010FD00201BF00A
:102830000DFD00201BF00AFD00201BF007FD00200D
:102840001BF004FD00201BF001FD00201BF0FEFC2E
:1028500000201BF0FBFC00201BF0F8FC00201BF00C
:10286000F5FC00201BF0F2FC00201BF0EFFC002028
:102870001BF0ECFC00201BF0E9FC00201BF0E6FC48
:1028800000201BF0E3FC00201BF0E0FC00201BF00C
:10289000DDFC00201BF0DAFC00201BF0D7FC002040
:1028A0001BF0D4FC00201BF0D1FC00201BF0CEFC60
:1028B00000201BF0CBFC00201BF0C8FC00201BF00C
:1028C000C5FC00201BF0C2FC00201BF0BFFC002058
:1028D0001BF0BCFC00201BF0B9FC00201BF0B6FC78
:1028E00000201BF0B3FC00201BF0B0FC00201BF00C
:1028F000ADFC00201BF0AAFC00201BF0A7FC002070
:102900001BF0A4FC00201BF0A1FC00201BF09EFC8F
:1029100000201BF09BFC00201BF098FC00201BF00B
:1029200095FC00201BF092FC00201BF08FFC002087
:102930001BF08CFC00201BF089FC00201BF086FCA7
:1029400000201BF083FC00201BF080FC00201BF00B
:102950007DFC00201BF07AFC00201BF077FC00209F
:102960001BF074FC00201BF071FC00201BF06EFCBF
:1029700000201BF06BFC00201BF068FC00201BF00B
:1029800065FC00201BF062FC00201BF05FFC0020B7
:102990001BF05CFC00201BF059FC00201BF056FCD7
:1029A00000201BF053FC00201BF050FC00201BF00B
:1029B0004DFC00201BF04AFC00201BF047FC0020CF
:1029C0001BF044FC00201BF041FC00201BF03EFCEF
:1029D00000201BF03BFC00201BF038FC00201BF00B
:1029E00035FC00201BF032FC00201BF02FFC0020E7
:1029F0001BF02CFC00201BF029FC00201BF026FC07
:102A000000201BF023FC00201BF020FC00201BF00A
:102A10001DFC00201BF01AFC00201BF017FC0020FE
:102A20001BF014FC00201BF011FC00201BF00EFC1E
:102A300000201BF00BFC00201BF008FC00201BF00A
:102A400005FC00201BF002FC00201BF0FFFB002017
:102A50001BF0FCFB00201BF0F9FB00201BF0F6FB39
:102A600000201BF0F3FB00201BF0F0FB00201BF00C
:102A7000EDFB00201BF0EAFB00201BF0E7FB002031
:102A80001BF0E4FB00201BF0E1FB00201BF0DEFB51
:102A900000201BF0DBFB00201BF0D8FB00201BF00C
:102AA000D5FB00201BF0D2FB00201BF0CFFB002049
:102AB0001BF0CCFB00201BF0C9FB00201BF0C6FB69
:102AC00000201BF0C3FB00201BF0C0FB00201BF00C
:102AD000BDFB00201BF0BAFB00201BF0B7FB002061
:102AE0001BF0B4FB00201BF0B1FB00201BF0AEFB81
:102AF00000201BF0ABFB00201BF0A8FB00201BF00C
:102B0000A5FB00201BF0A2FB00201BF09FFB002078
:102B10001BF09CFB00201BF099FB00201BF096FB98
:102B200000201BF093FB00201BF090FB00201BF00B
:102B30008DFB00201BF08AFB00201BF087FB002090
:102B40001BF084FB00201BF081FB00201BF07EFBB0
:102B500000201BF07BFB00201BF078FB00201BF00B
:102B600075FB00201BF072FB00201BF06FFB0020A8
:102B70001BF06CFB00201BF069FB00201BF066FBC8
:102B800000201BF063FB00201BF060FB00201BF00B
:102B90005DFB00201BF05AFB00201BF057FB0020C0
:102BA0001BF054FB00201BF051FB00201BF04EFBE0
:102BB00000201BF04BFB00201BF048FB00201BF00B
:102BC00045FB00201BF042FB00201BF03FFB0020D8
:102BD0001BF03CFB00201BF039FB00201BF036FBF8
:102BE00000201BF033FB00201BF030FB00201BF00B
:102BF0002DFB00201BF02AFB00201BF027FB0020F0
:102C00001BF024FB00201BF021FB00201BF01EFB0F
:102C100000201BF01BFB00201BF018FB00201BF00A
:102C200015FB00201BF012FB00201BF00FFB002007
:102C30001BF00CFB00201BF009FB00201BF006FB27
:102C400000201BF003FB00201BF000FB00201BF00A
:102C5000FDFA00201BF0FAFA00201BF0F7FA002022
:102C60001BF0F4FA00201BF0F1FA00201BF0EEFA42
:102C700000201BF0EBFA00201BF0E8FA00201BF00C
:102C8000E5FA00201BF0E2FA00201BF0DFFA00203A
:102C90001BF0DCFA00201BF0D9FA00201BF0D6FA5A
:102CA00000201BF0D3FA00201BF0D0FA00201BF00C
:102CB000CDFA00201BF0CAFA00201BF0C7FA002052
:102CC0001BF0C4FA00201BF0C1FA00201BF0BEFA72
:102CD00000201BF0BBFA00201BF0B8FA00201BF00C
:102CE000B5FA00201BF0B2FA00201BF0AFFA00206A
:102CF0001BF0ACFA00201BF0A9FA00201BF0A6FA8A
:102D000000201BF0A3FA00201BF0A0FA00201BF00B
:102D10009DFA00201BF09AFA00201BF097FA002081
:102D20001BF094FA00201BF091FA00201BF08EFAA1
:102D300000201BF08BFA00201BF088FA00201BF00B
:102D400085FA00201BF082FA00201BF07FFA002099
:102D50001BF07CFA00201BF079FA00201BF076FAB9
:102D600000201BF073FA00201BF070FA00201BF00B
:102D70006DFA00201BF06AFA00201BF067FA0020B1
:102D80001BF064FA00201BF061FA00201BF05EFAD1
:102D900000201BF05BFA00201BF058FA00201BF00B
:102DA00055FA00201BF052FA00201BF04FFA0020C9
:102DB0001BF04CFA00201BF049FA00201BF046FAE9
:102DC00000201BF043FA00201BF040FA00201BF00B
:102DD0003DFA00201BF03AFA00201BF037FA0020E1
:102DE0001BF034FA00201BF031FA00201BF02EFA01
:102DF00000201BF02BFA00201BF028FA00201BF00B
:102E000025FA00201BF022FA00201BF01FFA0020F8
:102E10001BF01CFA00201BF019FA00201BF016FA18
:102E200000201BF013FA00201BF010FA00201BF00A
:102E30000DFA00201BF00AFA00201BF007FA002010
:102E40001BF004FA00201BF001FA00201BF0FEF931
:102E500000201BF0FBF900201BF0F8F900201BF00C
:102E6000F5F900201BF0F2F900201BF0EFF900202B
:102E70001BF0ECF900201BF0E9F900201BF0E6F94B
:102E800000201BF0E3F900201BF0E0F900201BF00C
:102E9000DDF900201BF0DAF900201BF0D7F9002043
:102EA0001BF0D4F900201BF0D1F900201BF0CEF963
:102EB00000201BF0CBF900201BF0C8F900201BF00C
:102EC000C5F900201BF0C2F900201BF0BFF900205B
:102ED0001BF0BCF900201BF0B9F900201BF0B6F97B
:102EE00000201BF0B3F900201BF0B0F900201BF00C
:102EF000ADF900201BF0AAF900201BF0A7F9002073
:102F00001BF0A4F900201BF0A1F900201BF09EF992
:102F100000201BF09BF900201BF098F900201BF00B
:102F200095F900201BF092F900201BF08FF900208A
:102F30001BF08CF900201BF089F900201BF086F9AA
:102F400000201BF083F900201BF080F900201BF00B
:102F50007DF900201BF07AF900201BF077F90020A2
:102F60001BF074F900201BF071F900201BF06EF9C2
:102F700000201BF06BF900201BF068F900201BF00B
:102F800065F900201BF062F900201BF05FF90020BA
:102F90001BF05CF900201BF059F900201BF056F9DA
:102FA00000201BF053F900201BF050F900201BF00B
:102FB0004DF900201BF04AF900201BF047F90020D2
:102FC0001BF044F900201BF041F900201BF03EF9F2
:102FD00000201BF03BF900201BF038F900201BF00B
:102FE00035F900201BF032F900201BF02FF90020EA
:102FF0001BF02CF900201BF029F900201BF026F90A
:1030000000201BF023F900201BF020F900201BF00A
:103010001DF900201BF01AF900201BF017F9002001
:103020001BF014F900201BF011F900201BF00EF921
:1030300000201BF00BF900201BF008F900201BF00A
:1030400005F900201BF002F900201BF0FFF800201A
:103050001BF0FCF800201BF0F9F800201BF0F6F83C
:1030600000201BF0F3F800201BF0F0F800201BF00C
:10307000EDF800201BF0EAF800201BF0E7F8002034
:103080001BF0E4F800201BF0E1F800201BF0DEF854
:1030900000201BF0DBF800201BF0D8F800201BF00C
:1030A000D5F800201BF0D2F800201BF0CFF800204C
:1030B0001BF0CCF800201BF0C9F800201BF0C6F86C
:1030C00000201BF0C3F800201BF0C0F800201BF00C
:1030D000BDF800201BF0BAF800201BF0B7F8002064
:1030E0001BF0B4F800201BF0B1F800201BF0AEF884
:1030F00000201BF0ABF800201BF0A8F800201BF00C
:10310000A5F800201BF0A2F800201BF09FF800207B
:103110001BF09CF800201BF099F800201BF096F89B
:1031200000201BF093F800201BF090F800201BF00B
:103130008DF800201BF08AF800201BF087F8002093
:103140001BF084F800201BF081F800201BF07EF8B3
:1031500000201BF07BF800201BF078F800201BF00B
:1031600075F800201BF072F800201BF06FF80020AB
:103170001BF06CF800201BF069F800201BF066F8CB
:1031800000201BF063F800201BF060F800201BF00B
:103190005DF800201BF05AF800201BF057F80020C3
:1031A0001BF054F800201BF051F800201BF04EF8E3
:1031B00000201BF04BF800201BF048F800201BF00B
:1031C00045F800201BF042F800201BF03FF80020DB
:1031D0001BF03CF800201BF039F800201BF036F8FB
:1031E00000201BF033F800201BF030F800201BF00B
:1031F0002DF800201BF02AF800201BF027F80020F3
:103200001BF024F800201BF021F800201BF01EF812
:1032100000201BF01BF800201BF018F800201BF00A
:1032200015F800201BF012F800201BF00FF800200A
:103230001BF00CF800201BF009F800201BF006F82A
:1032400000201BF003F800201BF000F800201AF00B
:10325000FDFF00201AF0FAFF00201AF0F7FF00200F
:103260001AF0F4FF00201AF0F1FF00201AF0EEFF30
:1032700000201AF0EBFF00201AF0E8FF00201AF0FF
:10328000E5FF00201AF0E2FF00201AF0DFFF002027
:103290001AF0DCFF00201AF0D9FF00201AF0D6FF48
:1032A00000201AF0D3FF00201AF0D0FF00201AF0FF
:1032B000CDFF00201AF0CAFF00201AF0C7FF00203F
:1032C0001AF0C4FF00201AF0C1FF00201AF0BEFF60
:1032D00000201AF0BBFF00201AF0B8FF00201AF0FF
:1032E000B5FF00201AF0B2FF00201AF0AFFF002057
:1032F0001AF0ACFF00201AF0A9FF00201AF0A6FF78
:1033000000201AF0A3FF00201AF0A0FF00201AF0FE
:103310009DFF00201AF09AFF00201AF097FF00206E
:103320001AF094FF00201AF091FF00201AF08EFF8F
:1033300000201AF08BFF00201AF088FF00201AF0FE
:1033400085FF00201AF082FF00201AF07FFF002086
:103350001AF07CFF00201AF079FF00201AF076FFA7
:1033600000201AF073FF00201AF070FF00201AF0FE
:103370006DFF00201AF06AFF00201AF067FF00209E
:103380001AF064FF00201AF061FF00201AF05EFFBF
:1033900000201AF05BFF00201AF058FF00201AF0FE
:1033A00055FF00201AF052FF00201AF04FFF0020B6
:1033B0001AF04CFF00201AF049FF00201AF046FFD7
:1033C00000201AF043FF00201AF040FF00201AF0FE
:1033D0003DFF00201AF03AFF00201AF037FF0020CE
:1033E0001AF034FF00201AF031FF00201AF02EFFEF
:1033F00000201AF02BFF00201AF028FF00201AF0FE
:1034000025FF00201AF022FF00201AF01FFF0020E5
:103410001AF01CFF00201AF019FF00201AF016FF06
:1034200000201AF013FF00201AF010FF00201AF0FD
:103430000DFF00201AF00AFF00201AF007FF0020FD
:103440001AF004FF00201AF001FF00201AF0FEFE1F
:1034500000201AF0FBFE00201AF0F8FE00201AF0FF
:10346000F5FE00201AF0F2FE00201AF0EFFE002018
:103470001AF0ECFE00201AF0E9FE00201AF0E6FE39
:1034800000201AF0E3FE00201AF0E0FE00201AF0FF
:10349000DDFE00201AF0DAFE00201AF0D7FE002030
:1034A0001AF0D4FE00201AF0D1FE00201AF0CEFE51
:1034B00000201AF0CBFE00201AF0C8FE00201AF0FF
:1034C000C5FE00201AF0C2FE00201AF0BFFE002048
:1034D0001AF0BCFE00201AF0B9FE00201AF0B6FE69
:1034E00000201AF0B3FE00201AF0B0FE00201AF0FF
:1034F000ADFE00201AF0AAFE00201AF0A7FE002060
:103500001AF0A4FE00201AF0A1FE00201AF09EFE80
:1035100000201AF09BFE00201AF098FE00201AF0FE
:1035200095FE00201AF092FE00201AF08FFE002077
:103530001AF08CFE00201AF089FE00201AF086FE98
:1035400000201AF083FE00201AF080FE00201AF0FE
:103550007DFE00201AF07AFE00201AF077FE00208F
:103560001AF074FE00201AF071FE00201AF06EFEB0
:1035700000201AF06BFE00201AF068FE00201AF0FE
:1035800065FE00201AF062FE00201AF05FFE0020A7
:103590001AF05CFE00201AF059FE00201AF056FEC8
:1035A00000201AF053FE00201AF050FE00201AF0FE
:1035B0004DFE00201AF04AFE00201AF047FE0020BF
:1035C0001AF044FE00201AF041FE00201AF03EFEE0
:1035D00000201AF03BFE00201AF038FE00201AF0FE
:1035E00035FE00201AF032FE00201AF02FFE0020D7
:1035F0001AF02CFE00201AF029FE00201AF026FEF8
:1036000000201AF023FE00201AF020FE00201AF0FD
:103610001DFE00201AF01AFE00201AF017FE0020EE
:103620001AF014FE00201AF011FE00201AF00EFE0F
:1036300000201AF00BFE00201AF008FE00201AF0FD
:1036400005FE00201AF002FE00201AF0FFFD002007
:103650001AF0FCFD00201AF0F9FD00201AF0F6FD2A
:1036600000201AF0F3FD00201AF0F0FD00201AF0FF
:10367000EDFD00201AF0EAFD00201AF0E7FD002021
:103680001AF0E4FD00201AF0E1FD00201AF0DEFD42
:1036900000201AF0DBFD00201AF0D8FD00201AF0FF
:1036A000D5FD00201AF0D2FD00201AF0CFFD002039
:1036B0001AF0CCFD00201AF0C9FD00201AF0C6FD5A
:1036C00000201AF0C3FD00201AF0C0FD00201AF0FF
:1036D000BDFD00201AF0BAFD00201AF0B7FD002051
:1036E0001AF0B4FD00201AF0B1FD00201AF0AEFD72
:1036F00000201AF0ABFD00201AF0A8FD00201AF0FF
:10370000A5FD00201AF0A2FD00201AF09FFD002068
:103710001AF09CFD00201AF099FD00201AF096FD89
:1037200000201AF093FD00201AF090FD00201AF0FE
:103730008DFD00201AF08AFD00201AF087FD002080
:103740001AF084FD00201AF081FD00201AF07EFDA1
:1037500000201AF07BFD00201AF078FD00201AF0FE
:1037600075FD00201AF072FD00201AF06FFD002098
:103770001AF06CFD00201AF069FD00201AF066FDB9
:1037800000201AF063FD00201AF060FD00201AF0FE
:103790005DFD00201AF05AFD00201AF057FD0020B0
:1037A0001AF054FD00201AF051FD00201AF04EFDD1
:1037B00000201AF04BFD00201AF048FD00201AF0FE
:1037C00045FD00201AF042FD00201AF03FFD0020C8
:1037D0001AF03CFD00201AF039FD00201AF036FDE9
:1037E00000201AF033FD00201AF030FD00201AF0FE
:1037F0002DFD00201AF02AFD00201AF027FD0020E0
:103800001AF024FD00201AF021FD00201AF01EFD00
:1038100000201AF01BFD00201AF018FD00201AF0FD
:1038200015FD00201AF012FD00201AF00FFD0020F7
:103830001AF00CFD00201AF009FD00201AF006FD18
:1038400000201AF003FD00201AF000FD00201AF0FD
:10385000FDFC00201AF0FAFC00201AF0F7FC002012
:103860001AF0F4FC00201AF0F1FC00201AF0EEFC33
:1038700000201AF0EBFC00201AF0E8FC00201AF0FF
:10388000E5FC00201AF0E2FC00201AF0DFFC00202A
:103890001AF0DCFC00201AF0D9FC00201AF0D6FC4B
:1038A00000201AF0D3FC00201AF0D0FC00201AF0FF
:1038B000CDFC00201AF0CAFC00201AF0C7FC002042
:1038C0001AF0C4FC00201AF0C1FC00201AF0BEFC63
:1038D00000201AF0BBFC00201AF0B8FC00201AF0FF
:1038E000B5FC00201AF0B2FC00201AF0AFFC00205A
:1038F0001AF0ACFC00201AF0A9FC00201AF0A6FC7B
:1039000000201AF0A3FC00201AF0A0FC00201AF0FE
:103910009DFC00201AF09AFC00201AF097FC002071
:103920001AF094FC00201AF091FC00201AF08EFC92
:1039300000201AF08BFC00201AF088FC00201AF0FE
:1039400085FC00201AF082FC00201AF07FFC002089
:103950001AF07CFC00201AF079FC00201AF076FCAA
:1039600000201AF073FC00201AF070FC00201AF0FE
:103970006DFC00201AF06AFC00201AF067FC0020A1
:103980001AF064FC00201AF061FC00201AF05EFCC2
:1039900000201AF05BFC00201AF058FC00201AF0FE
:1039A00055FC00201AF052FC00201AF04FFC0020B9
:1039B0001AF04CFC00201AF049FC00201AF046FCDA
:1039C00000201AF043FC00201AF040FC00201AF0FE
:1039D0003DFC00201AF03AFC00201AF037FC0020D1
:1039E0001AF034FC00201AF031FC00201AF02EFCF2
:1039F00000201AF02BFC00201AF028FC00201AF0FE
:103A000025FC00201AF022FC00201AF01FFC0020E8
:103A10001AF01CFC00201AF019FC00201AF016FC09
:103A200000201AF013FC00201AF010FC00201AF0FD
:103A30000DFC00201AF00AFC00201AF007FC002000
:103A40001AF004FC00201AF001FC00201AF0FEFB22
:103A500000201AF0FBFB00201AF0F8FB00201AF0FF
:103A6000F5FB00201AF0F2FB00201AF0EFFB00201B
:103A70001AF0ECFB00201AF0E9FB00201AF0E6FB3C
:103A800000201AF0E3FB00201AF0E0FB00201AF0FF
:103A9000DDFB00201AF0DAFB00201AF0D7FB002033
:103AA0001AF0D4FB00201AF0D1FB00201AF0CEFB54
:103AB00000201AF0CBFB00201AF0C8FB00201AF0FF
:103AC000C5FB00201AF0C2FB00201AF0BFFB00204B
:103AD0001AF0BCFB00201AF0B9FB00201AF0B6FB6C
:103AE00000201AF0B3FB00201AF0B0FB00201AF0FF
:103AF000ADFB00201AF0AAFB00201AF0A7FB002063
:103B00001AF0A4FB00201AF0A1FB00201AF09EFB83
:103B100000201AF09BFB00201AF098FB00201AF0FE
:103B200095FB00201AF092FB00201AF08FFB00207A
:103B30001AF08CFB00201AF089FB00201AF086FB9B
:103B400000201AF083FB00201AF080FB00201AF0FE
:103B50007DFB00201AF07AFB00201AF077FB002092
:103B60001AF074FB00201AF071FB00201AF06EFBB3
:103B700000201AF06BFB00201AF068FB00201AF0FE
:103B800065FB00201AF062FB00201AF05FFB0020AA
:103B90001AF05CFB00201AF059FB00201AF056FBCB
:103BA00000201AF053FB00201AF050FB00201AF0FE
:103BB0004DFB00201AF04AFB00201AF047FB0020C2
:103BC0001AF044FB00201AF041FB00201AF03EFBE3
:103BD00000201AF03BFB00201AF038FB00201AF0FE
:103BE00035FB00201AF032FB00201AF02FFB0020DA
:103BF0001AF02CFB00201AF029FB00201AF026FBFB
:103C000000201AF023FB00201AF020FB00201AF0FD
:103C10001DFB00201AF01AFB00201AF017FB0020F1
:103C20001AF014FB00201AF011FB00201AF00EFB12
:103C300000201AF00BFB00201AF008FB00201AF0FD
:103C400005FB00201AF002FB00201AF0FFFA00200A
:103C50001AF0FCFA00201AF0F9FA00201AF0F6FA2D
:103C600000201AF0F3FA00201AF0F0FA00201AF0FF
:103C7000EDFA00201AF0EAFA00201AF0E7FA002024
:103C80001AF0E4FA00201AF0E1FA00201AF0DEFA45
:103C900000201AF0DBFA00201AF0D8FA00201AF0FF
:103CA000D5FA00201AF0D2FA00201AF0CFFA00203C
:103CB0001AF0CCFA00201AF0C9FA00201AF0C6FA5D
:103CC00000201AF0C3FA00201AF0C0FA00201AF0FF
:103CD000BDFA00201AF0BAFA00201AF0B7FA002054
:103CE0001AF0B4FA00201AF0B1FA00201AF0AEFA75
:103CF00000201AF0ABFA00201AF0A8FA00201AF0FF
:103D0000A5FA00201AF0A2FA00201AF09FFA00206B
:103D10001AF09CFA00201AF099FA00201AF096FA8C
:103D200000201AF093FA00201AF090FA00201AF0FE
:103D30008DFA00201AF08AFA00201AF087FA002083
:103D40001AF084FA00201AF081FA00201AF07EFAA4
:103D500000201AF07BFA00201AF078FA00201AF0FE
:103D600075FA00201AF072FA00201AF06FFA00209B
:103D70001AF06CFA00201AF069FA00201AF066FABC
:103D800000201AF063FA00201AF060FA00201AF0FE
:103D90005DFA00201AF05AFA00201AF057FA0020B3
:103DA0001AF054FA00201AF051FA00201AF04EFAD4
:103DB00000201AF04BFA00201AF048FA00201AF0FE
:103DC00045FA00201AF042FA00201AF03FFA0020CB
:103DD0001AF03CFA00201AF039FA00201AF036FAEC
:103DE00000201AF033FA00201AF030FA00201AF0FE
:103DF0002DFA00201AF02AFA00201AF027FA0020E3
:103E00001AF024FA00201AF021FA00201AF01EFA03
:103E100000201AF01BFA00201AF018FA00201AF0FD
:103E200015FA00201AF012FA00201AF00FFA0020FA
:103E30001AF00CFA00201AF009FA00201AF006FA1B
:103E400000201AF003FA00201AF000FA00201AF0FD
:103E5000FDF900201AF0FAF900201AF0F7F9002015
:103E60001AF0F4F900201AF0F1F900201AF0EEF936
:103E700000201AF0EBF900201AF0E8F900201AF0FF
:103E8000E5F900201AF0E2F900201AF0DFF900202D
:103E90001AF0DCF900201AF0D9F900201AF0D6F94E
:103EA00000201AF0D3F900201AF0D0F900201AF0FF
:103EB000CDF900201AF0CAF900201AF0C7F9002045
:103EC0001AF0C4F900201AF0C1F900201AF0BEF966
:103ED00000201AF0BBF900201AF0B8F900201AF0FF
:103EE000B5F900201AF0B2F900201AF0AFF900205D
:103EF0001AF0ACF900201AF0A9F900201AF0A6F97E
:103F000000201AF0A3F900201AF0A0F900201AF0FE
:103F10009DF900201AF09AF900201AF097F9002074
:103F20001AF094F900201AF091F900201AF08EF995
:103F300000201AF08BF900201AF088F900201AF0FE
:103F400085F900201AF082F900201AF07FF900208C
:103F50001AF07CF900201AF079F900201AF076F9AD
:103F600000201AF073F900201AF070F900201AF0FE
:103F70006DF900201AF06AF900201AF067F90020A4
:103F80001AF064F900201AF061F900201AF05EF9C5
:103F900000201AF05BF900201AF058F900201AF0FE
:103FA00055F900201AF052F900201AF04FF90020BC
:103FB0001AF04CF900201AF049F900201AF046F9DD
:103FC00000201AF043F900201AF040F900201AF0FE
:103FD0003DF900201AF03AF900201AF037F90020D4
:103FE0001AF034F900201AF031F900201AF02EF9F5
:103FF00000201AF02BF900201AF028F900201AF0FE
:1040000025F900201AF022F900201AF01FF90020EB
:104010001AF01CF900201AF019F900201AF016F90C
:1040200000201AF013F900201AF010F900201AF0FD
:104030000DF900201AF00AF900201AF007F9002003
:104040001AF004F900201AF001F900201AF0FEF825
:1040500000201AF0FBF800201AF0F8F800201AF0FF
:10406000F5F800201AF0F2F800201AF0EFF800201E
:104070001AF0ECF800201AF0E9F800201AF0E6F83F
:1040800000201AF0E3F800201AF0E0F800201AF0FF
:10409000DDF800201AF0DAF800201AF0D7F8002036
:1040A0001AF0D4F800201AF0D1F800201AF0CEF857
:1040B00000201AF0CBF800201AF0C8F800201AF0FF
:1040C000C5F800201AF0C2F800201AF0BFF800204E
:1040D0001AF0BCF800201AF0B9F800201AF0B6F86F
:1040E00000201AF0B3F800201AF0B0F800201AF0FF
:1040F000ADF800201AF0AAF800201AF0A7F8002066
:104100001AF0A4F800201AF0A1F800201AF09EF886
:1041100000201AF09BF800201AF098F800201AF0FE
:1041200095F800201AF092F800201AF08FF800207D
:104130001AF08CF800201AF089F800201AF086F89E
:1041400000201AF083F800201AF080F800201AF0FE
:104150007DF800201AF07AF800201AF077F8002095
:104160001AF074F800201AF071F800201AF06EF8B6
:1041700000201AF06BF800201AF068F800201AF0FE
:1041800065F800201AF062F800201AF05FF80020AD
:104190001AF05CF800201AF059F800201AF056F8CE
:1041A00000201AF053F800201AF050F800201AF0FE
:1041B0004DF800201AF04AF800201AF047F80020C5
:1041C0001AF044F800201AF041F800201AF03EF8E6
:1041D00000201AF03BF800201AF038F800201AF0FE
:1041E00035F800201AF032F800201AF02FF80020DD
:1041F0001AF02CF800201AF029F800201AF026F8FE
:1042000000201AF023F800201AF020F800201AF0FD
:104210001DF800201AF01AF800201AF017F80020F4
:104220001AF014F800201AF011F800201AF00EF815
:1042300000201AF00BF800201AF008F800201AF0FD
:1042400005F800201AF002F8002019F0FFFF002006
:1042500019F0FCFF002019F0F9FF002019F0F6FF1B
:10426000002019F0F3FF002019F0F0FF002019F0F2
:10427000EDFF002019F0EAFF002019F0E7FF002011
:1042800019F0E4FF002019F0E1FF002019F0DEFF33
:10429000002019F0DBFF002019F0D8FF002019F0F2
:1042A000D5FF002019F0D2FF002019F0CFFF002029
:1042B00019F0CCFF002019F0C9FF002019F0C6FF4B
:1042C000002019F0C3FF002019F0C0FF002019F0F2
:1042D000BDFF002019F0BAFF002019F0B7FF002041
:1042E00019F0B4FF002019F0B1FF002019F0AEFF63
:1042F000002019F0ABFF002019F0A8FF002019F0F2
:10430000A5FF002019F0A2FF002019F09FFF002058
:1043100019F09CFF002019F099FF002019F096FF7A
:10432000002019F093FF002019F090FF002019F0F1
:104330008DFF002019F08AFF002019F087FF002070
:1043400019F084FF002019F081FF002019F07EFF92
:10435000002019F07BFF002019F078FF002019F0F1
:1043600075FF002019F072FF002019F06FFF002088
:1043700019F06CFF002019F069FF002019F066FFAA
:10438000002019F063FF002019F060FF002019F0F1
:104390005DFF002019F05AFF002019F057FF0020A0
:1043A00019F054FF002019F051FF002019F04EFFC2
:1043B000002019F04BFF002019F048FF002019F0F1
:1043C00045FF002019F042FF002019F03FFF0020B8
:1043D00019F03CFF002019F039FF002019F036FFDA
:1043E000002019F033FF002019F030FF002019F0F1
:1043F0002DFF002019F02AFF002019F027FF0020D0
:1044000019F024FF002019F021FF002019F01EFFF1
:10441000002019F01BFF002019F018FF002019F0F0
:1044200015FF002019F012FF002019F00FFF0020E7
:1044300019F00CFF002019F009FF002019F006FF09
:10444000002019F003FF002019F000FF002019F0F0
:10445000FDFE002019F0FAFE002019F0F7FE002002
:1044600019F0F4FE002019F0F1FE002019F0EEFE24
:10447000002019F0EBFE002019F0E8FE002019F0F2
:10448000E5FE002019F0E2FE002019F0DFFE00201A
:1044900019F0DCFE002019F0D9FE002019F0D6FE3C
:1044A000002019F0D3FE002019F0D0FE002019F0F2
:1044B000CDFE002019F0CAFE002019F0C7FE002032
:1044C00019F0C4FE002019F0C1FE002019F0BEFE54
:1044D000002019F0BBFE002019F0B8FE002019F0F2
:1044E000B5FE002019F0B2FE002019F0AFFE00204A
:1044F00019F0ACFE002019F0A9FE002019F0A6FE6C
:10450000002019F0A3FE002019F0A0FE002019F0F1
:104510009DFE002019F09AFE002019F097FE002061
:1045200019F094FE002019F091FE002019F08EFE83
:10453000002019F08BFE002019F088FE002019F0F1
:1045400085FE002019F082FE002019F07FFE002079
:1045500019F07CFE002019F079FE002019F076FE9B
:10456000002019F073FE002019F070FE002019F0F1
:104570006DFE002019F06AFE002019F067FE002091
:1045800019F064FE002019F061FE002019F05EFEB3
:10459000002019F05BFE002019F058FE002019F0F1
:1045A00055FE002019F052FE002019F04FFE0020A9
:1045B00019F04CFE002019F049FE002019F046FECB
:1045C000002019F043FE002019F040FE002019F0F1
:1045D0003DFE002019F03AFE002019F037FE0020C1
:1045E00019F034FE002019F031FE002019F02EFEE3
:1045F000002019F02BFE002019F028FE002019F0F1
:1046000025FE002019F022FE002019F01FFE0020D8
:1046100019F01CFE002019F019FE002019F016FEFA
:10462000002019F013FE002019F010FE002019F0F0
:104630000DFE002019F00AFE002019F007FE0020F0
:1046400019F004FE002019F001FE002019F0FEFD13
:10465000002019F0FBFD002019F0F8FD002019F0F2
:10466000F5FD002019F0F2FD002019F0EFFD00200B
:1046700019F0ECFD002019F0E9FD002019F0E6FD2D
:10468000002019F0E3FD002019F0E0FD002019F0F2
:10469000DDFD002019F0DAFD002019F0D7FD002023
:1046A00019F0D4FD002019F0D1FD002019F0CEFD45
:1046B000002019F0CBFD002019F0C8FD002019F0F2
:1046C000C5FD002019F0C2FD002019F0BFFD00203B
:1046D00019F0BCFD002019F0B9FD002019F0B6FD5D
:1046E000002019F0B3FD002019F0B0FD002019F0F2
:1046F000ADFD002019F0AAFD002019F0A7FD002053
:1047000019F0A4FD002019F0A1FD002019F09EFD74
:10471000002019F09BFD002019F098FD002019F0F1
:1047200095FD002019F092FD002019F08FFD00206A
:1047300019F08CFD002019F089FD002019F086FD8C
:10474000002019F083FD002019F080FD002019F0F1
:104750007DFD002019F07AFD002019F077FD002082
:1047600019F074FD002019F071FD002019F06EFDA4
:10477000002019F06BFD002019F068FD002019F0F1
:1047800065FD002019F062FD002019F05FFD00209A
:1047900019F05CFD002019F059FD002019F056FDBC
:1047A000002019F053FD002019F050FD002019F0F1
:1047B0004DFD002019F04AFD002019F047FD0020B2
:1047C00019F044FD002019F041FD002019F03EFDD4
:1047D000002019F03BFD002019F038FD002019F0F1
:1047E00035FD002019F032FD002019F02FFD0020CA
:1047F00019F02CFD002019F029FD002019F026FDEC
:10480000002019F023FD002019F020FD002019F0F0
:104810001DFD002019F01AFD002019F017FD0020E1
:1048200019F014FD002019F011FD002019F00EFD03
:10483000002019F00BFD002019F008FD002019F0F0
:1048400005FD002019F002FD002019F0FFFC0020FA
:1048500019F0FCFC002019F0F9FC002019F0F6FC1E
:10486000002019F0F3FC002019F0F0FC002019F0F2
:10487000EDFC002019F0EAFC002019F0E7FC002014
:1048800019F0E4FC002019F0E1FC002019F0DEFC36
:10489000002019F0DBFC002019F0D8FC002019F0F2
:1048A000D5FC002019F0D2FC002019F0CFFC00202C
:1048B00019F0CCFC002019F0C9FC002019F0C6FC4E
:1048C000002019F0C3FC002019F0C0FC002019F0F2
:1048D000BDFC002019F0BAFC002019F0B7FC002044
:1048E00019F0B4FC002019F0B1FC002019F0AEFC66
:1048F000002019F0ABFC002019F0A8FC002019F0F2
:10490000A5FC002019F0A2FC002019F09FFC00205B
:1049100019F09CFC002019F099FC002019F096FC7D
:10492000002019F093FC002019F090FC002019F0F1
:104930008DFC002019F08AFC002019F087FC002073
:1049400019F084FC002019F081FC002019F07EFC95
:10495000002019F07BFC002019F078FC002019F0F1
:1049600075FC002019F072FC002019F06FFC00208B
:1049700019F06CFC002019F069FC002019F066FCAD
:10498000002019F063FC002019F060FC002019F0F1
:104990005DFC002019F05AFC002019F057FC0020A3
:1049A00019F054FC002019F051FC002019F04EFCC5
:1049B000002019F04BFC002019F048FC002019F0F1
:1049C00045FC002019F042FC002019F03FFC0020BB
:1049D00019F03CFC002019F039FC002019F036FCDD
:1049E000002019F033FC002019F030FC002019F0F1
:1049F0002DFC002019F02AFC002019F027FC0020D3
:104A000019F024FC002019F021FC002019F01EFCF4
:104A1000002019F01BFC002019F018FC002019F0F0
:104A200015FC002019F012FC002019F00FFC0020EA
:104A300019F00CFC002019F009FC002019F006FC0C
:104A4000002019F003FC002019F000FC002019F0F0
:104A5000FDFB002019F0FAFB002019F0F7FB002005
:104A600019F0F4FB002019F0F1FB002019F0EEFB27
:104A7000002019F0EBFB002019F0E8FB002019F0F2
:104A8000E5FB002019F0E2FB002019F0DFFB00201D
:104A900019F0DCFB002019F0D9FB002019F0D6FB3F
:104AA000002019F0D3FB002019F0D0FB002019F0F2
:104AB000CDFB002019F0CAFB002019F0C7FB002035
:104AC00019F0C4FB002019F0C1FB002019F0BEFB57
:104AD000002019F0BBFB002019F0B8FB002019F0F2
:104AE000B5FB002019F0B2FB002019F0AFFB00204D
:104AF00019F0ACFB002019F0A9FB002019F0A6FB6F
:104B0000002019F0A3FB002019F0A0FB002019F0F1
:104B10009DFB002019F09AFB002019F097FB002064
:104B200019F094FB002019F091FB002019F08EFB86
:104B3000002019F08BFB002019F088FB002019F0F1
:104B400085FB002019F082FB002019F07FFB00207C
:104B500019F07CFB002019F079FB002019F076FB9E
:104B6000002019F073FB002019F070FB002019F0F1
:104B70006DFB002019F06AFB002019F067FB002094
:104B800019F064FB002019F061FB002019F05EFBB6
:104B9000002019F05BFB002019F058FB002019F0F1
:104BA00055FB002019F052FB002019F04FFB0020AC
:104BB00019F04CFB002019F049FB002019F046FBCE
:104BC000002019F043FB002019F040FB002019F0F1
:104BD0003DFB002019F03AFB002019F037FB0020C4
:104BE00019F034FB002019F031FB002019F02EFBE6
:104BF000002019F02BFB002019F028FB002019F0F1
:104C000025FB002019F022FB002019F01FFB0020DB
:104C100019F01CFB002019F019FB002019F016FBFD
:104C2000002019F013FB002019F010FB002019F0F0
:104C30000DFB002019F00AFB002019F007FB0020F3
:104C400019F004FB002019F001FB002019F0FEFA16
:104C5000002019F0FBFA002019F0F8FA002019F0F2
:104C6000F5FA002019F0F2FA002019F0EFFA00200E
:104C700019F0ECFA002019F0E9FA002019F0E6FA30
:104C8000002019F0E3FA002019F0E0FA002019F0F2
:104C9000DDFA002019F0DAFA002019F0D7FA002026
:104CA00019F0D4FA002019F0D1FA002019F0CEFA48
:104CB000002019F0CBFA002019F0C8FA002019F0F2
:104CC000C5FA002019F0C2FA002019F0BFFA00203E
:104CD00019F0BCFA002019F0B9FA002019F0B6FA60
:104CE000002019F0B3FA002019F0B0FA002019F0F2
:104CF000ADFA002019F0AAFA002019F0A7FA002056
:104D000019F0A4FA002019F0A1FA002019F09EFA77
:104D1000002019F09BFA002019F098FA002019F0F1
:104D200095FA002019F092FA002019F08FFA00206D
:104D300019F08CFA002019F089FA002019F086FA8F
:104D4000002019F083FA002019F080FA002019F0F1
:104D50007DFA002019F07AFA002019F077FA002085
:104D600019F074FA002019F071FA002019F06EFAA7
:104D7000002019F06BFA002019F068FA002019F0F1
:104D800065FA002019F062FA002019F05FFA00209D
:104D900019F05CFA002019F059FA002019F056FABF
:104DA000002019F053FA002019F050FA002019F0F1
:104DB0004DFA002019F04AFA002019F047FA0020B5
:104DC00019F044FA002019F041FA002019F03EFAD7
:104DD000002019F03BFA002019F038FA002019F0F1
:104DE00035FA002019F032FA002019F02FFA0020CD
:104DF00019F02CFA002019F029FA002019F026FAEF
:104E0000002019F023FA002019F020FA002019F0F0
:104E10001DFA002019F01AFA002019F017FA0020E4
:104E200019F014FA002019F011FA002019F00EFA06
:104E3000002019F00BFA002019F008FA002019F0F0
:104E400005FA002019F002FA002019F0FFF90020FD
:104E500019F0FCF9002019F0F9F9002019F0F6F921
:104E6000002019F0F3F9002019F0F0F9002019F0F2
:104E7000EDF9002019F0EAF9002019F0E7F9002017
:104E800019F0E4F9002019F0E1F9002019F0DEF939
:104E9000002019F0DBF9002019F0D8F9002019F0F2
:104EA000D5F9002019F0D2F9002019F0CFF900202F
:104EB00019F0CCF9002019F0C9F9002019F0C6F951
:104EC000002019F0C3F9002019F0C0F9002019F0F2
:104ED000BDF9002019F0BAF9002019F0B7F9002047
:104EE00019F0B4F9002019F0B1F9002019F0AEF969
:104EF000002019F0ABF9002019F0A8F9002019F0F2
:104F0000A5F9002019F0A2F9002019F09FF900205E
:104F100019F09CF9002019F099F9002019F096F980
:104F2000002019F093F9002019F090F9002019F0F1
:104F30008DF9002019F08AF9002019F087F9002076
:104F400019F084F9002019F081F9002019F07EF998
:104F5000002019F07BF9002019F078F9002019F0F1
:104F600075F9002019F072F9002019F06FF900208E
:104F700019F06CF9002019F069F9002019F066F9B0
:104F8000002019F063F9002019F060F9002019F0F1
:104F90005DF9002019F05AF9002019F057F90020A6
:104FA00019F054F9002019F051F9002019F04EF9C8
:104FB000002019F04BF9002019F048F9002019F0F1
:104FC00045F9002019F042F9002019F03FF90020BE
:104FD00019F03CF9002019F039F9002019F036F9E0
:104FE000002019F033F9002019F030F9002019F0F1
:104FF0002DF9002019F02AF9002019F027F90020D6
:1050000019F024F9002019F021F9002019F01EF9F7
:10501000002019F01BF9002019F018F9002019F0F0
:1050200015F9002019F012F9002019F00FF90020ED
:1050300019F00CF9002019F009F9002019F006F90F
:10504000002019F003F9002019F000F9002019F0F0
:10505000FDF8002019F0FAF8002019F0F7F8002008
:1050600019F0F4F8002019F0F1F8002019F0EEF82A
:10507000002019F0EBF8002019F0E8F8002019F0F2
:10508000E5F8002019F0E2F8002019F0DFF8002020
:1050900019F0DCF8002019F0D9F8002019F0D6F842
:1050A000002019F0D3F8002019F0D0F8002019F0F2
:1050B000CDF8002019F0CAF8002019F0C7F8002038
:1050C00019F0C4F8002019F0C1F8002019F0BEF85A
:1050D000002019F0BBF8002019F0B8F8002019F0F2
:1050E000B5F8002019F0B2F8002019F0AFF8002050
:1050F00019F0ACF8002019F0A9F8002019F0A6F872
:10510000002019F0A3F8002019F0A0F8002019F0F1
:105110009DF8002019F09AF8002019F097F8002067
:1051200019F094F8002019F091F8002019F08EF889
:10513000002019F08BF8002019F088F8002019F0F1
:1051400085F8002019F082F8002019F07FF800207F
:1051500019F07CF8002019F079F8002019F076F8A1
:10516000002019F073F8002019F070F8002019F0F1
:105170006DF8002019F06AF8002019F067F8002097
:1051800019F064F8002019F061F8002019F05EF8B9
:10519000002019F05BF8002019F058F8002019F0F1
:1051A00055F8002019F052F8002019F04FF80020AF
:1051B00019F04CF8002019F049F8002019F046F8D1
:1051C000002019F043F8002019F040F8002019F0F1
:1051D0003DF8002019F03AF8002019F037F80020C7
:1051E00019F034F8002019F031F8002019F02EF8E9
:1051F000002019F02BF8002019F028F8002019F0F1
:1052000025F8002019F022F8002019F01FF80020DE
:1052100019F01CF8002019F019F8002019F016F800
:10522000002019F013F8002019F010F8002019F0F0
:105230000DF8002019F00AF8002019F007F80020F6
:1052400019F004F8002019F001F8002018F0FEFF12
:10525000002018F0FBFF002018F0F8FF002018F0E5
:10526000F5FF002018F0F2FF002018F0EFFF0020FB
:1052700018F0ECFF002018F0E9FF002018F0E6FF1E
:10528000002018F0E3FF002018F0E0FF002018F0E5
:10529000DDFF002018F0DAFF002018F0D7FF002013
:1052A00018F0D4FF002018F0D1FF002018F0CEFF36
:1052B000002018F0CBFF002018F0C8FF002018F0E5
:1052C000C5FF002018F0C2FF002018F0BFFF00202B
:1052D00018F0BCFF002018F0B9FF002018F0B6FF4E
:1052E000002018F0B3FF002018F0B0FF002018F0E5
:1052F000ADFF002018F0AAFF002018F0A7FF002043
:1053000018F0A4FF002018F0A1FF002018F09EFF65
:10531000002018F09BFF002018F098FF002018F0E4
:1053200095FF002018F092FF002018F08FFF00205A
:1053300018F08CFF002018F089FF002018F086FF7D
:10534000002018F083FF002018F080FF002018F0E4
:105350007DFF002018F07AFF002018F077FF002072
:1053600018F074FF002018F071FF002018F06EFF95
:10537000002018F06BFF002018F068FF002018F0E4
:1053800065FF002018F062FF002018F05FFF00208A
:1053900018F05CFF002018F059FF002018F056FFAD
:1053A000002018F053FF002018F050FF002018F0E4
:1053B0004DFF002018F04AFF002018F047FF0020A2
:1053C00018F044FF002018F041FF002018F03EFFC5
:1053D000002018F03BFF002018F038FF002018F0E4
:1053E00035FF002018F032FF002018F02FFF0020BA
:1053F00018F02CFF002018F029FF002018F026FFDD
:10540000002018F023FF002018F020FF002018F0E3
:105410001DFF002018F01AFF002018F017FF0020D1
:1054200018F014FF002018F011FF002018F00EFFF4
:10543000002018F00BFF002018F008FF002018F0E3
:1054400005FF002018F002FF002018F0FFFE0020EA
:1054500018F0FCFE002018F0F9FE002018F0F6FE0F
:10546000002018F0F3FE002018F0F0FE002018F0E5
:10547000EDFE002018F0EAFE002018F0E7FE002004
:1054800018F0E4FE002018F0E1FE002018F0DEFE27
:10549000002018F0DBFE002018F0D8FE002018F0E5
:1054A000D5FE002018F0D2FE002018F0CFFE00201C
:1054B00018F0CCFE002018F0C9FE002018F0C6FE3F
:1054C000002018F0C3FE002018F0C0FE002018F0E5
:1054D000BDFE002018F0BAFE002018F0B7FE002034
:1054E00018F0B4FE002018F0B1FE002018F0AEFE57
:1054F000002018F0ABFE002018F0A8FE002018F0E5
:10550000A5FE002018F0A2FE002018F09FFE00204B
:1055100018F09CFE002018F099FE002018F096FE6E
:10552000002018F093FE002018F090FE002018F0E4
:105530008DFE002018F08AFE002018F087FE002063
:1055400018F084FE002018F081FE002018F07EFE86
:10555000002018F07BFE002018F078FE002018F0E4
:1055600075FE002018F072FE002018F06FFE00207B
:1055700018F06CFE002018F069FE002018F066FE9E
:10558000002018F063FE002018F060FE002018F0E4
:105590005DFE002018F05AFE002018F057FE002093
:1055A00018F054FE002018F051FE002018F04EFEB6
:1055B000002018F04BFE002018F048FE002018F0E4
:1055C00045FE002018F042FE002018F03FFE0020AB
:1055D00018F03CFE002018F039FE002018F036FECE
:1055E000002018F033FE002018F030FE002018F0E4
:1055F0002DFE002018F02AFE002018F027FE0020C3
:1056000018F024FE002018F021FE002018F01EFEE5
:10561000002018F01BFE002018F018FE002018F0E3
:1056200015FE002018F012FE002018F00FFE0020DA
:1056300018F00CFE002018F009FE002018F006FEFD
:10564000002018F003FE002018F000FE002018F0E3
:10565000FDFD002018F0FAFD002018F0F7FD0020F5
:1056600018F0F4FD002018F0F1FD002018F0EEFD18
:10567000002018F0EBFD002018F0E8FD002018F0E5
:10568000E5FD002018F0E2FD002018F0DFFD00200D
:1056900018F0DCFD002018F0D9FD002018F0D6FD30
:1056A000002018F0D3FD002018F0D0FD002018F0E5
:1056B000CDFD002018F0CAFD002018F0C7FD002025
:1056C00018F0C4FD002018F0C1FD002018F0BEFD48
:1056D000002018F0BBFD002018F0B8FD002018F0E5
:1056E000B5FD002018F0B2FD002018F0AFFD00203D
:1056F00018F0ACFD002018F0A9FD002018F0A6FD60
:10570000002018F0A3FD002018F0A0FD002018F0E4
:105710009DFD002018F09AFD002018F097FD002054
:1057200018F094FD002018F091FD002018F08EFD77
:10573000002018F08BFD002018F088FD002018F0E4
:1057400085FD002018F082FD002018F07FFD00206C
:1057500018F07CFD002018F079FD002018F076FD8F
:10576000002018F073FD002018F070FD002018F0E4
:105770006DFD002018F06AFD002018F067FD002084
:1057800018F064FD002018F061FD002018F05EFDA7
:10579000002018F05BFD002018F058FD002018F0E4
:1057A00055FD002018F052FD002018F04FFD00209C
:1057B00018F04CFD002018F049FD002018F046FDBF
:1057C000002018F043FD002018F040FD002018F0E4
:1057D0003DFD002018F03AFD002018F037FD0020B4
:1057E00018F034FD002018F031FD002018F02EFDD7
:1057F000002018F02BFD002018F028FD002018F0E4
:1058000025FD002018F022FD002018F01FFD0020CB
:1058100018F01CFD002018F019FD002018F016FDEE
:10582000002018F013FD002018F010FD002018F0E3
:105830000DFD002018F00AFD002018F007FD0020E3
:1058400018F004FD002018F001FD002018F0FEFC07
:10585000002018F0FBFC002018F0F8FC002018F0E5
:10586000F5FC002018F0F2FC002018F0EFFC0020FE
:1058700018F0ECFC002018F0E9FC002018F0E6FC21
:10588000002018F0E3FC002018F0E0FC002018F0E5
:10589000DDFC002018F0DAFC002018F0D7FC002016
:1058A00018F0D4FC002018F0D1FC002018F0CEFC39
:1058B000002018F0CBFC002018F0C8FC002018F0E5
:1058C000C5FC002018F0C2FC002018F0BFFC00202E
:1058D00018F0BCFC002018F0B9FC002018F0B6FC51
:1058E000002018F0B3FC002018F0B0FC002018F0E5
:1058F000ADFC002018F0AAFC002018F0A7FC002046
:1059000018F0A4FC002018F0A1FC002018F09EFC68
:10591000002018F09BFC002018F098FC002018F0E4
:1059200095FC002018F092FC002018F08FFC00205D
:1059300018F08CFC002018F089FC002018F086FC80
:10594000002018F083FC002018F080FC002018F0E4
:105950007DFC002018F07AFC002018F077FC002075
:1059600018F074FC002018F071FC002018F06EFC98
:10597000002018F06BFC002018F068FC002018F0E4
:1059800065FC002018F062FC002018F05FFC00208D
:1059900018F05CFC002018F059FC002018F056FCB0
:1059A000002018F053FC002018F050FC002018F0E4
:1059B0004DFC002018F04AFC002018F047FC0020A5
:1059C00018F044FC002018F041FC002018F03EFCC8
:1059D000002018F03BFC002018F038FC002018F0E4
:1059E00035FC002018F032FC002018F02FFC0020BD
:1059F00018F02CFC002018F029FC002018F026FCE0
:105A0000002018F023FC002018F020FC002018F0E3
:105A10001DFC002018F01AFC002018F017FC0020D4
:105A200018F014FC002018F011FC002018F00EFCF7
:105A3000002018F00BFC002018F008FC002018F0E3
:105A400005FC002018F002FC002018F0FFFB0020ED
:105A500018F0FCFB002018F0F9FB002018F0F6FB12
:105A6000002018F0F3FB002018F0F0FB002018F0E5
:105A7000EDFB002018F0EAFB002018F0E7FB002007
:105A800018F0E4FB002018F0E1FB002018F0DEFB2A
:105A9000002018F0DBFB002018F0D8FB002018F0E5
:105AA000D5FB002018F0D2FB002018F0CFFB00201F
:105AB00018F0CCFB002018F0C9FB002018F0C6FB42
:105AC000002018F0C3FB002018F0C0FB002018F0E5
:105AD000BDFB002018F0BAFB002018F0B7FB002037
