:020000041000EA
:1000000000B5324B212058609868022188439860DF
:10001000D860186158612E4B002199600221596106
:100020000121F02299502B49196001219960352056
:1000300000F044F80222904214D00621196600F024
:1000400034F8196E01211966002018661A6600F04E
:100050002CF8196E196E196E052000F02FF8012189
:100060000842F9D1002199601B49196000215960AB
:100070001A491B48016001219960EB211966A021F2
:10008000196600F012F800219960164914480160C1
:100090000121996001BC002800D000471248134993
:1000A000086003C880F30888084703B5996A0420EC
:1000B0000142FBD001200142F8D103BD02B5186610
:1000C0001866FFF7F2FF186E186E02BD00000240BE
:1000D000000000180000070000035F00212200005C
:1000E000F4000018222000A00001001008ED00E03C
:1000F00000000000000000000000000074B24E7A12
:1001000000200420F7010010C3010010C5010010F9
:10011000C1010010C1010010C1010010C101001097
:10012000C1010010C1010010C1010010C701001081
:10013000C1010010C1010010C9010010CB01001065
:10014000CD010010CD010010CD010010CD01001037
:10015000CD010010CD010010CD010010CD01001027
:10016000CD010010CD010010CD010010CD01001017
:10017000CD010010CD010010CD010010CD01001007
:10018000CD010010CD010010CD010010CD010010F7
:10019000CD010010CD010010CD010010CD010010E7
:1001A000CD010010CD010010CD010010CD010010D7
:1001B000CD010010CD010010CD010010CD010010C7
:1001C00000BE00BE00BE00BE00BE00BE00F04BF888
:1001D000103800BEF2EB8871BCDD0210E8DD0210C1
:1001E0003402001090A31AE700202149086006C8D5
:1001F00081F3088810471F48006800282FD10DA4FC
:100200000ECC002902D000F012F8F9E71A491B4A77
:10021000002000E001C19142FCD1194988471949E9
:1002200088471949884700BEFDE701C901C29A42C3
:10023000FBD37047E8DD0210C00000204812002008
:1002400070EF0210000004200000042070EF021084
:1002500000100420001004200000000070470B482C
:1002600020F086FC0047EFF30580C0B27047000025
:1002700008ED00E0000000D04812002038270020E0
:1002800051F40110BDD701100DF4011057560000B4
:1002900006005250ABB36053E0C402100600525047
:1002A000861C0302F0C40210060052505422A29D84
:1002B000F8C4021005005250DE65F46870EF0210B9
:1002C000F8B5C04610B5064C2378002B07D1054B76
:1002D000002B02D0044800E000BF0123237010BDB2
:1002E0002018002000000000C0AA0210044B10B526
:1002F000002B03D00349044800E000BF10BDC046F6
:100300000000000024180020C0AA021010B5024806
:1003100028F0D4F910BDC0465008002001207047D5
:1003200010B50400FFF7FAFFA04205D3A620800015
:100330006043024BC01810BD0020FCE7B805002048
:100340000120704710B50400FFF7E8FFA04204D376
:10035000342044430248001910BD0020FCE7C04689
:100360005008002010B582B00C00144BC3185A423C
:1003700053415B00124A9B5E8B4204D06B46DA1DF0
:100380001470002115E06B46DA1D0D231370002157
:100390000029F3D183699B06FCD4137803600131F3
:1003A0000132F5E783699B06FCD4137803600131C1
:1003B00001320029F6D002B010BDC0460080FCBF5B
:1003C000EC26002010B5002201211DF021FA10BDFD
:1003D00010B5012200211DF01BFA10BD30B583B00D
:1003E0000C0000232DE06B46DA1D1570002106E09D
:1003F00083699B06FCD41378036001310132002924
:10040000F6D018E06B46DA1D0D231370002106E0CC
:1004100083699B06FCD41378036001310132002903
:10042000F6D01CE083699B06FCD41378036001318D
:1004300001320029F6D023780D3B5A425341DBB2FA
:1004400001342578002D0FD0002BCCD1074BC318D9
:100450005A4253415B00064A9B5EAB42D2D06B4688
:10046000DA1D15700021E4E703B030BD0080FCBF49
:10047000EC26002010B51EF02DFB10BD30B583B06A
:100480000223022B08DD244A1368013313600A207B
:10049000FFF7F0FF002418E0022B01D00133F0E752
:1004A0001E4AD054FAE76B46DA1D0D231370002163
:1004B000002913D11A4B9B699B06FBD41078184B6B
:1004C000186001310132F3E70134022C16DC134BC2
:1004D0001D5D144B00229B5EAB42E4D06B46DA1DDF
:1004E000157000210029EFD10D4B9B699B06FBD4B1
:1004F00010780B4B186001310132F3E70A20FFF747
:10050000B9FF022303E0054A0021D1540133032B34
:10051000F9DD03B030BDC04644240020E4080020CB
:1005200000400340EC26002030B583B0022302E0F7
:10053000264AD1540133062B07DC022BF8D0C2180F
:10054000033A1478214AD454F4E7214A136801335A
:1005500013600A20FFF78EFF002411E06B46DA1DBE
:100560000D2313700021002913D11A4B9B699B06A0
:10057000FBD41078174B186001310132F3E70134D6
:10058000062C16DC114B1D5D134B00229B5EAB420B
:10059000E4D06B46DA1D157000210029EFD10D4B18
:1005A0009B699B06FBD410780A4B1860013101321D
:1005B000F3E70A20FFF75EFF022303E0034A00216E
:1005C000D1540133062BF9DD03B030BDE40800201F
:1005D0009424002000400340EC26002010B50021A8
:1005E0001EF04CFA10BD000070B51C201DF02AF959
:1005F000D024240680235B056362636119201DF00B
:1006000021F98025AD04656265616420FFF732FF42
:10061000A5616420FFF72EFF9626B60131004848F9
:100620001EF096FE310047481EF092FE0221002087
:100630001DF0D6F8022101201DF0D2F8022104207D
:100640001DF0CEF8022105201DF0CAF80221092074
:100650001DF0C6F80E201DF0F5F811201DF0F2F87F
:100660008022D201626280239B02636262616361C5
:1006700019201DF0E7F865620B201DF0E3F88023D8
:100680001B0163621A201DF0DDF88023DB04636226
:100690000A201DF0D7F88023DB0063621B201DF0C9
:1006A000D1F880231B056362002201211B201DF06D
:1006B000AFF806201DF0C6F8402363620022012136
:1006C00006201DF0A5F8204B01221A6016201DF00F
:1006D000B9F88023DB0363620F201DF0B3F8802399
:1006E0001B02636213201DF0ADF880231B03A3627D
:1006F0000022012113201DF08BF812201DF0A2F81A
:100700008023DB02A3620022012112201DF080F869
:1007100014201DF097F880235B03A36201220021BF
:1007200014201DF075F815201DF08CF880239B0314
:10073000A3620122002115201DF06AF870BDC04699
:100740000040034000800340C40800200023244AE6
:100750001360244A1360244A1360244A1360244A15
:100760001360244A1360244A1360244A1360244A05
:100770001360244A1360244A2321117049205070C9
:10078000053890701530D070137153719371D37117
:10079000137253729372D372137353739373D3732D
:1007A000137453749374D374137553759375D3750D
:1007B000137653769376D376137753779377D377ED
:1007C0003938135401301354013013545354013148
:1007D0005354013153540131535401315354704730
:1007E0002020002010270020442400206019002031
:1007F000581900205C1900205419002064190020A9
:10080000981F00209C1F00203C1F0020094B002245
:100810001A705A709A70DA701A715A719A71DA7184
:100820001A725A729A72DA721A735A739A73DA7364
:100830001A747047241F002010B5144B01221A604F
:10084000134A137801214B40DBB21370002B04D004
:100850000F4B1B78002B0CD110BD022105201CF082
:10086000BFFF012109201CF0BBFF0A4821F072FAEA
:10087000EEE7012105201CF0B3FF022109201CF046
:10088000AFFF054821F066FAE6E7C046C808002039
:1008900031270020C4AA0210D8AA0210F0B583B0F4
:1008A00001256AE06B46DA1D1670002100291AD175
:1008B000474B9B699B06FBD41678454B1E60013164
:1008C0000132F3E76B46DA1D0D2313700021002976
:1008D00019D13F4B9B699B06FBD417783C4B1F609B
:1008E00001310132F3E703780D3B5A425341DBB249
:1008F00001300678002E16D0002BD3D1354B0222C2
:100900009B5EB342DED06B46DA1D167000210029D3
:10091000E9D12F4B9B699B06FBD416782C4B1E60AC
:1009200001310132F3E70134FA239B009C422CD2BF
:10093000D026360640277761FA20FFF74FFEB761D1
:10094000254B9C42EFD100232448D2E70024EBE75B
:100950006B46DA1D0D231370002108E01C4B9B69C8
:100960009B06FBD410781A4B186001310132002924
:10097000F4D011E0102D1FD00135102D25DC184BBF
:100980005B78572BF8D1012DE0D0154B5C5D114BF6
:1009900002229B5EA342DBD06B46DA1D147000215D
:1009A0000029E7D10A4B9B699B06FBD41078084BC2
:1009B000186001310132F3E70A4B01221A600A4B39
:1009C00000221A70FFF738FFD6E703B0F0BDC0462B
:1009D00000800340EC260020E7030000ECAA021090
:1009E000241F0020A825002035270020012800D042
:1009F0007047504B1B78702B2ED06E2BF8D1D02324
:100A00001B065B689B0204D5D0231B065B68DB02D8
:100A10006FD4D0231B065B689B0204D4D0231B0633
:100A20005B68DB0272D4D0231B065B689B0204D593
:100A3000D0231B065B68DB0272D5D0231B065B68E4
:100A40009B02D5D4D0231B065B68DB02D0D43A4B83
:100A500001221A600320CBE7D022120652689202CC
:100A600004D4D02212065268D20222D5D022120615
:100A70005268920204D5D02212065268D20225D5BD
:100A8000D02212065268920204D4D0221206526872
:100A9000D20225D4D022120652689202ADD5D022BD
:100AA00012065268D202A8D5234B01221A600320F5
:100AB0009EE7214B1B68022B04D0204B00221A70AA
:100AC000002095E71C4B03221A60F6E71A4B1B68BF
:100AD000012B01D002208BE7174B02221A60F9E7A5
:100AE000154B1B68012B00D082E7134B02221A60C2
:100AF0007EE7114B1B68022B04D0104B00221A70AA
:100B0000002075E70C4B03221A60F6E70A4B1B68BE
:100B1000012B01D002206BE7074B02221A60F9E794
:100B2000054B1B68012B00D062E7034B02221A60C1
:100B30005EE7C046900800203824002030270020BF
:100B400030B583B0042800D1E4E006DC01284AD0A7
:100B500003284ED100239E4874E0052849D1002384
:100B60009C480EE16B46DA1D1470002100291AD151
:100B7000994B9B699B06FBD41478974B1C60013101
:100B80000132F3E76B46DA1D0D23137000210029B3
:100B900019D1914B9B699B06FBD415788E4B1D6038
:100BA00001310132F3E703780D3B5A425341DBB286
:100BB00001300478002C19D0002BD3D1874B0222AE
:100BC0009B5EA342DED06B46DA1D14700021002923
:100BD000E9D1814B9B699B06FBD414787E4B1C604A
:100BE00001310132F3E700237D48E2E701201DF0E7
:100BF00071FF03B030BD6B46DA1D1470002100296F
:100C00001AD1754B9B699B06FBD41478724B1C6000
:100C100001310132F3E76B46DA1D0D231370002119
:100C2000002919D16C4B9B699B06FBD415786A4B44
:100C30001D6001310132F3E703780D3B5A42534105
:100C4000DBB201300478002C16D0002BD3D1634BDB
:100C500002229B5EA342DED06B46DA1D1470002197
:100C60000029E9D15C4B9B699B06FBD414785A4B55
:100C70001C6001310132F3E701201DF02BFFFFF76B
:100C8000C5FD0023574A1360574A1370574A137023
:100C9000AFE76B46DA1D1470002100291AD14E4BC4
:100CA0009B699B06FBD414784B4B1C6001310132CD
:100CB000F3E76B46DA1D0D2313700021002919D1CB
:100CC000454B9B699B06FBD41578434B1D60013156
:100CD0000132F3E703780D3B5A425341DBB2013056
:100CE0000478002C19D0002BD3D13C4B02229B5E00
:100CF000A342DED06B46DA1D147000210029E9D131
:100D0000354B9B699B06FBD41478334B1C60013137
:100D10000132F3E700233648E2E701201DF0DAFE56
:100D2000FFF774FD00232F4A13602F4A13702F4AD8
:100D300013705EE76B46DA1D1470002100291AD18A
:100D4000254B9B699B06FBD41478234B1C60013117
:100D50000132F3E76B46DA1D0D23137000210029E1
:100D600019D11D4B9B699B06FBD415781A4B1D604E
:100D700001310132F3E703780D3B5A425341DBB2B4
:100D800001300478002C16D0002BD3D1134B022253
:100D90009B5EA342DED06B46DA1D14700021002951
:100DA000E9D10D4B9B699B06FBD414780A4B1C6060
:100DB00001310132F3E701201DF08CFEFFF726FD23
:100DC0000023084A1360084A1370084A137010E79A
:100DD0000CAB02101CAB021000800340EC2600207C
:100DE000F4AA0210A825002024270020282700208C
:100DF00014AB021010B5002020F0DEFF002020F020
:100E0000DBFF002020F0D8FF002020F0D5FF0020DD
:100E100020F0D2FF002020F0CFFF002020F0CCFFF8
:100E2000002020F0C9FF002020F0C6FF002020F0A5
:100E3000C3FF002020F0C0FF002020F0BDFF0020F5
:100E400020F0BAFF002020F0B7FF002020F0B4FF10
:100E5000002020F0B1FF002020F0AEFF002020F0A5
:100E6000ABFF002020F0A8FF002020F0A5FF00200D
:100E700020F0A2FF002020F09FFF002020F09CFF28
:100E8000002020F099FF002020F096FF002020F0A5
:100E900093FF002020F090FF002020F08DFF002025
:100EA00020F08AFF002020F087FF002020F084FF40
:100EB000002020F081FF002020F07EFF002020F0A5
:100EC0007BFF002020F078FF002020F075FF00203D
:100ED00020F072FF002020F06FFF002020F06CFF58
:100EE000002020F069FF002020F066FF002020F0A5
:100EF00063FF002020F060FF002020F05DFF002055
:100F000020F05AFF002020F057FF002020F054FF6F
:100F1000002020F051FF002020F04EFF002020F0A4
:100F20004BFF002020F048FF002020F045FF00206C
:100F300020F042FF002020F03FFF002020F03CFF87
:100F4000002020F039FF002020F036FF002020F0A4
:100F500033FF002020F030FF002020F02DFF002084
:100F600020F02AFF002020F027FF002020F024FF9F
:100F7000002020F021FF002020F01EFF002020F0A4
:100F80001BFF002020F018FF002020F015FF00209C
:100F900020F012FF002020F00FFF002020F00CFFB7
:100FA000002020F009FF002020F006FF002020F0A4
:100FB00003FF002020F000FF002020F0FDFE0020B5
:100FC00020F0FAFE002020F0F7FE002020F0F4FED2
:100FD000002020F0F1FE002020F0EEFE002020F0A6
:100FE000EBFE002020F0E8FE002020F0E5FE0020CF
:100FF00020F0E2FE002020F0DFFE002020F0DCFEEA
:10100000002020F0D9FE002020F0D6FE002020F0A5
:10101000D3FE002020F0D0FE002020F0CDFE0020E6
:1010200020F0CAFE002020F0C7FE002020F0C4FE01
:10103000002020F0C1FE002020F0BEFE002020F0A5
:10104000BBFE002020F0B8FE002020F0B5FE0020FE
:1010500020F0B2FE002020F0AFFE002020F0ACFE19
:10106000002020F0A9FE002020F0A6FE002020F0A5
:10107000A3FE002020F0A0FE002020F09DFE002016
:1010800020F09AFE002020F097FE002020F094FE31
:10109000002020F091FE002020F08EFE002020F0A5
:1010A0008BFE002020F088FE002020F085FE00202E
:1010B00020F082FE002020F07FFE002020F07CFE49
:1010C000002020F079FE002020F076FE002020F0A5
:1010D00073FE002020F070FE002020F06DFE002046
:1010E00020F06AFE002020F067FE002020F064FE61
:1010F000002020F061FE002020F05EFE002020F0A5
:101100005BFE002020F058FE002020F055FE00205D
:1011100020F052FE002020F04FFE002020F04CFE78
:10112000002020F049FE002020F046FE002020F0A4
:1011300043FE002020F040FE002020F03DFE002075
:1011400020F03AFE002020F037FE002020F034FE90
:10115000002020F031FE002020F02EFE002020F0A4
:101160002BFE002020F028FE002020F025FE00208D
:1011700020F022FE002020F01FFE002020F01CFEA8
:10118000002020F019FE002020F016FE002020F0A4
:1011900013FE002020F010FE002020F00DFE0020A5
:1011A00020F00AFE002020F007FE002020F004FEC0
:1011B000002020F001FE002020F0FEFD002020F0A5
:1011C000FBFD002020F0F8FD002020F0F5FD0020C0
:1011D00020F0F2FD002020F0EFFD002020F0ECFDDB
:1011E000002020F0E9FD002020F0E6FD002020F0A6
:1011F000E3FD002020F0E0FD002020F0DDFD0020D8
:1012000020F0DAFD002020F0D7FD002020F0D4FDF2
:10121000002020F0D1FD002020F0CEFD002020F0A5
:10122000CBFD002020F0C8FD002020F0C5FD0020EF
:1012300020F0C2FD002020F0BFFD002020F0BCFD0A
:10124000002020F0B9FD002020F0B6FD002020F0A5
:10125000B3FD002020F0B0FD002020F0ADFD002007
:1012600020F0AAFD002020F0A7FD002020F0A4FD22
:10127000002020F0A1FD002020F09EFD002020F0A5
:101280009BFD002020F098FD002020F095FD00201F
:1012900020F092FD002020F08FFD002020F08CFD3A
:1012A000002020F089FD002020F086FD002020F0A5
:1012B00083FD002020F080FD002020F07DFD002037
:1012C00020F07AFD002020F077FD002020F074FD52
:1012D000002020F071FD002020F06EFD002020F0A5
:1012E0006BFD002020F068FD002020F065FD00204F
:1012F00020F062FD002020F05FFD002020F05CFD6A
:10130000002020F059FD002020F056FD002020F0A4
:1013100053FD002020F050FD002020F04DFD002066
:1013200020F04AFD002020F047FD002020F044FD81
:10133000002020F041FD002020F03EFD002020F0A4
:101340003BFD002020F038FD002020F035FD00207E
:1013500020F032FD002020F02FFD002020F02CFD99
:10136000002020F029FD002020F026FD002020F0A4
:1013700023FD002020F020FD002020F01DFD002096
:1013800020F01AFD002020F017FD002020F014FDB1
:10139000002020F011FD002020F00EFD002020F0A4
:1013A0000BFD002020F008FD002020F005FD0020AE
:1013B00020F002FD002020F0FFFC002020F0FCFCCB
:1013C000002020F0F9FC002020F0F6FC002020F0A6
:1013D000F3FC002020F0F0FC002020F0EDFC0020C9
:1013E00020F0EAFC002020F0E7FC002020F0E4FCE4
:1013F000002020F0E1FC002020F0DEFC002020F0A6
:10140000DBFC002020F0D8FC002020F0D5FC0020E0
:1014100020F0D2FC002020F0CFFC002020F0CCFCFB
:10142000002020F0C9FC002020F0C6FC002020F0A5
:10143000C3FC002020F0C0FC002020F0BDFC0020F8
:1014400020F0BAFC002020F0B7FC002020F0B4FC13
:10145000002020F0B1FC002020F0AEFC002020F0A5
:10146000ABFC002020F0A8FC002020F0A5FC002010
:1014700020F0A2FC002020F09FFC002020F09CFC2B
:10148000002020F099FC002020F096FC002020F0A5
:1014900093FC002020F090FC002020F08DFC002028
:1014A00020F08AFC002020F087FC002020F084FC43
:1014B000002020F081FC002020F07EFC002020F0A5
:1014C0007BFC002020F078FC002020F075FC002040
:1014D00020F072FC002020F06FFC002020F06CFC5B
:1014E000002020F069FC002020F066FC002020F0A5
:1014F00063FC002020F060FC002020F05DFC002058
:1015000020F05AFC002020F057FC002020F054FC72
:10151000002020F051FC002020F04EFC002020F0A4
:101520004BFC002020F048FC002020F045FC00206F
:1015300020F042FC002020F03FFC002020F03CFC8A
:10154000002020F039FC002020F036FC002020F0A4
:1015500033FC002020F030FC002020F02DFC002087
:1015600020F02AFC002020F027FC002020F024FCA2
:10157000002020F021FC002020F01EFC002020F0A4
:101580001BFC002020F018FC002020F015FC00209F
:1015900020F012FC002020F00FFC002020F00CFCBA
:1015A000002020F009FC002020F006FC002020F0A4
:1015B00003FC002020F000FC002020F0FDFB0020B8
:1015C00020F0FAFB002020F0F7FB002020F0F4FBD5
:1015D000002020F0F1FB002020F0EEFB002020F0A6
:1015E000EBFB002020F0E8FB002020F0E5FB0020D2
:1015F00020F0E2FB002020F0DFFB002020F0DCFBED
:10160000002020F0D9FB002020F0D6FB002020F0A5
:10161000D3FB002020F0D0FB002020F0CDFB0020E9
:1016200020F0CAFB002020F0C7FB002020F0C4FB04
:10163000002020F0C1FB002020F0BEFB002020F0A5
:10164000BBFB002020F0B8FB002020F0B5FB002001
:1016500020F0B2FB002020F0AFFB002020F0ACFB1C
:10166000002020F0A9FB002020F0A6FB002020F0A5
:10167000A3FB002020F0A0FB002020F09DFB002019
:1016800020F09AFB002020F097FB002020F094FB34
:10169000002020F091FB002020F08EFB002020F0A5
:1016A0008BFB002020F088FB002020F085FB002031
:1016B00020F082FB002020F07FFB002020F07CFB4C
:1016C000002020F079FB002020F076FB002020F0A5
:1016D00073FB002020F070FB002020F06DFB002049
:1016E00020F06AFB002020F067FB002020F064FB64
:1016F000002020F061FB002020F05EFB002020F0A5
:101700005BFB002020F058FB002020F055FB002060
:1017100020F052FB002020F04FFB002020F04CFB7B
:10172000002020F049FB002020F046FB002020F0A4
:1017300043FB002020F040FB002020F03DFB002078
:1017400020F03AFB002020F037FB002020F034FB93
:10175000002020F031FB002020F02EFB002020F0A4
:101760002BFB002020F028FB002020F025FB002090
:1017700020F022FB002020F01FFB002020F01CFBAB
:10178000002020F019FB002020F016FB002020F0A4
:1017900013FB002020F010FB002020F00DFB0020A8
:1017A00020F00AFB002020F007FB002020F004FBC3
:1017B000002020F001FB002020F0FEFA002020F0A5
:1017C000FBFA002020F0F8FA002020F0F5FA0020C3
:1017D00020F0F2FA002020F0EFFA002020F0ECFADE
:1017E000002020F0E9FA002020F0E6FA002020F0A6
:1017F000E3FA002020F0E0FA002020F0DDFA0020DB
:1018000020F0DAFA002020F0D7FA002020F0D4FAF5
:10181000002020F0D1FA002020F0CEFA002020F0A5
:10182000CBFA002020F0C8FA002020F0C5FA0020F2
:1018300020F0C2FA002020F0BFFA002020F0BCFA0D
:10184000002020F0B9FA002020F0B6FA002020F0A5
:10185000B3FA002020F0B0FA002020F0ADFA00200A
:1018600020F0AAFA002020F0A7FA002020F0A4FA25
:10187000002020F0A1FA002020F09EFA002020F0A5
:101880009BFA002020F098FA002020F095FA002022
:1018900020F092FA002020F08FFA002020F08CFA3D
:1018A000002020F089FA002020F086FA002020F0A5
:1018B00083FA002020F080FA002020F07DFA00203A
:1018C00020F07AFA002020F077FA002020F074FA55
:1018D000002020F071FA002020F06EFA002020F0A5
:1018E0006BFA002020F068FA002020F065FA002052
:1018F00020F062FA002020F05FFA002020F05CFA6D
:10190000002020F059FA002020F056FA002020F0A4
:1019100053FA002020F050FA002020F04DFA002069
:1019200020F04AFA002020F047FA002020F044FA84
:10193000002020F041FA002020F03EFA002020F0A4
:101940003BFA002020F038FA002020F035FA002081
:1019500020F032FA002020F02FFA002020F02CFA9C
:10196000002020F029FA002020F026FA002020F0A4
:1019700023FA002020F020FA002020F01DFA002099
:1019800020F01AFA002020F017FA002020F014FAB4
:10199000002020F011FA002020F00EFA002020F0A4
:1019A0000BFA002020F008FA002020F005FA0020B1
:1019B00020F002FA002020F0FFF9002020F0FCF9CE
:1019C000002020F0F9F9002020F0F6F9002020F0A6
:1019D000F3F9002020F0F0F9002020F0EDF90020CC
:1019E00020F0EAF9002020F0E7F9002020F0E4F9E7
:1019F000002020F0E1F9002020F0DEF9002020F0A6
:101A0000DBF9002020F0D8F9002020F0D5F90020E3
:101A100020F0D2F9002020F0CFF9002020F0CCF9FE
:101A2000002020F0C9F9002020F0C6F9002020F0A5
:101A3000C3F9002020F0C0F9002020F0BDF90020FB
:101A400020F0BAF9002020F0B7F9002020F0B4F916
:101A5000002020F0B1F9002020F0AEF9002020F0A5
:101A6000ABF9002020F0A8F9002020F0A5F9002013
:101A700020F0A2F9002020F09FF9002020F09CF92E
:101A8000002020F099F9002020F096F9002020F0A5
:101A900093F9002020F090F9002020F08DF900202B
:101AA00020F08AF9002020F087F9002020F084F946
:101AB000002020F081F9002020F07EF9002020F0A5
:101AC0007BF9002020F078F9002020F075F9002043
:101AD00020F072F9002020F06FF9002020F06CF95E
:101AE000002020F069F9002020F066F9002020F0A5
:101AF00063F9002020F060F9002020F05DF900205B
:101B000020F05AF9002020F057F9002020F054F975
:101B1000002020F051F9002020F04EF9002020F0A4
:101B20004BF9002020F048F9002020F045F9002072
:101B300020F042F9002020F03FF9002020F03CF98D
:101B4000002020F039F9002020F036F9002020F0A4
:101B500033F9002020F030F9002020F02DF900208A
:101B600020F02AF9002020F027F9002020F024F9A5
:101B7000002020F021F9002020F01EF9002020F0A4
:101B80001BF9002020F018F9002020F015F90020A2
:101B900020F012F9002020F00FF9002020F00CF9BD
:101BA000002020F009F9002020F006F9002020F0A4
:101BB00003F9002020F000F9002020F0FDF80020BB
:101BC00020F0FAF8002020F0F7F8002020F0F4F8D8
:101BD000002020F0F1F8002020F0EEF8002020F0A6
:101BE000EBF8002020F0E8F8002020F0E5F80020D5
:101BF00020F0E2F8002020F0DFF8002020F0DCF8F0
:101C0000002020F0D9F8002020F0D6F8002020F0A5
:101C1000D3F8002020F0D0F8002020F0CDF80020EC
:101C200020F0CAF8002020F0C7F8002020F0C4F807
:101C3000002020F0C1F8002020F0BEF8002020F0A5
:101C4000BBF8002020F0B8F8002020F0B5F8002004
:101C500020F0B2F8002020F0AFF8002020F0ACF81F
:101C6000002020F0A9F8002020F0A6F8002020F0A5
:101C7000A3F8002020F0A0F8002020F09DF800201C
:101C800020F09AF8002020F097F8002020F094F837
:101C9000002020F091F8002020F08EF8002020F0A5
:101CA0008BF8002020F088F8002020F085F8002034
:101CB00020F082F8002020F07FF8002020F07CF84F
:101CC000002020F079F8002020F076F8002020F0A5
:101CD00073F8002020F070F8002020F06DF800204C
:101CE00020F06AF8002020F067F8002020F064F867
:101CF000002020F061F8002020F05EF8002020F0A5
:101D00005BF8002020F058F8002020F055F8002063
:101D100020F052F8002020F04FF8002020F04CF87E
:101D2000002020F049F8002020F046F8002020F0A4
:101D300043F8002020F040F8002020F03DF800207B
:101D400020F03AF8002020F037F8002020F034F896
:101D5000002020F031F8002020F02EF8002020F0A4
:101D60002BF8002020F028F8002020F025F8002093
:101D700020F022F8002020F01FF8002020F01CF8AE
:101D8000002020F019F8002020F016F8002020F0A4
:101D900013F8002020F010F8002020F00DF80020AB
:101DA00020F00AF8002020F007F8002020F004F8C6
:101DB000002020F001F800201FF0FEFF00201FF09F
:101DC000FBFF00201FF0F8FF00201FF0F5FF0020B0
:101DD0001FF0F2FF00201FF0EFFF00201FF0ECFFCC
:101DE00000201FF0E9FF00201FF0E6FF00201FF099
:101DF000E3FF00201FF0E0FF00201FF0DDFF0020C8
:101E00001FF0DAFF00201FF0D7FF00201FF0D4FFE3
:101E100000201FF0D1FF00201FF0CEFF00201FF098
:101E2000CBFF00201FF0C8FF00201FF0C5FF0020DF
:101E30001FF0C2FF00201FF0BFFF00201FF0BCFFFB
:101E400000201FF0B9FF00201FF0B6FF00201FF098
:101E5000B3FF00201FF0B0FF00201FF0ADFF0020F7
:101E60001FF0AAFF00201FF0A7FF00201FF0A4FF13
:101E700000201FF0A1FF00201FF09EFF00201FF098
:101E80009BFF00201FF098FF00201FF095FF00200F
:101E90001FF092FF00201FF08FFF00201FF08CFF2B
:101EA00000201FF089FF00201FF086FF00201FF098
:101EB00083FF00201FF080FF00201FF07DFF002027
:101EC0001FF07AFF00201FF077FF00201FF074FF43
:101ED00000201FF071FF00201FF06EFF00201FF098
:101EE0006BFF00201FF068FF00201FF065FF00203F
:101EF0001FF062FF00201FF05FFF00201FF05CFF5B
:101F000000201FF059FF00201FF056FF00201FF097
:101F100053FF00201FF050FF00201FF04DFF002056
:101F20001FF04AFF00201FF047FF00201FF044FF72
:101F300000201FF041FF00201FF03EFF00201FF097
:101F40003BFF00201FF038FF00201FF035FF00206E
:101F50001FF032FF00201FF02FFF00201FF02CFF8A
:101F600000201FF029FF00201FF026FF00201FF097
:101F700023FF00201FF020FF00201FF01DFF002086
:101F80001FF01AFF00201FF017FF00201FF014FFA2
:101F900000201FF011FF00201FF00EFF00201FF097
:101FA0000BFF00201FF008FF00201FF005FF00209E
:101FB0001FF002FF00201FF0FFFE00201FF0FCFEBC
:101FC00000201FF0F9FE00201FF0F6FE00201FF099
:101FD000F3FE00201FF0F0FE00201FF0EDFE0020B9
:101FE0001FF0EAFE00201FF0E7FE00201FF0E4FED5
:101FF00000201FF0E1FE00201FF0DEFE00201FF099
:10200000DBFE00201FF0D8FE00201FF0D5FE0020D0
:102010001FF0D2FE00201FF0CFFE00201FF0CCFEEC
:1020200000201FF0C9FE00201FF0C6FE00201FF098
:10203000C3FE00201FF0C0FE00201FF0BDFE0020E8
:102040001FF0BAFE00201FF0B7FE00201FF0B4FE04
:1020500000201FF0B1FE00201FF0AEFE00201FF098
:10206000ABFE00201FF0A8FE00201FF0A5FE002000
:102070001FF0A2FE00201FF09FFE00201FF09CFE1C
:1020800000201FF099FE00201FF096FE00201FF098
:1020900093FE00201FF090FE00201FF08DFE002018
:1020A0001FF08AFE00201FF087FE00201FF084FE34
:1020B00000201FF081FE00201FF07EFE00201FF098
:1020C0007BFE00201FF078FE00201FF075FE002030
:1020D0001FF072FE00201FF06FFE00201FF06CFE4C
:1020E00000201FF069FE00201FF066FE00201FF098
:1020F00063FE00201FF060FE00201FF05DFE002048
:102100001FF05AFE00201FF057FE00201FF054FE63
:1021100000201FF051FE00201FF04EFE00201FF097
:102120004BFE00201FF048FE00201FF045FE00205F
:102130001FF042FE00201FF03FFE00201FF03CFE7B
:1021400000201FF039FE00201FF036FE00201FF097
:1021500033FE00201FF030FE00201FF02DFE002077
:102160001FF02AFE00201FF027FE00201FF024FE93
:1021700000201FF021FE00201FF01EFE00201FF097
:102180001BFE00201FF018FE00201FF015FE00208F
:102190001FF012FE00201FF00FFE00201FF00CFEAB
:1021A00000201FF009FE00201FF006FE00201FF097
:1021B00003FE00201FF000FE00201FF0FDFD0020A8
:1021C0001FF0FAFD00201FF0F7FD00201FF0F4FDC6
:1021D00000201FF0F1FD00201FF0EEFD00201FF099
:1021E000EBFD00201FF0E8FD00201FF0E5FD0020C2
:1021F0001FF0E2FD00201FF0DFFD00201FF0DCFDDE
:1022000000201FF0D9FD00201FF0D6FD00201FF098
:10221000D3FD00201FF0D0FD00201FF0CDFD0020D9
:102220001FF0CAFD00201FF0C7FD00201FF0C4FDF5
:1022300000201FF0C1FD00201FF0BEFD00201FF098
:10224000BBFD00201FF0B8FD00201FF0B5FD0020F1
:102250001FF0B2FD00201FF0AFFD00201FF0ACFD0D
:1022600000201FF0A9FD00201FF0A6FD00201FF098
:10227000A3FD00201FF0A0FD00201FF09DFD002009
:102280001FF09AFD00201FF097FD00201FF094FD25
:1022900000201FF091FD00201FF08EFD00201FF098
:1022A0008BFD00201FF088FD00201FF085FD002021
:1022B0001FF082FD00201FF07FFD00201FF07CFD3D
:1022C00000201FF079FD00201FF076FD00201FF098
:1022D00073FD00201FF070FD00201FF06DFD002039
:1022E0001FF06AFD00201FF067FD00201FF064FD55
:1022F00000201FF061FD00201FF05EFD00201FF098
:102300005BFD00201FF058FD00201FF055FD002050
:102310001FF052FD00201FF04FFD00201FF04CFD6C
:1023200000201FF049FD00201FF046FD00201FF097
:1023300043FD00201FF040FD00201FF03DFD002068
:102340001FF03AFD00201FF037FD00201FF034FD84
:1023500000201FF031FD00201FF02EFD00201FF097
:102360002BFD00201FF028FD00201FF025FD002080
:102370001FF022FD00201FF01FFD00201FF01CFD9C
:1023800000201FF019FD00201FF016FD00201FF097
:1023900013FD00201FF010FD00201FF00DFD002098
:1023A0001FF00AFD00201FF007FD00201FF004FDB4
:1023B00000201FF001FD00201FF0FEFC00201FF098
:1023C000FBFC00201FF0F8FC00201FF0F5FC0020B3
:1023D0001FF0F2FC00201FF0EFFC00201FF0ECFCCF
:1023E00000201FF0E9FC00201FF0E6FC00201FF099
:1023F000E3FC00201FF0E0FC00201FF0DDFC0020CB
:102400001FF0DAFC00201FF0D7FC00201FF0D4FCE6
:1024100000201FF0D1FC00201FF0CEFC00201FF098
:10242000CBFC00201FF0C8FC00201FF0C5FC0020E2
:102430001FF0C2FC00201FF0BFFC00201FF0BCFCFE
:1024400000201FF0B9FC00201FF0B6FC00201FF098
:10245000B3FC00201FF0B0FC00201FF0ADFC0020FA
:102460001FF0AAFC00201FF0A7FC00201FF0A4FC16
:1024700000201FF0A1FC00201FF09EFC00201FF098
:102480009BFC00201FF098FC00201FF095FC002012
:102490001FF092FC00201FF08FFC00201FF08CFC2E
:1024A00000201FF089FC00201FF086FC00201FF098
:1024B00083FC00201FF080FC00201FF07DFC00202A
:1024C0001FF07AFC00201FF077FC00201FF074FC46
:1024D00000201FF071FC00201FF06EFC00201FF098
:1024E0006BFC00201FF068FC00201FF065FC002042
:1024F0001FF062FC00201FF05FFC00201FF05CFC5E
:1025000000201FF059FC00201FF056FC00201FF097
:1025100053FC00201FF050FC00201FF04DFC002059
:102520001FF04AFC00201FF047FC00201FF044FC75
:1025300000201FF041FC00201FF03EFC00201FF097
:102540003BFC00201FF038FC00201FF035FC002071
:102550001FF032FC00201FF02FFC00201FF02CFC8D
:1025600000201FF029FC00201FF026FC00201FF097
:1025700023FC00201FF020FC00201FF01DFC002089
:102580001FF01AFC00201FF017FC00201FF014FCA5
:1025900000201FF011FC00201FF00EFC00201FF097
:1025A0000BFC00201FF008FC00201FF005FC0020A1
:1025B0001FF002FC00201FF0FFFB00201FF0FCFBBF
:1025C00000201FF0F9FB00201FF0F6FB00201FF099
:1025D000F3FB00201FF0F0FB00201FF0EDFB0020BC
:1025E0001FF0EAFB00201FF0E7FB00201FF0E4FBD8
:1025F00000201FF0E1FB00201FF0DEFB00201FF099
:10260000DBFB00201FF0D8FB00201FF0D5FB0020D3
:102610001FF0D2FB00201FF0CFFB00201FF0CCFBEF
:1026200000201FF0C9FB00201FF0C6FB00201FF098
:10263000C3FB00201FF0C0FB00201FF0BDFB0020EB
:102640001FF0BAFB00201FF0B7FB00201FF0B4FB07
:1026500000201FF0B1FB00201FF0AEFB00201FF098
:10266000ABFB00201FF0A8FB00201FF0A5FB002003
:102670001FF0A2FB00201FF09FFB00201FF09CFB1F
:1026800000201FF099FB00201FF096FB00201FF098
:1026900093FB00201FF090FB00201FF08DFB00201B
:1026A0001FF08AFB00201FF087FB00201FF084FB37
:1026B00000201FF081FB00201FF07EFB00201FF098
:1026C0007BFB00201FF078FB00201FF075FB002033
:1026D0001FF072FB00201FF06FFB00201FF06CFB4F
:1026E00000201FF069FB00201FF066FB00201FF098
:1026F00063FB00201FF060FB00201FF05DFB00204B
:102700001FF05AFB00201FF057FB00201FF054FB66
:1027100000201FF051FB00201FF04EFB00201FF097
:102720004BFB00201FF048FB00201FF045FB002062
:102730001FF042FB00201FF03FFB00201FF03CFB7E
:1027400000201FF039FB00201FF036FB00201FF097
:1027500033FB00201FF030FB00201FF02DFB00207A
:102760001FF02AFB00201FF027FB00201FF024FB96
:1027700000201FF021FB00201FF01EFB00201FF097
:102780001BFB00201FF018FB00201FF015FB002092
:102790001FF012FB00201FF00FFB00201FF00CFBAE
:1027A00000201FF009FB00201FF006FB00201FF097
:1027B00003FB00201FF000FB00201FF0FDFA0020AB
:1027C0001FF0FAFA00201FF0F7FA00201FF0F4FAC9
:1027D00000201FF0F1FA00201FF0EEFA00201FF099
:1027E000EBFA00201FF0E8FA00201FF0E5FA0020C5
:1027F0001FF0E2FA00201FF0DFFA00201FF0DCFAE1
:1028000000201FF0D9FA00201FF0D6FA00201FF098
:10281000D3FA00201FF0D0FA00201FF0CDFA0020DC
:102820001FF0CAFA00201FF0C7FA00201FF0C4FAF8
:1028300000201FF0C1FA00201FF0BEFA00201FF098
:10284000BBFA00201FF0B8FA00201FF0B5FA0020F4
:102850001FF0B2FA00201FF0AFFA00201FF0ACFA10
:1028600000201FF0A9FA00201FF0A6FA00201FF098
:10287000A3FA00201FF0A0FA00201FF09DFA00200C
:102880001FF09AFA00201FF097FA00201FF094FA28
:1028900000201FF091FA00201FF08EFA00201FF098
:1028A0008BFA00201FF088FA00201FF085FA002024
:1028B0001FF082FA00201FF07FFA00201FF07CFA40
:1028C00000201FF079FA00201FF076FA00201FF098
:1028D00073FA00201FF070FA00201FF06DFA00203C
:1028E0001FF06AFA00201FF067FA00201FF064FA58
:1028F00000201FF061FA00201FF05EFA00201FF098
:102900005BFA00201FF058FA00201FF055FA002053
:102910001FF052FA00201FF04FFA00201FF04CFA6F
:1029200000201FF049FA00201FF046FA00201FF097
:1029300043FA00201FF040FA00201FF03DFA00206B
:102940001FF03AFA00201FF037FA00201FF034FA87
:1029500000201FF031FA00201FF02EFA00201FF097
:102960002BFA00201FF028FA00201FF025FA002083
:102970001FF022FA00201FF01FFA00201FF01CFA9F
:1029800000201FF019FA00201FF016FA00201FF097
:1029900013FA00201FF010FA00201FF00DFA00209B
:1029A0001FF00AFA00201FF007FA00201FF004FAB7
:1029B00000201FF001FA00201FF0FEF900201FF098
:1029C000FBF900201FF0F8F900201FF0F5F90020B6
:1029D0001FF0F2F900201FF0EFF900201FF0ECF9D2
:1029E00000201FF0E9F900201FF0E6F900201FF099
:1029F000E3F900201FF0E0F900201FF0DDF90020CE
:102A00001FF0DAF900201FF0D7F900201FF0D4F9E9
:102A100000201FF0D1F900201FF0CEF900201FF098
:102A2000CBF900201FF0C8F900201FF0C5F90020E5
:102A30001FF0C2F900201FF0BFF900201FF0BCF901
:102A400000201FF0B9F900201FF0B6F900201FF098
:102A5000B3F900201FF0B0F900201FF0ADF90020FD
:102A60001FF0AAF900201FF0A7F900201FF0A4F919
:102A700000201FF0A1F900201FF09EF900201FF098
:102A80009BF900201FF098F900201FF095F9002015
:102A90001FF092F900201FF08FF900201FF08CF931
:102AA00000201FF089F900201FF086F900201FF098
:102AB00083F900201FF080F900201FF07DF900202D
:102AC0001FF07AF900201FF077F900201FF074F949
:102AD00000201FF071F900201FF06EF900201FF098
:102AE0006BF900201FF068F900201FF065F9002045
:102AF0001FF062F900201FF05FF900201FF05CF961
:102B000000201FF059F900201FF056F900201FF097
:102B100053F900201FF050F900201FF04DF900205C
:102B20001FF04AF900201FF047F900201FF044F978
:102B300000201FF041F900201FF03EF900201FF097
:102B40003BF900201FF038F900201FF035F9002074
:102B50001FF032F900201FF02FF900201FF02CF990
:102B600000201FF029F900201FF026F900201FF097
:102B700023F900201FF020F900201FF01DF900208C
:102B80001FF01AF900201FF017F900201FF014F9A8
:102B900000201FF011F900201FF00EF900201FF097
:102BA0000BF900201FF008F900201FF005F90020A4
:102BB0001FF002F900201FF0FFF800201FF0FCF8C2
:102BC00000201FF0F9F800201FF0F6F800201FF099
:102BD000F3F800201FF0F0F800201FF0EDF80020BF
:102BE0001FF0EAF800201FF0E7F800201FF0E4F8DB
:102BF00000201FF0E1F800201FF0DEF800201FF099
:102C0000DBF800201FF0D8F800201FF0D5F80020D6
:102C10001FF0D2F800201FF0CFF800201FF0CCF8F2
:102C200000201FF0C9F800201FF0C6F800201FF098
:102C3000C3F800201FF0C0F800201FF0BDF80020EE
:102C40001FF0BAF800201FF0B7F800201FF0B4F80A
:102C500000201FF0B1F800201FF0AEF800201FF098
:102C6000ABF800201FF0A8F800201FF0A5F8002006
:102C70001FF0A2F800201FF09FF800201FF09CF822
:102C800000201FF099F800201FF096F800201FF098
:102C900093F800201FF090F800201FF08DF800201E
:102CA0001FF08AF800201FF087F800201FF084F83A
:102CB00000201FF081F800201FF07EF800201FF098
:102CC0007BF800201FF078F800201FF075F8002036
:102CD0001FF072F800201FF06FF800201FF06CF852
:102CE00000201FF069F800201FF066F800201FF098
:102CF00063F800201FF060F800201FF05DF800204E
:102D00001FF05AF800201FF057F800201FF054F869
:102D100000201FF051F800201FF04EF800201FF097
:102D20004BF800201FF048F800201FF045F8002065
:102D30001FF042F800201FF03FF800201FF03CF881
:102D400000201FF039F800201FF036F800201FF097
:102D500033F800201FF030F800201FF02DF800207D
:102D60001FF02AF800201FF027F800201FF024F899
:102D700000201FF021F800201FF01EF800201FF097
:102D80001BF800201FF018F800201FF015F8002095
:102D90001FF012F800201FF00FF800201FF00CF8B1
:102DA00000201FF009F800201FF006F800201FF097
:102DB00003F800201FF000F800201EF0FDFF0020A7
:102DC0001EF0FAFF00201EF0F7FF00201EF0F4FFB7
:102DD00000201EF0F1FF00201EF0EEFF00201EF08C
:102DE000EBFF00201EF0E8FF00201EF0E5FF0020B2
:102DF0001EF0E2FF00201EF0DFFF00201EF0DCFFCF
:102E000000201EF0D9FF00201EF0D6FF00201EF08B
:102E1000D3FF00201EF0D0FF00201EF0CDFF0020C9
:102E20001EF0CAFF00201EF0C7FF00201EF0C4FFE6
:102E300000201EF0C1FF00201EF0BEFF00201EF08B
:102E4000BBFF00201EF0B8FF00201EF0B5FF0020E1
:102E50001EF0B2FF00201EF0AFFF00201EF0ACFFFE
:102E600000201EF0A9FF00201EF0A6FF00201EF08B
:102E7000A3FF00201EF0A0FF00201EF09DFF0020F9
:102E80001EF09AFF00201EF097FF00201EF094FF16
:102E900000201EF091FF00201EF08EFF00201EF08B
:102EA0008BFF00201EF088FF00201EF085FF002011
:102EB0001EF082FF00201EF07FFF00201EF07CFF2E
:102EC00000201EF079FF00201EF076FF00201EF08B
:102ED00073FF00201EF070FF00201EF06DFF002029
:102EE0001EF06AFF00201EF067FF00201EF064FF46
:102EF00000201EF061FF00201EF05EFF00201EF08B
:102F00005BFF00201EF058FF00201EF055FF002040
:102F10001EF052FF00201EF04FFF00201EF04CFF5D
:102F200000201EF049FF00201EF046FF00201EF08A
:102F300043FF00201EF040FF00201EF03DFF002058
:102F40001EF03AFF00201EF037FF00201EF034FF75
:102F500000201EF031FF00201EF02EFF00201EF08A
:102F60002BFF00201EF028FF00201EF025FF002070
:102F70001EF022FF00201EF01FFF00201EF01CFF8D
:102F800000201EF019FF00201EF016FF00201EF08A
:102F900013FF00201EF010FF00201EF00DFF002088
:102FA0001EF00AFF00201EF007FF00201EF004FFA5
:102FB00000201EF001FF00201EF0FEFE00201EF08B
:102FC000FBFE00201EF0F8FE00201EF0F5FE0020A3
:102FD0001EF0F2FE00201EF0EFFE00201EF0ECFEC0
:102FE00000201EF0E9FE00201EF0E6FE00201EF08C
:102FF000E3FE00201EF0E0FE00201EF0DDFE0020BB
:103000001EF0DAFE00201EF0D7FE00201EF0D4FED7
:1030100000201EF0D1FE00201EF0CEFE00201EF08B
:10302000CBFE00201EF0C8FE00201EF0C5FE0020D2
:103030001EF0C2FE00201EF0BFFE00201EF0BCFEEF
:1030400000201EF0B9FE00201EF0B6FE00201EF08B
:10305000B3FE00201EF0B0FE00201EF0ADFE0020EA
:103060001EF0AAFE00201EF0A7FE00201EF0A4FE07
:1030700000201EF0A1FE00201EF09EFE00201EF08B
:103080009BFE00201EF098FE00201EF095FE002002
:103090001EF092FE00201EF08FFE00201EF08CFE1F
:1030A00000201EF089FE00201EF086FE00201EF08B
:1030B00083FE00201EF080FE00201EF07DFE00201A
:1030C0001EF07AFE00201EF077FE00201EF074FE37
:1030D00000201EF071FE00201EF06EFE00201EF08B
:1030E0006BFE00201EF068FE00201EF065FE002032
:1030F0001EF062FE00201EF05FFE00201EF05CFE4F
:1031000000201EF059FE00201EF056FE00201EF08A
:1031100053FE00201EF050FE00201EF04DFE002049
:103120001EF04AFE00201EF047FE00201EF044FE66
:1031300000201EF041FE00201EF03EFE00201EF08A
:103140003BFE00201EF038FE00201EF035FE002061
:103150001EF032FE00201EF02FFE00201EF02CFE7E
:1031600000201EF029FE00201EF026FE00201EF08A
:1031700023FE00201EF020FE00201EF01DFE002079
:103180001EF01AFE00201EF017FE00201EF014FE96
:1031900000201EF011FE00201EF00EFE00201EF08A
:1031A0000BFE00201EF008FE00201EF005FE002091
:1031B0001EF002FE00201EF0FFFD00201EF0FCFDB0
:1031C00000201EF0F9FD00201EF0F6FD00201EF08C
:1031D000F3FD00201EF0F0FD00201EF0EDFD0020AC
:1031E0001EF0EAFD00201EF0E7FD00201EF0E4FDC9
:1031F00000201EF0E1FD00201EF0DEFD00201EF08C
:10320000DBFD00201EF0D8FD00201EF0D5FD0020C3
:103210001EF0D2FD00201EF0CFFD00201EF0CCFDE0
:1032200000201EF0C9FD00201EF0C6FD00201EF08B
:10323000C3FD00201EF0C0FD00201EF0BDFD0020DB
:103240001EF0BAFD00201EF0B7FD00201EF0B4FDF8
:1032500000201EF0B1FD00201EF0AEFD00201EF08B
:10326000ABFD00201EF0A8FD00201EF0A5FD0020F3
:103270001EF0A2FD00201EF09FFD00201EF09CFD10
:1032800000201EF099FD00201EF096FD00201EF08B
:1032900093FD00201EF090FD00201EF08DFD00200B
:1032A0001EF08AFD00201EF087FD00201EF084FD28
:1032B00000201EF081FD00201EF07EFD00201EF08B
:1032C0007BFD00201EF078FD00201EF075FD002023
:1032D0001EF072FD00201EF06FFD00201EF06CFD40
:1032E00000201EF069FD00201EF066FD00201EF08B
:1032F00063FD00201EF060FD00201EF05DFD00203B
:103300001EF05AFD00201EF057FD00201EF054FD57
:1033100000201EF051FD00201EF04EFD00201EF08A
:103320004BFD00201EF048FD00201EF045FD002052
:103330001EF042FD00201EF03FFD00201EF03CFD6F
:1033400000201EF039FD00201EF036FD00201EF08A
:1033500033FD00201EF030FD00201EF02DFD00206A
:103360001EF02AFD00201EF027FD00201EF024FD87
:1033700000201EF021FD00201EF01EFD00201EF08A
:103380001BFD00201EF018FD00201EF015FD002082
:103390001EF012FD00201EF00FFD00201EF00CFD9F
:1033A00000201EF009FD00201EF006FD00201EF08A
:1033B00003FD00201EF000FD00201EF0FDFC00209B
:1033C0001EF0FAFC00201EF0F7FC00201EF0F4FCBA
:1033D00000201EF0F1FC00201EF0EEFC00201EF08C
:1033E000EBFC00201EF0E8FC00201EF0E5FC0020B5
:1033F0001EF0E2FC00201EF0DFFC00201EF0DCFCD2
:1034000000201EF0D9FC00201EF0D6FC00201EF08B
:10341000D3FC00201EF0D0FC00201EF0CDFC0020CC
:103420001EF0CAFC00201EF0C7FC00201EF0C4FCE9
:1034300000201EF0C1FC00201EF0BEFC00201EF08B
:10344000BBFC00201EF0B8FC00201EF0B5FC0020E4
:103450001EF0B2FC00201EF0AFFC00201EF0ACFC01
:1034600000201EF0A9FC00201EF0A6FC00201EF08B
:10347000A3FC00201EF0A0FC00201EF09DFC0020FC
:103480001EF09AFC00201EF097FC00201EF094FC19
:1034900000201EF091FC00201EF08EFC00201EF08B
:1034A0008BFC00201EF088FC00201EF085FC002014
:1034B0001EF082FC00201EF07FFC00201EF07CFC31
:1034C00000201EF079FC00201EF076FC00201EF08B
:1034D00073FC00201EF070FC00201EF06DFC00202C
:1034E0001EF06AFC00201EF067FC00201EF064FC49
:1034F00000201EF061FC00201EF05EFC00201EF08B
:103500005BFC00201EF058FC00201EF055FC002043
:103510001EF052FC00201EF04FFC00201EF04CFC60
:1035200000201EF049FC00201EF046FC00201EF08A
:1035300043FC00201EF040FC00201EF03DFC00205B
:103540001EF03AFC00201EF037FC00201EF034FC78
:1035500000201EF031FC00201EF02EFC00201EF08A
:103560002BFC00201EF028FC00201EF025FC002073
:103570001EF022FC00201EF01FFC00201EF01CFC90
:1035800000201EF019FC00201EF016FC00201EF08A
:1035900013FC00201EF010FC00201EF00DFC00208B
:1035A0001EF00AFC00201EF007FC00201EF004FCA8
:1035B00000201EF001FC00201EF0FEFB00201EF08B
:1035C000FBFB00201EF0F8FB00201EF0F5FB0020A6
:1035D0001EF0F2FB00201EF0EFFB00201EF0ECFBC3
:1035E00000201EF0E9FB00201EF0E6FB00201EF08C
:1035F000E3FB00201EF0E0FB00201EF0DDFB0020BE
:103600001EF0DAFB00201EF0D7FB00201EF0D4FBDA
:1036100000201EF0D1FB00201EF0CEFB00201EF08B
:10362000CBFB00201EF0C8FB00201EF0C5FB0020D5
:103630001EF0C2FB00201EF0BFFB00201EF0BCFBF2
:1036400000201EF0B9FB00201EF0B6FB00201EF08B
:10365000B3FB00201EF0B0FB00201EF0ADFB0020ED
:103660001EF0AAFB00201EF0A7FB00201EF0A4FB0A
:1036700000201EF0A1FB00201EF09EFB00201EF08B
:103680009BFB00201EF098FB00201EF095FB002005
:103690001EF092FB00201EF08FFB00201EF08CFB22
:1036A00000201EF089FB00201EF086FB00201EF08B
:1036B00083FB00201EF080FB00201EF07DFB00201D
:1036C0001EF07AFB00201EF077FB00201EF074FB3A
:1036D00000201EF071FB00201EF06EFB00201EF08B
:1036E0006BFB00201EF068FB00201EF065FB002035
:1036F0001EF062FB00201EF05FFB00201EF05CFB52
:1037000000201EF059FB00201EF056FB00201EF08A
:1037100053FB00201EF050FB00201EF04DFB00204C
:103720001EF04AFB00201EF047FB00201EF044FB69
:1037300000201EF041FB00201EF03EFB00201EF08A
:103740003BFB00201EF038FB00201EF035FB002064
:103750001EF032FB00201EF02FFB00201EF02CFB81
:1037600000201EF029FB00201EF026FB00201EF08A
:1037700023FB00201EF020FB00201EF01DFB00207C
:103780001EF01AFB00201EF017FB00201EF014FB99
:1037900000201EF011FB00201EF00EFB00201EF08A
:1037A0000BFB00201EF008FB00201EF005FB002094
:1037B0001EF002FB00201EF0FFFA00201EF0FCFAB3
:1037C00000201EF0F9FA00201EF0F6FA00201EF08C
:1037D000F3FA00201EF0F0FA00201EF0EDFA0020AF
:1037E0001EF0EAFA00201EF0E7FA00201EF0E4FACC
:1037F00000201EF0E1FA00201EF0DEFA00201EF08C
:10380000DBFA00201EF0D8FA00201EF0D5FA0020C6
:103810001EF0D2FA00201EF0CFFA00201EF0CCFAE3
:1038200000201EF0C9FA00201EF0C6FA00201EF08B
:10383000C3FA00201EF0C0FA00201EF0BDFA0020DE
:103840001EF0BAFA00201EF0B7FA00201EF0B4FAFB
:1038500000201EF0B1FA00201EF0AEFA00201EF08B
:10386000ABFA00201EF0A8FA00201EF0A5FA0020F6
:103870001EF0A2FA00201EF09FFA00201EF09CFA13
:1038800000201EF099FA00201EF096FA00201EF08B
:1038900093FA00201EF090FA00201EF08DFA00200E
:1038A0001EF08AFA00201EF087FA00201EF084FA2B
:1038B00000201EF081FA00201EF07EFA00201EF08B
:1038C0007BFA00201EF078FA00201EF075FA002026
:1038D0001EF072FA00201EF06FFA00201EF06CFA43
:1038E00000201EF069FA00201EF066FA00201EF08B
:1038F00063FA00201EF060FA00201EF05DFA00203E
:103900001EF05AFA00201EF057FA00201EF054FA5A
:1039100000201EF051FA00201EF04EFA00201EF08A
:103920004BFA00201EF048FA00201EF045FA002055
:103930001EF042FA00201EF03FFA00201EF03CFA72
:1039400000201EF039FA00201EF036FA00201EF08A
:1039500033FA00201EF030FA00201EF02DFA00206D
:103960001EF02AFA00201EF027FA00201EF024FA8A
:1039700000201EF021FA00201EF01EFA00201EF08A
:103980001BFA00201EF018FA00201EF015FA002085
:103990001EF012FA00201EF00FFA00201EF00CFAA2
:1039A00000201EF009FA00201EF006FA00201EF08A
:1039B00003FA00201EF000FA00201EF0FDF900209E
:1039C0001EF0FAF900201EF0F7F900201EF0F4F9BD
:1039D00000201EF0F1F900201EF0EEF900201EF08C
:1039E000EBF900201EF0E8F900201EF0E5F90020B8
:1039F0001EF0E2F900201EF0DFF900201EF0DCF9D5
:103A000000201EF0D9F900201EF0D6F900201EF08B
:103A1000D3F900201EF0D0F900201EF0CDF90020CF
:103A20001EF0CAF900201EF0C7F900201EF0C4F9EC
:103A300000201EF0C1F900201EF0BEF900201EF08B
:103A4000BBF900201EF0B8F900201EF0B5F90020E7
:103A50001EF0B2F900201EF0AFF900201EF0ACF904
:103A600000201EF0A9F900201EF0A6F900201EF08B
:103A7000A3F900201EF0A0F900201EF09DF90020FF
:103A80001EF09AF900201EF097F900201EF094F91C
:103A900000201EF091F900201EF08EF900201EF08B
:103AA0008BF900201EF088F900201EF085F9002017
:103AB0001EF082F900201EF07FF900201EF07CF934
:103AC00000201EF079F900201EF076F900201EF08B
:103AD00073F900201EF070F900201EF06DF900202F
:103AE0001EF06AF900201EF067F900201EF064F94C
:103AF00000201EF061F900201EF05EF900201EF08B
:103B00005BF900201EF058F900201EF055F9002046
:103B10001EF052F900201EF04FF900201EF04CF963
:103B200000201EF049F900201EF046F900201EF08A
:103B300043F900201EF040F900201EF03DF900205E
:103B40001EF03AF900201EF037F900201EF034F97B
:103B500000201EF031F900201EF02EF900201EF08A
:103B60002BF900201EF028F900201EF025F9002076
:103B70001EF022F900201EF01FF900201EF01CF993
:103B800000201EF019F900201EF016F900201EF08A
:103B900013F900201EF010F900201EF00DF900208E
:103BA0001EF00AF900201EF007F900201EF004F9AB
:103BB00000201EF001F900201EF0FEF800201EF08B
:103BC000FBF800201EF0F8F800201EF0F5F80020A9
:103BD0001EF0F2F800201EF0EFF800201EF0ECF8C6
:103BE00000201EF0E9F800201EF0E6F800201EF08C
:103BF000E3F800201EF0E0F800201EF0DDF80020C1
:103C00001EF0DAF800201EF0D7F800201EF0D4F8DD
:103C100000201EF0D1F800201EF0CEF800201EF08B
:103C2000CBF800201EF0C8F800201EF0C5F80020D8
:103C30001EF0C2F800201EF0BFF800201EF0BCF8F5
:103C400000201EF0B9F800201EF0B6F800201EF08B
:103C5000B3F800201EF0B0F800201EF0ADF80020F0
:103C60001EF0AAF800201EF0A7F800201EF0A4F80D
:103C700000201EF0A1F800201EF09EF800201EF08B
:103C80009BF800201EF098F800201EF095F8002008
:103C90001EF092F800201EF08FF800201EF08CF825
:103CA00000201EF089F800201EF086F800201EF08B
:103CB00083F800201EF080F800201EF07DF8002020
:103CC0001EF07AF800201EF077F800201EF074F83D
:103CD00000201EF071F800201EF06EF800201EF08B
:103CE0006BF800201EF068F800201EF065F8002038
:103CF0001EF062F800201EF05FF800201EF05CF855
:103D000000201EF059F800201EF056F800201EF08A
:103D100053F800201EF050F800201EF04DF800204F
:103D20001EF04AF800201EF047F800201EF044F86C
:103D300000201EF041F800201EF03EF800201EF08A
:103D40003BF800201EF038F800201EF035F8002067
:103D50001EF032F800201EF02FF800201EF02CF884
:103D600000201EF029F800201EF026F800201EF08A
:103D700023F800201EF020F800201EF01DF800207F
:103D80001EF01AF800201EF017F800201EF014F89C
:103D900000201EF011F800201EF00EF800201EF08A
:103DA0000BF800201EF008F800201EF005F8002097
:103DB0001EF002F800201DF0FFFF00201DF0FCFFA8
:103DC00000201DF0F9FF00201DF0F6FF00201DF07F
:103DD000F3FF00201DF0F0FF00201DF0EDFF00209C
:103DE0001DF0EAFF00201DF0E7FF00201DF0E4FFBA
:103DF00000201DF0E1FF00201DF0DEFF00201DF07F
:103E0000DBFF00201DF0D8FF00201DF0D5FF0020B3
:103E10001DF0D2FF00201DF0CFFF00201DF0CCFFD1
:103E200000201DF0C9FF00201DF0C6FF00201DF07E
:103E3000C3FF00201DF0C0FF00201DF0BDFF0020CB
:103E40001DF0BAFF00201DF0B7FF00201DF0B4FFE9
:103E500000201DF0B1FF00201DF0AEFF00201DF07E
:103E6000ABFF00201DF0A8FF00201DF0A5FF0020E3
:103E70001DF0A2FF00201DF09FFF00201DF09CFF01
:103E800000201DF099FF00201DF096FF00201DF07E
:103E900093FF00201DF090FF00201DF08DFF0020FB
:103EA0001DF08AFF00201DF087FF00201DF084FF19
:103EB00000201DF081FF00201DF07EFF00201DF07E
:103EC0007BFF00201DF078FF00201DF075FF002013
:103ED0001DF072FF00201DF06FFF00201DF06CFF31
:103EE00000201DF069FF00201DF066FF00201DF07E
:103EF00063FF00201DF060FF00201DF05DFF00202B
:103F00001DF05AFF00201DF057FF00201DF054FF48
:103F100000201DF051FF00201DF04EFF00201DF07D
:103F20004BFF00201DF048FF00201DF045FF002042
:103F30001DF042FF00201DF03FFF00201DF03CFF60
:103F400000201DF039FF00201DF036FF00201DF07D
:103F500033FF00201DF030FF00201DF02DFF00205A
:103F60001DF02AFF00201DF027FF00201DF024FF78
:103F700000201DF021FF00201DF01EFF00201DF07D
:103F80001BFF00201DF018FF00201DF015FF002072
:103F90001DF012FF00201DF00FFF00201DF00CFF90
:103FA00000201DF009FF00201DF006FF00201DF07D
:103FB00003FF00201DF000FF00201DF0FDFE00208B
:103FC0001DF0FAFE00201DF0F7FE00201DF0F4FEAB
:103FD00000201DF0F1FE00201DF0EEFE00201DF07F
:103FE000EBFE00201DF0E8FE00201DF0E5FE0020A5
:103FF0001DF0E2FE00201DF0DFFE00201DF0DCFEC3
:1040000000201DF0D9FE00201DF0D6FE00201DF07E
:10401000D3FE00201DF0D0FE00201DF0CDFE0020BC
:104020001DF0CAFE00201DF0C7FE00201DF0C4FEDA
:1040300000201DF0C1FE00201DF0BEFE00201DF07E
:10404000BBFE00201DF0B8FE00201DF0B5FE0020D4
:104050001DF0B2FE00201DF0AFFE00201DF0ACFEF2
:1040600000201DF0A9FE00201DF0A6FE00201DF07E
:10407000A3FE00201DF0A0FE00201DF09DFE0020EC
:104080001DF09AFE00201DF097FE00201DF094FE0A
:1040900000201DF091FE00201DF08EFE00201DF07E
:1040A0008BFE00201DF088FE00201DF085FE002004
:1040B0001DF082FE00201DF07FFE00201DF07CFE22
:1040C00000201DF079FE00201DF076FE00201DF07E
:1040D00073FE00201DF070FE00201DF06DFE00201C
:1040E0001DF06AFE00201DF067FE00201DF064FE3A
:1040F00000201DF061FE00201DF05EFE00201DF07E
:104100005BFE00201DF058FE00201DF055FE002033
:104110001DF052FE00201DF04FFE00201DF04CFE51
:1041200000201DF049FE00201DF046FE00201DF07D
:1041300043FE00201DF040FE00201DF03DFE00204B
:104140001DF03AFE00201DF037FE00201DF034FE69
:1041500000201DF031FE00201DF02EFE00201DF07D
:104160002BFE00201DF028FE00201DF025FE002063
:104170001DF022FE00201DF01FFE00201DF01CFE81
:1041800000201DF019FE00201DF016FE00201DF07D
:1041900013FE00201DF010FE00201DF00DFE00207B
:1041A0001DF00AFE00201DF007FE00201DF004FE99
:1041B00000201DF001FE00201DF0FEFD00201DF07E
:1041C000FBFD00201DF0F8FD00201DF0F5FD002096
:1041D0001DF0F2FD00201DF0EFFD00201DF0ECFDB4
:1041E00000201DF0E9FD00201DF0E6FD00201DF07F
:1041F000E3FD00201DF0E0FD00201DF0DDFD0020AE
:104200001DF0DAFD00201DF0D7FD00201DF0D4FDCB
:1042100000201DF0D1FD00201DF0CEFD00201DF07E
:10422000CBFD00201DF0C8FD00201DF0C5FD0020C5
:104230001DF0C2FD00201DF0BFFD00201DF0BCFDE3
:1042400000201DF0B9FD00201DF0B6FD00201DF07E
:10425000B3FD00201DF0B0FD00201DF0ADFD0020DD
:104260001DF0AAFD00201DF0A7FD00201DF0A4FDFB
:1042700000201DF0A1FD00201DF09EFD00201DF07E
:104280009BFD00201DF098FD00201DF095FD0020F5
:104290001DF092FD00201DF08FFD00201DF08CFD13
:1042A00000201DF089FD00201DF086FD00201DF07E
:1042B00083FD00201DF080FD00201DF07DFD00200D
:1042C0001DF07AFD00201DF077FD00201DF074FD2B
:1042D00000201DF071FD00201DF06EFD00201DF07E
:1042E0006BFD00201DF068FD00201DF065FD002025
:1042F0001DF062FD00201DF05FFD00201DF05CFD43
:1043000000201DF059FD00201DF056FD00201DF07D
:1043100053FD00201DF050FD00201DF04DFD00203C
:104320001DF04AFD00201DF047FD00201DF044FD5A
:1043300000201DF041FD00201DF03EFD00201DF07D
:104340003BFD00201DF038FD00201DF035FD002054
:104350001DF032FD00201DF02FFD00201DF02CFD72
:1043600000201DF029FD00201DF026FD00201DF07D
:1043700023FD00201DF020FD00201DF01DFD00206C
:104380001DF01AFD00201DF017FD00201DF014FD8A
:1043900000201DF011FD00201DF00EFD00201DF07D
:1043A0000BFD00201DF008FD00201DF005FD002084
:1043B0001DF002FD00201DF0FFFC00201DF0FCFCA4
:1043C00000201DF0F9FC00201DF0F6FC00201DF07F
:1043D000F3FC00201DF0F0FC00201DF0EDFC00209F
:1043E0001DF0EAFC00201DF0E7FC00201DF0E4FCBD
:1043F00000201DF0E1FC00201DF0DEFC00201DF07F
:10440000DBFC00201DF0D8FC00201DF0D5FC0020B6
:104410001DF0D2FC00201DF0CFFC00201DF0CCFCD4
:1044200000201DF0C9FC00201DF0C6FC00201DF07E
:10443000C3FC00201DF0C0FC00201DF0BDFC0020CE
:104440001DF0BAFC00201DF0B7FC00201DF0B4FCEC
:1044500000201DF0B1FC00201DF0AEFC00201DF07E
:10446000ABFC00201DF0A8FC00201DF0A5FC0020E6
:104470001DF0A2FC00201DF09FFC00201DF09CFC04
:1044800000201DF099FC00201DF096FC00201DF07E
:1044900093FC00201DF090FC00201DF08DFC0020FE
:1044A0001DF08AFC00201DF087FC00201DF084FC1C
:1044B00000201DF081FC00201DF07EFC00201DF07E
:1044C0007BFC00201DF078FC00201DF075FC002016
:1044D0001DF072FC00201DF06FFC00201DF06CFC34
:1044E00000201DF069FC00201DF066FC00201DF07E
:1044F00063FC00201DF060FC00201DF05DFC00202E
:104500001DF05AFC00201DF057FC00201DF054FC4B
:1045100000201DF051FC00201DF04EFC00201DF07D
:104520004BFC00201DF048FC00201DF045FC002045
:104530001DF042FC00201DF03FFC00201DF03CFC63
:1045400000201DF039FC00201DF036FC00201DF07D
:1045500033FC00201DF030FC00201DF02DFC00205D
:104560001DF02AFC00201DF027FC00201DF024FC7B
:1045700000201DF021FC00201DF01EFC00201DF07D
:104580001BFC00201DF018FC00201DF015FC002075
:104590001DF012FC00201DF00FFC00201DF00CFC93
:1045A00000201DF009FC00201DF006FC00201DF07D
:1045B00003FC00201DF000FC00201DF0FDFB00208E
:1045C0001DF0FAFB00201DF0F7FB00201DF0F4FBAE
:1045D00000201DF0F1FB00201DF0EEFB00201DF07F
:1045E000EBFB00201DF0E8FB00201DF0E5FB0020A8
:1045F0001DF0E2FB00201DF0DFFB00201DF0DCFBC6
:1046000000201DF0D9FB00201DF0D6FB00201DF07E
:10461000D3FB00201DF0D0FB00201DF0CDFB0020BF
:104620001DF0CAFB00201DF0C7FB00201DF0C4FBDD
:1046300000201DF0C1FB00201DF0BEFB00201DF07E
:10464000BBFB00201DF0B8FB00201DF0B5FB0020D7
:104650001DF0B2FB00201DF0AFFB00201DF0ACFBF5
:1046600000201DF0A9FB00201DF0A6FB00201DF07E
:10467000A3FB00201DF0A0FB00201DF09DFB0020EF
:104680001DF09AFB00201DF097FB00201DF094FB0D
:1046900000201DF091FB00201DF08EFB00201DF07E
:1046A0008BFB00201DF088FB00201DF085FB002007
:1046B0001DF082FB00201DF07FFB00201DF07CFB25
:1046C00000201DF079FB00201DF076FB00201DF07E
:1046D00073FB00201DF070FB00201DF06DFB00201F
:1046E0001DF06AFB00201DF067FB00201DF064FB3D
:1046F00000201DF061FB00201DF05EFB00201DF07E
:104700005BFB00201DF058FB00201DF055FB002036
:104710001DF052FB00201DF04FFB00201DF04CFB54
:1047200000201DF049FB00201DF046FB00201DF07D
:1047300043FB00201DF040FB00201DF03DFB00204E
:104740001DF03AFB00201DF037FB00201DF034FB6C
:1047500000201DF031FB00201DF02EFB00201DF07D
:104760002BFB00201DF028FB00201DF025FB002066
:104770001DF022FB00201DF01FFB00201DF01CFB84
:1047800000201DF019FB00201DF016FB00201DF07D
:1047900013FB00201DF010FB00201DF00DFB00207E
:1047A0001DF00AFB00201DF007FB00201DF004FB9C
:1047B00000201DF001FB00201DF0FEFA00201DF07E
:1047C000FBFA00201DF0F8FA00201DF0F5FA002099
:1047D0001DF0F2FA00201DF0EFFA00201DF0ECFAB7
:1047E00000201DF0E9FA00201DF0E6FA00201DF07F
:1047F000E3FA00201DF0E0FA00201DF0DDFA0020B1
:104800001DF0DAFA00201DF0D7FA00201DF0D4FACE
:1048100000201DF0D1FA00201DF0CEFA00201DF07E
:10482000CBFA00201DF0C8FA00201DF0C5FA0020C8
:104830001DF0C2FA00201DF0BFFA00201DF0BCFAE6
:1048400000201DF0B9FA00201DF0B6FA00201DF07E
:10485000B3FA00201DF0B0FA00201DF0ADFA0020E0
:104860001DF0AAFA00201DF0A7FA00201DF0A4FAFE
:1048700000201DF0A1FA00201DF09EFA00201DF07E
:104880009BFA00201DF098FA00201DF095FA0020F8
:104890001DF092FA00201DF08FFA00201DF08CFA16
:1048A00000201DF089FA00201DF086FA00201DF07E
:1048B00083FA00201DF080FA00201DF07DFA002010
:1048C0001DF07AFA00201DF077FA00201DF074FA2E
:1048D00000201DF071FA00201DF06EFA00201DF07E
:1048E0006BFA00201DF068FA00201DF065FA002028
:1048F0001DF062FA00201DF05FFA00201DF05CFA46
:1049000000201DF059FA00201DF056FA00201DF07D
:1049100053FA00201DF050FA00201DF04DFA00203F
:104920001DF04AFA00201DF047FA00201DF044FA5D
:1049300000201DF041FA00201DF03EFA00201DF07D
:104940003BFA00201DF038FA00201DF035FA002057
:104950001DF032FA00201DF02FFA00201DF02CFA75
:1049600000201DF029FA00201DF026FA00201DF07D
:1049700023FA00201DF020FA00201DF01DFA00206F
:104980001DF01AFA00201DF017FA00201DF014FA8D
:1049900000201DF011FA00201DF00EFA00201DF07D
:1049A0000BFA00201DF008FA00201DF005FA002087
:1049B0001DF002FA00201DF0FFF900201DF0FCF9A7
:1049C00000201DF0F9F900201DF0F6F900201DF07F
:1049D000F3F900201DF0F0F900201DF0EDF90020A2
:1049E0001DF0EAF900201DF0E7F900201DF0E4F9C0
:1049F00000201DF0E1F900201DF0DEF900201DF07F
:104A0000DBF900201DF0D8F900201DF0D5F90020B9
:104A10001DF0D2F900201DF0CFF900201DF0CCF9D7
:104A200000201DF0C9F900201DF0C6F900201DF07E
:104A3000C3F900201DF0C0F900201DF0BDF90020D1
:104A40001DF0BAF900201DF0B7F900201DF0B4F9EF
:104A500000201DF0B1F900201DF0AEF900201DF07E
:104A6000ABF900201DF0A8F900201DF0A5F90020E9
:104A70001DF0A2F900201DF09FF900201DF09CF907
:104A800000201DF099F900201DF096F900201DF07E
:104A900093F900201DF090F900201DF08DF9002001
:104AA0001DF08AF900201DF087F900201DF084F91F
:104AB00000201DF081F900201DF07EF900201DF07E
:104AC0007BF900201DF078F900201DF075F9002019
:104AD0001DF072F900201DF06FF900201DF06CF937
:104AE00000201DF069F900201DF066F900201DF07E
:104AF00063F900201DF060F900201DF05DF9002031
:104B00001DF05AF900201DF057F900201DF054F94E
:104B100000201DF051F900201DF04EF900201DF07D
:104B20004BF900201DF048F900201DF045F9002048
:104B30001DF042F900201DF03FF900201DF03CF966
:104B400000201DF039F900201DF036F900201DF07D
:104B500033F900201DF030F900201DF02DF9002060
:104B60001DF02AF900201DF027F900201DF024F97E
:104B700000201DF021F900201DF01EF900201DF07D
:104B80001BF900201DF018F900201DF015F9002078
:104B90001DF012F900201DF00FF900201DF00CF996
:104BA00000201DF009F900201DF006F900201DF07D
:104BB00003F900201DF000F900201DF0FDF8002091
:104BC0001DF0FAF800201DF0F7F800201DF0F4F8B1
:104BD00000201DF0F1F800201DF0EEF800201DF07F
:104BE000EBF800201DF0E8F800201DF0E5F80020AB
:104BF0001DF0E2F800201DF0DFF800201DF0DCF8C9
:104C000000201DF0D9F800201DF0D6F800201DF07E
:104C1000D3F800201DF0D0F800201DF0CDF80020C2
:104C20001DF0CAF800201DF0C7F800201DF0C4F8E0
:104C300000201DF0C1F800201DF0BEF800201DF07E
:104C4000BBF800201DF0B8F800201DF0B5F80020DA
:104C50001DF0B2F800201DF0AFF800201DF0ACF8F8
:104C600000201DF0A9F800201DF0A6F800201DF07E
:104C7000A3F800201DF0A0F800201DF09DF80020F2
:104C80001DF09AF800201DF097F800201DF094F810
:104C900000201DF091F800201DF08EF800201DF07E
:104CA0008BF800201DF088F800201DF085F800200A
:104CB0001DF082F800201DF07FF800201DF07CF828
:104CC00000201DF079F800201DF076F800201DF07E
:104CD00073F800201DF070F800201DF06DF8002022
:104CE0001DF06AF800201DF067F800201DF064F840
:104CF00000201DF061F800201DF05EF800201DF07E
:104D00005BF800201DF058F800201DF055F8002039
:104D10001DF052F800201DF04FF800201DF04CF857
:104D200000201DF049F800201DF046F800201DF07D
:104D300043F800201DF040F800201DF03DF8002051
:104D40001DF03AF800201DF037F800201DF034F86F
:104D500000201DF031F800201DF02EF800201DF07D
:104D60002BF800201DF028F800201DF025F8002069
:104D70001DF022F800201DF01FF800201DF01CF887
:104D800000201DF019F800201DF016F800201DF07D
:104D900013F800201DF010F800201DF00DF8002081
:104DA0001DF00AF800201DF007F800201DF004F89F
:104DB00000201DF001F800201CF0FEFF00201CF078
:104DC000FBFF00201CF0F8FF00201CF0F5FF002086
:104DD0001CF0F2FF00201CF0EFFF00201CF0ECFFA5
:104DE00000201CF0E9FF00201CF0E6FF00201CF072
:104DF000E3FF00201CF0E0FF00201CF0DDFF00209E
:104E00001CF0DAFF00201CF0D7FF00201CF0D4FFBC
:104E100000201CF0D1FF00201CF0CEFF00201CF071
:104E2000CBFF00201CF0C8FF00201CF0C5FF0020B5
:104E30001CF0C2FF00201CF0BFFF00201CF0BCFFD4
:104E400000201CF0B9FF00201CF0B6FF00201CF071
:104E5000B3FF00201CF0B0FF00201CF0ADFF0020CD
:104E60001CF0AAFF00201CF0A7FF00201CF0A4FFEC
:104E700000201CF0A1FF00201CF09EFF00201CF071
:104E80009BFF00201CF098FF00201CF095FF0020E5
:104E90001CF092FF00201CF08FFF00201CF08CFF04
:104EA00000201CF089FF00201CF086FF00201CF071
:104EB00083FF00201CF080FF00201CF07DFF0020FD
:104EC0001CF07AFF00201CF077FF00201CF074FF1C
:104ED00000201CF071FF00201CF06EFF00201CF071
:104EE0006BFF00201CF068FF00201CF065FF002015
:104EF0001CF062FF00201CF05FFF00201CF05CFF34
:104F000000201CF059FF00201CF056FF00201CF070
:104F100053FF00201CF050FF00201CF04DFF00202C
:104F20001CF04AFF00201CF047FF00201CF044FF4B
:104F300000201CF041FF00201CF03EFF00201CF070
:104F40003BFF00201CF038FF00201CF035FF002044
:104F50001CF032FF00201CF02FFF00201CF02CFF63
:104F600000201CF029FF00201CF026FF00201CF070
:104F700023FF00201CF020FF00201CF01DFF00205C
:104F80001CF01AFF00201CF017FF00201CF014FF7B
:104F900000201CF011FF00201CF00EFF00201CF070
:104FA0000BFF00201CF008FF00201CF005FF002074
:104FB0001CF002FF00201CF0FFFE00201CF0FCFE95
:104FC00000201CF0F9FE00201CF0F6FE00201CF072
:104FD000F3FE00201CF0F0FE00201CF0EDFE00208F
:104FE0001CF0EAFE00201CF0E7FE00201CF0E4FEAE
:104FF00000201CF0E1FE00201CF0DEFE00201CF072
:10500000DBFE00201CF0D8FE00201CF0D5FE0020A6
:105010001CF0D2FE00201CF0CFFE00201CF0CCFEC5
:1050200000201CF0C9FE00201CF0C6FE00201CF071
:10503000C3FE00201CF0C0FE00201CF0BDFE0020BE
:105040001CF0BAFE00201CF0B7FE00201CF0B4FEDD
:1050500000201CF0B1FE00201CF0AEFE00201CF071
:10506000ABFE00201CF0A8FE00201CF0A5FE0020D6
:105070001CF0A2FE00201CF09FFE00201CF09CFEF5
:1050800000201CF099FE00201CF096FE00201CF071
:1050900093FE00201CF090FE00201CF08DFE0020EE
:1050A0001CF08AFE00201CF087FE00201CF084FE0D
:1050B00000201CF081FE00201CF07EFE00201CF071
:1050C0007BFE00201CF078FE00201CF075FE002006
:1050D0001CF072FE00201CF06FFE00201CF06CFE25
:1050E00000201CF069FE00201CF066FE00201CF071
:1050F00063FE00201CF060FE00201CF05DFE00201E
:105100001CF05AFE00201CF057FE00201CF054FE3C
:1051100000201CF051FE00201CF04EFE00201CF070
:105120004BFE00201CF048FE00201CF045FE002035
:105130001CF042FE00201CF03FFE00201CF03CFE54
:1051400000201CF039FE00201CF036FE00201CF070
:1051500033FE00201CF030FE00201CF02DFE00204D
:105160001CF02AFE00201CF027FE00201CF024FE6C
:1051700000201CF021FE00201CF01EFE00201CF070
:105180001BFE00201CF018FE00201CF015FE002065
:105190001CF012FE00201CF00FFE00201CF00CFE84
:1051A00000201CF009FE00201CF006FE00201CF070
:1051B00003FE00201CF000FE00201CF0FDFD00207E
:1051C0001CF0FAFD00201CF0F7FD00201CF0F4FD9F
:1051D00000201CF0F1FD00201CF0EEFD00201CF072
:1051E000EBFD00201CF0E8FD00201CF0E5FD002098
:1051F0001CF0E2FD00201CF0DFFD00201CF0DCFDB7
:1052000000201CF0D9FD00201CF0D6FD00201CF071
:10521000D3FD00201CF0D0FD00201CF0CDFD0020AF
:105220001CF0CAFD00201CF0C7FD00201CF0C4FDCE
:1052300000201CF0C1FD00201CF0BEFD00201CF071
:10524000BBFD00201CF0B8FD00201CF0B5FD0020C7
:105250001CF0B2FD00201CF0AFFD00201CF0ACFDE6
:1052600000201CF0A9FD00201CF0A6FD00201CF071
:10527000A3FD00201CF0A0FD00201CF09DFD0020DF
:105280001CF09AFD00201CF097FD00201CF094FDFE
:1052900000201CF091FD00201CF08EFD00201CF071
:1052A0008BFD00201CF088FD00201CF085FD0020F7
:1052B0001CF082FD00201CF07FFD00201CF07CFD16
:1052C00000201CF079FD00201CF076FD00201CF071
:1052D00073FD00201CF070FD00201CF06DFD00200F
:1052E0001CF06AFD00201CF067FD00201CF064FD2E
:1052F00000201CF061FD00201CF05EFD00201CF071
:105300005BFD00201CF058FD00201CF055FD002026
:105310001CF052FD00201CF04FFD00201CF04CFD45
:1053200000201CF049FD00201CF046FD00201CF070
:1053300043FD00201CF040FD00201CF03DFD00203E
:105340001CF03AFD00201CF037FD00201CF034FD5D
:1053500000201CF031FD00201CF02EFD00201CF070
:105360002BFD00201CF028FD00201CF025FD002056
:105370001CF022FD00201CF01FFD00201CF01CFD75
:1053800000201CF019FD00201CF016FD00201CF070
:1053900013FD00201CF010FD00201CF00DFD00206E
:1053A0001CF00AFD00201CF007FD00201CF004FD8D
:1053B00000201CF001FD00201CF0FEFC00201CF071
:1053C000FBFC00201CF0F8FC00201CF0F5FC002089
:1053D0001CF0F2FC00201CF0EFFC00201CF0ECFCA8
:1053E00000201CF0E9FC00201CF0E6FC00201CF072
:1053F000E3FC00201CF0E0FC00201CF0DDFC0020A1
:105400001CF0DAFC00201CF0D7FC00201CF0D4FCBF
:1054100000201CF0D1FC00201CF0CEFC00201CF071
:10542000CBFC00201CF0C8FC00201CF0C5FC0020B8
:105430001CF0C2FC00201CF0BFFC00201CF0BCFCD7
:1054400000201CF0B9FC00201CF0B6FC00201CF071
:10545000B3FC00201CF0B0FC00201CF0ADFC0020D0
:105460001CF0AAFC00201CF0A7FC00201CF0A4FCEF
:1054700000201CF0A1FC00201CF09EFC00201CF071
:105480009BFC00201CF098FC00201CF095FC0020E8
:105490001CF092FC00201CF08FFC00201CF08CFC07
:1054A00000201CF089FC00201CF086FC00201CF071
:1054B00083FC00201CF080FC00201CF07DFC002000
:1054C0001CF07AFC00201CF077FC00201CF074FC1F
:1054D00000201CF071FC00201CF06EFC00201CF071
:1054E0006BFC00201CF068FC00201CF065FC002018
:1054F0001CF062FC00201CF05FFC00201CF05CFC37
:1055000000201CF059FC00201CF056FC00201CF070
:1055100053FC00201CF050FC00201CF04DFC00202F
:105520001CF04AFC00201CF047FC00201CF044FC4E
:1055300000201CF041FC00201CF03EFC00201CF070
:105540003BFC00201CF038FC00201CF035FC002047
:105550001CF032FC00201CF02FFC00201CF02CFC66
:1055600000201CF029FC00201CF026FC00201CF070
:1055700023FC00201CF020FC00201CF01DFC00205F
:105580001CF01AFC00201CF017FC00201CF014FC7E
:1055900000201CF011FC00201CF00EFC00201CF070
:1055A0000BFC00201CF008FC00201CF005FC002077
:1055B0001CF002FC00201CF0FFFB00201CF0FCFB98
:1055C00000201CF0F9FB00201CF0F6FB00201CF072
:1055D000F3FB00201CF0F0FB00201CF0EDFB002092
:1055E0001CF0EAFB00201CF0E7FB00201CF0E4FBB1
:1055F00000201CF0E1FB00201CF0DEFB00201CF072
:10560000DBFB00201CF0D8FB00201CF0D5FB0020A9
:105610001CF0D2FB00201CF0CFFB00201CF0CCFBC8
:1056200000201CF0C9FB00201CF0C6FB00201CF071
:10563000C3FB00201CF0C0FB00201CF0BDFB0020C1
:105640001CF0BAFB00201CF0B7FB00201CF0B4FBE0
:1056500000201CF0B1FB00201CF0AEFB00201CF071
:10566000ABFB00201CF0A8FB00201CF0A5FB0020D9
:105670001CF0A2FB00201CF09FFB00201CF09CFBF8
:1056800000201CF099FB00201CF096FB00201CF071
:1056900093FB00201CF090FB00201CF08DFB0020F1
:1056A0001CF08AFB00201CF087FB00201CF084FB10
:1056B00000201CF081FB00201CF07EFB00201CF071
:1056C0007BFB00201CF078FB00201CF075FB002009
:1056D0001CF072FB00201CF06FFB00201CF06CFB28
:1056E00000201CF069FB00201CF066FB00201CF071
:1056F00063FB00201CF060FB00201CF05DFB002021
:105700001CF05AFB00201CF057FB00201CF054FB3F
:1057100000201CF051FB00201CF04EFB00201CF070
:105720004BFB00201CF048FB00201CF045FB002038
:105730001CF042FB00201CF03FFB00201CF03CFB57
:1057400000201CF039FB00201CF036FB00201CF070
:1057500033FB00201CF030FB00201CF02DFB002050
:105760001CF02AFB00201CF027FB00201CF024FB6F
:1057700000201CF021FB00201CF01EFB00201CF070
:105780001BFB00201CF018FB00201CF015FB002068
:105790001CF012FB00201CF00FFB00201CF00CFB87
:1057A00000201CF009FB00201CF006FB00201CF070
:1057B00003FB00201CF000FB00201CF0FDFA002081
:1057C0001CF0FAFA00201CF0F7FA00201CF0F4FAA2
:1057D00000201CF0F1FA00201CF0EEFA00201CF072
:1057E000EBFA00201CF0E8FA00201CF0E5FA00209B
:1057F0001CF0E2FA00201CF0DFFA00201CF0DCFABA
:1058000000201CF0D9FA00201CF0D6FA00201CF071
:10581000D3FA00201CF0D0FA00201CF0CDFA0020B2
:105820001CF0CAFA00201CF0C7FA00201CF0C4FAD1
:1058300000201CF0C1FA00201CF0BEFA00201CF071
:10584000BBFA00201CF0B8FA00201CF0B5FA0020CA
:105850001CF0B2FA00201CF0AFFA00201CF0ACFAE9
:1058600000201CF0A9FA00201CF0A6FA00201CF071
:10587000A3FA00201CF0A0FA00201CF09DFA0020E2
:105880001CF09AFA00201CF097FA00201CF094FA01
:1058900000201CF091FA00201CF08EFA00201CF071
:1058A0008BFA00201CF088FA00201CF085FA0020FA
:1058B0001CF082FA00201CF07FFA00201CF07CFA19
:1058C00000201CF079FA00201CF076FA00201CF071
:1058D00073FA00201CF070FA00201CF06DFA002012
:1058E0001CF06AFA00201CF067FA00201CF064FA31
:1058F00000201CF061FA00201CF05EFA00201CF071
:105900005BFA00201CF058FA00201CF055FA002029
:105910001CF052FA00201CF04FFA00201CF04CFA48
:1059200000201CF049FA00201CF046FA00201CF070
:1059300043FA00201CF040FA00201CF03DFA002041
:105940001CF03AFA00201CF037FA00201CF034FA60
:1059500000201CF031FA00201CF02EFA00201CF070
:105960002BFA00201CF028FA00201CF025FA002059
:105970001CF022FA00201CF01FFA00201CF01CFA78
:1059800000201CF019FA00201CF016FA00201CF070
:1059900013FA00201CF010FA00201CF00DFA002071
:1059A0001CF00AFA00201CF007FA00201CF004FA90
:1059B00000201CF001FA00201CF0FEF900201CF071
:1059C000FBF900201CF0F8F900201CF0F5F900208C
:1059D0001CF0F2F900201CF0EFF900201CF0ECF9AB
:1059E00000201CF0E9F900201CF0E6F900201CF072
:1059F000E3F900201CF0E0F900201CF0DDF90020A4
:105A00001CF0DAF900201CF0D7F900201CF0D4F9C2
:105A100000201CF0D1F900201CF0CEF900201CF071
:105A2000CBF900201CF0C8F900201CF0C5F90020BB
:105A30001CF0C2F900201CF0BFF900201CF0BCF9DA
:105A400000201CF0B9F900201CF0B6F900201CF071
:105A5000B3F900201CF0B0F900201CF0ADF90020D3
:105A60001CF0AAF900201CF0A7F900201CF0A4F9F2
:105A700000201CF0A1F900201CF09EF900201CF071
:105A80009BF900201CF098F900201CF095F90020EB
:105A90001CF092F900201CF08FF900201CF08CF90A
:105AA00000201CF089F900201CF086F900201CF071
:105AB00083F900201CF080F900201CF07DF9002003
:105AC0001CF07AF900201CF077F900201CF074F922
:105AD00000201CF071F900201CF06EF900201CF071
