:020000041000EA
:1000000000B5324B212058609868022188439860DF
:10001000D860186158612E4B002199600221596106
:100020000121F02299502B49196001219960352056
:1000300000F044F80222904214D00621196600F024
:1000400034F8196E01211966002018661A6600F04E
:100050002CF8196E196E196E052000F02FF8012189
:100060000842F9D1002199601B49196000215960AB
:100070001A491B48016001219960EB211966A021F2
:10008000196600F012F800219960164914480160C1
:100090000121996001BC002800D000471248134993
:1000A000086003C880F30888084703B5996A0420EC
:1000B0000142FBD001200142F8D103BD02B5186610
:1000C0001866FFF7F2FF186E186E02BD00000240BE
:1000D000000000180000070000035F00212200005C
:1000E000F4000018222000A00001001008ED00E03C
:1000F00000000000000000000000000074B24E7A12
:1001000000200420F7010010C3010010C5010010F9
:10011000C1010010C1010010C1010010C101001097
:10012000C1010010C1010010C1010010C701001081
:10013000C1010010C1010010C9010010CB01001065
:10014000CD010010CD010010CD010010CD01001037
:10015000CD010010CD010010CD010010CD01001027
:10016000CD010010CD010010CD010010CD01001017
:10017000CD010010CD010010CD010010CD01001007
:10018000CD010010CD010010CD010010CD010010F7
:10019000CD010010CD010010CD010010CD010010E7
:1001A000CD010010CD010010CD010010CD010010D7
:1001B000CD010010CD010010CD010010CD010010C7
:1001C00000BE00BE00BE00BE00BE00BE00F04BF888
:1001D000103800BEF2EB88714CC3021078C30210D5
:1001E0003402001090A31AE700202149086006C8D5
:1001F00081F3088810471F48006800282FD10DA4FC
:100200000ECC002902D000F012F8F9E71A491B4A77
:10021000002000E001C19142FCD1194988471949E9
:1002200088471949884700BEFDE701C901C29A42C3
:10023000FBD3704778C30210C000002028120020B2
:10024000E0D402100000042000000420E0D40210DA
:1002500000100420001004200000000070470B482C
:100260001FF050FB0047EFF30580C0B2704700005D
:1002700008ED00E0000000D028120020F826002041
:10028000E5E1011051C50110A1E101105756000030
:1002900006005250ABB3605398AA021006005250A9
:1002A000861C0302A8AA0210060052505422A29DE6
:1002B000B0AA021005005250DE65F468E0D40210C6
:1002C000F8B5C04610B5064C2378002B07D1054B76
:1002D000002B02D0044800E000BF0123237010BDB2
:1002E000001800200000000088970210044B10B591
:1002F000002B03D00349044800E000BF10BDC046F6
:1003000000000000041800208897021010B5024871
:1003100027F090F810BDC04650080020012070471B
:1003200010B50400FFF7FAFFA04205D3A620800015
:100330006043024BC01810BD0020FCE7B805002048
:100340000120704710B50400FFF7E8FFA04204D376
:10035000342044430248001910BD0020FCE7C04689
:100360005008002030B583B00C0000232DE06B4610
:10037000DA1D1570002106E083699B06FCD4137812
:100380000360013101320029F6D018E06B46DA1D16
:100390000D231370002106E083699B06FCD41378BB
:1003A0000360013101320029F6D01CE083699B060D
:1003B000FCD413780360013101320029F6D0237890
:1003C0000D3B5A425341DBB201342578002D0FD04A
:1003D000002BCCD1074BC3185A4253415B00064A4D
:1003E0009B5EAB42D2D06B46DA1D15700021E4E76C
:1003F00003B030BD0080FCBFB026002010B51DF05A
:1004000033FA10BD30B583B00223022B08DD244A35
:100410001368013313600A20FFF7F0FF002418E08F
:10042000022B01D00133F0E71E4AD054FAE76B46A5
:10043000DA1D0D2313700021002913D11A4B9B697B
:100440009B06FBD41078184B186001310132F3E79A
:100450000134022C16DC134B1D5D144B00229B5EF5
:10046000AB42E4D06B46DA1D157000210029EFD1B4
:100470000D4B9B699B06FBD410780B4B1860013128
:100480000132F3E70A20FFF7B9FF022303E0054A30
:100490000021D1540133032BF9DD03B030BDC04638
:1004A00008240020C808002000400340B026002097
:1004B00030B583B0022302E0264AD1540133062B23
:1004C00007DC022BF8D0C218033A1478214AD4541E
:1004D000F4E7214A1368013313600A20FFF78EFF07
:1004E000002411E06B46DA1D0D2313700021002952
:1004F00013D11A4B9B699B06FBD41078174B1860DD
:1005000001310132F3E70134062C16DC114B1D5D7D
:10051000134B00229B5EAB42E4D06B46DA1D157094
:1005200000210029EFD10D4B9B699B06FBD410786D
:100530000A4B186001310132F3E70A20FFF75EFF32
:10054000022303E0034A0021D1540133062BF9DDD5
:1005500003B030BDC80800205C24002000400340E8
:10056000B026002070B51C201CF036F8D0242406DC
:1005700080235B056362636119201CF02DF88025E0
:10058000AD04656265616420FFF738FFA5616420F2
:10059000FFF734FF9626B601310053481DF0A2FD47
:1005A000310052481DF09EFD022100201BF0E2FFA9
:1005B000022101201BF0DEFF022104201BF0DAFFE4
:1005C000022105201BF0D6FF0E201CF005F811209B
:1005D0001CF002F88022D201626280239B026362D7
:1005E0006261636119201BF0F7FF65620B201BF04D
:1005F000F3FF80231B0163621A201BF0EDFF8023B1
:10060000DB0463620A201BF0E7FF8023DB006362E8
:100610001B201BF0E1FF80231B05636200220121E8
:100620001B201BF0BFFF06201BF0D6FF4025656294
:100630000022012106201BF0B5FF6561C8201DF0D6
:1006400013F9A561C8201DF00FF96561C8201DF0E0
:100650000BF9A561C8201DF007F96561C8201DF0E0
:1006600003F9A561C8201DF0FFF86561C8201DF0E1
:10067000FBF8A561C8201DF0F7F86561C8201DF0E2
:10068000F3F8A5611A4B01221A6016201BF0A4FF93
:100690008023DB0363620F201BF09EFF80231B027D
:1006A000636212201BF098FF8023DB02A36200220A
:1006B000012112201BF076FF14201BF08DFF8023F8
:1006C0005B03A3620122002114201BF06BFF1520A5
:1006D0001BF082FF80239B03A362012200211520CF
:1006E0001BF060FF70BDC046004003400080034027
:1006F000142400200023244A1360244A1360244A4F
:100700001360244A1360244A1360244A1360244A65
:100710001360244A1360244A1360244A1360244A55
:100720002321117049205070053890701530D07019
:10073000137153719371D371137253729372D37295
:10074000137353739373D373137453749374D37475
:10075000137553759375D375137653769376D37655
:10076000137753779377D377393813540130135471
:100770000130135453540131535401315354013156
:100780005354013153547047E81F0020D4260020F1
:100790000824002040190020381900203C190020AE
:1007A0003419002044190020641F0020681F002015
:1007B000101F0020094B00221A705A709A70DA70CC
:1007C0001A715A719A71DA711A725A729A72DA72CD
:1007D0001A735A739A73DA737047C046F81E002072
:1007E000012800D07047344B1B78702B2BD06E2B18
:1007F000F8D1D0231B065B689B0204D5D0231B06CF
:100800005B68DB024ED4D0231B065B689B0204D4DA
:10081000D0231B065B68DB024BD4D0231B065B682E
:100820009B0204D5D0231B065B68DB02DAD5D023FC
:100830001B065B689B02D5D4D0231B065B68DB02DA
:10084000D0D40320CEE7D02212065268920204D4FC
:10085000D02212065268D2021FD5D0221206526848
:10086000920204D5D02212065268D2021FD5D0229D
:1008700012065268920204D4D02212065268D202A2
:10088000B0D4D022120652689202B0D5D0221206FD
:100890005268D202ABD50320A4E7084B00221A709D
:1008A00000209FE7054B00221A7000209AE70220E3
:1008B00098E7022096E7C04690080020F026002026
:1008C00030B583B0042800D1DBE006DC01284AD033
:1008D00003284ED10023914874E0052849D1002314
:1008E0008F48FCE06B46DA1D1470002100291AD1F4
:1008F0008C4B9B699B06FBD414788A4B1C6001319E
:100900000132F3E76B46DA1D0D2313700021002935
:1009100019D1844B9B699B06FBD41578814B1D60D4
:1009200001310132F3E703780D3B5A425341DBB208
:1009300001300478002C19D0002BD3D17A4B02223D
:100940009B5EA342DED06B46DA1D147000210029A5
:10095000E9D1744B9B699B06FBD41478714B1C60E6
:1009600001310132F3E700237048E2E701201CF077
:100970007BFF03B030BD6B46DA1D147000210029E7
:100980001AD1684B9B699B06FBD41478654B1C609D
:1009900001310132F3E76B46DA1D0D23137000219C
:1009A000002919D15F4B9B699B06FBD415785D4BE1
:1009B0001D6001310132F3E703780D3B5A42534188
:1009C000DBB201300478002C16D0002BD3D1564B6B
:1009D00002229B5EA342DED06B46DA1D147000211A
:1009E0000029E9D14F4B9B699B06FBD414784D4BF2
:1009F0001C6001310132F3E701201CF035FFB8E73C
:100A00006B46DA1D1470002100291AD1454B9B69F1
:100A10009B06FBD41478434B1C6001310132F3E791
:100A20006B46DA1D0D2313700021002919D13D4BAF
:100A30009B699B06FBD415783A4B1D60013101324E
:100A4000F3E703780D3B5A425341DBB2013004789F
:100A5000002C19D0002BD3D1334B02229B5EA34232
:100A6000DED06B46DA1D147000210029E9D12D4B30
:100A70009B699B06FBD414782A4B1C600131013220
:100A8000F3E700232A48E2E701201CF0EDFE70E7BF
:100A90006B46DA1D1470002100291AD1214B9B6985
:100AA0009B06FBD414781F4B1C6001310132F3E725
:100AB0006B46DA1D0D2313700021002919D1194B43
:100AC0009B699B06FBD41578164B1D6001310132E2
:100AD000F3E703780D3B5A425341DBB2013004780F
:100AE000002C16D0002BD3D10F4B02229B5EA342C9
:100AF000DED06B46DA1D147000210029E9D1094BC4
:100B00009B699B06FBD41478064B1C6001310132B3
:100B1000F3E701201CF0A8FE2BE7C046A4970210C3
:100B2000B497021000800340B02600208C9702107A
:100B3000AC97021010B500201FF0FAFF00201FF044
:100B4000F7FF00201FF0F4FF00201FF0F1FF00204E
:100B50001FF0EEFF00201FF0EBFF00201FF0E8FF6A
:100B600000201FF0E5FF00201FF0E2FF00201FF033
:100B7000DFFF00201FF0DCFF00201FF0D9FF002066
:100B80001FF0D6FF00201FF0D3FF00201FF0D0FF82
:100B900000201FF0CDFF00201FF0CAFF00201FF033
:100BA000C7FF00201FF0C4FF00201FF0C1FF00207E
:100BB0001FF0BEFF00201FF0BBFF00201FF0B8FF9A
:100BC00000201FF0B5FF00201FF0B2FF00201FF033
:100BD000AFFF00201FF0ACFF00201FF0A9FF002096
:100BE0001FF0A6FF00201FF0A3FF00201FF0A0FFB2
:100BF00000201FF09DFF00201FF09AFF00201FF033
:100C000097FF00201FF094FF00201FF091FF0020AD
:100C10001FF08EFF00201FF08BFF00201FF088FFC9
:100C200000201FF085FF00201FF082FF00201FF032
:100C30007FFF00201FF07CFF00201FF079FF0020C5
:100C40001FF076FF00201FF073FF00201FF070FFE1
:100C500000201FF06DFF00201FF06AFF00201FF032
:100C600067FF00201FF064FF00201FF061FF0020DD
:100C70001FF05EFF00201FF05BFF00201FF058FFF9
:100C800000201FF055FF00201FF052FF00201FF032
:100C90004FFF00201FF04CFF00201FF049FF0020F5
:100CA0001FF046FF00201FF043FF00201FF040FF11
:100CB00000201FF03DFF00201FF03AFF00201FF032
:100CC00037FF00201FF034FF00201FF031FF00200D
:100CD0001FF02EFF00201FF02BFF00201FF028FF29
:100CE00000201FF025FF00201FF022FF00201FF032
:100CF0001FFF00201FF01CFF00201FF019FF002025
:100D00001FF016FF00201FF013FF00201FF010FF40
:100D100000201FF00DFF00201FF00AFF00201FF031
:100D200007FF00201FF004FF00201FF001FF00203C
:100D30001FF0FEFE00201FF0FBFE00201FF0F8FE5B
:100D400000201FF0F5FE00201FF0F2FE00201FF033
:100D5000EFFE00201FF0ECFE00201FF0E9FE002057
:100D60001FF0E6FE00201FF0E3FE00201FF0E0FE73
:100D700000201FF0DDFE00201FF0DAFE00201FF033
:100D8000D7FE00201FF0D4FE00201FF0D1FE00206F
:100D90001FF0CEFE00201FF0CBFE00201FF0C8FE8B
:100DA00000201FF0C5FE00201FF0C2FE00201FF033
:100DB000BFFE00201FF0BCFE00201FF0B9FE002087
:100DC0001FF0B6FE00201FF0B3FE00201FF0B0FEA3
:100DD00000201FF0ADFE00201FF0AAFE00201FF033
:100DE000A7FE00201FF0A4FE00201FF0A1FE00209F
:100DF0001FF09EFE00201FF09BFE00201FF098FEBB
:100E000000201FF095FE00201FF092FE00201FF032
:100E10008FFE00201FF08CFE00201FF089FE0020B6
:100E20001FF086FE00201FF083FE00201FF080FED2
:100E300000201FF07DFE00201FF07AFE00201FF032
:100E400077FE00201FF074FE00201FF071FE0020CE
:100E50001FF06EFE00201FF06BFE00201FF068FEEA
:100E600000201FF065FE00201FF062FE00201FF032
:100E70005FFE00201FF05CFE00201FF059FE0020E6
:100E80001FF056FE00201FF053FE00201FF050FE02
:100E900000201FF04DFE00201FF04AFE00201FF032
:100EA00047FE00201FF044FE00201FF041FE0020FE
:100EB0001FF03EFE00201FF03BFE00201FF038FE1A
:100EC00000201FF035FE00201FF032FE00201FF032
:100ED0002FFE00201FF02CFE00201FF029FE002016
:100EE0001FF026FE00201FF023FE00201FF020FE32
:100EF00000201FF01DFE00201FF01AFE00201FF032
:100F000017FE00201FF014FE00201FF011FE00202D
:100F10001FF00EFE00201FF00BFE00201FF008FE49
:100F200000201FF005FE00201FF002FE00201FF031
:100F3000FFFD00201FF0FCFD00201FF0F9FD002048
:100F40001FF0F6FD00201FF0F3FD00201FF0F0FD64
:100F500000201FF0EDFD00201FF0EAFD00201FF033
:100F6000E7FD00201FF0E4FD00201FF0E1FD002060
:100F70001FF0DEFD00201FF0DBFD00201FF0D8FD7C
:100F800000201FF0D5FD00201FF0D2FD00201FF033
:100F9000CFFD00201FF0CCFD00201FF0C9FD002078
:100FA0001FF0C6FD00201FF0C3FD00201FF0C0FD94
:100FB00000201FF0BDFD00201FF0BAFD00201FF033
:100FC000B7FD00201FF0B4FD00201FF0B1FD002090
:100FD0001FF0AEFD00201FF0ABFD00201FF0A8FDAC
:100FE00000201FF0A5FD00201FF0A2FD00201FF033
:100FF0009FFD00201FF09CFD00201FF099FD0020A8
:101000001FF096FD00201FF093FD00201FF090FDC3
:1010100000201FF08DFD00201FF08AFD00201FF032
:1010200087FD00201FF084FD00201FF081FD0020BF
:101030001FF07EFD00201FF07BFD00201FF078FDDB
:1010400000201FF075FD00201FF072FD00201FF032
:101050006FFD00201FF06CFD00201FF069FD0020D7
:101060001FF066FD00201FF063FD00201FF060FDF3
:1010700000201FF05DFD00201FF05AFD00201FF032
:1010800057FD00201FF054FD00201FF051FD0020EF
:101090001FF04EFD00201FF04BFD00201FF048FD0B
:1010A00000201FF045FD00201FF042FD00201FF032
:1010B0003FFD00201FF03CFD00201FF039FD002007
:1010C0001FF036FD00201FF033FD00201FF030FD23
:1010D00000201FF02DFD00201FF02AFD00201FF032
:1010E00027FD00201FF024FD00201FF021FD00201F
:1010F0001FF01EFD00201FF01BFD00201FF018FD3B
:1011000000201FF015FD00201FF012FD00201FF031
:101110000FFD00201FF00CFD00201FF009FD002036
:101120001FF006FD00201FF003FD00201FF000FD52
:1011300000201FF0FDFC00201FF0FAFC00201FF033
:10114000F7FC00201FF0F4FC00201FF0F1FC002051
:101150001FF0EEFC00201FF0EBFC00201FF0E8FC6D
:1011600000201FF0E5FC00201FF0E2FC00201FF033
:10117000DFFC00201FF0DCFC00201FF0D9FC002069
:101180001FF0D6FC00201FF0D3FC00201FF0D0FC85
:1011900000201FF0CDFC00201FF0CAFC00201FF033
:1011A000C7FC00201FF0C4FC00201FF0C1FC002081
:1011B0001FF0BEFC00201FF0BBFC00201FF0B8FC9D
:1011C00000201FF0B5FC00201FF0B2FC00201FF033
:1011D000AFFC00201FF0ACFC00201FF0A9FC002099
:1011E0001FF0A6FC00201FF0A3FC00201FF0A0FCB5
:1011F00000201FF09DFC00201FF09AFC00201FF033
:1012000097FC00201FF094FC00201FF091FC0020B0
:101210001FF08EFC00201FF08BFC00201FF088FCCC
:1012200000201FF085FC00201FF082FC00201FF032
:101230007FFC00201FF07CFC00201FF079FC0020C8
:101240001FF076FC00201FF073FC00201FF070FCE4
:1012500000201FF06DFC00201FF06AFC00201FF032
:1012600067FC00201FF064FC00201FF061FC0020E0
:101270001FF05EFC00201FF05BFC00201FF058FCFC
:1012800000201FF055FC00201FF052FC00201FF032
:101290004FFC00201FF04CFC00201FF049FC0020F8
:1012A0001FF046FC00201FF043FC00201FF040FC14
:1012B00000201FF03DFC00201FF03AFC00201FF032
:1012C00037FC00201FF034FC00201FF031FC002010
:1012D0001FF02EFC00201FF02BFC00201FF028FC2C
:1012E00000201FF025FC00201FF022FC00201FF032
:1012F0001FFC00201FF01CFC00201FF019FC002028
:101300001FF016FC00201FF013FC00201FF010FC43
:1013100000201FF00DFC00201FF00AFC00201FF031
:1013200007FC00201FF004FC00201FF001FC00203F
:101330001FF0FEFB00201FF0FBFB00201FF0F8FB5E
:1013400000201FF0F5FB00201FF0F2FB00201FF033
:10135000EFFB00201FF0ECFB00201FF0E9FB00205A
:101360001FF0E6FB00201FF0E3FB00201FF0E0FB76
:1013700000201FF0DDFB00201FF0DAFB00201FF033
:10138000D7FB00201FF0D4FB00201FF0D1FB002072
:101390001FF0CEFB00201FF0CBFB00201FF0C8FB8E
:1013A00000201FF0C5FB00201FF0C2FB00201FF033
:1013B000BFFB00201FF0BCFB00201FF0B9FB00208A
:1013C0001FF0B6FB00201FF0B3FB00201FF0B0FBA6
:1013D00000201FF0ADFB00201FF0AAFB00201FF033
:1013E000A7FB00201FF0A4FB00201FF0A1FB0020A2
:1013F0001FF09EFB00201FF09BFB00201FF098FBBE
:1014000000201FF095FB00201FF092FB00201FF032
:101410008FFB00201FF08CFB00201FF089FB0020B9
:101420001FF086FB00201FF083FB00201FF080FBD5
:1014300000201FF07DFB00201FF07AFB00201FF032
:1014400077FB00201FF074FB00201FF071FB0020D1
:101450001FF06EFB00201FF06BFB00201FF068FBED
:1014600000201FF065FB00201FF062FB00201FF032
:101470005FFB00201FF05CFB00201FF059FB0020E9
:101480001FF056FB00201FF053FB00201FF050FB05
:1014900000201FF04DFB00201FF04AFB00201FF032
:1014A00047FB00201FF044FB00201FF041FB002001
:1014B0001FF03EFB00201FF03BFB00201FF038FB1D
:1014C00000201FF035FB00201FF032FB00201FF032
:1014D0002FFB00201FF02CFB00201FF029FB002019
:1014E0001FF026FB00201FF023FB00201FF020FB35
:1014F00000201FF01DFB00201FF01AFB00201FF032
:1015000017FB00201FF014FB00201FF011FB002030
:101510001FF00EFB00201FF00BFB00201FF008FB4C
:1015200000201FF005FB00201FF002FB00201FF031
:10153000FFFA00201FF0FCFA00201FF0F9FA00204B
:101540001FF0F6FA00201FF0F3FA00201FF0F0FA67
:1015500000201FF0EDFA00201FF0EAFA00201FF033
:10156000E7FA00201FF0E4FA00201FF0E1FA002063
:101570001FF0DEFA00201FF0DBFA00201FF0D8FA7F
:1015800000201FF0D5FA00201FF0D2FA00201FF033
:10159000CFFA00201FF0CCFA00201FF0C9FA00207B
:1015A0001FF0C6FA00201FF0C3FA00201FF0C0FA97
:1015B00000201FF0BDFA00201FF0BAFA00201FF033
:1015C000B7FA00201FF0B4FA00201FF0B1FA002093
:1015D0001FF0AEFA00201FF0ABFA00201FF0A8FAAF
:1015E00000201FF0A5FA00201FF0A2FA00201FF033
:1015F0009FFA00201FF09CFA00201FF099FA0020AB
:101600001FF096FA00201FF093FA00201FF090FAC6
:1016100000201FF08DFA00201FF08AFA00201FF032
:1016200087FA00201FF084FA00201FF081FA0020C2
:101630001FF07EFA00201FF07BFA00201FF078FADE
:1016400000201FF075FA00201FF072FA00201FF032
:101650006FFA00201FF06CFA00201FF069FA0020DA
:101660001FF066FA00201FF063FA00201FF060FAF6
:1016700000201FF05DFA00201FF05AFA00201FF032
:1016800057FA00201FF054FA00201FF051FA0020F2
:101690001FF04EFA00201FF04BFA00201FF048FA0E
:1016A00000201FF045FA00201FF042FA00201FF032
:1016B0003FFA00201FF03CFA00201FF039FA00200A
:1016C0001FF036FA00201FF033FA00201FF030FA26
:1016D00000201FF02DFA00201FF02AFA00201FF032
:1016E00027FA00201FF024FA00201FF021FA002022
:1016F0001FF01EFA00201FF01BFA00201FF018FA3E
:1017000000201FF015FA00201FF012FA00201FF031
:101710000FFA00201FF00CFA00201FF009FA002039
:101720001FF006FA00201FF003FA00201FF000FA55
:1017300000201FF0FDF900201FF0FAF900201FF033
:10174000F7F900201FF0F4F900201FF0F1F9002054
:101750001FF0EEF900201FF0EBF900201FF0E8F970
:1017600000201FF0E5F900201FF0E2F900201FF033
:10177000DFF900201FF0DCF900201FF0D9F900206C
:101780001FF0D6F900201FF0D3F900201FF0D0F988
:1017900000201FF0CDF900201FF0CAF900201FF033
:1017A000C7F900201FF0C4F900201FF0C1F9002084
:1017B0001FF0BEF900201FF0BBF900201FF0B8F9A0
:1017C00000201FF0B5F900201FF0B2F900201FF033
:1017D000AFF900201FF0ACF900201FF0A9F900209C
:1017E0001FF0A6F900201FF0A3F900201FF0A0F9B8
:1017F00000201FF09DF900201FF09AF900201FF033
:1018000097F900201FF094F900201FF091F90020B3
:101810001FF08EF900201FF08BF900201FF088F9CF
:1018200000201FF085F900201FF082F900201FF032
:101830007FF900201FF07CF900201FF079F90020CB
:101840001FF076F900201FF073F900201FF070F9E7
:1018500000201FF06DF900201FF06AF900201FF032
:1018600067F900201FF064F900201FF061F90020E3
:101870001FF05EF900201FF05BF900201FF058F9FF
:1018800000201FF055F900201FF052F900201FF032
:101890004FF900201FF04CF900201FF049F90020FB
:1018A0001FF046F900201FF043F900201FF040F917
:1018B00000201FF03DF900201FF03AF900201FF032
:1018C00037F900201FF034F900201FF031F9002013
:1018D0001FF02EF900201FF02BF900201FF028F92F
:1018E00000201FF025F900201FF022F900201FF032
:1018F0001FF900201FF01CF900201FF019F900202B
:101900001FF016F900201FF013F900201FF010F946
:1019100000201FF00DF900201FF00AF900201FF031
:1019200007F900201FF004F900201FF001F9002042
:101930001FF0FEF800201FF0FBF800201FF0F8F861
:1019400000201FF0F5F800201FF0F2F800201FF033
:10195000EFF800201FF0ECF800201FF0E9F800205D
:101960001FF0E6F800201FF0E3F800201FF0E0F879
:1019700000201FF0DDF800201FF0DAF800201FF033
:10198000D7F800201FF0D4F800201FF0D1F8002075
:101990001FF0CEF800201FF0CBF800201FF0C8F891
:1019A00000201FF0C5F800201FF0C2F800201FF033
:1019B000BFF800201FF0BCF800201FF0B9F800208D
:1019C0001FF0B6F800201FF0B3F800201FF0B0F8A9
:1019D00000201FF0ADF800201FF0AAF800201FF033
:1019E000A7F800201FF0A4F800201FF0A1F80020A5
:1019F0001FF09EF800201FF09BF800201FF098F8C1
:101A000000201FF095F800201FF092F800201FF032
:101A10008FF800201FF08CF800201FF089F80020BC
:101A20001FF086F800201FF083F800201FF080F8D8
:101A300000201FF07DF800201FF07AF800201FF032
:101A400077F800201FF074F800201FF071F80020D4
:101A50001FF06EF800201FF06BF800201FF068F8F0
:101A600000201FF065F800201FF062F800201FF032
:101A70005FF800201FF05CF800201FF059F80020EC
:101A80001FF056F800201FF053F800201FF050F808
:101A900000201FF04DF800201FF04AF800201FF032
:101AA00047F800201FF044F800201FF041F8002004
:101AB0001FF03EF800201FF03BF800201FF038F820
:101AC00000201FF035F800201FF032F800201FF032
:101AD0002FF800201FF02CF800201FF029F800201C
:101AE0001FF026F800201FF023F800201FF020F838
:101AF00000201FF01DF800201FF01AF800201FF032
:101B000017F800201FF014F800201FF011F8002033
:101B10001FF00EF800201FF00BF800201FF008F84F
:101B200000201FF005F800201FF002F800201EF032
:101B3000FFFF00201EF0FCFF00201EF0F9FF002038
:101B40001EF0F6FF00201EF0F3FF00201EF0F0FF55
:101B500000201EF0EDFF00201EF0EAFF00201EF026
:101B6000E7FF00201EF0E4FF00201EF0E1FF002050
:101B70001EF0DEFF00201EF0DBFF00201EF0D8FF6D
:101B800000201EF0D5FF00201EF0D2FF00201EF026
:101B9000CFFF00201EF0CCFF00201EF0C9FF002068
:101BA0001EF0C6FF00201EF0C3FF00201EF0C0FF85
:101BB00000201EF0BDFF00201EF0BAFF00201EF026
:101BC000B7FF00201EF0B4FF00201EF0B1FF002080
:101BD0001EF0AEFF00201EF0ABFF00201EF0A8FF9D
:101BE00000201EF0A5FF00201EF0A2FF00201EF026
:101BF0009FFF00201EF09CFF00201EF099FF002098
:101C00001EF096FF00201EF093FF00201EF090FFB4
:101C100000201EF08DFF00201EF08AFF00201EF025
:101C200087FF00201EF084FF00201EF081FF0020AF
:101C30001EF07EFF00201EF07BFF00201EF078FFCC
:101C400000201EF075FF00201EF072FF00201EF025
:101C50006FFF00201EF06CFF00201EF069FF0020C7
:101C60001EF066FF00201EF063FF00201EF060FFE4
:101C700000201EF05DFF00201EF05AFF00201EF025
:101C800057FF00201EF054FF00201EF051FF0020DF
:101C90001EF04EFF00201EF04BFF00201EF048FFFC
:101CA00000201EF045FF00201EF042FF00201EF025
:101CB0003FFF00201EF03CFF00201EF039FF0020F7
:101CC0001EF036FF00201EF033FF00201EF030FF14
:101CD00000201EF02DFF00201EF02AFF00201EF025
:101CE00027FF00201EF024FF00201EF021FF00200F
:101CF0001EF01EFF00201EF01BFF00201EF018FF2C
:101D000000201EF015FF00201EF012FF00201EF024
:101D10000FFF00201EF00CFF00201EF009FF002026
:101D20001EF006FF00201EF003FF00201EF000FF43
:101D300000201EF0FDFE00201EF0FAFE00201EF026
:101D4000F7FE00201EF0F4FE00201EF0F1FE002041
:101D50001EF0EEFE00201EF0EBFE00201EF0E8FE5E
:101D600000201EF0E5FE00201EF0E2FE00201EF026
:101D7000DFFE00201EF0DCFE00201EF0D9FE002059
:101D80001EF0D6FE00201EF0D3FE00201EF0D0FE76
:101D900000201EF0CDFE00201EF0CAFE00201EF026
:101DA000C7FE00201EF0C4FE00201EF0C1FE002071
:101DB0001EF0BEFE00201EF0BBFE00201EF0B8FE8E
:101DC00000201EF0B5FE00201EF0B2FE00201EF026
:101DD000AFFE00201EF0ACFE00201EF0A9FE002089
:101DE0001EF0A6FE00201EF0A3FE00201EF0A0FEA6
:101DF00000201EF09DFE00201EF09AFE00201EF026
:101E000097FE00201EF094FE00201EF091FE0020A0
:101E10001EF08EFE00201EF08BFE00201EF088FEBD
:101E200000201EF085FE00201EF082FE00201EF025
:101E30007FFE00201EF07CFE00201EF079FE0020B8
:101E40001EF076FE00201EF073FE00201EF070FED5
:101E500000201EF06DFE00201EF06AFE00201EF025
:101E600067FE00201EF064FE00201EF061FE0020D0
:101E70001EF05EFE00201EF05BFE00201EF058FEED
:101E800000201EF055FE00201EF052FE00201EF025
:101E90004FFE00201EF04CFE00201EF049FE0020E8
:101EA0001EF046FE00201EF043FE00201EF040FE05
:101EB00000201EF03DFE00201EF03AFE00201EF025
:101EC00037FE00201EF034FE00201EF031FE002000
:101ED0001EF02EFE00201EF02BFE00201EF028FE1D
:101EE00000201EF025FE00201EF022FE00201EF025
:101EF0001FFE00201EF01CFE00201EF019FE002018
:101F00001EF016FE00201EF013FE00201EF010FE34
:101F100000201EF00DFE00201EF00AFE00201EF024
:101F200007FE00201EF004FE00201EF001FE00202F
:101F30001EF0FEFD00201EF0FBFD00201EF0F8FD4F
:101F400000201EF0F5FD00201EF0F2FD00201EF026
:101F5000EFFD00201EF0ECFD00201EF0E9FD00204A
:101F60001EF0E6FD00201EF0E3FD00201EF0E0FD67
:101F700000201EF0DDFD00201EF0DAFD00201EF026
:101F8000D7FD00201EF0D4FD00201EF0D1FD002062
:101F90001EF0CEFD00201EF0CBFD00201EF0C8FD7F
:101FA00000201EF0C5FD00201EF0C2FD00201EF026
:101FB000BFFD00201EF0BCFD00201EF0B9FD00207A
:101FC0001EF0B6FD00201EF0B3FD00201EF0B0FD97
:101FD00000201EF0ADFD00201EF0AAFD00201EF026
:101FE000A7FD00201EF0A4FD00201EF0A1FD002092
:101FF0001EF09EFD00201EF09BFD00201EF098FDAF
:1020000000201EF095FD00201EF092FD00201EF025
:102010008FFD00201EF08CFD00201EF089FD0020A9
:102020001EF086FD00201EF083FD00201EF080FDC6
:1020300000201EF07DFD00201EF07AFD00201EF025
:1020400077FD00201EF074FD00201EF071FD0020C1
:102050001EF06EFD00201EF06BFD00201EF068FDDE
:1020600000201EF065FD00201EF062FD00201EF025
:102070005FFD00201EF05CFD00201EF059FD0020D9
:102080001EF056FD00201EF053FD00201EF050FDF6
:1020900000201EF04DFD00201EF04AFD00201EF025
:1020A00047FD00201EF044FD00201EF041FD0020F1
:1020B0001EF03EFD00201EF03BFD00201EF038FD0E
:1020C00000201EF035FD00201EF032FD00201EF025
:1020D0002FFD00201EF02CFD00201EF029FD002009
:1020E0001EF026FD00201EF023FD00201EF020FD26
:1020F00000201EF01DFD00201EF01AFD00201EF025
:1021000017FD00201EF014FD00201EF011FD002020
:102110001EF00EFD00201EF00BFD00201EF008FD3D
:1021200000201EF005FD00201EF002FD00201EF024
:10213000FFFC00201EF0FCFC00201EF0F9FC00203B
:102140001EF0F6FC00201EF0F3FC00201EF0F0FC58
:1021500000201EF0EDFC00201EF0EAFC00201EF026
:10216000E7FC00201EF0E4FC00201EF0E1FC002053
:102170001EF0DEFC00201EF0DBFC00201EF0D8FC70
:1021800000201EF0D5FC00201EF0D2FC00201EF026
:10219000CFFC00201EF0CCFC00201EF0C9FC00206B
:1021A0001EF0C6FC00201EF0C3FC00201EF0C0FC88
:1021B00000201EF0BDFC00201EF0BAFC00201EF026
:1021C000B7FC00201EF0B4FC00201EF0B1FC002083
:1021D0001EF0AEFC00201EF0ABFC00201EF0A8FCA0
:1021E00000201EF0A5FC00201EF0A2FC00201EF026
:1021F0009FFC00201EF09CFC00201EF099FC00209B
:102200001EF096FC00201EF093FC00201EF090FCB7
:1022100000201EF08DFC00201EF08AFC00201EF025
:1022200087FC00201EF084FC00201EF081FC0020B2
:102230001EF07EFC00201EF07BFC00201EF078FCCF
:1022400000201EF075FC00201EF072FC00201EF025
:102250006FFC00201EF06CFC00201EF069FC0020CA
:102260001EF066FC00201EF063FC00201EF060FCE7
:1022700000201EF05DFC00201EF05AFC00201EF025
:1022800057FC00201EF054FC00201EF051FC0020E2
:102290001EF04EFC00201EF04BFC00201EF048FCFF
:1022A00000201EF045FC00201EF042FC00201EF025
:1022B0003FFC00201EF03CFC00201EF039FC0020FA
:1022C0001EF036FC00201EF033FC00201EF030FC17
:1022D00000201EF02DFC00201EF02AFC00201EF025
:1022E00027FC00201EF024FC00201EF021FC002012
:1022F0001EF01EFC00201EF01BFC00201EF018FC2F
:1023000000201EF015FC00201EF012FC00201EF024
:102310000FFC00201EF00CFC00201EF009FC002029
:102320001EF006FC00201EF003FC00201EF000FC46
:1023300000201EF0FDFB00201EF0FAFB00201EF026
:10234000F7FB00201EF0F4FB00201EF0F1FB002044
:102350001EF0EEFB00201EF0EBFB00201EF0E8FB61
:1023600000201EF0E5FB00201EF0E2FB00201EF026
:10237000DFFB00201EF0DCFB00201EF0D9FB00205C
:102380001EF0D6FB00201EF0D3FB00201EF0D0FB79
:1023900000201EF0CDFB00201EF0CAFB00201EF026
:1023A000C7FB00201EF0C4FB00201EF0C1FB002074
:1023B0001EF0BEFB00201EF0BBFB00201EF0B8FB91
:1023C00000201EF0B5FB00201EF0B2FB00201EF026
:1023D000AFFB00201EF0ACFB00201EF0A9FB00208C
:1023E0001EF0A6FB00201EF0A3FB00201EF0A0FBA9
:1023F00000201EF09DFB00201EF09AFB00201EF026
:1024000097FB00201EF094FB00201EF091FB0020A3
:102410001EF08EFB00201EF08BFB00201EF088FBC0
:1024200000201EF085FB00201EF082FB00201EF025
:102430007FFB00201EF07CFB00201EF079FB0020BB
:102440001EF076FB00201EF073FB00201EF070FBD8
:1024500000201EF06DFB00201EF06AFB00201EF025
:1024600067FB00201EF064FB00201EF061FB0020D3
:102470001EF05EFB00201EF05BFB00201EF058FBF0
:1024800000201EF055FB00201EF052FB00201EF025
:102490004FFB00201EF04CFB00201EF049FB0020EB
:1024A0001EF046FB00201EF043FB00201EF040FB08
:1024B00000201EF03DFB00201EF03AFB00201EF025
:1024C00037FB00201EF034FB00201EF031FB002003
:1024D0001EF02EFB00201EF02BFB00201EF028FB20
:1024E00000201EF025FB00201EF022FB00201EF025
:1024F0001FFB00201EF01CFB00201EF019FB00201B
:102500001EF016FB00201EF013FB00201EF010FB37
:1025100000201EF00DFB00201EF00AFB00201EF024
:1025200007FB00201EF004FB00201EF001FB002032
:102530001EF0FEFA00201EF0FBFA00201EF0F8FA52
:1025400000201EF0F5FA00201EF0F2FA00201EF026
:10255000EFFA00201EF0ECFA00201EF0E9FA00204D
:102560001EF0E6FA00201EF0E3FA00201EF0E0FA6A
:1025700000201EF0DDFA00201EF0DAFA00201EF026
:10258000D7FA00201EF0D4FA00201EF0D1FA002065
:102590001EF0CEFA00201EF0CBFA00201EF0C8FA82
:1025A00000201EF0C5FA00201EF0C2FA00201EF026
:1025B000BFFA00201EF0BCFA00201EF0B9FA00207D
:1025C0001EF0B6FA00201EF0B3FA00201EF0B0FA9A
:1025D00000201EF0ADFA00201EF0AAFA00201EF026
:1025E000A7FA00201EF0A4FA00201EF0A1FA002095
:1025F0001EF09EFA00201EF09BFA00201EF098FAB2
:1026000000201EF095FA00201EF092FA00201EF025
:102610008FFA00201EF08CFA00201EF089FA0020AC
:102620001EF086FA00201EF083FA00201EF080FAC9
:1026300000201EF07DFA00201EF07AFA00201EF025
:1026400077FA00201EF074FA00201EF071FA0020C4
:102650001EF06EFA00201EF06BFA00201EF068FAE1
:1026600000201EF065FA00201EF062FA00201EF025
:102670005FFA00201EF05CFA00201EF059FA0020DC
:102680001EF056FA00201EF053FA00201EF050FAF9
:1026900000201EF04DFA00201EF04AFA00201EF025
:1026A00047FA00201EF044FA00201EF041FA0020F4
:1026B0001EF03EFA00201EF03BFA00201EF038FA11
:1026C00000201EF035FA00201EF032FA00201EF025
:1026D0002FFA00201EF02CFA00201EF029FA00200C
:1026E0001EF026FA00201EF023FA00201EF020FA29
:1026F00000201EF01DFA00201EF01AFA00201EF025
:1027000017FA00201EF014FA00201EF011FA002023
:102710001EF00EFA00201EF00BFA00201EF008FA40
:1027200000201EF005FA00201EF002FA00201EF024
:10273000FFF900201EF0FCF900201EF0F9F900203E
:102740001EF0F6F900201EF0F3F900201EF0F0F95B
:1027500000201EF0EDF900201EF0EAF900201EF026
:10276000E7F900201EF0E4F900201EF0E1F9002056
:102770001EF0DEF900201EF0DBF900201EF0D8F973
:1027800000201EF0D5F900201EF0D2F900201EF026
:10279000CFF900201EF0CCF900201EF0C9F900206E
:1027A0001EF0C6F900201EF0C3F900201EF0C0F98B
:1027B00000201EF0BDF900201EF0BAF900201EF026
:1027C000B7F900201EF0B4F900201EF0B1F9002086
:1027D0001EF0AEF900201EF0ABF900201EF0A8F9A3
:1027E00000201EF0A5F900201EF0A2F900201EF026
:1027F0009FF900201EF09CF900201EF099F900209E
:102800001EF096F900201EF093F900201EF090F9BA
:1028100000201EF08DF900201EF08AF900201EF025
:1028200087F900201EF084F900201EF081F90020B5
:102830001EF07EF900201EF07BF900201EF078F9D2
:1028400000201EF075F900201EF072F900201EF025
:102850006FF900201EF06CF900201EF069F90020CD
:102860001EF066F900201EF063F900201EF060F9EA
:1028700000201EF05DF900201EF05AF900201EF025
:1028800057F900201EF054F900201EF051F90020E5
:102890001EF04EF900201EF04BF900201EF048F902
:1028A00000201EF045F900201EF042F900201EF025
:1028B0003FF900201EF03CF900201EF039F90020FD
:1028C0001EF036F900201EF033F900201EF030F91A
:1028D00000201EF02DF900201EF02AF900201EF025
:1028E00027F900201EF024F900201EF021F9002015
:1028F0001EF01EF900201EF01BF900201EF018F932
:1029000000201EF015F900201EF012F900201EF024
:102910000FF900201EF00CF900201EF009F900202C
:102920001EF006F900201EF003F900201EF000F949
:1029300000201EF0FDF800201EF0FAF800201EF026
:10294000F7F800201EF0F4F800201EF0F1F8002047
:102950001EF0EEF800201EF0EBF800201EF0E8F864
:1029600000201EF0E5F800201EF0E2F800201EF026
:10297000DFF800201EF0DCF800201EF0D9F800205F
:102980001EF0D6F800201EF0D3F800201EF0D0F87C
:1029900000201EF0CDF800201EF0CAF800201EF026
:1029A000C7F800201EF0C4F800201EF0C1F8002077
:1029B0001EF0BEF800201EF0BBF800201EF0B8F894
:1029C00000201EF0B5F800201EF0B2F800201EF026
:1029D000AFF800201EF0ACF800201EF0A9F800208F
:1029E0001EF0A6F800201EF0A3F800201EF0A0F8AC
:1029F00000201EF09DF800201EF09AF800201EF026
:102A000097F800201EF094F800201EF091F80020A6
:102A10001EF08EF800201EF08BF800201EF088F8C3
:102A200000201EF085F800201EF082F800201EF025
:102A30007FF800201EF07CF800201EF079F80020BE
:102A40001EF076F800201EF073F800201EF070F8DB
:102A500000201EF06DF800201EF06AF800201EF025
:102A600067F800201EF064F800201EF061F80020D6
:102A70001EF05EF800201EF05BF800201EF058F8F3
:102A800000201EF055F800201EF052F800201EF025
:102A90004FF800201EF04CF800201EF049F80020EE
:102AA0001EF046F800201EF043F800201EF040F80B
:102AB00000201EF03DF800201EF03AF800201EF025
:102AC00037F800201EF034F800201EF031F8002006
:102AD0001EF02EF800201EF02BF800201EF028F823
:102AE00000201EF025F800201EF022F800201EF025
:102AF0001FF800201EF01CF800201EF019F800201E
:102B00001EF016F800201EF013F800201EF010F83A
:102B100000201EF00DF800201EF00AF800201EF024
:102B200007F800201EF004F800201EF001F8002035
:102B30001DF0FEFF00201DF0FBFF00201DF0F8FF40
:102B400000201DF0F5FF00201DF0F2FF00201DF019
:102B5000EFFF00201DF0ECFF00201DF0E9FF00203A
:102B60001DF0E6FF00201DF0E3FF00201DF0E0FF58
:102B700000201DF0DDFF00201DF0DAFF00201DF019
:102B8000D7FF00201DF0D4FF00201DF0D1FF002052
:102B90001DF0CEFF00201DF0CBFF00201DF0C8FF70
:102BA00000201DF0C5FF00201DF0C2FF00201DF019
:102BB000BFFF00201DF0BCFF00201DF0B9FF00206A
:102BC0001DF0B6FF00201DF0B3FF00201DF0B0FF88
:102BD00000201DF0ADFF00201DF0AAFF00201DF019
:102BE000A7FF00201DF0A4FF00201DF0A1FF002082
:102BF0001DF09EFF00201DF09BFF00201DF098FFA0
:102C000000201DF095FF00201DF092FF00201DF018
:102C10008FFF00201DF08CFF00201DF089FF002099
:102C20001DF086FF00201DF083FF00201DF080FFB7
:102C300000201DF07DFF00201DF07AFF00201DF018
:102C400077FF00201DF074FF00201DF071FF0020B1
:102C50001DF06EFF00201DF06BFF00201DF068FFCF
:102C600000201DF065FF00201DF062FF00201DF018
:102C70005FFF00201DF05CFF00201DF059FF0020C9
:102C80001DF056FF00201DF053FF00201DF050FFE7
:102C900000201DF04DFF00201DF04AFF00201DF018
:102CA00047FF00201DF044FF00201DF041FF0020E1
:102CB0001DF03EFF00201DF03BFF00201DF038FFFF
:102CC00000201DF035FF00201DF032FF00201DF018
:102CD0002FFF00201DF02CFF00201DF029FF0020F9
:102CE0001DF026FF00201DF023FF00201DF020FF17
:102CF00000201DF01DFF00201DF01AFF00201DF018
:102D000017FF00201DF014FF00201DF011FF002010
:102D10001DF00EFF00201DF00BFF00201DF008FF2E
:102D200000201DF005FF00201DF002FF00201DF017
:102D3000FFFE00201DF0FCFE00201DF0F9FE00202B
:102D40001DF0F6FE00201DF0F3FE00201DF0F0FE49
:102D500000201DF0EDFE00201DF0EAFE00201DF019
:102D6000E7FE00201DF0E4FE00201DF0E1FE002043
:102D70001DF0DEFE00201DF0DBFE00201DF0D8FE61
:102D800000201DF0D5FE00201DF0D2FE00201DF019
:102D9000CFFE00201DF0CCFE00201DF0C9FE00205B
:102DA0001DF0C6FE00201DF0C3FE00201DF0C0FE79
:102DB00000201DF0BDFE00201DF0BAFE00201DF019
:102DC000B7FE00201DF0B4FE00201DF0B1FE002073
:102DD0001DF0AEFE00201DF0ABFE00201DF0A8FE91
:102DE00000201DF0A5FE00201DF0A2FE00201DF019
:102DF0009FFE00201DF09CFE00201DF099FE00208B
:102E00001DF096FE00201DF093FE00201DF090FEA8
:102E100000201DF08DFE00201DF08AFE00201DF018
:102E200087FE00201DF084FE00201DF081FE0020A2
:102E30001DF07EFE00201DF07BFE00201DF078FEC0
:102E400000201DF075FE00201DF072FE00201DF018
:102E50006FFE00201DF06CFE00201DF069FE0020BA
:102E60001DF066FE00201DF063FE00201DF060FED8
:102E700000201DF05DFE00201DF05AFE00201DF018
:102E800057FE00201DF054FE00201DF051FE0020D2
:102E90001DF04EFE00201DF04BFE00201DF048FEF0
:102EA00000201DF045FE00201DF042FE00201DF018
:102EB0003FFE00201DF03CFE00201DF039FE0020EA
:102EC0001DF036FE00201DF033FE00201DF030FE08
:102ED00000201DF02DFE00201DF02AFE00201DF018
:102EE00027FE00201DF024FE00201DF021FE002002
:102EF0001DF01EFE00201DF01BFE00201DF018FE20
:102F000000201DF015FE00201DF012FE00201DF017
:102F10000FFE00201DF00CFE00201DF009FE002019
:102F20001DF006FE00201DF003FE00201DF000FE37
:102F300000201DF0FDFD00201DF0FAFD00201DF019
:102F4000F7FD00201DF0F4FD00201DF0F1FD002034
:102F50001DF0EEFD00201DF0EBFD00201DF0E8FD52
:102F600000201DF0E5FD00201DF0E2FD00201DF019
:102F7000DFFD00201DF0DCFD00201DF0D9FD00204C
:102F80001DF0D6FD00201DF0D3FD00201DF0D0FD6A
:102F900000201DF0CDFD00201DF0CAFD00201DF019
:102FA000C7FD00201DF0C4FD00201DF0C1FD002064
:102FB0001DF0BEFD00201DF0BBFD00201DF0B8FD82
:102FC00000201DF0B5FD00201DF0B2FD00201DF019
:102FD000AFFD00201DF0ACFD00201DF0A9FD00207C
:102FE0001DF0A6FD00201DF0A3FD00201DF0A0FD9A
:102FF00000201DF09DFD00201DF09AFD00201DF019
:1030000097FD00201DF094FD00201DF091FD002093
:103010001DF08EFD00201DF08BFD00201DF088FDB1
:1030200000201DF085FD00201DF082FD00201DF018
:103030007FFD00201DF07CFD00201DF079FD0020AB
:103040001DF076FD00201DF073FD00201DF070FDC9
:1030500000201DF06DFD00201DF06AFD00201DF018
:1030600067FD00201DF064FD00201DF061FD0020C3
:103070001DF05EFD00201DF05BFD00201DF058FDE1
:1030800000201DF055FD00201DF052FD00201DF018
:103090004FFD00201DF04CFD00201DF049FD0020DB
:1030A0001DF046FD00201DF043FD00201DF040FDF9
:1030B00000201DF03DFD00201DF03AFD00201DF018
:1030C00037FD00201DF034FD00201DF031FD0020F3
:1030D0001DF02EFD00201DF02BFD00201DF028FD11
:1030E00000201DF025FD00201DF022FD00201DF018
:1030F0001FFD00201DF01CFD00201DF019FD00200B
:103100001DF016FD00201DF013FD00201DF010FD28
:1031100000201DF00DFD00201DF00AFD00201DF017
:1031200007FD00201DF004FD00201DF001FD002022
:103130001DF0FEFC00201DF0FBFC00201DF0F8FC43
:1031400000201DF0F5FC00201DF0F2FC00201DF019
:10315000EFFC00201DF0ECFC00201DF0E9FC00203D
:103160001DF0E6FC00201DF0E3FC00201DF0E0FC5B
:1031700000201DF0DDFC00201DF0DAFC00201DF019
:10318000D7FC00201DF0D4FC00201DF0D1FC002055
:103190001DF0CEFC00201DF0CBFC00201DF0C8FC73
:1031A00000201DF0C5FC00201DF0C2FC00201DF019
:1031B000BFFC00201DF0BCFC00201DF0B9FC00206D
:1031C0001DF0B6FC00201DF0B3FC00201DF0B0FC8B
:1031D00000201DF0ADFC00201DF0AAFC00201DF019
:1031E000A7FC00201DF0A4FC00201DF0A1FC002085
:1031F0001DF09EFC00201DF09BFC00201DF098FCA3
:1032000000201DF095FC00201DF092FC00201DF018
:103210008FFC00201DF08CFC00201DF089FC00209C
:103220001DF086FC00201DF083FC00201DF080FCBA
:1032300000201DF07DFC00201DF07AFC00201DF018
:1032400077FC00201DF074FC00201DF071FC0020B4
:103250001DF06EFC00201DF06BFC00201DF068FCD2
:1032600000201DF065FC00201DF062FC00201DF018
:103270005FFC00201DF05CFC00201DF059FC0020CC
:103280001DF056FC00201DF053FC00201DF050FCEA
:1032900000201DF04DFC00201DF04AFC00201DF018
:1032A00047FC00201DF044FC00201DF041FC0020E4
:1032B0001DF03EFC00201DF03BFC00201DF038FC02
:1032C00000201DF035FC00201DF032FC00201DF018
:1032D0002FFC00201DF02CFC00201DF029FC0020FC
:1032E0001DF026FC00201DF023FC00201DF020FC1A
:1032F00000201DF01DFC00201DF01AFC00201DF018
:1033000017FC00201DF014FC00201DF011FC002013
:103310001DF00EFC00201DF00BFC00201DF008FC31
:1033200000201DF005FC00201DF002FC00201DF017
:10333000FFFB00201DF0FCFB00201DF0F9FB00202E
:103340001DF0F6FB00201DF0F3FB00201DF0F0FB4C
:1033500000201DF0EDFB00201DF0EAFB00201DF019
:10336000E7FB00201DF0E4FB00201DF0E1FB002046
:103370001DF0DEFB00201DF0DBFB00201DF0D8FB64
:1033800000201DF0D5FB00201DF0D2FB00201DF019
:10339000CFFB00201DF0CCFB00201DF0C9FB00205E
:1033A0001DF0C6FB00201DF0C3FB00201DF0C0FB7C
:1033B00000201DF0BDFB00201DF0BAFB00201DF019
:1033C000B7FB00201DF0B4FB00201DF0B1FB002076
:1033D0001DF0AEFB00201DF0ABFB00201DF0A8FB94
:1033E00000201DF0A5FB00201DF0A2FB00201DF019
:1033F0009FFB00201DF09CFB00201DF099FB00208E
:103400001DF096FB00201DF093FB00201DF090FBAB
:1034100000201DF08DFB00201DF08AFB00201DF018
:1034200087FB00201DF084FB00201DF081FB0020A5
:103430001DF07EFB00201DF07BFB00201DF078FBC3
:1034400000201DF075FB00201DF072FB00201DF018
:103450006FFB00201DF06CFB00201DF069FB0020BD
:103460001DF066FB00201DF063FB00201DF060FBDB
:1034700000201DF05DFB00201DF05AFB00201DF018
:1034800057FB00201DF054FB00201DF051FB0020D5
:103490001DF04EFB00201DF04BFB00201DF048FBF3
:1034A00000201DF045FB00201DF042FB00201DF018
:1034B0003FFB00201DF03CFB00201DF039FB0020ED
:1034C0001DF036FB00201DF033FB00201DF030FB0B
:1034D00000201DF02DFB00201DF02AFB00201DF018
:1034E00027FB00201DF024FB00201DF021FB002005
:1034F0001DF01EFB00201DF01BFB00201DF018FB23
:1035000000201DF015FB00201DF012FB00201DF017
:103510000FFB00201DF00CFB00201DF009FB00201C
:103520001DF006FB00201DF003FB00201DF000FB3A
:1035300000201DF0FDFA00201DF0FAFA00201DF019
:10354000F7FA00201DF0F4FA00201DF0F1FA002037
:103550001DF0EEFA00201DF0EBFA00201DF0E8FA55
:1035600000201DF0E5FA00201DF0E2FA00201DF019
:10357000DFFA00201DF0DCFA00201DF0D9FA00204F
:103580001DF0D6FA00201DF0D3FA00201DF0D0FA6D
:1035900000201DF0CDFA00201DF0CAFA00201DF019
:1035A000C7FA00201DF0C4FA00201DF0C1FA002067
:1035B0001DF0BEFA00201DF0BBFA00201DF0B8FA85
:1035C00000201DF0B5FA00201DF0B2FA00201DF019
:1035D000AFFA00201DF0ACFA00201DF0A9FA00207F
:1035E0001DF0A6FA00201DF0A3FA00201DF0A0FA9D
:1035F00000201DF09DFA00201DF09AFA00201DF019
:1036000097FA00201DF094FA00201DF091FA002096
:103610001DF08EFA00201DF08BFA00201DF088FAB4
:1036200000201DF085FA00201DF082FA00201DF018
:103630007FFA00201DF07CFA00201DF079FA0020AE
:103640001DF076FA00201DF073FA00201DF070FACC
:1036500000201DF06DFA00201DF06AFA00201DF018
:1036600067FA00201DF064FA00201DF061FA0020C6
:103670001DF05EFA00201DF05BFA00201DF058FAE4
:1036800000201DF055FA00201DF052FA00201DF018
:103690004FFA00201DF04CFA00201DF049FA0020DE
:1036A0001DF046FA00201DF043FA00201DF040FAFC
:1036B00000201DF03DFA00201DF03AFA00201DF018
:1036C00037FA00201DF034FA00201DF031FA0020F6
:1036D0001DF02EFA00201DF02BFA00201DF028FA14
:1036E00000201DF025FA00201DF022FA00201DF018
:1036F0001FFA00201DF01CFA00201DF019FA00200E
:103700001DF016FA00201DF013FA00201DF010FA2B
:1037100000201DF00DFA00201DF00AFA00201DF017
:1037200007FA00201DF004FA00201DF001FA002025
:103730001DF0FEF900201DF0FBF900201DF0F8F946
:1037400000201DF0F5F900201DF0F2F900201DF019
:10375000EFF900201DF0ECF900201DF0E9F9002040
:103760001DF0E6F900201DF0E3F900201DF0E0F95E
:1037700000201DF0DDF900201DF0DAF900201DF019
:10378000D7F900201DF0D4F900201DF0D1F9002058
:103790001DF0CEF900201DF0CBF900201DF0C8F976
:1037A00000201DF0C5F900201DF0C2F900201DF019
:1037B000BFF900201DF0BCF900201DF0B9F9002070
:1037C0001DF0B6F900201DF0B3F900201DF0B0F98E
:1037D00000201DF0ADF900201DF0AAF900201DF019
:1037E000A7F900201DF0A4F900201DF0A1F9002088
:1037F0001DF09EF900201DF09BF900201DF098F9A6
:1038000000201DF095F900201DF092F900201DF018
:103810008FF900201DF08CF900201DF089F900209F
:103820001DF086F900201DF083F900201DF080F9BD
:1038300000201DF07DF900201DF07AF900201DF018
:1038400077F900201DF074F900201DF071F90020B7
:103850001DF06EF900201DF06BF900201DF068F9D5
:1038600000201DF065F900201DF062F900201DF018
:103870005FF900201DF05CF900201DF059F90020CF
:103880001DF056F900201DF053F900201DF050F9ED
:1038900000201DF04DF900201DF04AF900201DF018
:1038A00047F900201DF044F900201DF041F90020E7
:1038B0001DF03EF900201DF03BF900201DF038F905
:1038C00000201DF035F900201DF032F900201DF018
:1038D0002FF900201DF02CF900201DF029F90020FF
:1038E0001DF026F900201DF023F900201DF020F91D
:1038F00000201DF01DF900201DF01AF900201DF018
:1039000017F900201DF014F900201DF011F9002016
:103910001DF00EF900201DF00BF900201DF008F934
:1039200000201DF005F900201DF002F900201DF017
:10393000FFF800201DF0FCF800201DF0F9F8002031
:103940001DF0F6F800201DF0F3F800201DF0F0F84F
:1039500000201DF0EDF800201DF0EAF800201DF019
:10396000E7F800201DF0E4F800201DF0E1F8002049
:103970001DF0DEF800201DF0DBF800201DF0D8F867
:1039800000201DF0D5F800201DF0D2F800201DF019
:10399000CFF800201DF0CCF800201DF0C9F8002061
:1039A0001DF0C6F800201DF0C3F800201DF0C0F87F
:1039B00000201DF0BDF800201DF0BAF800201DF019
:1039C000B7F800201DF0B4F800201DF0B1F8002079
:1039D0001DF0AEF800201DF0ABF800201DF0A8F897
:1039E00000201DF0A5F800201DF0A2F800201DF019
:1039F0009FF800201DF09CF800201DF099F8002091
:103A00001DF096F800201DF093F800201DF090F8AE
:103A100000201DF08DF800201DF08AF800201DF018
:103A200087F800201DF084F800201DF081F80020A8
:103A30001DF07EF800201DF07BF800201DF078F8C6
:103A400000201DF075F800201DF072F800201DF018
:103A50006FF800201DF06CF800201DF069F80020C0
:103A60001DF066F800201DF063F800201DF060F8DE
:103A700000201DF05DF800201DF05AF800201DF018
:103A800057F800201DF054F800201DF051F80020D8
:103A90001DF04EF800201DF04BF800201DF048F8F6
:103AA00000201DF045F800201DF042F800201DF018
:103AB0003FF800201DF03CF800201DF039F80020F0
:103AC0001DF036F800201DF033F800201DF030F80E
:103AD00000201DF02DF800201DF02AF800201DF018
:103AE00027F800201DF024F800201DF021F8002008
:103AF0001DF01EF800201DF01BF800201DF018F826
:103B000000201DF015F800201DF012F800201DF017
:103B10000FF800201DF00CF800201DF009F800201F
:103B20001DF006F800201DF003F800201DF000F83D
:103B300000201CF0FDFF00201CF0FAFF00201CF00C
:103B4000F7FF00201CF0F4FF00201CF0F1FF002024
:103B50001CF0EEFF00201CF0EBFF00201CF0E8FF43
:103B600000201CF0E5FF00201CF0E2FF00201CF00C
:103B7000DFFF00201CF0DCFF00201CF0D9FF00203C
:103B80001CF0D6FF00201CF0D3FF00201CF0D0FF5B
:103B900000201CF0CDFF00201CF0CAFF00201CF00C
:103BA000C7FF00201CF0C4FF00201CF0C1FF002054
:103BB0001CF0BEFF00201CF0BBFF00201CF0B8FF73
:103BC00000201CF0B5FF00201CF0B2FF00201CF00C
:103BD000AFFF00201CF0ACFF00201CF0A9FF00206C
:103BE0001CF0A6FF00201CF0A3FF00201CF0A0FF8B
:103BF00000201CF09DFF00201CF09AFF00201CF00C
:103C000097FF00201CF094FF00201CF091FF002083
:103C10001CF08EFF00201CF08BFF00201CF088FFA2
:103C200000201CF085FF00201CF082FF00201CF00B
:103C30007FFF00201CF07CFF00201CF079FF00209B
:103C40001CF076FF00201CF073FF00201CF070FFBA
:103C500000201CF06DFF00201CF06AFF00201CF00B
:103C600067FF00201CF064FF00201CF061FF0020B3
:103C70001CF05EFF00201CF05BFF00201CF058FFD2
:103C800000201CF055FF00201CF052FF00201CF00B
:103C90004FFF00201CF04CFF00201CF049FF0020CB
:103CA0001CF046FF00201CF043FF00201CF040FFEA
:103CB00000201CF03DFF00201CF03AFF00201CF00B
:103CC00037FF00201CF034FF00201CF031FF0020E3
:103CD0001CF02EFF00201CF02BFF00201CF028FF02
:103CE00000201CF025FF00201CF022FF00201CF00B
:103CF0001FFF00201CF01CFF00201CF019FF0020FB
:103D00001CF016FF00201CF013FF00201CF010FF19
:103D100000201CF00DFF00201CF00AFF00201CF00A
:103D200007FF00201CF004FF00201CF001FF002012
:103D30001CF0FEFE00201CF0FBFE00201CF0F8FE34
:103D400000201CF0F5FE00201CF0F2FE00201CF00C
:103D5000EFFE00201CF0ECFE00201CF0E9FE00202D
:103D60001CF0E6FE00201CF0E3FE00201CF0E0FE4C
:103D700000201CF0DDFE00201CF0DAFE00201CF00C
:103D8000D7FE00201CF0D4FE00201CF0D1FE002045
:103D90001CF0CEFE00201CF0CBFE00201CF0C8FE64
:103DA00000201CF0C5FE00201CF0C2FE00201CF00C
:103DB000BFFE00201CF0BCFE00201CF0B9FE00205D
:103DC0001CF0B6FE00201CF0B3FE00201CF0B0FE7C
:103DD00000201CF0ADFE00201CF0AAFE00201CF00C
:103DE000A7FE00201CF0A4FE00201CF0A1FE002075
:103DF0001CF09EFE00201CF09BFE00201CF098FE94
:103E000000201CF095FE00201CF092FE00201CF00B
:103E10008FFE00201CF08CFE00201CF089FE00208C
:103E20001CF086FE00201CF083FE00201CF080FEAB
:103E300000201CF07DFE00201CF07AFE00201CF00B
:103E400077FE00201CF074FE00201CF071FE0020A4
:103E50001CF06EFE00201CF06BFE00201CF068FEC3
:103E600000201CF065FE00201CF062FE00201CF00B
:103E70005FFE00201CF05CFE00201CF059FE0020BC
:103E80001CF056FE00201CF053FE00201CF050FEDB
:103E900000201CF04DFE00201CF04AFE00201CF00B
:103EA00047FE00201CF044FE00201CF041FE0020D4
:103EB0001CF03EFE00201CF03BFE00201CF038FEF3
:103EC00000201CF035FE00201CF032FE00201CF00B
:103ED0002FFE00201CF02CFE00201CF029FE0020EC
:103EE0001CF026FE00201CF023FE00201CF020FE0B
:103EF00000201CF01DFE00201CF01AFE00201CF00B
:103F000017FE00201CF014FE00201CF011FE002003
:103F10001CF00EFE00201CF00BFE00201CF008FE22
:103F200000201CF005FE00201CF002FE00201CF00A
:103F3000FFFD00201CF0FCFD00201CF0F9FD00201E
:103F40001CF0F6FD00201CF0F3FD00201CF0F0FD3D
:103F500000201CF0EDFD00201CF0EAFD00201CF00C
:103F6000E7FD00201CF0E4FD00201CF0E1FD002036
:103F70001CF0DEFD00201CF0DBFD00201CF0D8FD55
:103F800000201CF0D5FD00201CF0D2FD00201CF00C
:103F9000CFFD00201CF0CCFD00201CF0C9FD00204E
:103FA0001CF0C6FD00201CF0C3FD00201CF0C0FD6D
:103FB00000201CF0BDFD00201CF0BAFD00201CF00C
:103FC000B7FD00201CF0B4FD00201CF0B1FD002066
:103FD0001CF0AEFD00201CF0ABFD00201CF0A8FD85
:103FE00000201CF0A5FD00201CF0A2FD00201CF00C
:103FF0009FFD00201CF09CFD00201CF099FD00207E
:104000001CF096FD00201CF093FD00201CF090FD9C
:1040100000201CF08DFD00201CF08AFD00201CF00B
:1040200087FD00201CF084FD00201CF081FD002095
:104030001CF07EFD00201CF07BFD00201CF078FDB4
:1040400000201CF075FD00201CF072FD00201CF00B
:104050006FFD00201CF06CFD00201CF069FD0020AD
:104060001CF066FD00201CF063FD00201CF060FDCC
:1040700000201CF05DFD00201CF05AFD00201CF00B
:1040800057FD00201CF054FD00201CF051FD0020C5
:104090001CF04EFD00201CF04BFD00201CF048FDE4
:1040A00000201CF045FD00201CF042FD00201CF00B
:1040B0003FFD00201CF03CFD00201CF039FD0020DD
:1040C0001CF036FD00201CF033FD00201CF030FDFC
:1040D00000201CF02DFD00201CF02AFD00201CF00B
:1040E00027FD00201CF024FD00201CF021FD0020F5
:1040F0001CF01EFD00201CF01BFD00201CF018FD14
:1041000000201CF015FD00201CF012FD00201CF00A
:104110000FFD00201CF00CFD00201CF009FD00200C
:104120001CF006FD00201CF003FD00201CF000FD2B
:1041300000201CF0FDFC00201CF0FAFC00201CF00C
:10414000F7FC00201CF0F4FC00201CF0F1FC002027
:104150001CF0EEFC00201CF0EBFC00201CF0E8FC46
:1041600000201CF0E5FC00201CF0E2FC00201CF00C
:10417000DFFC00201CF0DCFC00201CF0D9FC00203F
:104180001CF0D6FC00201CF0D3FC00201CF0D0FC5E
:1041900000201CF0CDFC00201CF0CAFC00201CF00C
:1041A000C7FC00201CF0C4FC00201CF0C1FC002057
:1041B0001CF0BEFC00201CF0BBFC00201CF0B8FC76
:1041C00000201CF0B5FC00201CF0B2FC00201CF00C
:1041D000AFFC00201CF0ACFC00201CF0A9FC00206F
:1041E0001CF0A6FC00201CF0A3FC00201CF0A0FC8E
:1041F00000201CF09DFC00201CF09AFC00201CF00C
:1042000097FC00201CF094FC00201CF091FC002086
:104210001CF08EFC00201CF08BFC00201CF088FCA5
:1042200000201CF085FC00201CF082FC00201CF00B
:104230007FFC00201CF07CFC00201CF079FC00209E
:104240001CF076FC00201CF073FC00201CF070FCBD
:1042500000201CF06DFC00201CF06AFC00201CF00B
:1042600067FC00201CF064FC00201CF061FC0020B6
:104270001CF05EFC00201CF05BFC00201CF058FCD5
:1042800000201CF055FC00201CF052FC00201CF00B
:104290004FFC00201CF04CFC00201CF049FC0020CE
:1042A0001CF046FC00201CF043FC00201CF040FCED
:1042B00000201CF03DFC00201CF03AFC00201CF00B
:1042C00037FC00201CF034FC00201CF031FC0020E6
:1042D0001CF02EFC00201CF02BFC00201CF028FC05
:1042E00000201CF025FC00201CF022FC00201CF00B
:1042F0001FFC00201CF01CFC00201CF019FC0020FE
:104300001CF016FC00201CF013FC00201CF010FC1C
:1043100000201CF00DFC00201CF00AFC00201CF00A
:1043200007FC00201CF004FC00201CF001FC002015
:104330001CF0FEFB00201CF0FBFB00201CF0F8FB37
:1043400000201CF0F5FB00201CF0F2FB00201CF00C
:10435000EFFB00201CF0ECFB00201CF0E9FB002030
:104360001CF0E6FB00201CF0E3FB00201CF0E0FB4F
:1043700000201CF0DDFB00201CF0DAFB00201CF00C
:10438000D7FB00201CF0D4FB00201CF0D1FB002048
:104390001CF0CEFB00201CF0CBFB00201CF0C8FB67
:1043A00000201CF0C5FB00201CF0C2FB00201CF00C
:1043B000BFFB00201CF0BCFB00201CF0B9FB002060
:1043C0001CF0B6FB00201CF0B3FB00201CF0B0FB7F
:1043D00000201CF0ADFB00201CF0AAFB00201CF00C
:1043E000A7FB00201CF0A4FB00201CF0A1FB002078
:1043F0001CF09EFB00201CF09BFB00201CF098FB97
:1044000000201CF095FB00201CF092FB00201CF00B
:104410008FFB00201CF08CFB00201CF089FB00208F
:104420001CF086FB00201CF083FB00201CF080FBAE
:1044300000201CF07DFB00201CF07AFB00201CF00B
:1044400077FB00201CF074FB00201CF071FB0020A7
:104450001CF06EFB00201CF06BFB00201CF068FBC6
:1044600000201CF065FB00201CF062FB00201CF00B
:104470005FFB00201CF05CFB00201CF059FB0020BF
:104480001CF056FB00201CF053FB00201CF050FBDE
:1044900000201CF04DFB00201CF04AFB00201CF00B
:1044A00047FB00201CF044FB00201CF041FB0020D7
:1044B0001CF03EFB00201CF03BFB00201CF038FBF6
:1044C00000201CF035FB00201CF032FB00201CF00B
:1044D0002FFB00201CF02CFB00201CF029FB0020EF
:1044E0001CF026FB00201CF023FB00201CF020FB0E
:1044F00000201CF01DFB00201CF01AFB00201CF00B
:1045000017FB00201CF014FB00201CF011FB002006
:104510001CF00EFB00201CF00BFB00201CF008FB25
:1045200000201CF005FB00201CF002FB00201CF00A
:10453000FFFA00201CF0FCFA00201CF0F9FA002021
:104540001CF0F6FA00201CF0F3FA00201CF0F0FA40
:1045500000201CF0EDFA00201CF0EAFA00201CF00C
:10456000E7FA00201CF0E4FA00201CF0E1FA002039
:104570001CF0DEFA00201CF0DBFA00201CF0D8FA58
:1045800000201CF0D5FA00201CF0D2FA00201CF00C
:10459000CFFA00201CF0CCFA00201CF0C9FA002051
:1045A0001CF0C6FA00201CF0C3FA00201CF0C0FA70
:1045B00000201CF0BDFA00201CF0BAFA00201CF00C
:1045C000B7FA00201CF0B4FA00201CF0B1FA002069
:1045D0001CF0AEFA00201CF0ABFA00201CF0A8FA88
:1045E00000201CF0A5FA00201CF0A2FA00201CF00C
:1045F0009FFA00201CF09CFA00201CF099FA002081
:104600001CF096FA00201CF093FA00201CF090FA9F
:1046100000201CF08DFA00201CF08AFA00201CF00B
:1046200087FA00201CF084FA00201CF081FA002098
:104630001CF07EFA00201CF07BFA00201CF078FAB7
:1046400000201CF075FA00201CF072FA00201CF00B
:104650006FFA00201CF06CFA00201CF069FA0020B0
:104660001CF066FA00201CF063FA00201CF060FACF
:1046700000201CF05DFA00201CF05AFA00201CF00B
:1046800057FA00201CF054FA00201CF051FA0020C8
:104690001CF04EFA00201CF04BFA00201CF048FAE7
:1046A00000201CF045FA00201CF042FA00201CF00B
:1046B0003FFA00201CF03CFA00201CF039FA0020E0
:1046C0001CF036FA00201CF033FA00201CF030FAFF
:1046D00000201CF02DFA00201CF02AFA00201CF00B
:1046E00027FA00201CF024FA00201CF021FA0020F8
:1046F0001CF01EFA00201CF01BFA00201CF018FA17
:1047000000201CF015FA00201CF012FA00201CF00A
:104710000FFA00201CF00CFA00201CF009FA00200F
:104720001CF006FA00201CF003FA00201CF000FA2E
:1047300000201CF0FDF900201CF0FAF900201CF00C
:10474000F7F900201CF0F4F900201CF0F1F900202A
:104750001CF0EEF900201CF0EBF900201CF0E8F949
:1047600000201CF0E5F900201CF0E2F900201CF00C
:10477000DFF900201CF0DCF900201CF0D9F9002042
:104780001CF0D6F900201CF0D3F900201CF0D0F961
:1047900000201CF0CDF900201CF0CAF900201CF00C
:1047A000C7F900201CF0C4F900201CF0C1F900205A
:1047B0001CF0BEF900201CF0BBF900201CF0B8F979
:1047C00000201CF0B5F900201CF0B2F900201CF00C
:1047D000AFF900201CF0ACF900201CF0A9F9002072
:1047E0001CF0A6F900201CF0A3F900201CF0A0F991
:1047F00000201CF09DF900201CF09AF900201CF00C
:1048000097F900201CF094F900201CF091F9002089
:104810001CF08EF900201CF08BF900201CF088F9A8
:1048200000201CF085F900201CF082F900201CF00B
:104830007FF900201CF07CF900201CF079F90020A1
:104840001CF076F900201CF073F900201CF070F9C0
:1048500000201CF06DF900201CF06AF900201CF00B
:1048600067F900201CF064F900201CF061F90020B9
:104870001CF05EF900201CF05BF900201CF058F9D8
:1048800000201CF055F900201CF052F900201CF00B
:104890004FF900201CF04CF900201CF049F90020D1
:1048A0001CF046F900201CF043F900201CF040F9F0
:1048B00000201CF03DF900201CF03AF900201CF00B
:1048C00037F900201CF034F900201CF031F90020E9
:1048D0001CF02EF900201CF02BF900201CF028F908
:1048E00000201CF025F900201CF022F900201CF00B
:1048F0001FF900201CF01CF900201CF019F9002001
:104900001CF016F900201CF013F900201CF010F91F
:1049100000201CF00DF900201CF00AF900201CF00A
:1049200007F900201CF004F900201CF001F9002018
:104930001CF0FEF800201CF0FBF800201CF0F8F83A
:1049400000201CF0F5F800201CF0F2F800201CF00C
:10495000EFF800201CF0ECF800201CF0E9F8002033
:104960001CF0E6F800201CF0E3F800201CF0E0F852
:1049700000201CF0DDF800201CF0DAF800201CF00C
:10498000D7F800201CF0D4F800201CF0D1F800204B
:104990001CF0CEF800201CF0CBF800201CF0C8F86A
:1049A00000201CF0C5F800201CF0C2F800201CF00C
:1049B000BFF800201CF0BCF800201CF0B9F8002063
:1049C0001CF0B6F800201CF0B3F800201CF0B0F882
:1049D00000201CF0ADF800201CF0AAF800201CF00C
:1049E000A7F800201CF0A4F800201CF0A1F800207B
:1049F0001CF09EF800201CF09BF800201CF098F89A
:104A000000201CF095F800201CF092F800201CF00B
:104A10008FF800201CF08CF800201CF089F8002092
:104A20001CF086F800201CF083F800201CF080F8B1
:104A300000201CF07DF800201CF07AF800201CF00B
:104A400077F800201CF074F800201CF071F80020AA
:104A50001CF06EF800201CF06BF800201CF068F8C9
:104A600000201CF065F800201CF062F800201CF00B
:104A70005FF800201CF05CF800201CF059F80020C2
:104A80001CF056F800201CF053F800201CF050F8E1
:104A900000201CF04DF800201CF04AF800201CF00B
:104AA00047F800201CF044F800201CF041F80020DA
:104AB0001CF03EF800201CF03BF800201CF038F8F9
:104AC00000201CF035F800201CF032F800201CF00B
:104AD0002FF800201CF02CF800201CF029F80020F2
:104AE0001CF026F800201CF023F800201CF020F811
:104AF00000201CF01DF800201CF01AF800201CF00B
:104B000017F800201CF014F800201CF011F8002009
:104B10001CF00EF800201CF00BF800201CF008F828
:104B200000201CF005F800201CF002F800201BF00B
:104B3000FFFF00201BF0FCFF00201BF0F9FF00200E
:104B40001BF0F6FF00201BF0F3FF00201BF0F0FF2E
:104B500000201BF0EDFF00201BF0EAFF00201BF0FF
:104B6000E7FF00201BF0E4FF00201BF0E1FF002026
:104B70001BF0DEFF00201BF0DBFF00201BF0D8FF46
:104B800000201BF0D5FF00201BF0D2FF00201BF0FF
:104B9000CFFF00201BF0CCFF00201BF0C9FF00203E
:104BA0001BF0C6FF00201BF0C3FF00201BF0C0FF5E
:104BB00000201BF0BDFF00201BF0BAFF00201BF0FF
:104BC000B7FF00201BF0B4FF00201BF0B1FF002056
:104BD0001BF0AEFF00201BF0ABFF00201BF0A8FF76
:104BE00000201BF0A5FF00201BF0A2FF00201BF0FF
:104BF0009FFF00201BF09CFF00201BF099FF00206E
:104C00001BF096FF00201BF093FF00201BF090FF8D
:104C100000201BF08DFF00201BF08AFF00201BF0FE
:104C200087FF00201BF084FF00201BF081FF002085
:104C30001BF07EFF00201BF07BFF00201BF078FFA5
:104C400000201BF075FF00201BF072FF00201BF0FE
:104C50006FFF00201BF06CFF00201BF069FF00209D
:104C60001BF066FF00201BF063FF00201BF060FFBD
:104C700000201BF05DFF00201BF05AFF00201BF0FE
:104C800057FF00201BF054FF00201BF051FF0020B5
:104C90001BF04EFF00201BF04BFF00201BF048FFD5
:104CA00000201BF045FF00201BF042FF00201BF0FE
:104CB0003FFF00201BF03CFF00201BF039FF0020CD
:104CC0001BF036FF00201BF033FF00201BF030FFED
:104CD00000201BF02DFF00201BF02AFF00201BF0FE
:104CE00027FF00201BF024FF00201BF021FF0020E5
:104CF0001BF01EFF00201BF01BFF00201BF018FF05
:104D000000201BF015FF00201BF012FF00201BF0FD
:104D10000FFF00201BF00CFF00201BF009FF0020FC
:104D20001BF006FF00201BF003FF00201BF000FF1C
:104D300000201BF0FDFE00201BF0FAFE00201BF0FF
:104D4000F7FE00201BF0F4FE00201BF0F1FE002017
:104D50001BF0EEFE00201BF0EBFE00201BF0E8FE37
:104D600000201BF0E5FE00201BF0E2FE00201BF0FF
:104D7000DFFE00201BF0DCFE00201BF0D9FE00202F
:104D80001BF0D6FE00201BF0D3FE00201BF0D0FE4F
:104D900000201BF0CDFE00201BF0CAFE00201BF0FF
:104DA000C7FE00201BF0C4FE00201BF0C1FE002047
:104DB0001BF0BEFE00201BF0BBFE00201BF0B8FE67
:104DC00000201BF0B5FE00201BF0B2FE00201BF0FF
:104DD000AFFE00201BF0ACFE00201BF0A9FE00205F
:104DE0001BF0A6FE00201BF0A3FE00201BF0A0FE7F
:104DF00000201BF09DFE00201BF09AFE00201BF0FF
:104E000097FE00201BF094FE00201BF091FE002076
:104E10001BF08EFE00201BF08BFE00201BF088FE96
:104E200000201BF085FE00201BF082FE00201BF0FE
:104E30007FFE00201BF07CFE00201BF079FE00208E
:104E40001BF076FE00201BF073FE00201BF070FEAE
:104E500000201BF06DFE00201BF06AFE00201BF0FE
:104E600067FE00201BF064FE00201BF061FE0020A6
:104E70001BF05EFE00201BF05BFE00201BF058FEC6
:104E800000201BF055FE00201BF052FE00201BF0FE
:104E90004FFE00201BF04CFE00201BF049FE0020BE
:104EA0001BF046FE00201BF043FE00201BF040FEDE
:104EB00000201BF03DFE00201BF03AFE00201BF0FE
:104EC00037FE00201BF034FE00201BF031FE0020D6
:104ED0001BF02EFE00201BF02BFE00201BF028FEF6
:104EE00000201BF025FE00201BF022FE00201BF0FE
:104EF0001FFE00201BF01CFE00201BF019FE0020EE
:104F00001BF016FE00201BF013FE00201BF010FE0D
:104F100000201BF00DFE00201BF00AFE00201BF0FD
:104F200007FE00201BF004FE00201BF001FE002005
:104F30001BF0FEFD00201BF0FBFD00201BF0F8FD28
:104F400000201BF0F5FD00201BF0F2FD00201BF0FF
:104F5000EFFD00201BF0ECFD00201BF0E9FD002020
:104F60001BF0E6FD00201BF0E3FD00201BF0E0FD40
:104F700000201BF0DDFD00201BF0DAFD00201BF0FF
:104F8000D7FD00201BF0D4FD00201BF0D1FD002038
:104F90001BF0CEFD00201BF0CBFD00201BF0C8FD58
:104FA00000201BF0C5FD00201BF0C2FD00201BF0FF
:104FB000BFFD00201BF0BCFD00201BF0B9FD002050
:104FC0001BF0B6FD00201BF0B3FD00201BF0B0FD70
:104FD00000201BF0ADFD00201BF0AAFD00201BF0FF
:104FE000A7FD00201BF0A4FD00201BF0A1FD002068
:104FF0001BF09EFD00201BF09BFD00201BF098FD88
:1050000000201BF095FD00201BF092FD00201BF0FE
:105010008FFD00201BF08CFD00201BF089FD00207F
:105020001BF086FD00201BF083FD00201BF080FD9F
:1050300000201BF07DFD00201BF07AFD00201BF0FE
:1050400077FD00201BF074FD00201BF071FD002097
:105050001BF06EFD00201BF06BFD00201BF068FDB7
:1050600000201BF065FD00201BF062FD00201BF0FE
:105070005FFD00201BF05CFD00201BF059FD0020AF
:105080001BF056FD00201BF053FD00201BF050FDCF
:1050900000201BF04DFD00201BF04AFD00201BF0FE
:1050A00047FD00201BF044FD00201BF041FD0020C7
:1050B0001BF03EFD00201BF03BFD00201BF038FDE7
:1050C00000201BF035FD00201BF032FD00201BF0FE
:1050D0002FFD00201BF02CFD00201BF029FD0020DF
:1050E0001BF026FD00201BF023FD00201BF020FDFF
:1050F00000201BF01DFD00201BF01AFD00201BF0FE
:1051000017FD00201BF014FD00201BF011FD0020F6
:105110001BF00EFD00201BF00BFD00201BF008FD16
:1051200000201BF005FD00201BF002FD00201BF0FD
:10513000FFFC00201BF0FCFC00201BF0F9FC002011
:105140001BF0F6FC00201BF0F3FC00201BF0F0FC31
:1051500000201BF0EDFC00201BF0EAFC00201BF0FF
:10516000E7FC00201BF0E4FC00201BF0E1FC002029
:105170001BF0DEFC00201BF0DBFC00201BF0D8FC49
:1051800000201BF0D5FC00201BF0D2FC00201BF0FF
:10519000CFFC00201BF0CCFC00201BF0C9FC002041
:1051A0001BF0C6FC00201BF0C3FC00201BF0C0FC61
:1051B00000201BF0BDFC00201BF0BAFC00201BF0FF
:1051C000B7FC00201BF0B4FC00201BF0B1FC002059
:1051D0001BF0AEFC00201BF0ABFC00201BF0A8FC79
:1051E00000201BF0A5FC00201BF0A2FC00201BF0FF
:1051F0009FFC00201BF09CFC00201BF099FC002071
:105200001BF096FC00201BF093FC00201BF090FC90
:1052100000201BF08DFC00201BF08AFC00201BF0FE
:1052200087FC00201BF084FC00201BF081FC002088
:105230001BF07EFC00201BF07BFC00201BF078FCA8
:1052400000201BF075FC00201BF072FC00201BF0FE
:105250006FFC00201BF06CFC00201BF069FC0020A0
:105260001BF066FC00201BF063FC00201BF060FCC0
:1052700000201BF05DFC00201BF05AFC00201BF0FE
:1052800057FC00201BF054FC00201BF051FC0020B8
:105290001BF04EFC00201BF04BFC00201BF048FCD8
:1052A00000201BF045FC00201BF042FC00201BF0FE
:1052B0003FFC00201BF03CFC00201BF039FC0020D0
:1052C0001BF036FC00201BF033FC00201BF030FCF0
:1052D00000201BF02DFC00201BF02AFC00201BF0FE
:1052E00027FC00201BF024FC00201BF021FC0020E8
:1052F0001BF01EFC00201BF01BFC00201BF018FC08
:1053000000201BF015FC00201BF012FC00201BF0FD
:105310000FFC00201BF00CFC00201BF009FC0020FF
:105320001BF006FC00201BF003FC00201BF000FC1F
:1053300000201BF0FDFB00201BF0FAFB00201BF0FF
:10534000F7FB00201BF0F4FB00201BF0F1FB00201A
:105350001BF0EEFB00201BF0EBFB00201BF0E8FB3A
:1053600000201BF0E5FB00201BF0E2FB00201BF0FF
:10537000DFFB00201BF0DCFB00201BF0D9FB002032
:105380001BF0D6FB00201BF0D3FB00201BF0D0FB52
:1053900000201BF0CDFB00201BF0CAFB00201BF0FF
:1053A000C7FB00201BF0C4FB00201BF0C1FB00204A
:1053B0001BF0BEFB00201BF0BBFB00201BF0B8FB6A
:1053C00000201BF0B5FB00201BF0B2FB00201BF0FF
:1053D000AFFB00201BF0ACFB00201BF0A9FB002062
:1053E0001BF0A6FB00201BF0A3FB00201BF0A0FB82
:1053F00000201BF09DFB00201BF09AFB00201BF0FF
:1054000097FB00201BF094FB00201BF091FB002079
:105410001BF08EFB00201BF08BFB00201BF088FB99
:1054200000201BF085FB00201BF082FB00201BF0FE
:105430007FFB00201BF07CFB00201BF079FB002091
:105440001BF076FB00201BF073FB00201BF070FBB1
:1054500000201BF06DFB00201BF06AFB00201BF0FE
:1054600067FB00201BF064FB00201BF061FB0020A9
:105470001BF05EFB00201BF05BFB00201BF058FBC9
:1054800000201BF055FB00201BF052FB00201BF0FE
:105490004FFB00201BF04CFB00201BF049FB0020C1
:1054A0001BF046FB00201BF043FB00201BF040FBE1
:1054B00000201BF03DFB00201BF03AFB00201BF0FE
:1054C00037FB00201BF034FB00201BF031FB0020D9
:1054D0001BF02EFB00201BF02BFB00201BF028FBF9
:1054E00000201BF025FB00201BF022FB00201BF0FE
:1054F0001FFB00201BF01CFB00201BF019FB0020F1
:105500001BF016FB00201BF013FB00201BF010FB10
:1055100000201BF00DFB00201BF00AFB00201BF0FD
:1055200007FB00201BF004FB00201BF001FB002008
:105530001BF0FEFA00201BF0FBFA00201BF0F8FA2B
:1055400000201BF0F5FA00201BF0F2FA00201BF0FF
:10555000EFFA00201BF0ECFA00201BF0E9FA002023
:105560001BF0E6FA00201BF0E3FA00201BF0E0FA43
:1055700000201BF0DDFA00201BF0DAFA00201BF0FF
:10558000D7FA00201BF0D4FA00201BF0D1FA00203B
:105590001BF0CEFA00201BF0CBFA00201BF0C8FA5B
:1055A00000201BF0C5FA00201BF0C2FA00201BF0FF
:1055B000BFFA00201BF0BCFA00201BF0B9FA002053
:1055C0001BF0B6FA00201BF0B3FA00201BF0B0FA73
:1055D00000201BF0ADFA00201BF0AAFA00201BF0FF
:1055E000A7FA00201BF0A4FA00201BF0A1FA00206B
:1055F0001BF09EFA00201BF09BFA00201BF098FA8B
:1056000000201BF095FA00201BF092FA00201BF0FE
:105610008FFA00201BF08CFA00201BF089FA002082
:105620001BF086FA00201BF083FA00201BF080FAA2
:1056300000201BF07DFA00201BF07AFA00201BF0FE
:1056400077FA00201BF074FA00201BF071FA00209A
:105650001BF06EFA00201BF06BFA00201BF068FABA
:1056600000201BF065FA00201BF062FA00201BF0FE
:105670005FFA00201BF05CFA00201BF059FA0020B2
:105680001BF056FA00201BF053FA00201BF050FAD2
:1056900000201BF04DFA00201BF04AFA00201BF0FE
:1056A00047FA00201BF044FA00201BF041FA0020CA
:1056B0001BF03EFA00201BF03BFA00201BF038FAEA
:1056C00000201BF035FA00201BF032FA00201BF0FE
:1056D0002FFA00201BF02CFA00201BF029FA0020E2
:1056E0001BF026FA00201BF023FA00201BF020FA02
:1056F00000201BF01DFA00201BF01AFA00201BF0FE
:1057000017FA00201BF014FA00201BF011FA0020F9
:105710001BF00EFA00201BF00BFA00201BF008FA19
:1057200000201BF005FA00201BF002FA00201BF0FD
:10573000FFF900201BF0FCF900201BF0F9F9002014
:105740001BF0F6F900201BF0F3F900201BF0F0F934
:1057500000201BF0EDF900201BF0EAF900201BF0FF
:10576000E7F900201BF0E4F900201BF0E1F900202C
:105770001BF0DEF900201BF0DBF900201BF0D8F94C
:1057800000201BF0D5F900201BF0D2F900201BF0FF
:10579000CFF900201BF0CCF900201BF0C9F9002044
:1057A0001BF0C6F900201BF0C3F900201BF0C0F964
:1057B00000201BF0BDF900201BF0BAF900201BF0FF
:1057C000B7F900201BF0B4F900201BF0B1F900205C
:1057D0001BF0AEF900201BF0ABF900201BF0A8F97C
:1057E00000201BF0A5F900201BF0A2F900201BF0FF
:1057F0009FF900201BF09CF900201BF099F9002074
:105800001BF096F900201BF093F900201BF090F993
:1058100000201BF08DF900201BF08AF900201BF0FE
:1058200087F900201BF084F900201BF081F900208B
:105830001BF07EF900201BF07BF900201BF078F9AB
:1058400000201BF075F900201BF072F900201BF0FE
:105850006FF900201BF06CF900201BF069F90020A3
:105860001BF066F900201BF063F900201BF060F9C3
:1058700000201BF05DF900201BF05AF900201BF0FE
:1058800057F900201BF054F900201BF051F90020BB
:105890001BF04EF900201BF04BF900201BF048F9DB
:1058A00000201BF045F900201BF042F900201BF0FE
:1058B0003FF900201BF03CF900201BF039F90020D3
:1058C0001BF036F900201BF033F900201BF030F9F3
:1058D00000201BF02DF900201BF02AF900201BF0FE
:1058E00027F900201BF024F900201BF021F90020EB
:1058F0001BF01EF900201BF01BF900201BF018F90B
:1059000000201BF015F900201BF012F900201BF0FD
:105910000FF900201BF00CF900201BF009F9002002
:105920001BF006F900201BF003F900201BF000F922
:1059300000201BF0FDF800201BF0FAF800201BF0FF
:10594000F7F800201BF0F4F800201BF0F1F800201D
:105950001BF0EEF800201BF0EBF800201BF0E8F83D
:1059600000201BF0E5F800201BF0E2F800201BF0FF
:10597000DFF800201BF0DCF800201BF0D9F8002035
:105980001BF0D6F800201BF0D3F800201BF0D0F855
:1059900000201BF0CDF800201BF0CAF800201BF0FF
:1059A000C7F800201BF0C4F800201BF0C1F800204D
:1059B0001BF0BEF800201BF0BBF800201BF0B8F86D
:1059C00000201BF0B5F800201BF0B2F800201BF0FF
:1059D000AFF800201BF0ACF800201BF0A9F8002065
:1059E0001BF0A6F800201BF0A3F800201BF0A0F885
:1059F00000201BF09DF800201BF09AF800201BF0FF
:105A000097F800201BF094F800201BF091F800207C
:105A10001BF08EF800201BF08BF800201BF088F89C
:105A200000201BF085F800201BF082F800201BF0FE
:105A30007FF800201BF07CF800201BF079F8002094
:105A40001BF076F800201BF073F800201BF070F8B4
:105A500000201BF06DF800201BF06AF800201BF0FE
:105A600067F800201BF064F800201BF061F80020AC
:105A70001BF05EF800201BF05BF800201BF058F8CC
:105A800000201BF055F800201BF052F800201BF0FE
:105A90004FF800201BF04CF800201BF049F80020C4
:105AA0001BF046F800201BF043F800201BF040F8E4
:105AB00000201BF03DF800201BF03AF800201BF0FE
:105AC00037F800201BF034F800201BF031F80020DC
:105AD0001BF02EF800201BF02BF800201BF028F8FC
