:020000041000EA
:1000000000B5324B212058609868022188439860DF
:10001000D860186158612E4B002199600221596106
:100020000121F02299502B49196001219960352056
:1000300000F044F80222904214D00621196600F024
:1000400034F8196E01211966002018661A6600F04E
:100050002CF8196E196E196E052000F02FF8012189
:100060000842F9D1002199601B49196000215960AB
:100070001A491B48016001219960EB211966A021F2
:10008000196600F012F800219960164914480160C1
:100090000121996001BC002800D000471248134993
:1000A000086003C880F30888084703B5996A0420EC
:1000B0000142FBD001200142F8D103BD02B5186610
:1000C0001866FFF7F2FF186E186E02BD00000240BE
:1000D000000000180000070000035F00212200005C
:1000E000F4000018222000A00001001008ED00E03C
:1000F00000000000000000000000000074B24E7A12
:1001000000200420F7010010C3010010C5010010F9
:10011000C1010010C1010010C1010010C101001097
:10012000C1010010C1010010C1010010C701001081
:10013000C1010010C1010010C9010010CB01001065
:10014000CD010010CD010010CD010010CD01001037
:10015000CD010010CD010010CD010010CD01001027
:10016000CD010010CD010010CD010010CD01001017
:10017000CD010010CD010010CD010010CD01001007
:10018000CD010010CD010010CD010010CD010010F7
:10019000CD010010CD010010CD010010CD010010E7
:1001A000CD010010CD010010CD010010CD010010D7
:1001B000CD010010CD010010CD010010CD010010C7
:1001C00000BE00BE00BE00BE00BE00BEEFF3058054
:1001D000103800BEF2EB8871688B0210948B02100D
:1001E0003402001090A31AE700201F49086006C8D7
:1001F00081F3088810471D48006800282FD10DA4FE
:100200000ECC002902D000F012F8F9E71849194A7B
:10021000002000E001C19142FCD1174988471749ED
:1002200088471749884700BEFDE701C901C29A42C5
:10023000FBD37047948B0210C0000020F8190020F7
:10024000CCA402100000042000000420CCA4021062
:10025000001004200010042000000000704709482E
:100260001BF090FD0047000008ED00E0000000D00A
:10027000F8190020FC2E0020C1AA0110E588011009
:100280007DAA01105756000006005250ABB36053D0
:10029000B873021006005250861C0302C873021085
:1002A000060052505422A29DD073021005005250F5
:1002B000DE65F468CCA40210F8B5C04610B5064C53
:1002C0002378002B07D1054B002B02D0044800E017
:1002D00000BF0123237010BDD01F002000000000CC
:1002E00058580210044B10B5002B03D003490448A2
:1002F00000E000BF10BDC04600000000D41F002079
:100300005858021010B5024823F052F810BDC046EC
:10031000D80F00200120704710B50400FFF7FAFF46
:10032000A04205D3A62080006043024BC01810BD38
:100330000020FCE7400D00200120704710B50400AC
:10034000FFF7E8FFA04204D33420444302480019D9
:1003500010BD0020FCE7C046D80F002010B582B0C9
:100360000C00144BC3185A4253415B00124A9B5E67
:100370008B4204D06B46DA1D1470002115E06B46E9
:10038000DA1D0D23137000210029F3D183699B0628
:10039000FCD41378036001310132F5E783699B06D1
:1003A000FCD413780360013101320029F6D002B089
:1003B00010BDC0460080FCBFAC2E002010B500224E
:1003C000012118F0B9FA10BD10B50122002118F072
:1003D000B3FA10BD30B583B00C0000232DE06B469E
:1003E000DA1D1570002106E083699B06FCD41378A2
:1003F0000360013101320029F6D018E06B46DA1DA6
:100400000D231370002106E083699B06FCD413784A
:100410000360013101320029F6D01CE083699B069C
:10042000FCD413780360013101320029F6D023781F
:100430000D3B5A425341DBB201342578002D0FD0D9
:10044000002BCCD1074BC3185A4253415B00064ADC
:100450009B5EAB42D2D06B46DA1D15700021E4E7FB
:1004600003B030BD0080FCBFAC2E002010B519F0E9
:1004700005FC10BD30B583B00223022B08DD244AF1
:100480001368013313600A20FFF7F0FF002418E01F
:10049000022B01D00133F0E71E4AD054FAE76B4635
:1004A000DA1D0D2313700021002913D11A4B9B690B
:1004B0009B06FBD41078184B186001310132F3E72A
:1004C0000134022C16DC134B1D5D144B00229B5E85
:1004D000AB42E4D06B46DA1D157000210029EFD144
:1004E0000D4B9B699B06FBD410780B4B18600131B8
:1004F0000132F3E70A20FFF7B9FF022303E0054AC0
:100500000021D1540133032BF9DD03B030BDC046C7
:10051000F82B00208410002000400340AC2E002067
:1005200010B5002119F07EFB10BD000070B51C2035
:1005300018F01CFAD024240680235B0563626361F3
:10054000192018F013FA8025AD04656265616420F6
:10055000FFF78CFFA5616420FFF788FFE1263603D3
:10056000310048481AF00CF8310047481AF008F8F2
:100570000221002018F0C8F90221012018F0C4F966
:100580000221042018F0C0F90221052018F0BCF95E
:100590000221092018F0B8F90E2018F0E7F911200F
:1005A00018F0E4F98022D201626280239B02636228
:1005B00062616361192018F0D9F965620B2018F0A7
:1005C000D5F980231B0163621A2018F0CFF980232C
:1005D000DB0463620A2018F0C9F98023DB00636240
:1005E0001B2018F0C3F980231B0563620022012140
:1005F0001B2018F0A1F9062018F0B8F94023636217
:1006000000220121062018F097F9204B01221A60E0
:10061000162018F0ABF98023DB0363620F2018F07B
:10062000A5F980231B026362132018F09FF9802331
:100630001B03A36200220121132018F07DF9122070
:1006400018F094F98023DB02A3620022012112201A
:1006500018F072F9142018F089F980235B03A36263
:1006600001220021142018F067F9152018F07EF9F6
:1006700080239B03A36201220021152018F05CF95E
:1006800070BDC04600400340008003405810002069
:100690000023244A1360244A1360244A1360244A26
:1006A0001360244A1360244A1360244A1360244AC6
:1006B0001360244A1360244A1360244A23211170D2
:1006C00049205070053890701530D07013715371F7
:1006D0009371D371137253729372D37213735373F2
:1006E0009373D373137453749374D37413755375D2
:1006F0009375D375137653769376D37613775377B2
:100700009377D3773938135401301354013013548D
:100710005354013153540131535401315354013175
:1007200053547047D8270020CC2E0020F82B0020EF
:1007300010210020082100200C210020042100208D
:1007400014210020482700204C270020EC26002000
:10075000124B00221A705A709A70DA701A715A711C
:100760009A71DA711A725A729A72DA721A735A7329
:100770009A73DA731A745A749A74DA741A755A7509
:100780009A75DA751A765A769A76DA761A775A77E9
:100790009A77DA7720215A547047C046C426002041
:1007A00010B51A4B1B68322B0CD0184B1B68312B21
:1007B00015D0174B1B78002B15D0154B1B78002B31
:1007C0001AD110BD134B1B68002BEED13220FFF75E
:1007D0004DFE0F4A137801214B401370E5E70C4B97
:1007E00001221A70E5E70221052018F08DF8012199
:1007F000092018F089F8E0E70121052018F084F8B5
:100800000221092018F080F8DBE7C046181000200C
:1008100060100020682D0020F0B583B001243FE176
:10082000A74B1B68002B00D141E1012C00D108E14E
:10083000A44B1D5DA44B02229B5EAB4200D102E1A2
:100840006B46DA1D1570002114E16B46DA1D167037
:10085000002104E016789D4B1E6001310132002911
:1008600015D19A4B9B699B06FBD4F3E76B46DA1DC7
:100870000D2313700021002919D1944B9B699B060D
:10088000FBD41778914B1F6001310132F3E70378F5
:100890000D3B5A425341DBB201300678002E19D08D
:1008A000002BD2D1884B02229B5EB342DED06B4636
:1008B000DA1D167000210029E9D1844B9B699B0643
:1008C000FBD41678814B1E6001310132F3E700231F
:1008D0007F48E2E77F4B1B786E2B1CD00135FA2353
:1008E0009B009D42A4D2D026360640277761FA208D
:1008F000FFF716FEB761784B9D42EFD1754B1B7821
:10090000732BE4D06E2BE5D1744B1B68312BE1D1F6
:1009100000236F48C1E7714B1B68322BDED1704B4F
:100920001B78002B47D16E4B1B78002BD6D16D481E
:100930005AE06B46DA1D1670002108E0634B9B6994
:100940009B06FBD41678614B1E60013101320029F1
:10095000F4D003780D3B5A425341DBB201300678A4
:10096000002EE0D0002BE4D1574B02229B5EB34215
:100970000FD06B46DA1D167000210029E9D1534BC8
:100980009B699B06FBD41678504B1E6001310132E7
:10099000F3E76B46DA1D0D231370002108E04B4B83
:1009A0009B699B06FBD41778484B1F6001310132CD
:1009B0000029F4D0DDE700234548D0E76B46DA1D77
:1009C0001670002108E0414B9B699B06FBD416780A
:1009D0003E4B1E60013101320029F4D003780D3BFB
:1009E0005A425341DBB201300678002E00D175E740
:1009F000002BE3D1344B02229B5EB3420FD06B46F7
:100A0000DA1D167000210029E8D1304B9B699B0646
:100A1000FBD416782D4B1E6001310132F3E76B4693
:100A2000DA1D0D231370002108E0284B9B699B06FB
:100A3000FBD41778254B1F60013101320029F4D017
:100A4000DDE700254BE76B46DA1D0D23137000210F
:100A500008E01E4B9B699B06FBD410781B4B18606B
:100A6000013101320029F4D0EAE61078174B186002
:100A700001310132002904D1144B9B699B06FBD440
:100A8000F3E7102C13D1184B01221A60174B0022E8
:100A90001A70FFF785FE0AE0094B01221A60013443
:100AA000102C0BDC074B5B78572B00D1B8E6044BBE
:100AB0001B68002BF3D1102CF1D1EDE703B0F0BD92
:100AC000302C0020C4260020AC2E002000800340E3
:100AD0005C5802100C100020E703000018100020E2
:100AE0006010002064580210682D0020F62E0020AF
:100AF000012800D07047344B1B78702B2BD06E2B05
:100B0000F8D1D0231B065B689B0204D5D0231B06BB
:100B10005B68DB024ED4D0231B065B689B0204D4C7
:100B2000D0231B065B68DB024BD4D0231B065B681B
:100B30009B0204D5D0231B065B68DB02DAD5D023E9
:100B40001B065B689B02D5D4D0231B065B68DB02C7
:100B5000D0D40320CEE7D02212065268920204D4E9
:100B6000D02212065268D2021FD5D0221206526835
:100B7000920204D5D02212065268D2021FD5D0228A
:100B800012065268920204D4D02212065268D2028F
:100B9000B0D4D022120652689202B0D5D0221206EA
:100BA0005268D202ABD50320A4E7084B00221A708A
:100BB00000209FE7054B00221A7000209AE70220D0
:100BC00098E7022096E7C0461C100020F12E002076
:100BD00030B583B0042800D1ABE009DC012850D047
:100BE000032854D1A5481CF0D3F90023A44877E08A
:100BF00005284CD1A3481CF0CBF90023A24815E1ED
:100C00006B46DA1D1470002100291AD19F4B9B6995
:100C10009B06FBD414789D4B1C6001310132F3E735
:100C20006B46DA1D0D2313700021002919D1974B53
:100C30009B699B06FBD41578944B1D6001310132F2
:100C4000F3E703780D3B5A425341DBB2013004789D
:100C5000002C19D0002BD3D18D4B02229B5EA342D6
:100C6000DED06B46DA1D147000210029E9D1874BD4
:100C70009B699B06FBD41478844B1C6001310132C4
:100C8000F3E700238348E2E7012018F0F7FF03B001
:100C900030BD6B46DA1D1470002100291AD17B4B40
:100CA0009B699B06FBD41478784B1C6001310132A0
:100CB000F3E76B46DA1D0D2313700021002919D1CB
:100CC000724B9B699B06FBD41578704B1D600131FC
:100CD0000132F3E703780D3B5A425341DBB2013056
:100CE0000478002C16D0002BD3D1694B02229B5ED6
:100CF000A342DED06B46DA1D147000210029E9D131
:100D0000624B9B699B06FBD41478604B1C600131DD
:100D10000132F3E7012018F0B1FFFFF719FD0023BE
:100D20005D4A13605D4A13705D4A13705D4A13702B
:100D3000ADE75D481CF02CF900235C4826E06B46CB
:100D4000DA1D1470002100291AD1504B9B699B06B3
:100D5000FBD414784D4B1C6001310132F3E76B4634
:100D6000DA1D0D2313700021002919D1474B9B690F
:100D70009B06FBD41578454B1D6001310132F3E72A
:100D800003780D3B5A425341DBB201300478002C0A
:100D900016D0002BD3D13E4B02229B5EA342DED065
:100DA0006B46DA1D147000210029E9D1374B9B698D
:100DB0009B06FBD41478354B1C6001310132F3E7FC
:100DC000012018F05BFFFFF7C3FC0023324A1360D9
:100DD000324A1370324A1370324A137057E76B4627
:100DE000DA1D1470002100291AD1284B9B699B063B
:100DF000FBD41478254B1C6001310132F3E76B46BC
:100E0000DA1D0D2313700021002919D11F4B9B6996
:100E10009B06FBD415781D4B1D6001310132F3E7B1
:100E200003780D3B5A425341DBB201300478002C69
:100E300016D0002BD3D1164B02229B5EA342DED0EC
:100E40006B46DA1D147000210029E9D10F4B9B6914
:100E50009B06FBD414780D4B1C6001310132F3E783
:100E6000012018F00BFFFFF773FC00230A4A136000
:100E70000A4A13700A4A137009E7C0469C580210C8
:100E800084580210D4580210945802100080034075
:100E9000AC2E00206C580210682D0020E52E00209A
:100EA000E92E0020F32E0020B85802108C580210B2
:100EB00010B500201CF09CF800201CF099F80020D0
:100EC0001CF096F800201CF093F800201CF090F81D
:100ED00000201CF08DF800201CF08AF800201CF087
:100EE00087F800201CF084F800201CF081F8002016
:100EF0001CF07EF800201CF07BF800201CF078F835
:100F000000201CF075F800201CF072F800201CF086
:100F10006FF800201CF06CF800201CF069F800202D
:100F20001CF066F800201CF063F800201CF060F84C
:100F300000201CF05DF800201CF05AF800201CF086
:100F400057F800201CF054F800201CF051F8002045
:100F50001CF04EF800201CF04BF800201CF048F864
:100F600000201CF045F800201CF042F800201CF086
:100F70003FF800201CF03CF800201CF039F800205D
:100F80001CF036F800201CF033F800201CF030F87C
:100F900000201CF02DF800201CF02AF800201CF086
:100FA00027F800201CF024F800201CF021F8002075
:100FB0001CF01EF800201CF01BF800201CF018F894
:100FC00000201CF015F800201CF012F800201CF086
:100FD0000FF800201CF00CF800201CF009F800208D
:100FE0001CF006F800201CF003F800201CF000F8AC
:100FF00000201BF0FDFF00201BF0FAFF00201BF07B
:10100000F7FF00201BF0F4FF00201BF0F1FF002091
:101010001BF0EEFF00201BF0EBFF00201BF0E8FFB1
:1010200000201BF0E5FF00201BF0E2FF00201BF07A
:10103000DFFF00201BF0DCFF00201BF0D9FF0020A9
:101040001BF0D6FF00201BF0D3FF00201BF0D0FFC9
:1010500000201BF0CDFF00201BF0CAFF00201BF07A
:10106000C7FF00201BF0C4FF00201BF0C1FF0020C1
:101070001BF0BEFF00201BF0BBFF00201BF0B8FFE1
:1010800000201BF0B5FF00201BF0B2FF00201BF07A
:10109000AFFF00201BF0ACFF00201BF0A9FF0020D9
:1010A0001BF0A6FF00201BF0A3FF00201BF0A0FFF9
:1010B00000201BF09DFF00201BF09AFF00201BF07A
:1010C00097FF00201BF094FF00201BF091FF0020F1
:1010D0001BF08EFF00201BF08BFF00201BF088FF11
:1010E00000201BF085FF00201BF082FF00201BF07A
:1010F0007FFF00201BF07CFF00201BF079FF002009
:101100001BF076FF00201BF073FF00201BF070FF28
:1011100000201BF06DFF00201BF06AFF00201BF079
:1011200067FF00201BF064FF00201BF061FF002020
:101130001BF05EFF00201BF05BFF00201BF058FF40
:1011400000201BF055FF00201BF052FF00201BF079
:101150004FFF00201BF04CFF00201BF049FF002038
:101160001BF046FF00201BF043FF00201BF040FF58
:1011700000201BF03DFF00201BF03AFF00201BF079
:1011800037FF00201BF034FF00201BF031FF002050
:101190001BF02EFF00201BF02BFF00201BF028FF70
:1011A00000201BF025FF00201BF022FF00201BF079
:1011B0001FFF00201BF01CFF00201BF019FF002068
:1011C0001BF016FF00201BF013FF00201BF010FF88
:1011D00000201BF00DFF00201BF00AFF00201BF079
:1011E00007FF00201BF004FF00201BF001FF002080
:1011F0001BF0FEFE00201BF0FBFE00201BF0F8FEA3
:1012000000201BF0F5FE00201BF0F2FE00201BF07A
:10121000EFFE00201BF0ECFE00201BF0E9FE00209A
:101220001BF0E6FE00201BF0E3FE00201BF0E0FEBA
:1012300000201BF0DDFE00201BF0DAFE00201BF07A
:10124000D7FE00201BF0D4FE00201BF0D1FE0020B2
:101250001BF0CEFE00201BF0CBFE00201BF0C8FED2
:1012600000201BF0C5FE00201BF0C2FE00201BF07A
:10127000BFFE00201BF0BCFE00201BF0B9FE0020CA
:101280001BF0B6FE00201BF0B3FE00201BF0B0FEEA
:1012900000201BF0ADFE00201BF0AAFE00201BF07A
:1012A000A7FE00201BF0A4FE00201BF0A1FE0020E2
:1012B0001BF09EFE00201BF09BFE00201BF098FE02
:1012C00000201BF095FE00201BF092FE00201BF07A
:1012D0008FFE00201BF08CFE00201BF089FE0020FA
:1012E0001BF086FE00201BF083FE00201BF080FE1A
:1012F00000201BF07DFE00201BF07AFE00201BF07A
:1013000077FE00201BF074FE00201BF071FE002011
:101310001BF06EFE00201BF06BFE00201BF068FE31
:1013200000201BF065FE00201BF062FE00201BF079
:101330005FFE00201BF05CFE00201BF059FE002029
:101340001BF056FE00201BF053FE00201BF050FE49
:1013500000201BF04DFE00201BF04AFE00201BF079
:1013600047FE00201BF044FE00201BF041FE002041
:101370001BF03EFE00201BF03BFE00201BF038FE61
:1013800000201BF035FE00201BF032FE00201BF079
:101390002FFE00201BF02CFE00201BF029FE002059
:1013A0001BF026FE00201BF023FE00201BF020FE79
:1013B00000201BF01DFE00201BF01AFE00201BF079
:1013C00017FE00201BF014FE00201BF011FE002071
:1013D0001BF00EFE00201BF00BFE00201BF008FE91
:1013E00000201BF005FE00201BF002FE00201BF079
:1013F000FFFD00201BF0FCFD00201BF0F9FD00208C
:101400001BF0F6FD00201BF0F3FD00201BF0F0FDAB
:1014100000201BF0EDFD00201BF0EAFD00201BF07A
:10142000E7FD00201BF0E4FD00201BF0E1FD0020A3
:101430001BF0DEFD00201BF0DBFD00201BF0D8FDC3
:1014400000201BF0D5FD00201BF0D2FD00201BF07A
:10145000CFFD00201BF0CCFD00201BF0C9FD0020BB
:101460001BF0C6FD00201BF0C3FD00201BF0C0FDDB
:1014700000201BF0BDFD00201BF0BAFD00201BF07A
:10148000B7FD00201BF0B4FD00201BF0B1FD0020D3
:101490001BF0AEFD00201BF0ABFD00201BF0A8FDF3
:1014A00000201BF0A5FD00201BF0A2FD00201BF07A
:1014B0009FFD00201BF09CFD00201BF099FD0020EB
:1014C0001BF096FD00201BF093FD00201BF090FD0B
:1014D00000201BF08DFD00201BF08AFD00201BF07A
:1014E00087FD00201BF084FD00201BF081FD002003
:1014F0001BF07EFD00201BF07BFD00201BF078FD23
:1015000000201BF075FD00201BF072FD00201BF079
:101510006FFD00201BF06CFD00201BF069FD00201A
:101520001BF066FD00201BF063FD00201BF060FD3A
:1015300000201BF05DFD00201BF05AFD00201BF079
:1015400057FD00201BF054FD00201BF051FD002032
:101550001BF04EFD00201BF04BFD00201BF048FD52
:1015600000201BF045FD00201BF042FD00201BF079
:101570003FFD00201BF03CFD00201BF039FD00204A
:101580001BF036FD00201BF033FD00201BF030FD6A
:1015900000201BF02DFD00201BF02AFD00201BF079
:1015A00027FD00201BF024FD00201BF021FD002062
:1015B0001BF01EFD00201BF01BFD00201BF018FD82
:1015C00000201BF015FD00201BF012FD00201BF079
:1015D0000FFD00201BF00CFD00201BF009FD00207A
:1015E0001BF006FD00201BF003FD00201BF000FD9A
:1015F00000201BF0FDFC00201BF0FAFC00201BF07B
:10160000F7FC00201BF0F4FC00201BF0F1FC002094
:101610001BF0EEFC00201BF0EBFC00201BF0E8FCB4
:1016200000201BF0E5FC00201BF0E2FC00201BF07A
:10163000DFFC00201BF0DCFC00201BF0D9FC0020AC
:101640001BF0D6FC00201BF0D3FC00201BF0D0FCCC
:1016500000201BF0CDFC00201BF0CAFC00201BF07A
:10166000C7FC00201BF0C4FC00201BF0C1FC0020C4
:101670001BF0BEFC00201BF0BBFC00201BF0B8FCE4
:1016800000201BF0B5FC00201BF0B2FC00201BF07A
:10169000AFFC00201BF0ACFC00201BF0A9FC0020DC
:1016A0001BF0A6FC00201BF0A3FC00201BF0A0FCFC
:1016B00000201BF09DFC00201BF09AFC00201BF07A
:1016C00097FC00201BF094FC00201BF091FC0020F4
:1016D0001BF08EFC00201BF08BFC00201BF088FC14
:1016E00000201BF085FC00201BF082FC00201BF07A
:1016F0007FFC00201BF07CFC00201BF079FC00200C
:101700001BF076FC00201BF073FC00201BF070FC2B
:1017100000201BF06DFC00201BF06AFC00201BF079
:1017200067FC00201BF064FC00201BF061FC002023
:101730001BF05EFC00201BF05BFC00201BF058FC43
:1017400000201BF055FC00201BF052FC00201BF079
:101750004FFC00201BF04CFC00201BF049FC00203B
:101760001BF046FC00201BF043FC00201BF040FC5B
:1017700000201BF03DFC00201BF03AFC00201BF079
:1017800037FC00201BF034FC00201BF031FC002053
:101790001BF02EFC00201BF02BFC00201BF028FC73
:1017A00000201BF025FC00201BF022FC00201BF079
:1017B0001FFC00201BF01CFC00201BF019FC00206B
:1017C0001BF016FC00201BF013FC00201BF010FC8B
:1017D00000201BF00DFC00201BF00AFC00201BF079
:1017E00007FC00201BF004FC00201BF001FC002083
:1017F0001BF0FEFB00201BF0FBFB00201BF0F8FBA6
:1018000000201BF0F5FB00201BF0F2FB00201BF07A
:10181000EFFB00201BF0ECFB00201BF0E9FB00209D
:101820001BF0E6FB00201BF0E3FB00201BF0E0FBBD
:1018300000201BF0DDFB00201BF0DAFB00201BF07A
:10184000D7FB00201BF0D4FB00201BF0D1FB0020B5
:101850001BF0CEFB00201BF0CBFB00201BF0C8FBD5
:1018600000201BF0C5FB00201BF0C2FB00201BF07A
:10187000BFFB00201BF0BCFB00201BF0B9FB0020CD
:101880001BF0B6FB00201BF0B3FB00201BF0B0FBED
:1018900000201BF0ADFB00201BF0AAFB00201BF07A
:1018A000A7FB00201BF0A4FB00201BF0A1FB0020E5
:1018B0001BF09EFB00201BF09BFB00201BF098FB05
:1018C00000201BF095FB00201BF092FB00201BF07A
:1018D0008FFB00201BF08CFB00201BF089FB0020FD
:1018E0001BF086FB00201BF083FB00201BF080FB1D
:1018F00000201BF07DFB00201BF07AFB00201BF07A
:1019000077FB00201BF074FB00201BF071FB002014
:101910001BF06EFB00201BF06BFB00201BF068FB34
:1019200000201BF065FB00201BF062FB00201BF079
:101930005FFB00201BF05CFB00201BF059FB00202C
:101940001BF056FB00201BF053FB00201BF050FB4C
:1019500000201BF04DFB00201BF04AFB00201BF079
:1019600047FB00201BF044FB00201BF041FB002044
:101970001BF03EFB00201BF03BFB00201BF038FB64
:1019800000201BF035FB00201BF032FB00201BF079
:101990002FFB00201BF02CFB00201BF029FB00205C
:1019A0001BF026FB00201BF023FB00201BF020FB7C
:1019B00000201BF01DFB00201BF01AFB00201BF079
:1019C00017FB00201BF014FB00201BF011FB002074
:1019D0001BF00EFB00201BF00BFB00201BF008FB94
:1019E00000201BF005FB00201BF002FB00201BF079
:1019F000FFFA00201BF0FCFA00201BF0F9FA00208F
:101A00001BF0F6FA00201BF0F3FA00201BF0F0FAAE
:101A100000201BF0EDFA00201BF0EAFA00201BF07A
:101A2000E7FA00201BF0E4FA00201BF0E1FA0020A6
:101A30001BF0DEFA00201BF0DBFA00201BF0D8FAC6
:101A400000201BF0D5FA00201BF0D2FA00201BF07A
:101A5000CFFA00201BF0CCFA00201BF0C9FA0020BE
:101A60001BF0C6FA00201BF0C3FA00201BF0C0FADE
:101A700000201BF0BDFA00201BF0BAFA00201BF07A
:101A8000B7FA00201BF0B4FA00201BF0B1FA0020D6
:101A90001BF0AEFA00201BF0ABFA00201BF0A8FAF6
:101AA00000201BF0A5FA00201BF0A2FA00201BF07A
:101AB0009FFA00201BF09CFA00201BF099FA0020EE
:101AC0001BF096FA00201BF093FA00201BF090FA0E
:101AD00000201BF08DFA00201BF08AFA00201BF07A
:101AE00087FA00201BF084FA00201BF081FA002006
:101AF0001BF07EFA00201BF07BFA00201BF078FA26
:101B000000201BF075FA00201BF072FA00201BF079
:101B10006FFA00201BF06CFA00201BF069FA00201D
:101B20001BF066FA00201BF063FA00201BF060FA3D
:101B300000201BF05DFA00201BF05AFA00201BF079
:101B400057FA00201BF054FA00201BF051FA002035
:101B50001BF04EFA00201BF04BFA00201BF048FA55
:101B600000201BF045FA00201BF042FA00201BF079
:101B70003FFA00201BF03CFA00201BF039FA00204D
:101B80001BF036FA00201BF033FA00201BF030FA6D
:101B900000201BF02DFA00201BF02AFA00201BF079
:101BA00027FA00201BF024FA00201BF021FA002065
:101BB0001BF01EFA00201BF01BFA00201BF018FA85
:101BC00000201BF015FA00201BF012FA00201BF079
:101BD0000FFA00201BF00CFA00201BF009FA00207D
:101BE0001BF006FA00201BF003FA00201BF000FA9D
:101BF00000201BF0FDF900201BF0FAF900201BF07B
:101C0000F7F900201BF0F4F900201BF0F1F9002097
:101C10001BF0EEF900201BF0EBF900201BF0E8F9B7
:101C200000201BF0E5F900201BF0E2F900201BF07A
:101C3000DFF900201BF0DCF900201BF0D9F90020AF
:101C40001BF0D6F900201BF0D3F900201BF0D0F9CF
:101C500000201BF0CDF900201BF0CAF900201BF07A
:101C6000C7F900201BF0C4F900201BF0C1F90020C7
:101C70001BF0BEF900201BF0BBF900201BF0B8F9E7
:101C800000201BF0B5F900201BF0B2F900201BF07A
:101C9000AFF900201BF0ACF900201BF0A9F90020DF
:101CA0001BF0A6F900201BF0A3F900201BF0A0F9FF
:101CB00000201BF09DF900201BF09AF900201BF07A
:101CC00097F900201BF094F900201BF091F90020F7
:101CD0001BF08EF900201BF08BF900201BF088F917
:101CE00000201BF085F900201BF082F900201BF07A
:101CF0007FF900201BF07CF900201BF079F900200F
:101D00001BF076F900201BF073F900201BF070F92E
:101D100000201BF06DF900201BF06AF900201BF079
:101D200067F900201BF064F900201BF061F9002026
:101D30001BF05EF900201BF05BF900201BF058F946
:101D400000201BF055F900201BF052F900201BF079
:101D50004FF900201BF04CF900201BF049F900203E
:101D60001BF046F900201BF043F900201BF040F95E
:101D700000201BF03DF900201BF03AF900201BF079
:101D800037F900201BF034F900201BF031F9002056
:101D90001BF02EF900201BF02BF900201BF028F976
:101DA00000201BF025F900201BF022F900201BF079
:101DB0001FF900201BF01CF900201BF019F900206E
:101DC0001BF016F900201BF013F900201BF010F98E
:101DD00000201BF00DF900201BF00AF900201BF079
:101DE00007F900201BF004F900201BF001F9002086
:101DF0001BF0FEF800201BF0FBF800201BF0F8F8A9
:101E000000201BF0F5F800201BF0F2F800201BF07A
:101E1000EFF800201BF0ECF800201BF0E9F80020A0
:101E20001BF0E6F800201BF0E3F800201BF0E0F8C0
:101E300000201BF0DDF800201BF0DAF800201BF07A
:101E4000D7F800201BF0D4F800201BF0D1F80020B8
:101E50001BF0CEF800201BF0CBF800201BF0C8F8D8
:101E600000201BF0C5F800201BF0C2F800201BF07A
:101E7000BFF800201BF0BCF800201BF0B9F80020D0
:101E80001BF0B6F800201BF0B3F800201BF0B0F8F0
:101E900000201BF0ADF800201BF0AAF800201BF07A
:101EA000A7F800201BF0A4F800201BF0A1F80020E8
:101EB0001BF09EF800201BF09BF800201BF098F808
:101EC00000201BF095F800201BF092F800201BF07A
:101ED0008FF800201BF08CF800201BF089F8002000
:101EE0001BF086F800201BF083F800201BF080F820
:101EF00000201BF07DF800201BF07AF800201BF07A
:101F000077F800201BF074F800201BF071F8002017
:101F10001BF06EF800201BF06BF800201BF068F837
:101F200000201BF065F800201BF062F800201BF079
:101F30005FF800201BF05CF800201BF059F800202F
:101F40001BF056F800201BF053F800201BF050F84F
:101F500000201BF04DF800201BF04AF800201BF079
:101F600047F800201BF044F800201BF041F8002047
:101F70001BF03EF800201BF03BF800201BF038F867
:101F800000201BF035F800201BF032F800201BF079
:101F90002FF800201BF02CF800201BF029F800205F
:101FA0001BF026F800201BF023F800201BF020F87F
:101FB00000201BF01DF800201BF01AF800201BF079
:101FC00017F800201BF014F800201BF011F8002077
:101FD0001BF00EF800201BF00BF800201BF008F897
:101FE00000201BF005F800201BF002F800201AF07A
:101FF000FFFF00201AF0FCFF00201AF0F9FF00207C
:102000001AF0F6FF00201AF0F3FF00201AF0F0FF9C
:1020100000201AF0EDFF00201AF0EAFF00201AF06D
:10202000E7FF00201AF0E4FF00201AF0E1FF002093
:102030001AF0DEFF00201AF0DBFF00201AF0D8FFB4
:1020400000201AF0D5FF00201AF0D2FF00201AF06D
:10205000CFFF00201AF0CCFF00201AF0C9FF0020AB
:102060001AF0C6FF00201AF0C3FF00201AF0C0FFCC
:1020700000201AF0BDFF00201AF0BAFF00201AF06D
:10208000B7FF00201AF0B4FF00201AF0B1FF0020C3
:102090001AF0AEFF00201AF0ABFF00201AF0A8FFE4
:1020A00000201AF0A5FF00201AF0A2FF00201AF06D
:1020B0009FFF00201AF09CFF00201AF099FF0020DB
:1020C0001AF096FF00201AF093FF00201AF090FFFC
:1020D00000201AF08DFF00201AF08AFF00201AF06D
:1020E00087FF00201AF084FF00201AF081FF0020F3
:1020F0001AF07EFF00201AF07BFF00201AF078FF14
:1021000000201AF075FF00201AF072FF00201AF06C
:102110006FFF00201AF06CFF00201AF069FF00200A
:102120001AF066FF00201AF063FF00201AF060FF2B
:1021300000201AF05DFF00201AF05AFF00201AF06C
:1021400057FF00201AF054FF00201AF051FF002022
:102150001AF04EFF00201AF04BFF00201AF048FF43
:1021600000201AF045FF00201AF042FF00201AF06C
:102170003FFF00201AF03CFF00201AF039FF00203A
:102180001AF036FF00201AF033FF00201AF030FF5B
:1021900000201AF02DFF00201AF02AFF00201AF06C
:1021A00027FF00201AF024FF00201AF021FF002052
:1021B0001AF01EFF00201AF01BFF00201AF018FF73
:1021C00000201AF015FF00201AF012FF00201AF06C
:1021D0000FFF00201AF00CFF00201AF009FF00206A
:1021E0001AF006FF00201AF003FF00201AF000FF8B
:1021F00000201AF0FDFE00201AF0FAFE00201AF06E
:10220000F7FE00201AF0F4FE00201AF0F1FE002084
:102210001AF0EEFE00201AF0EBFE00201AF0E8FEA5
:1022200000201AF0E5FE00201AF0E2FE00201AF06D
:10223000DFFE00201AF0DCFE00201AF0D9FE00209C
:102240001AF0D6FE00201AF0D3FE00201AF0D0FEBD
:1022500000201AF0CDFE00201AF0CAFE00201AF06D
:10226000C7FE00201AF0C4FE00201AF0C1FE0020B4
:102270001AF0BEFE00201AF0BBFE00201AF0B8FED5
:1022800000201AF0B5FE00201AF0B2FE00201AF06D
:10229000AFFE00201AF0ACFE00201AF0A9FE0020CC
:1022A0001AF0A6FE00201AF0A3FE00201AF0A0FEED
:1022B00000201AF09DFE00201AF09AFE00201AF06D
:1022C00097FE00201AF094FE00201AF091FE0020E4
:1022D0001AF08EFE00201AF08BFE00201AF088FE05
:1022E00000201AF085FE00201AF082FE00201AF06D
:1022F0007FFE00201AF07CFE00201AF079FE0020FC
:102300001AF076FE00201AF073FE00201AF070FE1C
:1023100000201AF06DFE00201AF06AFE00201AF06C
:1023200067FE00201AF064FE00201AF061FE002013
:102330001AF05EFE00201AF05BFE00201AF058FE34
:1023400000201AF055FE00201AF052FE00201AF06C
:102350004FFE00201AF04CFE00201AF049FE00202B
:102360001AF046FE00201AF043FE00201AF040FE4C
:1023700000201AF03DFE00201AF03AFE00201AF06C
:1023800037FE00201AF034FE00201AF031FE002043
:102390001AF02EFE00201AF02BFE00201AF028FE64
:1023A00000201AF025FE00201AF022FE00201AF06C
:1023B0001FFE00201AF01CFE00201AF019FE00205B
:1023C0001AF016FE00201AF013FE00201AF010FE7C
:1023D00000201AF00DFE00201AF00AFE00201AF06C
:1023E00007FE00201AF004FE00201AF001FE002073
:1023F0001AF0FEFD00201AF0FBFD00201AF0F8FD97
:1024000000201AF0F5FD00201AF0F2FD00201AF06D
:10241000EFFD00201AF0ECFD00201AF0E9FD00208D
:102420001AF0E6FD00201AF0E3FD00201AF0E0FDAE
:1024300000201AF0DDFD00201AF0DAFD00201AF06D
:10244000D7FD00201AF0D4FD00201AF0D1FD0020A5
:102450001AF0CEFD00201AF0CBFD00201AF0C8FDC6
:1024600000201AF0C5FD00201AF0C2FD00201AF06D
:10247000BFFD00201AF0BCFD00201AF0B9FD0020BD
:102480001AF0B6FD00201AF0B3FD00201AF0B0FDDE
:1024900000201AF0ADFD00201AF0AAFD00201AF06D
:1024A000A7FD00201AF0A4FD00201AF0A1FD0020D5
:1024B0001AF09EFD00201AF09BFD00201AF098FDF6
:1024C00000201AF095FD00201AF092FD00201AF06D
:1024D0008FFD00201AF08CFD00201AF089FD0020ED
:1024E0001AF086FD00201AF083FD00201AF080FD0E
:1024F00000201AF07DFD00201AF07AFD00201AF06D
:1025000077FD00201AF074FD00201AF071FD002004
:102510001AF06EFD00201AF06BFD00201AF068FD25
:1025200000201AF065FD00201AF062FD00201AF06C
:102530005FFD00201AF05CFD00201AF059FD00201C
:102540001AF056FD00201AF053FD00201AF050FD3D
:1025500000201AF04DFD00201AF04AFD00201AF06C
:1025600047FD00201AF044FD00201AF041FD002034
:102570001AF03EFD00201AF03BFD00201AF038FD55
:1025800000201AF035FD00201AF032FD00201AF06C
:102590002FFD00201AF02CFD00201AF029FD00204C
:1025A0001AF026FD00201AF023FD00201AF020FD6D
:1025B00000201AF01DFD00201AF01AFD00201AF06C
:1025C00017FD00201AF014FD00201AF011FD002064
:1025D0001AF00EFD00201AF00BFD00201AF008FD85
:1025E00000201AF005FD00201AF002FD00201AF06C
:1025F000FFFC00201AF0FCFC00201AF0F9FC00207F
:102600001AF0F6FC00201AF0F3FC00201AF0F0FC9F
:1026100000201AF0EDFC00201AF0EAFC00201AF06D
:10262000E7FC00201AF0E4FC00201AF0E1FC002096
:102630001AF0DEFC00201AF0DBFC00201AF0D8FCB7
:1026400000201AF0D5FC00201AF0D2FC00201AF06D
:10265000CFFC00201AF0CCFC00201AF0C9FC0020AE
:102660001AF0C6FC00201AF0C3FC00201AF0C0FCCF
:1026700000201AF0BDFC00201AF0BAFC00201AF06D
:10268000B7FC00201AF0B4FC00201AF0B1FC0020C6
:102690001AF0AEFC00201AF0ABFC00201AF0A8FCE7
:1026A00000201AF0A5FC00201AF0A2FC00201AF06D
:1026B0009FFC00201AF09CFC00201AF099FC0020DE
:1026C0001AF096FC00201AF093FC00201AF090FCFF
:1026D00000201AF08DFC00201AF08AFC00201AF06D
:1026E00087FC00201AF084FC00201AF081FC0020F6
:1026F0001AF07EFC00201AF07BFC00201AF078FC17
:1027000000201AF075FC00201AF072FC00201AF06C
:102710006FFC00201AF06CFC00201AF069FC00200D
:102720001AF066FC00201AF063FC00201AF060FC2E
:1027300000201AF05DFC00201AF05AFC00201AF06C
:1027400057FC00201AF054FC00201AF051FC002025
:102750001AF04EFC00201AF04BFC00201AF048FC46
:1027600000201AF045FC00201AF042FC00201AF06C
:102770003FFC00201AF03CFC00201AF039FC00203D
:102780001AF036FC00201AF033FC00201AF030FC5E
:1027900000201AF02DFC00201AF02AFC00201AF06C
:1027A00027FC00201AF024FC00201AF021FC002055
:1027B0001AF01EFC00201AF01BFC00201AF018FC76
:1027C00000201AF015FC00201AF012FC00201AF06C
:1027D0000FFC00201AF00CFC00201AF009FC00206D
:1027E0001AF006FC00201AF003FC00201AF000FC8E
:1027F00000201AF0FDFB00201AF0FAFB00201AF06E
:10280000F7FB00201AF0F4FB00201AF0F1FB002087
:102810001AF0EEFB00201AF0EBFB00201AF0E8FBA8
:1028200000201AF0E5FB00201AF0E2FB00201AF06D
:10283000DFFB00201AF0DCFB00201AF0D9FB00209F
:102840001AF0D6FB00201AF0D3FB00201AF0D0FBC0
:1028500000201AF0CDFB00201AF0CAFB00201AF06D
:10286000C7FB00201AF0C4FB00201AF0C1FB0020B7
:102870001AF0BEFB00201AF0BBFB00201AF0B8FBD8
:1028800000201AF0B5FB00201AF0B2FB00201AF06D
:10289000AFFB00201AF0ACFB00201AF0A9FB0020CF
:1028A0001AF0A6FB00201AF0A3FB00201AF0A0FBF0
:1028B00000201AF09DFB00201AF09AFB00201AF06D
:1028C00097FB00201AF094FB00201AF091FB0020E7
:1028D0001AF08EFB00201AF08BFB00201AF088FB08
:1028E00000201AF085FB00201AF082FB00201AF06D
:1028F0007FFB00201AF07CFB00201AF079FB0020FF
:102900001AF076FB00201AF073FB00201AF070FB1F
:1029100000201AF06DFB00201AF06AFB00201AF06C
:1029200067FB00201AF064FB00201AF061FB002016
:102930001AF05EFB00201AF05BFB00201AF058FB37
:1029400000201AF055FB00201AF052FB00201AF06C
:102950004FFB00201AF04CFB00201AF049FB00202E
:102960001AF046FB00201AF043FB00201AF040FB4F
:1029700000201AF03DFB00201AF03AFB00201AF06C
:1029800037FB00201AF034FB00201AF031FB002046
:102990001AF02EFB00201AF02BFB00201AF028FB67
:1029A00000201AF025FB00201AF022FB00201AF06C
:1029B0001FFB00201AF01CFB00201AF019FB00205E
:1029C0001AF016FB00201AF013FB00201AF010FB7F
:1029D00000201AF00DFB00201AF00AFB00201AF06C
:1029E00007FB00201AF004FB00201AF001FB002076
:1029F0001AF0FEFA00201AF0FBFA00201AF0F8FA9A
:102A000000201AF0F5FA00201AF0F2FA00201AF06D
:102A1000EFFA00201AF0ECFA00201AF0E9FA002090
:102A20001AF0E6FA00201AF0E3FA00201AF0E0FAB1
:102A300000201AF0DDFA00201AF0DAFA00201AF06D
:102A4000D7FA00201AF0D4FA00201AF0D1FA0020A8
:102A50001AF0CEFA00201AF0CBFA00201AF0C8FAC9
:102A600000201AF0C5FA00201AF0C2FA00201AF06D
:102A7000BFFA00201AF0BCFA00201AF0B9FA0020C0
:102A80001AF0B6FA00201AF0B3FA00201AF0B0FAE1
:102A900000201AF0ADFA00201AF0AAFA00201AF06D
:102AA000A7FA00201AF0A4FA00201AF0A1FA0020D8
:102AB0001AF09EFA00201AF09BFA00201AF098FAF9
:102AC00000201AF095FA00201AF092FA00201AF06D
:102AD0008FFA00201AF08CFA00201AF089FA0020F0
:102AE0001AF086FA00201AF083FA00201AF080FA11
:102AF00000201AF07DFA00201AF07AFA00201AF06D
:102B000077FA00201AF074FA00201AF071FA002007
:102B10001AF06EFA00201AF06BFA00201AF068FA28
:102B200000201AF065FA00201AF062FA00201AF06C
:102B30005FFA00201AF05CFA00201AF059FA00201F
:102B40001AF056FA00201AF053FA00201AF050FA40
:102B500000201AF04DFA00201AF04AFA00201AF06C
:102B600047FA00201AF044FA00201AF041FA002037
:102B70001AF03EFA00201AF03BFA00201AF038FA58
:102B800000201AF035FA00201AF032FA00201AF06C
:102B90002FFA00201AF02CFA00201AF029FA00204F
:102BA0001AF026FA00201AF023FA00201AF020FA70
:102BB00000201AF01DFA00201AF01AFA00201AF06C
:102BC00017FA00201AF014FA00201AF011FA002067
:102BD0001AF00EFA00201AF00BFA00201AF008FA88
:102BE00000201AF005FA00201AF002FA00201AF06C
:102BF000FFF900201AF0FCF900201AF0F9F9002082
:102C00001AF0F6F900201AF0F3F900201AF0F0F9A2
:102C100000201AF0EDF900201AF0EAF900201AF06D
:102C2000E7F900201AF0E4F900201AF0E1F9002099
:102C30001AF0DEF900201AF0DBF900201AF0D8F9BA
:102C400000201AF0D5F900201AF0D2F900201AF06D
:102C5000CFF900201AF0CCF900201AF0C9F90020B1
:102C60001AF0C6F900201AF0C3F900201AF0C0F9D2
:102C700000201AF0BDF900201AF0BAF900201AF06D
:102C8000B7F900201AF0B4F900201AF0B1F90020C9
:102C90001AF0AEF900201AF0ABF900201AF0A8F9EA
:102CA00000201AF0A5F900201AF0A2F900201AF06D
:102CB0009FF900201AF09CF900201AF099F90020E1
:102CC0001AF096F900201AF093F900201AF090F902
:102CD00000201AF08DF900201AF08AF900201AF06D
:102CE00087F900201AF084F900201AF081F90020F9
:102CF0001AF07EF900201AF07BF900201AF078F91A
:102D000000201AF075F900201AF072F900201AF06C
:102D10006FF900201AF06CF900201AF069F9002010
:102D20001AF066F900201AF063F900201AF060F931
:102D300000201AF05DF900201AF05AF900201AF06C
:102D400057F900201AF054F900201AF051F9002028
:102D50001AF04EF900201AF04BF900201AF048F949
:102D600000201AF045F900201AF042F900201AF06C
:102D70003FF900201AF03CF900201AF039F9002040
:102D80001AF036F900201AF033F900201AF030F961
:102D900000201AF02DF900201AF02AF900201AF06C
:102DA00027F900201AF024F900201AF021F9002058
:102DB0001AF01EF900201AF01BF900201AF018F979
:102DC00000201AF015F900201AF012F900201AF06C
:102DD0000FF900201AF00CF900201AF009F9002070
:102DE0001AF006F900201AF003F900201AF000F991
:102DF00000201AF0FDF800201AF0FAF800201AF06E
:102E0000F7F800201AF0F4F800201AF0F1F800208A
:102E10001AF0EEF800201AF0EBF800201AF0E8F8AB
:102E200000201AF0E5F800201AF0E2F800201AF06D
:102E3000DFF800201AF0DCF800201AF0D9F80020A2
:102E40001AF0D6F800201AF0D3F800201AF0D0F8C3
:102E500000201AF0CDF800201AF0CAF800201AF06D
:102E6000C7F800201AF0C4F800201AF0C1F80020BA
:102E70001AF0BEF800201AF0BBF800201AF0B8F8DB
:102E800000201AF0B5F800201AF0B2F800201AF06D
:102E9000AFF800201AF0ACF800201AF0A9F80020D2
:102EA0001AF0A6F800201AF0A3F800201AF0A0F8F3
:102EB00000201AF09DF800201AF09AF800201AF06D
:102EC00097F800201AF094F800201AF091F80020EA
:102ED0001AF08EF800201AF08BF800201AF088F80B
:102EE00000201AF085F800201AF082F800201AF06D
:102EF0007FF800201AF07CF800201AF079F8002002
:102F00001AF076F800201AF073F800201AF070F822
:102F100000201AF06DF800201AF06AF800201AF06C
:102F200067F800201AF064F800201AF061F8002019
:102F30001AF05EF800201AF05BF800201AF058F83A
:102F400000201AF055F800201AF052F800201AF06C
:102F50004FF800201AF04CF800201AF049F8002031
:102F60001AF046F800201AF043F800201AF040F852
:102F700000201AF03DF800201AF03AF800201AF06C
:102F800037F800201AF034F800201AF031F8002049
:102F90001AF02EF800201AF02BF800201AF028F86A
:102FA00000201AF025F800201AF022F800201AF06C
:102FB0001FF800201AF01CF800201AF019F8002061
:102FC0001AF016F800201AF013F800201AF010F882
:102FD00000201AF00DF800201AF00AF800201AF06C
:102FE00007F800201AF004F800201AF001F8002079
:102FF00019F0FEFF002019F0FBFF002019F0F8FF88
:10300000002019F0F5FF002019F0F2FF002019F060
:10301000EFFF002019F0ECFF002019F0E9FF00207D
:1030200019F0E6FF002019F0E3FF002019F0E0FF9F
:10303000002019F0DDFF002019F0DAFF002019F060
:10304000D7FF002019F0D4FF002019F0D1FF002095
:1030500019F0CEFF002019F0CBFF002019F0C8FFB7
:10306000002019F0C5FF002019F0C2FF002019F060
:10307000BFFF002019F0BCFF002019F0B9FF0020AD
:1030800019F0B6FF002019F0B3FF002019F0B0FFCF
:10309000002019F0ADFF002019F0AAFF002019F060
:1030A000A7FF002019F0A4FF002019F0A1FF0020C5
:1030B00019F09EFF002019F09BFF002019F098FFE7
:1030C000002019F095FF002019F092FF002019F060
:1030D0008FFF002019F08CFF002019F089FF0020DD
:1030E00019F086FF002019F083FF002019F080FFFF
:1030F000002019F07DFF002019F07AFF002019F060
:1031000077FF002019F074FF002019F071FF0020F4
:1031100019F06EFF002019F06BFF002019F068FF16
:10312000002019F065FF002019F062FF002019F05F
:103130005FFF002019F05CFF002019F059FF00200C
:1031400019F056FF002019F053FF002019F050FF2E
:10315000002019F04DFF002019F04AFF002019F05F
:1031600047FF002019F044FF002019F041FF002024
:1031700019F03EFF002019F03BFF002019F038FF46
:10318000002019F035FF002019F032FF002019F05F
:103190002FFF002019F02CFF002019F029FF00203C
:1031A00019F026FF002019F023FF002019F020FF5E
:1031B000002019F01DFF002019F01AFF002019F05F
:1031C00017FF002019F014FF002019F011FF002054
:1031D00019F00EFF002019F00BFF002019F008FF76
:1031E000002019F005FF002019F002FF002019F05F
:1031F000FFFE002019F0FCFE002019F0F9FE00206F
:1032000019F0F6FE002019F0F3FE002019F0F0FE90
:10321000002019F0EDFE002019F0EAFE002019F060
:10322000E7FE002019F0E4FE002019F0E1FE002086
:1032300019F0DEFE002019F0DBFE002019F0D8FEA8
:10324000002019F0D5FE002019F0D2FE002019F060
:10325000CFFE002019F0CCFE002019F0C9FE00209E
:1032600019F0C6FE002019F0C3FE002019F0C0FEC0
:10327000002019F0BDFE002019F0BAFE002019F060
:10328000B7FE002019F0B4FE002019F0B1FE0020B6
:1032900019F0AEFE002019F0ABFE002019F0A8FED8
:1032A000002019F0A5FE002019F0A2FE002019F060
:1032B0009FFE002019F09CFE002019F099FE0020CE
:1032C00019F096FE002019F093FE002019F090FEF0
:1032D000002019F08DFE002019F08AFE002019F060
:1032E00087FE002019F084FE002019F081FE0020E6
:1032F00019F07EFE002019F07BFE002019F078FE08
:10330000002019F075FE002019F072FE002019F05F
:103310006FFE002019F06CFE002019F069FE0020FD
:1033200019F066FE002019F063FE002019F060FE1F
:10333000002019F05DFE002019F05AFE002019F05F
:1033400057FE002019F054FE002019F051FE002015
:1033500019F04EFE002019F04BFE002019F048FE37
:10336000002019F045FE002019F042FE002019F05F
:103370003FFE002019F03CFE002019F039FE00202D
:1033800019F036FE002019F033FE002019F030FE4F
:10339000002019F02DFE002019F02AFE002019F05F
:1033A00027FE002019F024FE002019F021FE002045
:1033B00019F01EFE002019F01BFE002019F018FE67
:1033C000002019F015FE002019F012FE002019F05F
:1033D0000FFE002019F00CFE002019F009FE00205D
:1033E00019F006FE002019F003FE002019F000FE7F
:1033F000002019F0FDFD002019F0FAFD002019F061
:10340000F7FD002019F0F4FD002019F0F1FD002077
:1034100019F0EEFD002019F0EBFD002019F0E8FD99
:10342000002019F0E5FD002019F0E2FD002019F060
:10343000DFFD002019F0DCFD002019F0D9FD00208F
:1034400019F0D6FD002019F0D3FD002019F0D0FDB1
:10345000002019F0CDFD002019F0CAFD002019F060
:10346000C7FD002019F0C4FD002019F0C1FD0020A7
:1034700019F0BEFD002019F0BBFD002019F0B8FDC9
:10348000002019F0B5FD002019F0B2FD002019F060
:10349000AFFD002019F0ACFD002019F0A9FD0020BF
:1034A00019F0A6FD002019F0A3FD002019F0A0FDE1
:1034B000002019F09DFD002019F09AFD002019F060
:1034C00097FD002019F094FD002019F091FD0020D7
:1034D00019F08EFD002019F08BFD002019F088FDF9
:1034E000002019F085FD002019F082FD002019F060
:1034F0007FFD002019F07CFD002019F079FD0020EF
:1035000019F076FD002019F073FD002019F070FD10
:10351000002019F06DFD002019F06AFD002019F05F
:1035200067FD002019F064FD002019F061FD002006
:1035300019F05EFD002019F05BFD002019F058FD28
:10354000002019F055FD002019F052FD002019F05F
:103550004FFD002019F04CFD002019F049FD00201E
:1035600019F046FD002019F043FD002019F040FD40
:10357000002019F03DFD002019F03AFD002019F05F
:1035800037FD002019F034FD002019F031FD002036
:1035900019F02EFD002019F02BFD002019F028FD58
:1035A000002019F025FD002019F022FD002019F05F
:1035B0001FFD002019F01CFD002019F019FD00204E
:1035C00019F016FD002019F013FD002019F010FD70
:1035D000002019F00DFD002019F00AFD002019F05F
:1035E00007FD002019F004FD002019F001FD002066
:1035F00019F0FEFC002019F0FBFC002019F0F8FC8B
:10360000002019F0F5FC002019F0F2FC002019F060
:10361000EFFC002019F0ECFC002019F0E9FC002080
:1036200019F0E6FC002019F0E3FC002019F0E0FCA2
:10363000002019F0DDFC002019F0DAFC002019F060
:10364000D7FC002019F0D4FC002019F0D1FC002098
:1036500019F0CEFC002019F0CBFC002019F0C8FCBA
:10366000002019F0C5FC002019F0C2FC002019F060
:10367000BFFC002019F0BCFC002019F0B9FC0020B0
:1036800019F0B6FC002019F0B3FC002019F0B0FCD2
:10369000002019F0ADFC002019F0AAFC002019F060
:1036A000A7FC002019F0A4FC002019F0A1FC0020C8
:1036B00019F09EFC002019F09BFC002019F098FCEA
:1036C000002019F095FC002019F092FC002019F060
:1036D0008FFC002019F08CFC002019F089FC0020E0
:1036E00019F086FC002019F083FC002019F080FC02
:1036F000002019F07DFC002019F07AFC002019F060
:1037000077FC002019F074FC002019F071FC0020F7
:1037100019F06EFC002019F06BFC002019F068FC19
:10372000002019F065FC002019F062FC002019F05F
:103730005FFC002019F05CFC002019F059FC00200F
:1037400019F056FC002019F053FC002019F050FC31
:10375000002019F04DFC002019F04AFC002019F05F
:1037600047FC002019F044FC002019F041FC002027
:1037700019F03EFC002019F03BFC002019F038FC49
:10378000002019F035FC002019F032FC002019F05F
:103790002FFC002019F02CFC002019F029FC00203F
:1037A00019F026FC002019F023FC002019F020FC61
:1037B000002019F01DFC002019F01AFC002019F05F
:1037C00017FC002019F014FC002019F011FC002057
:1037D00019F00EFC002019F00BFC002019F008FC79
:1037E000002019F005FC002019F002FC002019F05F
:1037F000FFFB002019F0FCFB002019F0F9FB002072
:1038000019F0F6FB002019F0F3FB002019F0F0FB93
:10381000002019F0EDFB002019F0EAFB002019F060
:10382000E7FB002019F0E4FB002019F0E1FB002089
:1038300019F0DEFB002019F0DBFB002019F0D8FBAB
:10384000002019F0D5FB002019F0D2FB002019F060
:10385000CFFB002019F0CCFB002019F0C9FB0020A1
:1038600019F0C6FB002019F0C3FB002019F0C0FBC3
:10387000002019F0BDFB002019F0BAFB002019F060
:10388000B7FB002019F0B4FB002019F0B1FB0020B9
:1038900019F0AEFB002019F0ABFB002019F0A8FBDB
:1038A000002019F0A5FB002019F0A2FB002019F060
:1038B0009FFB002019F09CFB002019F099FB0020D1
:1038C00019F096FB002019F093FB002019F090FBF3
:1038D000002019F08DFB002019F08AFB002019F060
:1038E00087FB002019F084FB002019F081FB0020E9
:1038F00019F07EFB002019F07BFB002019F078FB0B
:10390000002019F075FB002019F072FB002019F05F
:103910006FFB002019F06CFB002019F069FB002000
:1039200019F066FB002019F063FB002019F060FB22
:10393000002019F05DFB002019F05AFB002019F05F
:1039400057FB002019F054FB002019F051FB002018
:1039500019F04EFB002019F04BFB002019F048FB3A
:10396000002019F045FB002019F042FB002019F05F
:103970003FFB002019F03CFB002019F039FB002030
:1039800019F036FB002019F033FB002019F030FB52
:10399000002019F02DFB002019F02AFB002019F05F
:1039A00027FB002019F024FB002019F021FB002048
:1039B00019F01EFB002019F01BFB002019F018FB6A
:1039C000002019F015FB002019F012FB002019F05F
:1039D0000FFB002019F00CFB002019F009FB002060
:1039E00019F006FB002019F003FB002019F000FB82
:1039F000002019F0FDFA002019F0FAFA002019F061
:103A0000F7FA002019F0F4FA002019F0F1FA00207A
:103A100019F0EEFA002019F0EBFA002019F0E8FA9C
:103A2000002019F0E5FA002019F0E2FA002019F060
:103A3000DFFA002019F0DCFA002019F0D9FA002092
:103A400019F0D6FA002019F0D3FA002019F0D0FAB4
:103A5000002019F0CDFA002019F0CAFA002019F060
:103A6000C7FA002019F0C4FA002019F0C1FA0020AA
:103A700019F0BEFA002019F0BBFA002019F0B8FACC
:103A8000002019F0B5FA002019F0B2FA002019F060
:103A9000AFFA002019F0ACFA002019F0A9FA0020C2
:103AA00019F0A6FA002019F0A3FA002019F0A0FAE4
:103AB000002019F09DFA002019F09AFA002019F060
:103AC00097FA002019F094FA002019F091FA0020DA
:103AD00019F08EFA002019F08BFA002019F088FAFC
:103AE000002019F085FA002019F082FA002019F060
:103AF0007FFA002019F07CFA002019F079FA0020F2
:103B000019F076FA002019F073FA002019F070FA13
:103B1000002019F06DFA002019F06AFA002019F05F
:103B200067FA002019F064FA002019F061FA002009
:103B300019F05EFA002019F05BFA002019F058FA2B
:103B4000002019F055FA002019F052FA002019F05F
:103B50004FFA002019F04CFA002019F049FA002021
:103B600019F046FA002019F043FA002019F040FA43
:103B7000002019F03DFA002019F03AFA002019F05F
:103B800037FA002019F034FA002019F031FA002039
:103B900019F02EFA002019F02BFA002019F028FA5B
:103BA000002019F025FA002019F022FA002019F05F
:103BB0001FFA002019F01CFA002019F019FA002051
:103BC00019F016FA002019F013FA002019F010FA73
:103BD000002019F00DFA002019F00AFA002019F05F
:103BE00007FA002019F004FA002019F001FA002069
:103BF00019F0FEF9002019F0FBF9002019F0F8F98E
:103C0000002019F0F5F9002019F0F2F9002019F060
:103C1000EFF9002019F0ECF9002019F0E9F9002083
:103C200019F0E6F9002019F0E3F9002019F0E0F9A5
:103C3000002019F0DDF9002019F0DAF9002019F060
:103C4000D7F9002019F0D4F9002019F0D1F900209B
:103C500019F0CEF9002019F0CBF9002019F0C8F9BD
:103C6000002019F0C5F9002019F0C2F9002019F060
:103C7000BFF9002019F0BCF9002019F0B9F90020B3
:103C800019F0B6F9002019F0B3F9002019F0B0F9D5
:103C9000002019F0ADF9002019F0AAF9002019F060
:103CA000A7F9002019F0A4F9002019F0A1F90020CB
:103CB00019F09EF9002019F09BF9002019F098F9ED
:103CC000002019F095F9002019F092F9002019F060
:103CD0008FF9002019F08CF9002019F089F90020E3
:103CE00019F086F9002019F083F9002019F080F905
:103CF000002019F07DF9002019F07AF9002019F060
:103D000077F9002019F074F9002019F071F90020FA
:103D100019F06EF9002019F06BF9002019F068F91C
:103D2000002019F065F9002019F062F9002019F05F
:103D30005FF9002019F05CF9002019F059F9002012
:103D400019F056F9002019F053F9002019F050F934
:103D5000002019F04DF9002019F04AF9002019F05F
:103D600047F9002019F044F9002019F041F900202A
:103D700019F03EF9002019F03BF9002019F038F94C
:103D8000002019F035F9002019F032F9002019F05F
:103D90002FF9002019F02CF9002019F029F9002042
:103DA00019F026F9002019F023F9002019F020F964
:103DB000002019F01DF9002019F01AF9002019F05F
:103DC00017F9002019F014F9002019F011F900205A
:103DD00019F00EF9002019F00BF9002019F008F97C
:103DE000002019F005F9002019F002F9002019F05F
:103DF000FFF8002019F0FCF8002019F0F9F8002075
:103E000019F0F6F8002019F0F3F8002019F0F0F896
:103E1000002019F0EDF8002019F0EAF8002019F060
:103E2000E7F8002019F0E4F8002019F0E1F800208C
:103E300019F0DEF8002019F0DBF8002019F0D8F8AE
:103E4000002019F0D5F8002019F0D2F8002019F060
:103E5000CFF8002019F0CCF8002019F0C9F80020A4
:103E600019F0C6F8002019F0C3F8002019F0C0F8C6
:103E7000002019F0BDF8002019F0BAF8002019F060
:103E8000B7F8002019F0B4F8002019F0B1F80020BC
:103E900019F0AEF8002019F0ABF8002019F0A8F8DE
:103EA000002019F0A5F8002019F0A2F8002019F060
:103EB0009FF8002019F09CF8002019F099F80020D4
:103EC00019F096F8002019F093F8002019F090F8F6
:103ED000002019F08DF8002019F08AF8002019F060
:103EE00087F8002019F084F8002019F081F80020EC
:103EF00019F07EF8002019F07BF8002019F078F80E
:103F0000002019F075F8002019F072F8002019F05F
:103F10006FF8002019F06CF8002019F069F8002003
:103F200019F066F8002019F063F8002019F060F825
:103F3000002019F05DF8002019F05AF8002019F05F
:103F400057F8002019F054F8002019F051F800201B
:103F500019F04EF8002019F04BF8002019F048F83D
:103F6000002019F045F8002019F042F8002019F05F
:103F70003FF8002019F03CF8002019F039F8002033
:103F800019F036F8002019F033F8002019F030F855
:103F9000002019F02DF8002019F02AF8002019F05F
:103FA00027F8002019F024F8002019F021F800204B
:103FB00019F01EF8002019F01BF8002019F018F86D
:103FC000002019F015F8002019F012F8002019F05F
:103FD0000FF8002019F00CF8002019F009F8002063
:103FE00019F006F8002019F003F8002019F000F885
:103FF000002018F0FDFF002018F0FAFF002018F054
:10400000F7FF002018F0F4FF002018F0F1FF002067
:1040100018F0EEFF002018F0EBFF002018F0E8FF8A
:10402000002018F0E5FF002018F0E2FF002018F053
:10403000DFFF002018F0DCFF002018F0D9FF00207F
:1040400018F0D6FF002018F0D3FF002018F0D0FFA2
:10405000002018F0CDFF002018F0CAFF002018F053
:10406000C7FF002018F0C4FF002018F0C1FF002097
:1040700018F0BEFF002018F0BBFF002018F0B8FFBA
:10408000002018F0B5FF002018F0B2FF002018F053
:10409000AFFF002018F0ACFF002018F0A9FF0020AF
:1040A00018F0A6FF002018F0A3FF002018F0A0FFD2
:1040B000002018F09DFF002018F09AFF002018F053
:1040C00097FF002018F094FF002018F091FF0020C7
:1040D00018F08EFF002018F08BFF002018F088FFEA
:1040E000002018F085FF002018F082FF002018F053
:1040F0007FFF002018F07CFF002018F079FF0020DF
:1041000018F076FF002018F073FF002018F070FF01
:10411000002018F06DFF002018F06AFF002018F052
:1041200067FF002018F064FF002018F061FF0020F6
:1041300018F05EFF002018F05BFF002018F058FF19
:10414000002018F055FF002018F052FF002018F052
:104150004FFF002018F04CFF002018F049FF00200E
:1041600018F046FF002018F043FF002018F040FF31
:10417000002018F03DFF002018F03AFF002018F052
:1041800037FF002018F034FF002018F031FF002026
:1041900018F02EFF002018F02BFF002018F028FF49
:1041A000002018F025FF002018F022FF002018F052
:1041B0001FFF002018F01CFF002018F019FF00203E
:1041C00018F016FF002018F013FF002018F010FF61
:1041D000002018F00DFF002018F00AFF002018F052
:1041E00007FF002018F004FF002018F001FF002056
:1041F00018F0FEFE002018F0FBFE002018F0F8FE7C
:10420000002018F0F5FE002018F0F2FE002018F053
:10421000EFFE002018F0ECFE002018F0E9FE002070
:1042200018F0E6FE002018F0E3FE002018F0E0FE93
:10423000002018F0DDFE002018F0DAFE002018F053
:10424000D7FE002018F0D4FE002018F0D1FE002088
:1042500018F0CEFE002018F0CBFE002018F0C8FEAB
:10426000002018F0C5FE002018F0C2FE002018F053
:10427000BFFE002018F0BCFE002018F0B9FE0020A0
:1042800018F0B6FE002018F0B3FE002018F0B0FEC3
:10429000002018F0ADFE002018F0AAFE002018F053
:1042A000A7FE002018F0A4FE002018F0A1FE0020B8
:1042B00018F09EFE002018F09BFE002018F098FEDB
:1042C000002018F095FE002018F092FE002018F053
:1042D0008FFE002018F08CFE002018F089FE0020D0
:1042E00018F086FE002018F083FE002018F080FEF3
:1042F000002018F07DFE002018F07AFE002018F053
:1043000077FE002018F074FE002018F071FE0020E7
:1043100018F06EFE002018F06BFE002018F068FE0A
:10432000002018F065FE002018F062FE002018F052
:104330005FFE002018F05CFE002018F059FE0020FF
:1043400018F056FE002018F053FE002018F050FE22
:10435000002018F04DFE002018F04AFE002018F052
:1043600047FE002018F044FE002018F041FE002017
:1043700018F03EFE002018F03BFE002018F038FE3A
:10438000002018F035FE002018F032FE002018F052
:104390002FFE002018F02CFE002018F029FE00202F
:1043A00018F026FE002018F023FE002018F020FE52
:1043B000002018F01DFE002018F01AFE002018F052
:1043C00017FE002018F014FE002018F011FE002047
:1043D00018F00EFE002018F00BFE002018F008FE6A
:1043E000002018F005FE002018F002FE002018F052
:1043F000FFFD002018F0FCFD002018F0F9FD002062
:1044000018F0F6FD002018F0F3FD002018F0F0FD84
:10441000002018F0EDFD002018F0EAFD002018F053
:10442000E7FD002018F0E4FD002018F0E1FD002079
:1044300018F0DEFD002018F0DBFD002018F0D8FD9C
:10444000002018F0D5FD002018F0D2FD002018F053
:10445000CFFD002018F0CCFD002018F0C9FD002091
:1044600018F0C6FD002018F0C3FD002018F0C0FDB4
:10447000002018F0BDFD002018F0BAFD002018F053
:10448000B7FD002018F0B4FD002018F0B1FD0020A9
:1044900018F0AEFD002018F0ABFD002018F0A8FDCC
:1044A000002018F0A5FD002018F0A2FD002018F053
:1044B0009FFD002018F09CFD002018F099FD0020C1
:1044C00018F096FD002018F093FD002018F090FDE4
:1044D000002018F08DFD002018F08AFD002018F053
:1044E00087FD002018F084FD002018F081FD0020D9
:1044F00018F07EFD002018F07BFD002018F078FDFC
:10450000002018F075FD002018F072FD002018F052
:104510006FFD002018F06CFD002018F069FD0020F0
:1045200018F066FD002018F063FD002018F060FD13
:10453000002018F05DFD002018F05AFD002018F052
:1045400057FD002018F054FD002018F051FD002008
:1045500018F04EFD002018F04BFD002018F048FD2B
:10456000002018F045FD002018F042FD002018F052
:104570003FFD002018F03CFD002018F039FD002020
:1045800018F036FD002018F033FD002018F030FD43
:10459000002018F02DFD002018F02AFD002018F052
:1045A00027FD002018F024FD002018F021FD002038
:1045B00018F01EFD002018F01BFD002018F018FD5B
:1045C000002018F015FD002018F012FD002018F052
:1045D0000FFD002018F00CFD002018F009FD002050
:1045E00018F006FD002018F003FD002018F000FD73
:1045F000002018F0FDFC002018F0FAFC002018F054
:10460000F7FC002018F0F4FC002018F0F1FC00206A
:1046100018F0EEFC002018F0EBFC002018F0E8FC8D
:10462000002018F0E5FC002018F0E2FC002018F053
:10463000DFFC002018F0DCFC002018F0D9FC002082
:1046400018F0D6FC002018F0D3FC002018F0D0FCA5
:10465000002018F0CDFC002018F0CAFC002018F053
:10466000C7FC002018F0C4FC002018F0C1FC00209A
:1046700018F0BEFC002018F0BBFC002018F0B8FCBD
:10468000002018F0B5FC002018F0B2FC002018F053
:10469000AFFC002018F0ACFC002018F0A9FC0020B2
:1046A00018F0A6FC002018F0A3FC002018F0A0FCD5
:1046B000002018F09DFC002018F09AFC002018F053
:1046C00097FC002018F094FC002018F091FC0020CA
:1046D00018F08EFC002018F08BFC002018F088FCED
:1046E000002018F085FC002018F082FC002018F053
:1046F0007FFC002018F07CFC002018F079FC0020E2
:1047000018F076FC002018F073FC002018F070FC04
:10471000002018F06DFC002018F06AFC002018F052
:1047200067FC002018F064FC002018F061FC0020F9
:1047300018F05EFC002018F05BFC002018F058FC1C
:10474000002018F055FC002018F052FC002018F052
:104750004FFC002018F04CFC002018F049FC002011
:1047600018F046FC002018F043FC002018F040FC34
:10477000002018F03DFC002018F03AFC002018F052
:1047800037FC002018F034FC002018F031FC002029
:1047900018F02EFC002018F02BFC002018F028FC4C
:1047A000002018F025FC002018F022FC002018F052
:1047B0001FFC002018F01CFC002018F019FC002041
:1047C00018F016FC002018F013FC002018F010FC64
:1047D000002018F00DFC002018F00AFC002018F052
:1047E00007FC002018F004FC002018F001FC002059
:1047F00018F0FEFB002018F0FBFB002018F0F8FB7F
:10480000002018F0F5FB002018F0F2FB002018F053
:10481000EFFB002018F0ECFB002018F0E9FB002073
:1048200018F0E6FB002018F0E3FB002018F0E0FB96
:10483000002018F0DDFB002018F0DAFB002018F053
:10484000D7FB002018F0D4FB002018F0D1FB00208B
:1048500018F0CEFB002018F0CBFB002018F0C8FBAE
:10486000002018F0C5FB002018F0C2FB002018F053
:10487000BFFB002018F0BCFB002018F0B9FB0020A3
:1048800018F0B6FB002018F0B3FB002018F0B0FBC6
:10489000002018F0ADFB002018F0AAFB002018F053
:1048A000A7FB002018F0A4FB002018F0A1FB0020BB
:1048B00018F09EFB002018F09BFB002018F098FBDE
:1048C000002018F095FB002018F092FB002018F053
:1048D0008FFB002018F08CFB002018F089FB0020D3
:1048E00018F086FB002018F083FB002018F080FBF6
:1048F000002018F07DFB002018F07AFB002018F053
:1049000077FB002018F074FB002018F071FB0020EA
:1049100018F06EFB002018F06BFB002018F068FB0D
:10492000002018F065FB002018F062FB002018F052
:104930005FFB002018F05CFB002018F059FB002002
:1049400018F056FB002018F053FB002018F050FB25
:10495000002018F04DFB002018F04AFB002018F052
:1049600047FB002018F044FB002018F041FB00201A
:1049700018F03EFB002018F03BFB002018F038FB3D
:10498000002018F035FB002018F032FB002018F052
:104990002FFB002018F02CFB002018F029FB002032
:1049A00018F026FB002018F023FB002018F020FB55
:1049B000002018F01DFB002018F01AFB002018F052
:1049C00017FB002018F014FB002018F011FB00204A
:1049D00018F00EFB002018F00BFB002018F008FB6D
:1049E000002018F005FB002018F002FB002018F052
:1049F000FFFA002018F0FCFA002018F0F9FA002065
:104A000018F0F6FA002018F0F3FA002018F0F0FA87
:104A1000002018F0EDFA002018F0EAFA002018F053
:104A2000E7FA002018F0E4FA002018F0E1FA00207C
:104A300018F0DEFA002018F0DBFA002018F0D8FA9F
:104A4000002018F0D5FA002018F0D2FA002018F053
:104A5000CFFA002018F0CCFA002018F0C9FA002094
:104A600018F0C6FA002018F0C3FA002018F0C0FAB7
:104A7000002018F0BDFA002018F0BAFA002018F053
:104A8000B7FA002018F0B4FA002018F0B1FA0020AC
:104A900018F0AEFA002018F0ABFA002018F0A8FACF
:104AA000002018F0A5FA002018F0A2FA002018F053
:104AB0009FFA002018F09CFA002018F099FA0020C4
:104AC00018F096FA002018F093FA002018F090FAE7
:104AD000002018F08DFA002018F08AFA002018F053
:104AE00087FA002018F084FA002018F081FA0020DC
:104AF00018F07EFA002018F07BFA002018F078FAFF
:104B0000002018F075FA002018F072FA002018F052
:104B10006FFA002018F06CFA002018F069FA0020F3
:104B200018F066FA002018F063FA002018F060FA16
:104B3000002018F05DFA002018F05AFA002018F052
:104B400057FA002018F054FA002018F051FA00200B
:104B500018F04EFA002018F04BFA002018F048FA2E
:104B6000002018F045FA002018F042FA002018F052
:104B70003FFA002018F03CFA002018F039FA002023
:104B800018F036FA002018F033FA002018F030FA46
:104B9000002018F02DFA002018F02AFA002018F052
:104BA00027FA002018F024FA002018F021FA00203B
:104BB00018F01EFA002018F01BFA002018F018FA5E
:104BC000002018F015FA002018F012FA002018F052
:104BD0000FFA002018F00CFA002018F009FA002053
:104BE00018F006FA002018F003FA002018F000FA76
:104BF000002018F0FDF9002018F0FAF9002018F054
:104C0000F7F9002018F0F4F9002018F0F1F900206D
:104C100018F0EEF9002018F0EBF9002018F0E8F990
:104C2000002018F0E5F9002018F0E2F9002018F053
:104C3000DFF9002018F0DCF9002018F0D9F9002085
:104C400018F0D6F9002018F0D3F9002018F0D0F9A8
:104C5000002018F0CDF9002018F0CAF9002018F053
:104C6000C7F9002018F0C4F9002018F0C1F900209D
:104C700018F0BEF9002018F0BBF9002018F0B8F9C0
:104C8000002018F0B5F9002018F0B2F9002018F053
:104C9000AFF9002018F0ACF9002018F0A9F90020B5
:104CA00018F0A6F9002018F0A3F9002018F0A0F9D8
:104CB000002018F09DF9002018F09AF9002018F053
:104CC00097F9002018F094F9002018F091F90020CD
:104CD00018F08EF9002018F08BF9002018F088F9F0
:104CE000002018F085F9002018F082F9002018F053
:104CF0007FF9002018F07CF9002018F079F90020E5
:104D000018F076F9002018F073F9002018F070F907
:104D1000002018F06DF9002018F06AF9002018F052
:104D200067F9002018F064F9002018F061F90020FC
:104D300018F05EF9002018F05BF9002018F058F91F
:104D4000002018F055F9002018F052F9002018F052
:104D50004FF9002018F04CF9002018F049F9002014
:104D600018F046F9002018F043F9002018F040F937
:104D7000002018F03DF9002018F03AF9002018F052
:104D800037F9002018F034F9002018F031F900202C
:104D900018F02EF9002018F02BF9002018F028F94F
:104DA000002018F025F9002018F022F9002018F052
:104DB0001FF9002018F01CF9002018F019F9002044
:104DC00018F016F9002018F013F9002018F010F967
:104DD000002018F00DF9002018F00AF9002018F052
:104DE00007F9002018F004F9002018F001F900205C
:104DF00018F0FEF8002018F0FBF8002018F0F8F882
:104E0000002018F0F5F8002018F0F2F8002018F053
:104E1000EFF8002018F0ECF8002018F0E9F8002076
:104E200018F0E6F8002018F0E3F8002018F0E0F899
:104E3000002018F0DDF8002018F0DAF8002018F053
:104E4000D7F8002018F0D4F8002018F0D1F800208E
:104E500018F0CEF8002018F0CBF8002018F0C8F8B1
:104E6000002018F0C5F8002018F0C2F8002018F053
:104E7000BFF8002018F0BCF8002018F0B9F80020A6
:104E800018F0B6F8002018F0B3F8002018F0B0F8C9
:104E9000002018F0ADF8002018F0AAF8002018F053
:104EA000A7F8002018F0A4F8002018F0A1F80020BE
:104EB00018F09EF8002018F09BF8002018F098F8E1
:104EC000002018F095F8002018F092F8002018F053
:104ED0008FF8002018F08CF8002018F089F80020D6
:104EE00018F086F8002018F083F8002018F080F8F9
:104EF000002018F07DF8002018F07AF8002018F053
:104F000077F8002018F074F8002018F071F80020ED
:104F100018F06EF8002018F06BF8002018F068F810
:104F2000002018F065F8002018F062F8002018F052
:104F30005FF8002018F05CF8002018F059F8002005
:104F400018F056F8002018F053F8002018F050F828
:104F5000002018F04DF8002018F04AF8002018F052
:104F600047F8002018F044F8002018F041F800201D
:104F700018F03EF8002018F03BF8002018F038F840
:104F8000002018F035F8002018F032F8002018F052
:104F90002FF8002018F02CF8002018F029F8002035
:104FA00018F026F8002018F023F8002018F020F858
:104FB000002018F01DF8002018F01AF8002018F052
:104FC00017F8002018F014F8002018F011F800204D
:104FD00018F00EF8002018F00BF8002018F008F870
:104FE000002018F005F8002018F002F8002017F053
:104FF000FFFF002017F0FCFF002017F0F9FF002052
:1050000017F0F6FF002017F0F3FF002017F0F0FF75
:10501000002017F0EDFF002017F0EAFF002017F046
:10502000E7FF002017F0E4FF002017F0E1FF002069
:1050300017F0DEFF002017F0DBFF002017F0D8FF8D
:10504000002017F0D5FF002017F0D2FF002017F046
:10505000CFFF002017F0CCFF002017F0C9FF002081
:1050600017F0C6FF002017F0C3FF002017F0C0FFA5
:10507000002017F0BDFF002017F0BAFF002017F046
:10508000B7FF002017F0B4FF002017F0B1FF002099
:1050900017F0AEFF002017F0ABFF002017F0A8FFBD
:1050A000002017F0A5FF002017F0A2FF002017F046
:1050B0009FFF002017F09CFF002017F099FF0020B1
:1050C00017F096FF002017F093FF002017F090FFD5
:1050D000002017F08DFF002017F08AFF002017F046
:1050E00087FF002017F084FF002017F081FF0020C9
:1050F00017F07EFF002017F07BFF002017F078FFED
:10510000002017F075FF002017F072FF002017F045
:105110006FFF002017F06CFF002017F069FF0020E0
:1051200017F066FF002017F063FF002017F060FF04
:10513000002017F05DFF002017F05AFF002017F045
:1051400057FF002017F054FF002017F051FF0020F8
:1051500017F04EFF002017F04BFF002017F048FF1C
:10516000002017F045FF002017F042FF002017F045
:105170003FFF002017F03CFF002017F039FF002010
:1051800017F036FF002017F033FF002017F030FF34
:10519000002017F02DFF002017F02AFF002017F045
:1051A00027FF002017F024FF002017F021FF002028
:1051B00017F01EFF002017F01BFF002017F018FF4C
:1051C000002017F015FF002017F012FF002017F045
:1051D0000FFF002017F00CFF002017F009FF002040
:1051E00017F006FF002017F003FF002017F000FF64
:1051F000002017F0FDFE002017F0FAFE002017F047
:10520000F7FE002017F0F4FE002017F0F1FE00205A
:1052100017F0EEFE002017F0EBFE002017F0E8FE7E
:10522000002017F0E5FE002017F0E2FE002017F046
:10523000DFFE002017F0DCFE002017F0D9FE002072
:1052400017F0D6FE002017F0D3FE002017F0D0FE96
:10525000002017F0CDFE002017F0CAFE002017F046
:10526000C7FE002017F0C4FE002017F0C1FE00208A
:1052700017F0BEFE002017F0BBFE002017F0B8FEAE
:10528000002017F0B5FE002017F0B2FE002017F046
:10529000AFFE002017F0ACFE002017F0A9FE0020A2
:1052A00017F0A6FE002017F0A3FE002017F0A0FEC6
:1052B000002017F09DFE002017F09AFE002017F046
:1052C00097FE002017F094FE002017F091FE0020BA
:1052D00017F08EFE002017F08BFE002017F088FEDE
:1052E000002017F085FE002017F082FE002017F046
:1052F0007FFE002017F07CFE002017F079FE0020D2
:1053000017F076FE002017F073FE002017F070FEF5
:10531000002017F06DFE002017F06AFE002017F045
:1053200067FE002017F064FE002017F061FE0020E9
:1053300017F05EFE002017F05BFE002017F058FE0D
:10534000002017F055FE002017F052FE002017F045
:105350004FFE002017F04CFE002017F049FE002001
:1053600017F046FE002017F043FE002017F040FE25
:10537000002017F03DFE002017F03AFE002017F045
:1053800037FE002017F034FE002017F031FE002019
:1053900017F02EFE002017F02BFE002017F028FE3D
:1053A000002017F025FE002017F022FE002017F045
:1053B0001FFE002017F01CFE002017F019FE002031
:1053C00017F016FE002017F013FE002017F010FE55
:1053D000002017F00DFE002017F00AFE002017F045
:1053E00007FE002017F004FE002017F001FE002049
:1053F00017F0FEFD002017F0FBFD002017F0F8FD70
:10540000002017F0F5FD002017F0F2FD002017F046
:10541000EFFD002017F0ECFD002017F0E9FD002063
:1054200017F0E6FD002017F0E3FD002017F0E0FD87
:10543000002017F0DDFD002017F0DAFD002017F046
:10544000D7FD002017F0D4FD002017F0D1FD00207B
:1054500017F0CEFD002017F0CBFD002017F0C8FD9F
:10546000002017F0C5FD002017F0C2FD002017F046
:10547000BFFD002017F0BCFD002017F0B9FD002093
:1054800017F0B6FD002017F0B3FD002017F0B0FDB7
:10549000002017F0ADFD002017F0AAFD002017F046
:1054A000A7FD002017F0A4FD002017F0A1FD0020AB
:1054B00017F09EFD002017F09BFD002017F098FDCF
:1054C000002017F095FD002017F092FD002017F046
:1054D0008FFD002017F08CFD002017F089FD0020C3
:1054E00017F086FD002017F083FD002017F080FDE7
:1054F000002017F07DFD002017F07AFD002017F046
:1055000077FD002017F074FD002017F071FD0020DA
:1055100017F06EFD002017F06BFD002017F068FDFE
:10552000002017F065FD002017F062FD002017F045
:105530005FFD002017F05CFD002017F059FD0020F2
:1055400017F056FD002017F053FD002017F050FD16
:10555000002017F04DFD002017F04AFD002017F045
:1055600047FD002017F044FD002017F041FD00200A
:1055700017F03EFD002017F03BFD002017F038FD2E
:10558000002017F035FD002017F032FD002017F045
:105590002FFD002017F02CFD002017F029FD002022
:1055A00017F026FD002017F023FD002017F020FD46
:1055B000002017F01DFD002017F01AFD002017F045
:1055C00017FD002017F014FD002017F011FD00203A
:1055D00017F00EFD002017F00BFD002017F008FD5E
:1055E000002017F005FD002017F002FD002017F045
:1055F000FFFC002017F0FCFC002017F0F9FC002055
:1056000017F0F6FC002017F0F3FC002017F0F0FC78
:10561000002017F0EDFC002017F0EAFC002017F046
:10562000E7FC002017F0E4FC002017F0E1FC00206C
:1056300017F0DEFC002017F0DBFC002017F0D8FC90
:10564000002017F0D5FC002017F0D2FC002017F046
:10565000CFFC002017F0CCFC002017F0C9FC002084
:1056600017F0C6FC002017F0C3FC002017F0C0FCA8
:10567000002017F0BDFC002017F0BAFC002017F046
:10568000B7FC002017F0B4FC002017F0B1FC00209C
:1056900017F0AEFC002017F0ABFC002017F0A8FCC0
:1056A000002017F0A5FC002017F0A2FC002017F046
:1056B0009FFC002017F09CFC002017F099FC0020B4
:1056C00017F096FC002017F093FC002017F090FCD8
:1056D000002017F08DFC002017F08AFC002017F046
:1056E00087FC002017F084FC002017F081FC0020CC
:1056F00017F07EFC002017F07BFC002017F078FCF0
:10570000002017F075FC002017F072FC002017F045
:105710006FFC002017F06CFC002017F069FC0020E3
:1057200017F066FC002017F063FC002017F060FC07
:10573000002017F05DFC002017F05AFC002017F045
:1057400057FC002017F054FC002017F051FC0020FB
:1057500017F04EFC002017F04BFC002017F048FC1F
:10576000002017F045FC002017F042FC002017F045
:105770003FFC002017F03CFC002017F039FC002013
:1057800017F036FC002017F033FC002017F030FC37
:10579000002017F02DFC002017F02AFC002017F045
:1057A00027FC002017F024FC002017F021FC00202B
:1057B00017F01EFC002017F01BFC002017F018FC4F
:1057C000002017F015FC002017F012FC002017F045
:1057D0000FFC002017F00CFC002017F009FC002043
:1057E00017F006FC002017F003FC002017F000FC67
:1057F000002017F0FDFB002017F0FAFB002017F047
:10580000F7FB002017F0F4FB002017F0F1FB00205D
:1058100017F0EEFB002017F0EBFB002017F0E8FB81
:10582000002017F0E5FB002017F0E2FB002017F046
:10583000DFFB002017F0DCFB002017F0D9FB002075
:1058400017F0D6FB002017F0D3FB002017F0D0FB99
:10585000002017F0CDFB002017F0CAFB002017F046
:10586000C7FB002017F0C4FB002017F0C1FB00208D
:1058700017F0BEFB002017F0BBFB002017F0B8FBB1
:10588000002017F0B5FB002017F0B2FB002017F046
:10589000AFFB002017F0ACFB002017F0A9FB0020A5
:1058A00017F0A6FB002017F0A3FB002017F0A0FBC9
:1058B000002017F09DFB002017F09AFB002017F046
:1058C00097FB002017F094FB002017F091FB0020BD
:1058D00017F08EFB002017F08BFB002017F088FBE1
:1058E000002017F085FB002017F082FB002017F046
:1058F0007FFB002017F07CFB002017F079FB0020D5
:1059000017F076FB002017F073FB002017F070FBF8
:10591000002017F06DFB002017F06AFB002017F045
:1059200067FB002017F064FB002017F061FB0020EC
:1059300017F05EFB002017F05BFB002017F058FB10
:10594000002017F055FB002017F052FB002017F045
:105950004FFB002017F04CFB002017F049FB002004
:1059600017F046FB002017F043FB002017F040FB28
:10597000002017F03DFB002017F03AFB002017F045
:1059800037FB002017F034FB002017F031FB00201C
:1059900017F02EFB002017F02BFB002017F028FB40
:1059A000002017F025FB002017F022FB002017F045
:1059B0001FFB002017F01CFB002017F019FB002034
:1059C00017F016FB002017F013FB002017F010FB58
:1059D000002017F00DFB002017F00AFB002017F045
:1059E00007FB002017F004FB002017F001FB00204C
:1059F00017F0FEFA002017F0FBFA002017F0F8FA73
:105A0000002017F0F5FA002017F0F2FA002017F046
:105A1000EFFA002017F0ECFA002017F0E9FA002066
:105A200017F0E6FA002017F0E3FA002017F0E0FA8A
:105A3000002017F0DDFA002017F0DAFA002017F046
:105A4000D7FA002017F0D4FA002017F0D1FA00207E
:105A500017F0CEFA002017F0CBFA002017F0C8FAA2
:105A6000002017F0C5FA002017F0C2FA002017F046
:105A7000BFFA002017F0BCFA002017F0B9FA002096
:105A800017F0B6FA002017F0B3FA002017F0B0FABA
:105A9000002017F0ADFA002017F0AAFA002017F046
:105AA000A7FA002017F0A4FA002017F0A1FA0020AE
:105AB00017F09EFA002017F09BFA002017F098FAD2
:105AC000002017F095FA002017F092FA002017F046
:105AD0008FFA002017F08CFA002017F089FA0020C6
