:020000041000EA
:1000000000B5324B212058609868022188439860DF
:10001000D860186158612E4B002199600221596106
:100020000121F02299502B49196001219960352056
:1000300000F044F80222904214D00621196600F024
:1000400034F8196E01211966002018661A6600F04E
:100050002CF8196E196E196E052000F02FF8012189
:100060000842F9D1002199601B49196000215960AB
:100070001A491B48016001219960EB211966A021F2
:10008000196600F012F800219960164914480160C1
:100090000121996001BC002800D000471248134993
:1000A000086003C880F30888084703B5996A0420EC
:1000B0000142FBD001200142F8D103BD02B5186610
:1000C0001866FFF7F2FF186E186E02BD00000240BE
:1000D000000000180000070000035F00212200005C
:1000E000F4000018222000A00001001008ED00E03C
:1000F00000000000000000000000000074B24E7A12
:1001000000200420F7010010C3010010C5010010F9
:10011000C1010010C1010010C1010010C101001097
:10012000C1010010C1010010C1010010C701001081
:10013000C1010010C1010010C9010010CB01001065
:10014000CD010010CD010010CD010010CD01001037
:10015000CD010010CD010010CD010010CD01001027
:10016000CD010010CD010010CD010010CD01001017
:10017000CD010010CD010010CD010010CD01001007
:10018000CD010010CD010010CD010010CD010010F7
:10019000CD010010CD010010CD010010CD010010E7
:1001A000CD010010CD010010CD010010CD010010D7
:1001B000CD010010CD010010CD010010CD010010C7
:1001C00000BE00BE00BE00BE00BE00BE00F04BF888
:1001D000103800BEF2EB887120C602104CC6021027
:1001E0003402001090A31AE700202149086006C8D5
:1001F00081F3088810471F48006800282FD10DA4FC
:100200000ECC002902D000F012F8F9E71A491B4A77
:10021000002000E001C19142FCD1194988471949E9
:1002200088471949884700BEFDE701C901C29A42C3
:10023000FBD370474CC60210C0000020781200208B
:1002400004D80210000004200000042004D802108A
:1002500000100420001004200000000070470B482C
:100260001FF096FC0047EFF30580C0B27047000016
:1002700008ED00E0000000D0781200205027002098
:1002800071E40110DDC701102DE401105756000084
:1002900006005250ABB36053B8AD02100600525086
:1002A000861C0302C8AD0210060052505422A29DC3
:1002B000D0AD021005005250DE65F46804D802107B
:1002C000F8B5C04610B5064C2378002B07D1054B76
:1002D000002B02D0044800E000BF0123237010BDB2
:1002E0005018002000000000C89A0210044B10B5FE
:1002F000002B03D00349044800E000BF10BDC046F6
:100300000000000054180020C89A021010B50248DE
:1003100027F0D6F910BDC0465008002001207047D4
:1003200010B50400FFF7FAFFA04205D3A620800015
:100330006043024BC01810BD0020FCE7B805002048
:100340000120704710B50400FFF7E8FFA04204D376
:10035000342044430248001910BD0020FCE7C04689
:100360005008002030B583B00C0000232DE06B4610
:10037000DA1D1570002106E083699B06FCD4137812
:100380000360013101320029F6D018E06B46DA1D16
:100390000D231370002106E083699B06FCD41378BB
:1003A0000360013101320029F6D01CE083699B060D
:1003B000FCD413780360013101320029F6D0237890
:1003C0000D3B5A425341DBB201342578002D0FD04A
:1003D000002BCCD1074BC3185A4253415B00064A4D
:1003E0009B5EAB42D2D06B46DA1D15700021E4E76C
:1003F00003B030BD0080FCBF0427002010B51DF005
:1004000079FB10BD30B583B00223022B08DD244AEE
:100410001368013313600A20FFF7F0FF002418E08F
:10042000022B01D00133F0E71E4AD054FAE76B46A5
:10043000DA1D0D2313700021002913D11A4B9B697B
:100440009B06FBD41078184B186001310132F3E79A
:100450000134022C16DC134B1D5D144B00229B5EF5
:10046000AB42E4D06B46DA1D157000210029EFD1B4
:100470000D4B9B699B06FBD410780B4B1860013128
:100480000132F3E70A20FFF7B9FF022303E0054A30
:100490000021D1540133032BF9DD03B030BDC04638
:1004A00064240020E00800200040034004270020CE
:1004B00030B583B0022302E0264AD1540133062B23
:1004C00007DC022BF8D0C218033A1478214AD4541E
:1004D000F4E7214A1368013313600A20FFF78EFF07
:1004E000002411E06B46DA1D0D2313700021002952
:1004F00013D11A4B9B699B06FBD41078174B1860DD
:1005000001310132F3E70134062C16DC114B1D5D7D
:10051000134B00229B5EAB42E4D06B46DA1D157094
:1005200000210029EFD10D4B9B699B06FBD410786D
:100530000A4B186001310132F3E70A20FFF75EFF32
:10054000022303E0034A0021D1540133062BF9DDD5
:1005500003B030BDE0080020B42400200040034078
:100560000427002070B51C201CF07CF9D024240640
:1005700080235B056362636119201CF073F9802599
:10058000AD04656265616420FFF738FFA5616420F2
:10059000FFF734FFE1267602310044481DF0E8FE03
:1005A000310043481DF0E4FE022100201CF028F930
:1005B000022101201CF024F9022104201CF020F962
:1005C0000E201CF04FF911201CF04CF98022D201B2
:1005D000626280239B0263626261636119201CF086
:1005E00041F965620B201CF03DF980231B01636219
:1005F0001A201CF037F98023DB0463620A201CF008
:1006000031F98023DB0063621B201CF02BF980236F
:100610001B056362002201211B201CF009F9062042
:100620001CF020F9402363620022012106201CF007
:10063000FFF8204B01221A6016201CF013F98023CA
:10064000DB0363620F201CF00DF980231B02636241
:1006500012201CF007F98023DB02A3620022012193
:1006600012201CF0E5F814201CF0FCF880235B033A
:10067000A3620122002114201CF0DAF815201CF0DE
:10068000F1F880239B03A3620122002115201CF0B6
:10069000CFF805201CF0E6F82023A36209201CF007
:1006A000E1F880239B00A36270BDC0460040034078
:1006B00000800340C40800200023244A1360244A19
:1006C0001360244A1360244A1360244A1360244AA6
:1006D0001360244A1360244A1360244A1360244A96
:1006E0001360244A232111704920507005389070FE
:1006F0001530D070137153719371D371137253729B
:100700009372D372137353739373D37313745374B9
:100710009374D374137553759375D3751376537699
:100720009376D376137753779377D37739381354F7
:1007300001301354013013545354013153540131D7
:100740005354013153540131535470474420002015
:1007500028270020642400209019002088190020F8
:100760008C1900208419002094190020C01F00203B
:10077000C41F00206C1F0020094B00221A705A7001
:100780009A70DA701A715A719A71DA711A725A7211
:100790009A72DA721A735A739A73DA737047C04690
:1007A000541F0020012800D07047344B1B78702B59
:1007B0002BD06E2BF8D1D0231B065B689B0204D58F
:1007C000D0231B065B68DB024ED4D0231B065B687C
:1007D0009B0204D4D0231B065B68DB024BD4D023DE
:1007E0001B065B689B0204D5D0231B065B68DB02FB
:1007F000DAD5D0231B065B689B02D5D4D0231B0619
:100800005B68DB02D0D40320CEE7D0221206526808
:10081000920204D4D02212065268D2021FD5D022EE
:1008200012065268920204D5D02212065268D202F1
:100830001FD5D02212065268920204D4D02212068A
:100840005268D202B0D4D022120652689202B0D5B9
:10085000D02212065268D202ABD50320A4E7084B7F
:1008600000221A7000209FE7054B00221A7000201A
:100870009AE7022098E7022096E7C04690080020F9
:100880004827002030B583B0042800D1DBE006DC27
:1008900001284AD003284ED10023914874E005284E
:1008A00049D100238F48FCE06B46DA1D147000210B
:1008B00000291AD18C4B9B699B06FBD414788A4B78
:1008C0001C6001310132F3E76B46DA1D0D23137012
:1008D0000021002919D1844B9B699B06FBD4157814
:1008E000814B1D6001310132F3E703780D3B5A4221
:1008F0005341DBB201300478002C19D0002BD3D146
:100900007A4B02229B5EA342DED06B46DA1D147046
:1009100000210029E9D1744B9B699B06FBD4147814
:10092000714B1C6001310132F3E700237048E2E7AC
:1009300001201DF0DFF803B030BD6B46DA1D1470E6
:10094000002100291AD1684B9B699B06FBD41478BF
:10095000654B1C6001310132F3E76B46DA1D0D2354
:1009600013700021002919D15F4B9B699B06FBD4B2
:1009700015785D4B1D6001310132F3E703780D3BC3
:100980005A425341DBB201300478002C16D0002BC0
:10099000D3D1564B02229B5EA342DED06B46DA1DBA
:1009A000147000210029E9D14F4B9B699B06FBD4B1
:1009B00014784D4B1C6001310132F3E701201DF02A
:1009C00099F8B8E76B46DA1D1470002100291AD196
:1009D000454B9B699B06FBD41478434B1C6001314B
:1009E0000132F3E76B46DA1D0D2313700021002955
:1009F00019D13D4B9B699B06FBD415783A4B1D6082
:100A000001310132F3E703780D3B5A425341DBB227
:100A100001300478002C19D0002BD3D1334B0222A3
:100A20009B5EA342DED06B46DA1D147000210029C4
:100A3000E9D12D4B9B699B06FBD414782A4B1C6093
:100A400001310132F3E700232A48E2E701201DF0DB
:100A500051F870E76B46DA1D1470002100291AD195
:100A6000214B9B699B06FBD414781F4B1C60013102
:100A70000132F3E76B46DA1D0D23137000210029C4
:100A800019D1194B9B699B06FBD41578164B1D6039
:100A900001310132F3E703780D3B5A425341DBB297
:100AA00001300478002C16D0002BD3D10F4B02223A
:100AB0009B5EA342DED06B46DA1D14700021002934
:100AC000E9D1094B9B699B06FBD41478064B1C604B
:100AD00001310132F3E701201DF00CF82BE7C0468D
:100AE000E49A0210F49A02100080034004270020C8
:100AF000CC9A0210EC9A021010B5294B01221A6010
:100B000019E0284A5021D1541EE0264A4521D154EB
:100B10001CE0244A5021D1542BE00133204A1360B9
:100B2000204A3021D154204800211CF0B7FF1C4B33
:100B30001B68192B23D0D0231B065B689B050FD5A0
:100B4000174B1B68012BDCD01A2BDED00133144A63
:100B50001360144A3121D154134800211CF09EFF28
:100B6000D0231B065B689B06E1D50D4B1B68012B50
:100B7000CFD01A2BD1D10B4A4521D154CDE7084B08
:100B800001221A60074C2100084820F017F9084A92
:100B90003223E254074800211CF080FF10BDC046FC
:100BA000BC080020F8080020A3060000FC9A0210F0
:100BB000009B02107A03000010B5002020F0FEF820
:100BC000002020F0FBF8002020F0F8F8002020F0B2
:100BD000F5F8002020F0F2F8002020F0EFF80020D7
:100BE00020F0ECF8002020F0E9F8002020F0E6F8F2
:100BF000002020F0E3F8002020F0E0F8002020F0B2
:100C0000DDF8002020F0DAF8002020F0D7F80020EE
:100C100020F0D4F8002020F0D1F8002020F0CEF809
:100C2000002020F0CBF8002020F0C8F8002020F0B1
:100C3000C5F8002020F0C2F8002020F0BFF8002006
:100C400020F0BCF8002020F0B9F8002020F0B6F821
:100C5000002020F0B3F8002020F0B0F8002020F0B1
:100C6000ADF8002020F0AAF8002020F0A7F800201E
:100C700020F0A4F8002020F0A1F8002020F09EF839
:100C8000002020F09BF8002020F098F8002020F0B1
:100C900095F8002020F092F8002020F08FF8002036
:100CA00020F08CF8002020F089F8002020F086F851
:100CB000002020F083F8002020F080F8002020F0B1
:100CC0007DF8002020F07AF8002020F077F800204E
:100CD00020F074F8002020F071F8002020F06EF869
:100CE000002020F06BF8002020F068F8002020F0B1
:100CF00065F8002020F062F8002020F05FF8002066
:100D000020F05CF8002020F059F8002020F056F880
:100D1000002020F053F8002020F050F8002020F0B0
:100D20004DF8002020F04AF8002020F047F800207D
:100D300020F044F8002020F041F8002020F03EF898
:100D4000002020F03BF8002020F038F8002020F0B0
:100D500035F8002020F032F8002020F02FF8002095
:100D600020F02CF8002020F029F8002020F026F8B0
:100D7000002020F023F8002020F020F8002020F0B0
:100D80001DF8002020F01AF8002020F017F80020AD
:100D900020F014F8002020F011F8002020F00EF8C8
:100DA000002020F00BF8002020F008F8002020F0B0
:100DB00005F8002020F002F800201FF0FFFF0020BF
:100DC0001FF0FCFF00201FF0F9FF00201FF0F6FFCE
:100DD00000201FF0F3FF00201FF0F0FF00201FF0A5
:100DE000EDFF00201FF0EAFF00201FF0E7FF0020CA
:100DF0001FF0E4FF00201FF0E1FF00201FF0DEFFE6
:100E000000201FF0DBFF00201FF0D8FF00201FF0A4
:100E1000D5FF00201FF0D2FF00201FF0CFFF0020E1
:100E20001FF0CCFF00201FF0C9FF00201FF0C6FFFD
:100E300000201FF0C3FF00201FF0C0FF00201FF0A4
:100E4000BDFF00201FF0BAFF00201FF0B7FF0020F9
:100E50001FF0B4FF00201FF0B1FF00201FF0AEFF15
:100E600000201FF0ABFF00201FF0A8FF00201FF0A4
:100E7000A5FF00201FF0A2FF00201FF09FFF002011
:100E80001FF09CFF00201FF099FF00201FF096FF2D
:100E900000201FF093FF00201FF090FF00201FF0A4
:100EA0008DFF00201FF08AFF00201FF087FF002029
:100EB0001FF084FF00201FF081FF00201FF07EFF45
:100EC00000201FF07BFF00201FF078FF00201FF0A4
:100ED00075FF00201FF072FF00201FF06FFF002041
:100EE0001FF06CFF00201FF069FF00201FF066FF5D
:100EF00000201FF063FF00201FF060FF00201FF0A4
:100F00005DFF00201FF05AFF00201FF057FF002058
:100F10001FF054FF00201FF051FF00201FF04EFF74
:100F200000201FF04BFF00201FF048FF00201FF0A3
:100F300045FF00201FF042FF00201FF03FFF002070
:100F40001FF03CFF00201FF039FF00201FF036FF8C
:100F500000201FF033FF00201FF030FF00201FF0A3
:100F60002DFF00201FF02AFF00201FF027FF002088
:100F70001FF024FF00201FF021FF00201FF01EFFA4
:100F800000201FF01BFF00201FF018FF00201FF0A3
:100F900015FF00201FF012FF00201FF00FFF0020A0
:100FA0001FF00CFF00201FF009FF00201FF006FFBC
:100FB00000201FF003FF00201FF000FF00201FF0A3
:100FC000FDFE00201FF0FAFE00201FF0F7FE0020BB
:100FD0001FF0F4FE00201FF0F1FE00201FF0EEFED7
:100FE00000201FF0EBFE00201FF0E8FE00201FF0A5
:100FF000E5FE00201FF0E2FE00201FF0DFFE0020D3
:101000001FF0DCFE00201FF0D9FE00201FF0D6FEEE
:1010100000201FF0D3FE00201FF0D0FE00201FF0A4
:10102000CDFE00201FF0CAFE00201FF0C7FE0020EA
:101030001FF0C4FE00201FF0C1FE00201FF0BEFE06
:1010400000201FF0BBFE00201FF0B8FE00201FF0A4
:10105000B5FE00201FF0B2FE00201FF0AFFE002002
:101060001FF0ACFE00201FF0A9FE00201FF0A6FE1E
:1010700000201FF0A3FE00201FF0A0FE00201FF0A4
:101080009DFE00201FF09AFE00201FF097FE00201A
:101090001FF094FE00201FF091FE00201FF08EFE36
:1010A00000201FF08BFE00201FF088FE00201FF0A4
:1010B00085FE00201FF082FE00201FF07FFE002032
:1010C0001FF07CFE00201FF079FE00201FF076FE4E
:1010D00000201FF073FE00201FF070FE00201FF0A4
:1010E0006DFE00201FF06AFE00201FF067FE00204A
:1010F0001FF064FE00201FF061FE00201FF05EFE66
:1011000000201FF05BFE00201FF058FE00201FF0A3
:1011100055FE00201FF052FE00201FF04FFE002061
:101120001FF04CFE00201FF049FE00201FF046FE7D
:1011300000201FF043FE00201FF040FE00201FF0A3
:101140003DFE00201FF03AFE00201FF037FE002079
:101150001FF034FE00201FF031FE00201FF02EFE95
:1011600000201FF02BFE00201FF028FE00201FF0A3
:1011700025FE00201FF022FE00201FF01FFE002091
:101180001FF01CFE00201FF019FE00201FF016FEAD
:1011900000201FF013FE00201FF010FE00201FF0A3
:1011A0000DFE00201FF00AFE00201FF007FE0020A9
:1011B0001FF004FE00201FF001FE00201FF0FEFDC6
:1011C00000201FF0FBFD00201FF0F8FD00201FF0A5
:1011D000F5FD00201FF0F2FD00201FF0EFFD0020C4
:1011E0001FF0ECFD00201FF0E9FD00201FF0E6FDE0
:1011F00000201FF0E3FD00201FF0E0FD00201FF0A5
:10120000DDFD00201FF0DAFD00201FF0D7FD0020DB
:101210001FF0D4FD00201FF0D1FD00201FF0CEFDF7
:1012200000201FF0CBFD00201FF0C8FD00201FF0A4
:10123000C5FD00201FF0C2FD00201FF0BFFD0020F3
:101240001FF0BCFD00201FF0B9FD00201FF0B6FD0F
:1012500000201FF0B3FD00201FF0B0FD00201FF0A4
:10126000ADFD00201FF0AAFD00201FF0A7FD00200B
:101270001FF0A4FD00201FF0A1FD00201FF09EFD27
:1012800000201FF09BFD00201FF098FD00201FF0A4
:1012900095FD00201FF092FD00201FF08FFD002023
:1012A0001FF08CFD00201FF089FD00201FF086FD3F
:1012B00000201FF083FD00201FF080FD00201FF0A4
:1012C0007DFD00201FF07AFD00201FF077FD00203B
:1012D0001FF074FD00201FF071FD00201FF06EFD57
:1012E00000201FF06BFD00201FF068FD00201FF0A4
:1012F00065FD00201FF062FD00201FF05FFD002053
:101300001FF05CFD00201FF059FD00201FF056FD6E
:1013100000201FF053FD00201FF050FD00201FF0A3
:101320004DFD00201FF04AFD00201FF047FD00206A
:101330001FF044FD00201FF041FD00201FF03EFD86
:1013400000201FF03BFD00201FF038FD00201FF0A3
:1013500035FD00201FF032FD00201FF02FFD002082
:101360001FF02CFD00201FF029FD00201FF026FD9E
:1013700000201FF023FD00201FF020FD00201FF0A3
:101380001DFD00201FF01AFD00201FF017FD00209A
:101390001FF014FD00201FF011FD00201FF00EFDB6
:1013A00000201FF00BFD00201FF008FD00201FF0A3
:1013B00005FD00201FF002FD00201FF0FFFC0020B3
:1013C0001FF0FCFC00201FF0F9FC00201FF0F6FCD1
:1013D00000201FF0F3FC00201FF0F0FC00201FF0A5
:1013E000EDFC00201FF0EAFC00201FF0E7FC0020CD
:1013F0001FF0E4FC00201FF0E1FC00201FF0DEFCE9
:1014000000201FF0DBFC00201FF0D8FC00201FF0A4
:10141000D5FC00201FF0D2FC00201FF0CFFC0020E4
:101420001FF0CCFC00201FF0C9FC00201FF0C6FC00
:1014300000201FF0C3FC00201FF0C0FC00201FF0A4
:10144000BDFC00201FF0BAFC00201FF0B7FC0020FC
:101450001FF0B4FC00201FF0B1FC00201FF0AEFC18
:1014600000201FF0ABFC00201FF0A8FC00201FF0A4
:10147000A5FC00201FF0A2FC00201FF09FFC002014
:101480001FF09CFC00201FF099FC00201FF096FC30
:1014900000201FF093FC00201FF090FC00201FF0A4
:1014A0008DFC00201FF08AFC00201FF087FC00202C
:1014B0001FF084FC00201FF081FC00201FF07EFC48
:1014C00000201FF07BFC00201FF078FC00201FF0A4
:1014D00075FC00201FF072FC00201FF06FFC002044
:1014E0001FF06CFC00201FF069FC00201FF066FC60
:1014F00000201FF063FC00201FF060FC00201FF0A4
:101500005DFC00201FF05AFC00201FF057FC00205B
:101510001FF054FC00201FF051FC00201FF04EFC77
:1015200000201FF04BFC00201FF048FC00201FF0A3
:1015300045FC00201FF042FC00201FF03FFC002073
:101540001FF03CFC00201FF039FC00201FF036FC8F
:1015500000201FF033FC00201FF030FC00201FF0A3
:101560002DFC00201FF02AFC00201FF027FC00208B
:101570001FF024FC00201FF021FC00201FF01EFCA7
:1015800000201FF01BFC00201FF018FC00201FF0A3
:1015900015FC00201FF012FC00201FF00FFC0020A3
:1015A0001FF00CFC00201FF009FC00201FF006FCBF
:1015B00000201FF003FC00201FF000FC00201FF0A3
:1015C000FDFB00201FF0FAFB00201FF0F7FB0020BE
:1015D0001FF0F4FB00201FF0F1FB00201FF0EEFBDA
:1015E00000201FF0EBFB00201FF0E8FB00201FF0A5
:1015F000E5FB00201FF0E2FB00201FF0DFFB0020D6
:101600001FF0DCFB00201FF0D9FB00201FF0D6FBF1
:1016100000201FF0D3FB00201FF0D0FB00201FF0A4
:10162000CDFB00201FF0CAFB00201FF0C7FB0020ED
:101630001FF0C4FB00201FF0C1FB00201FF0BEFB09
:1016400000201FF0BBFB00201FF0B8FB00201FF0A4
:10165000B5FB00201FF0B2FB00201FF0AFFB002005
:101660001FF0ACFB00201FF0A9FB00201FF0A6FB21
:1016700000201FF0A3FB00201FF0A0FB00201FF0A4
:101680009DFB00201FF09AFB00201FF097FB00201D
:101690001FF094FB00201FF091FB00201FF08EFB39
:1016A00000201FF08BFB00201FF088FB00201FF0A4
:1016B00085FB00201FF082FB00201FF07FFB002035
:1016C0001FF07CFB00201FF079FB00201FF076FB51
:1016D00000201FF073FB00201FF070FB00201FF0A4
:1016E0006DFB00201FF06AFB00201FF067FB00204D
:1016F0001FF064FB00201FF061FB00201FF05EFB69
:1017000000201FF05BFB00201FF058FB00201FF0A3
:1017100055FB00201FF052FB00201FF04FFB002064
:101720001FF04CFB00201FF049FB00201FF046FB80
:1017300000201FF043FB00201FF040FB00201FF0A3
:101740003DFB00201FF03AFB00201FF037FB00207C
:101750001FF034FB00201FF031FB00201FF02EFB98
:1017600000201FF02BFB00201FF028FB00201FF0A3
:1017700025FB00201FF022FB00201FF01FFB002094
:101780001FF01CFB00201FF019FB00201FF016FBB0
:1017900000201FF013FB00201FF010FB00201FF0A3
:1017A0000DFB00201FF00AFB00201FF007FB0020AC
:1017B0001FF004FB00201FF001FB00201FF0FEFAC9
:1017C00000201FF0FBFA00201FF0F8FA00201FF0A5
:1017D000F5FA00201FF0F2FA00201FF0EFFA0020C7
:1017E0001FF0ECFA00201FF0E9FA00201FF0E6FAE3
:1017F00000201FF0E3FA00201FF0E0FA00201FF0A5
:10180000DDFA00201FF0DAFA00201FF0D7FA0020DE
:101810001FF0D4FA00201FF0D1FA00201FF0CEFAFA
:1018200000201FF0CBFA00201FF0C8FA00201FF0A4
:10183000C5FA00201FF0C2FA00201FF0BFFA0020F6
:101840001FF0BCFA00201FF0B9FA00201FF0B6FA12
:1018500000201FF0B3FA00201FF0B0FA00201FF0A4
:10186000ADFA00201FF0AAFA00201FF0A7FA00200E
:101870001FF0A4FA00201FF0A1FA00201FF09EFA2A
:1018800000201FF09BFA00201FF098FA00201FF0A4
:1018900095FA00201FF092FA00201FF08FFA002026
:1018A0001FF08CFA00201FF089FA00201FF086FA42
:1018B00000201FF083FA00201FF080FA00201FF0A4
:1018C0007DFA00201FF07AFA00201FF077FA00203E
:1018D0001FF074FA00201FF071FA00201FF06EFA5A
:1018E00000201FF06BFA00201FF068FA00201FF0A4
:1018F00065FA00201FF062FA00201FF05FFA002056
:101900001FF05CFA00201FF059FA00201FF056FA71
:1019100000201FF053FA00201FF050FA00201FF0A3
:101920004DFA00201FF04AFA00201FF047FA00206D
:101930001FF044FA00201FF041FA00201FF03EFA89
:1019400000201FF03BFA00201FF038FA00201FF0A3
:1019500035FA00201FF032FA00201FF02FFA002085
:101960001FF02CFA00201FF029FA00201FF026FAA1
:1019700000201FF023FA00201FF020FA00201FF0A3
:101980001DFA00201FF01AFA00201FF017FA00209D
:101990001FF014FA00201FF011FA00201FF00EFAB9
:1019A00000201FF00BFA00201FF008FA00201FF0A3
:1019B00005FA00201FF002FA00201FF0FFF90020B6
:1019C0001FF0FCF900201FF0F9F900201FF0F6F9D4
:1019D00000201FF0F3F900201FF0F0F900201FF0A5
:1019E000EDF900201FF0EAF900201FF0E7F90020D0
:1019F0001FF0E4F900201FF0E1F900201FF0DEF9EC
:101A000000201FF0DBF900201FF0D8F900201FF0A4
:101A1000D5F900201FF0D2F900201FF0CFF90020E7
:101A20001FF0CCF900201FF0C9F900201FF0C6F903
:101A300000201FF0C3F900201FF0C0F900201FF0A4
:101A4000BDF900201FF0BAF900201FF0B7F90020FF
:101A50001FF0B4F900201FF0B1F900201FF0AEF91B
:101A600000201FF0ABF900201FF0A8F900201FF0A4
:101A7000A5F900201FF0A2F900201FF09FF9002017
:101A80001FF09CF900201FF099F900201FF096F933
:101A900000201FF093F900201FF090F900201FF0A4
:101AA0008DF900201FF08AF900201FF087F900202F
:101AB0001FF084F900201FF081F900201FF07EF94B
:101AC00000201FF07BF900201FF078F900201FF0A4
:101AD00075F900201FF072F900201FF06FF9002047
:101AE0001FF06CF900201FF069F900201FF066F963
:101AF00000201FF063F900201FF060F900201FF0A4
:101B00005DF900201FF05AF900201FF057F900205E
:101B10001FF054F900201FF051F900201FF04EF97A
:101B200000201FF04BF900201FF048F900201FF0A3
:101B300045F900201FF042F900201FF03FF9002076
:101B40001FF03CF900201FF039F900201FF036F992
:101B500000201FF033F900201FF030F900201FF0A3
:101B60002DF900201FF02AF900201FF027F900208E
:101B70001FF024F900201FF021F900201FF01EF9AA
:101B800000201FF01BF900201FF018F900201FF0A3
:101B900015F900201FF012F900201FF00FF90020A6
:101BA0001FF00CF900201FF009F900201FF006F9C2
:101BB00000201FF003F900201FF000F900201FF0A3
:101BC000FDF800201FF0FAF800201FF0F7F80020C1
:101BD0001FF0F4F800201FF0F1F800201FF0EEF8DD
:101BE00000201FF0EBF800201FF0E8F800201FF0A5
:101BF000E5F800201FF0E2F800201FF0DFF80020D9
:101C00001FF0DCF800201FF0D9F800201FF0D6F8F4
:101C100000201FF0D3F800201FF0D0F800201FF0A4
:101C2000CDF800201FF0CAF800201FF0C7F80020F0
:101C30001FF0C4F800201FF0C1F800201FF0BEF80C
:101C400000201FF0BBF800201FF0B8F800201FF0A4
:101C5000B5F800201FF0B2F800201FF0AFF8002008
:101C60001FF0ACF800201FF0A9F800201FF0A6F824
:101C700000201FF0A3F800201FF0A0F800201FF0A4
:101C80009DF800201FF09AF800201FF097F8002020
:101C90001FF094F800201FF091F800201FF08EF83C
:101CA00000201FF08BF800201FF088F800201FF0A4
:101CB00085F800201FF082F800201FF07FF8002038
:101CC0001FF07CF800201FF079F800201FF076F854
:101CD00000201FF073F800201FF070F800201FF0A4
:101CE0006DF800201FF06AF800201FF067F8002050
:101CF0001FF064F800201FF061F800201FF05EF86C
:101D000000201FF05BF800201FF058F800201FF0A3
:101D100055F800201FF052F800201FF04FF8002067
:101D20001FF04CF800201FF049F800201FF046F883
:101D300000201FF043F800201FF040F800201FF0A3
:101D40003DF800201FF03AF800201FF037F800207F
:101D50001FF034F800201FF031F800201FF02EF89B
:101D600000201FF02BF800201FF028F800201FF0A3
:101D700025F800201FF022F800201FF01FF8002097
:101D80001FF01CF800201FF019F800201FF016F8B3
:101D900000201FF013F800201FF010F800201FF0A3
:101DA0000DF800201FF00AF800201FF007F80020AF
:101DB0001FF004F800201FF001F800201EF0FEFFC5
:101DC00000201EF0FBFF00201EF0F8FF00201EF098
:101DD000F5FF00201EF0F2FF00201EF0EFFF0020B4
:101DE0001EF0ECFF00201EF0E9FF00201EF0E6FFD1
:101DF00000201EF0E3FF00201EF0E0FF00201EF098
:101E0000DDFF00201EF0DAFF00201EF0D7FF0020CB
:101E10001EF0D4FF00201EF0D1FF00201EF0CEFFE8
:101E200000201EF0CBFF00201EF0C8FF00201EF097
:101E3000C5FF00201EF0C2FF00201EF0BFFF0020E3
:101E40001EF0BCFF00201EF0B9FF00201EF0B6FF00
:101E500000201EF0B3FF00201EF0B0FF00201EF097
:101E6000ADFF00201EF0AAFF00201EF0A7FF0020FB
:101E70001EF0A4FF00201EF0A1FF00201EF09EFF18
:101E800000201EF09BFF00201EF098FF00201EF097
:101E900095FF00201EF092FF00201EF08FFF002013
:101EA0001EF08CFF00201EF089FF00201EF086FF30
:101EB00000201EF083FF00201EF080FF00201EF097
:101EC0007DFF00201EF07AFF00201EF077FF00202B
:101ED0001EF074FF00201EF071FF00201EF06EFF48
:101EE00000201EF06BFF00201EF068FF00201EF097
:101EF00065FF00201EF062FF00201EF05FFF002043
:101F00001EF05CFF00201EF059FF00201EF056FF5F
:101F100000201EF053FF00201EF050FF00201EF096
:101F20004DFF00201EF04AFF00201EF047FF00205A
:101F30001EF044FF00201EF041FF00201EF03EFF77
:101F400000201EF03BFF00201EF038FF00201EF096
:101F500035FF00201EF032FF00201EF02FFF002072
:101F60001EF02CFF00201EF029FF00201EF026FF8F
:101F700000201EF023FF00201EF020FF00201EF096
:101F80001DFF00201EF01AFF00201EF017FF00208A
:101F90001EF014FF00201EF011FF00201EF00EFFA7
:101FA00000201EF00BFF00201EF008FF00201EF096
:101FB00005FF00201EF002FF00201EF0FFFE0020A3
:101FC0001EF0FCFE00201EF0F9FE00201EF0F6FEC2
:101FD00000201EF0F3FE00201EF0F0FE00201EF098
:101FE000EDFE00201EF0EAFE00201EF0E7FE0020BD
:101FF0001EF0E4FE00201EF0E1FE00201EF0DEFEDA
:1020000000201EF0DBFE00201EF0D8FE00201EF097
:10201000D5FE00201EF0D2FE00201EF0CFFE0020D4
:102020001EF0CCFE00201EF0C9FE00201EF0C6FEF1
:1020300000201EF0C3FE00201EF0C0FE00201EF097
:10204000BDFE00201EF0BAFE00201EF0B7FE0020EC
:102050001EF0B4FE00201EF0B1FE00201EF0AEFE09
:1020600000201EF0ABFE00201EF0A8FE00201EF097
:10207000A5FE00201EF0A2FE00201EF09FFE002004
:102080001EF09CFE00201EF099FE00201EF096FE21
:1020900000201EF093FE00201EF090FE00201EF097
:1020A0008DFE00201EF08AFE00201EF087FE00201C
:1020B0001EF084FE00201EF081FE00201EF07EFE39
:1020C00000201EF07BFE00201EF078FE00201EF097
:1020D00075FE00201EF072FE00201EF06FFE002034
:1020E0001EF06CFE00201EF069FE00201EF066FE51
:1020F00000201EF063FE00201EF060FE00201EF097
:102100005DFE00201EF05AFE00201EF057FE00204B
:102110001EF054FE00201EF051FE00201EF04EFE68
:1021200000201EF04BFE00201EF048FE00201EF096
:1021300045FE00201EF042FE00201EF03FFE002063
:102140001EF03CFE00201EF039FE00201EF036FE80
:1021500000201EF033FE00201EF030FE00201EF096
:102160002DFE00201EF02AFE00201EF027FE00207B
:102170001EF024FE00201EF021FE00201EF01EFE98
:1021800000201EF01BFE00201EF018FE00201EF096
:1021900015FE00201EF012FE00201EF00FFE002093
:1021A0001EF00CFE00201EF009FE00201EF006FEB0
:1021B00000201EF003FE00201EF000FE00201EF096
:1021C000FDFD00201EF0FAFD00201EF0F7FD0020AE
:1021D0001EF0F4FD00201EF0F1FD00201EF0EEFDCB
:1021E00000201EF0EBFD00201EF0E8FD00201EF098
:1021F000E5FD00201EF0E2FD00201EF0DFFD0020C6
:102200001EF0DCFD00201EF0D9FD00201EF0D6FDE2
:1022100000201EF0D3FD00201EF0D0FD00201EF097
:10222000CDFD00201EF0CAFD00201EF0C7FD0020DD
:102230001EF0C4FD00201EF0C1FD00201EF0BEFDFA
:1022400000201EF0BBFD00201EF0B8FD00201EF097
:10225000B5FD00201EF0B2FD00201EF0AFFD0020F5
:102260001EF0ACFD00201EF0A9FD00201EF0A6FD12
:1022700000201EF0A3FD00201EF0A0FD00201EF097
:102280009DFD00201EF09AFD00201EF097FD00200D
:102290001EF094FD00201EF091FD00201EF08EFD2A
:1022A00000201EF08BFD00201EF088FD00201EF097
:1022B00085FD00201EF082FD00201EF07FFD002025
:1022C0001EF07CFD00201EF079FD00201EF076FD42
:1022D00000201EF073FD00201EF070FD00201EF097
:1022E0006DFD00201EF06AFD00201EF067FD00203D
:1022F0001EF064FD00201EF061FD00201EF05EFD5A
:1023000000201EF05BFD00201EF058FD00201EF096
:1023100055FD00201EF052FD00201EF04FFD002054
:102320001EF04CFD00201EF049FD00201EF046FD71
:1023300000201EF043FD00201EF040FD00201EF096
:102340003DFD00201EF03AFD00201EF037FD00206C
:102350001EF034FD00201EF031FD00201EF02EFD89
:1023600000201EF02BFD00201EF028FD00201EF096
:1023700025FD00201EF022FD00201EF01FFD002084
:102380001EF01CFD00201EF019FD00201EF016FDA1
:1023900000201EF013FD00201EF010FD00201EF096
:1023A0000DFD00201EF00AFD00201EF007FD00209C
:1023B0001EF004FD00201EF001FD00201EF0FEFCBA
:1023C00000201EF0FBFC00201EF0F8FC00201EF098
:1023D000F5FC00201EF0F2FC00201EF0EFFC0020B7
:1023E0001EF0ECFC00201EF0E9FC00201EF0E6FCD4
:1023F00000201EF0E3FC00201EF0E0FC00201EF098
:10240000DDFC00201EF0DAFC00201EF0D7FC0020CE
:102410001EF0D4FC00201EF0D1FC00201EF0CEFCEB
:1024200000201EF0CBFC00201EF0C8FC00201EF097
:10243000C5FC00201EF0C2FC00201EF0BFFC0020E6
:102440001EF0BCFC00201EF0B9FC00201EF0B6FC03
:1024500000201EF0B3FC00201EF0B0FC00201EF097
:10246000ADFC00201EF0AAFC00201EF0A7FC0020FE
:102470001EF0A4FC00201EF0A1FC00201EF09EFC1B
:1024800000201EF09BFC00201EF098FC00201EF097
:1024900095FC00201EF092FC00201EF08FFC002016
:1024A0001EF08CFC00201EF089FC00201EF086FC33
:1024B00000201EF083FC00201EF080FC00201EF097
:1024C0007DFC00201EF07AFC00201EF077FC00202E
:1024D0001EF074FC00201EF071FC00201EF06EFC4B
:1024E00000201EF06BFC00201EF068FC00201EF097
:1024F00065FC00201EF062FC00201EF05FFC002046
:102500001EF05CFC00201EF059FC00201EF056FC62
:1025100000201EF053FC00201EF050FC00201EF096
:102520004DFC00201EF04AFC00201EF047FC00205D
:102530001EF044FC00201EF041FC00201EF03EFC7A
:1025400000201EF03BFC00201EF038FC00201EF096
:1025500035FC00201EF032FC00201EF02FFC002075
:102560001EF02CFC00201EF029FC00201EF026FC92
:1025700000201EF023FC00201EF020FC00201EF096
:102580001DFC00201EF01AFC00201EF017FC00208D
:102590001EF014FC00201EF011FC00201EF00EFCAA
:1025A00000201EF00BFC00201EF008FC00201EF096
:1025B00005FC00201EF002FC00201EF0FFFB0020A6
:1025C0001EF0FCFB00201EF0F9FB00201EF0F6FBC5
:1025D00000201EF0F3FB00201EF0F0FB00201EF098
:1025E000EDFB00201EF0EAFB00201EF0E7FB0020C0
:1025F0001EF0E4FB00201EF0E1FB00201EF0DEFBDD
:1026000000201EF0DBFB00201EF0D8FB00201EF097
:10261000D5FB00201EF0D2FB00201EF0CFFB0020D7
:102620001EF0CCFB00201EF0C9FB00201EF0C6FBF4
:1026300000201EF0C3FB00201EF0C0FB00201EF097
:10264000BDFB00201EF0BAFB00201EF0B7FB0020EF
:102650001EF0B4FB00201EF0B1FB00201EF0AEFB0C
:1026600000201EF0ABFB00201EF0A8FB00201EF097
:10267000A5FB00201EF0A2FB00201EF09FFB002007
:102680001EF09CFB00201EF099FB00201EF096FB24
:1026900000201EF093FB00201EF090FB00201EF097
:1026A0008DFB00201EF08AFB00201EF087FB00201F
:1026B0001EF084FB00201EF081FB00201EF07EFB3C
:1026C00000201EF07BFB00201EF078FB00201EF097
:1026D00075FB00201EF072FB00201EF06FFB002037
:1026E0001EF06CFB00201EF069FB00201EF066FB54
:1026F00000201EF063FB00201EF060FB00201EF097
:102700005DFB00201EF05AFB00201EF057FB00204E
:102710001EF054FB00201EF051FB00201EF04EFB6B
:1027200000201EF04BFB00201EF048FB00201EF096
:1027300045FB00201EF042FB00201EF03FFB002066
:102740001EF03CFB00201EF039FB00201EF036FB83
:1027500000201EF033FB00201EF030FB00201EF096
:102760002DFB00201EF02AFB00201EF027FB00207E
:102770001EF024FB00201EF021FB00201EF01EFB9B
:1027800000201EF01BFB00201EF018FB00201EF096
:1027900015FB00201EF012FB00201EF00FFB002096
:1027A0001EF00CFB00201EF009FB00201EF006FBB3
:1027B00000201EF003FB00201EF000FB00201EF096
:1027C000FDFA00201EF0FAFA00201EF0F7FA0020B1
:1027D0001EF0F4FA00201EF0F1FA00201EF0EEFACE
:1027E00000201EF0EBFA00201EF0E8FA00201EF098
:1027F000E5FA00201EF0E2FA00201EF0DFFA0020C9
:102800001EF0DCFA00201EF0D9FA00201EF0D6FAE5
:1028100000201EF0D3FA00201EF0D0FA00201EF097
:10282000CDFA00201EF0CAFA00201EF0C7FA0020E0
:102830001EF0C4FA00201EF0C1FA00201EF0BEFAFD
:1028400000201EF0BBFA00201EF0B8FA00201EF097
:10285000B5FA00201EF0B2FA00201EF0AFFA0020F8
:102860001EF0ACFA00201EF0A9FA00201EF0A6FA15
:1028700000201EF0A3FA00201EF0A0FA00201EF097
:102880009DFA00201EF09AFA00201EF097FA002010
:102890001EF094FA00201EF091FA00201EF08EFA2D
:1028A00000201EF08BFA00201EF088FA00201EF097
:1028B00085FA00201EF082FA00201EF07FFA002028
:1028C0001EF07CFA00201EF079FA00201EF076FA45
:1028D00000201EF073FA00201EF070FA00201EF097
:1028E0006DFA00201EF06AFA00201EF067FA002040
:1028F0001EF064FA00201EF061FA00201EF05EFA5D
:1029000000201EF05BFA00201EF058FA00201EF096
:1029100055FA00201EF052FA00201EF04FFA002057
:102920001EF04CFA00201EF049FA00201EF046FA74
:1029300000201EF043FA00201EF040FA00201EF096
:102940003DFA00201EF03AFA00201EF037FA00206F
:102950001EF034FA00201EF031FA00201EF02EFA8C
:1029600000201EF02BFA00201EF028FA00201EF096
:1029700025FA00201EF022FA00201EF01FFA002087
:102980001EF01CFA00201EF019FA00201EF016FAA4
:1029900000201EF013FA00201EF010FA00201EF096
:1029A0000DFA00201EF00AFA00201EF007FA00209F
:1029B0001EF004FA00201EF001FA00201EF0FEF9BD
:1029C00000201EF0FBF900201EF0F8F900201EF098
:1029D000F5F900201EF0F2F900201EF0EFF90020BA
:1029E0001EF0ECF900201EF0E9F900201EF0E6F9D7
:1029F00000201EF0E3F900201EF0E0F900201EF098
:102A0000DDF900201EF0DAF900201EF0D7F90020D1
:102A10001EF0D4F900201EF0D1F900201EF0CEF9EE
:102A200000201EF0CBF900201EF0C8F900201EF097
:102A3000C5F900201EF0C2F900201EF0BFF90020E9
:102A40001EF0BCF900201EF0B9F900201EF0B6F906
:102A500000201EF0B3F900201EF0B0F900201EF097
:102A6000ADF900201EF0AAF900201EF0A7F9002001
:102A70001EF0A4F900201EF0A1F900201EF09EF91E
:102A800000201EF09BF900201EF098F900201EF097
:102A900095F900201EF092F900201EF08FF9002019
:102AA0001EF08CF900201EF089F900201EF086F936
:102AB00000201EF083F900201EF080F900201EF097
:102AC0007DF900201EF07AF900201EF077F9002031
:102AD0001EF074F900201EF071F900201EF06EF94E
:102AE00000201EF06BF900201EF068F900201EF097
:102AF00065F900201EF062F900201EF05FF9002049
:102B00001EF05CF900201EF059F900201EF056F965
:102B100000201EF053F900201EF050F900201EF096
:102B20004DF900201EF04AF900201EF047F9002060
:102B30001EF044F900201EF041F900201EF03EF97D
:102B400000201EF03BF900201EF038F900201EF096
:102B500035F900201EF032F900201EF02FF9002078
:102B60001EF02CF900201EF029F900201EF026F995
:102B700000201EF023F900201EF020F900201EF096
:102B80001DF900201EF01AF900201EF017F9002090
:102B90001EF014F900201EF011F900201EF00EF9AD
:102BA00000201EF00BF900201EF008F900201EF096
:102BB00005F900201EF002F900201EF0FFF80020A9
:102BC0001EF0FCF800201EF0F9F800201EF0F6F8C8
:102BD00000201EF0F3F800201EF0F0F800201EF098
:102BE000EDF800201EF0EAF800201EF0E7F80020C3
:102BF0001EF0E4F800201EF0E1F800201EF0DEF8E0
:102C000000201EF0DBF800201EF0D8F800201EF097
:102C1000D5F800201EF0D2F800201EF0CFF80020DA
:102C20001EF0CCF800201EF0C9F800201EF0C6F8F7
:102C300000201EF0C3F800201EF0C0F800201EF097
:102C4000BDF800201EF0BAF800201EF0B7F80020F2
:102C50001EF0B4F800201EF0B1F800201EF0AEF80F
:102C600000201EF0ABF800201EF0A8F800201EF097
:102C7000A5F800201EF0A2F800201EF09FF800200A
:102C80001EF09CF800201EF099F800201EF096F827
:102C900000201EF093F800201EF090F800201EF097
:102CA0008DF800201EF08AF800201EF087F8002022
:102CB0001EF084F800201EF081F800201EF07EF83F
:102CC00000201EF07BF800201EF078F800201EF097
:102CD00075F800201EF072F800201EF06FF800203A
:102CE0001EF06CF800201EF069F800201EF066F857
:102CF00000201EF063F800201EF060F800201EF097
:102D00005DF800201EF05AF800201EF057F8002051
:102D10001EF054F800201EF051F800201EF04EF86E
:102D200000201EF04BF800201EF048F800201EF096
:102D300045F800201EF042F800201EF03FF8002069
:102D40001EF03CF800201EF039F800201EF036F886
:102D500000201EF033F800201EF030F800201EF096
:102D60002DF800201EF02AF800201EF027F8002081
:102D70001EF024F800201EF021F800201EF01EF89E
:102D800000201EF01BF800201EF018F800201EF096
:102D900015F800201EF012F800201EF00FF8002099
:102DA0001EF00CF800201EF009F800201EF006F8B6
:102DB00000201EF003F800201EF000F800201DF097
:102DC000FDFF00201DF0FAFF00201DF0F7FF00209E
:102DD0001DF0F4FF00201DF0F1FF00201DF0EEFFBC
:102DE00000201DF0EBFF00201DF0E8FF00201DF08B
:102DF000E5FF00201DF0E2FF00201DF0DFFF0020B6
:102E00001DF0DCFF00201DF0D9FF00201DF0D6FFD3
:102E100000201DF0D3FF00201DF0D0FF00201DF08A
:102E2000CDFF00201DF0CAFF00201DF0C7FF0020CD
:102E30001DF0C4FF00201DF0C1FF00201DF0BEFFEB
:102E400000201DF0BBFF00201DF0B8FF00201DF08A
:102E5000B5FF00201DF0B2FF00201DF0AFFF0020E5
:102E60001DF0ACFF00201DF0A9FF00201DF0A6FF03
:102E700000201DF0A3FF00201DF0A0FF00201DF08A
:102E80009DFF00201DF09AFF00201DF097FF0020FD
:102E90001DF094FF00201DF091FF00201DF08EFF1B
:102EA00000201DF08BFF00201DF088FF00201DF08A
:102EB00085FF00201DF082FF00201DF07FFF002015
:102EC0001DF07CFF00201DF079FF00201DF076FF33
:102ED00000201DF073FF00201DF070FF00201DF08A
:102EE0006DFF00201DF06AFF00201DF067FF00202D
:102EF0001DF064FF00201DF061FF00201DF05EFF4B
:102F000000201DF05BFF00201DF058FF00201DF089
:102F100055FF00201DF052FF00201DF04FFF002044
:102F20001DF04CFF00201DF049FF00201DF046FF62
:102F300000201DF043FF00201DF040FF00201DF089
:102F40003DFF00201DF03AFF00201DF037FF00205C
:102F50001DF034FF00201DF031FF00201DF02EFF7A
:102F600000201DF02BFF00201DF028FF00201DF089
:102F700025FF00201DF022FF00201DF01FFF002074
:102F80001DF01CFF00201DF019FF00201DF016FF92
:102F900000201DF013FF00201DF010FF00201DF089
:102FA0000DFF00201DF00AFF00201DF007FF00208C
:102FB0001DF004FF00201DF001FF00201DF0FEFEAB
:102FC00000201DF0FBFE00201DF0F8FE00201DF08B
:102FD000F5FE00201DF0F2FE00201DF0EFFE0020A7
:102FE0001DF0ECFE00201DF0E9FE00201DF0E6FEC5
:102FF00000201DF0E3FE00201DF0E0FE00201DF08B
:10300000DDFE00201DF0DAFE00201DF0D7FE0020BE
:103010001DF0D4FE00201DF0D1FE00201DF0CEFEDC
:1030200000201DF0CBFE00201DF0C8FE00201DF08A
:10303000C5FE00201DF0C2FE00201DF0BFFE0020D6
:103040001DF0BCFE00201DF0B9FE00201DF0B6FEF4
:1030500000201DF0B3FE00201DF0B0FE00201DF08A
:10306000ADFE00201DF0AAFE00201DF0A7FE0020EE
:103070001DF0A4FE00201DF0A1FE00201DF09EFE0C
:1030800000201DF09BFE00201DF098FE00201DF08A
:1030900095FE00201DF092FE00201DF08FFE002006
:1030A0001DF08CFE00201DF089FE00201DF086FE24
:1030B00000201DF083FE00201DF080FE00201DF08A
:1030C0007DFE00201DF07AFE00201DF077FE00201E
:1030D0001DF074FE00201DF071FE00201DF06EFE3C
:1030E00000201DF06BFE00201DF068FE00201DF08A
:1030F00065FE00201DF062FE00201DF05FFE002036
:103100001DF05CFE00201DF059FE00201DF056FE53
:1031100000201DF053FE00201DF050FE00201DF089
:103120004DFE00201DF04AFE00201DF047FE00204D
:103130001DF044FE00201DF041FE00201DF03EFE6B
:1031400000201DF03BFE00201DF038FE00201DF089
:1031500035FE00201DF032FE00201DF02FFE002065
:103160001DF02CFE00201DF029FE00201DF026FE83
:1031700000201DF023FE00201DF020FE00201DF089
:103180001DFE00201DF01AFE00201DF017FE00207D
:103190001DF014FE00201DF011FE00201DF00EFE9B
:1031A00000201DF00BFE00201DF008FE00201DF089
:1031B00005FE00201DF002FE00201DF0FFFD002096
:1031C0001DF0FCFD00201DF0F9FD00201DF0F6FDB6
:1031D00000201DF0F3FD00201DF0F0FD00201DF08B
:1031E000EDFD00201DF0EAFD00201DF0E7FD0020B0
:1031F0001DF0E4FD00201DF0E1FD00201DF0DEFDCE
:1032000000201DF0DBFD00201DF0D8FD00201DF08A
:10321000D5FD00201DF0D2FD00201DF0CFFD0020C7
:103220001DF0CCFD00201DF0C9FD00201DF0C6FDE5
:1032300000201DF0C3FD00201DF0C0FD00201DF08A
:10324000BDFD00201DF0BAFD00201DF0B7FD0020DF
:103250001DF0B4FD00201DF0B1FD00201DF0AEFDFD
:1032600000201DF0ABFD00201DF0A8FD00201DF08A
:10327000A5FD00201DF0A2FD00201DF09FFD0020F7
:103280001DF09CFD00201DF099FD00201DF096FD15
:1032900000201DF093FD00201DF090FD00201DF08A
:1032A0008DFD00201DF08AFD00201DF087FD00200F
:1032B0001DF084FD00201DF081FD00201DF07EFD2D
:1032C00000201DF07BFD00201DF078FD00201DF08A
:1032D00075FD00201DF072FD00201DF06FFD002027
:1032E0001DF06CFD00201DF069FD00201DF066FD45
:1032F00000201DF063FD00201DF060FD00201DF08A
:103300005DFD00201DF05AFD00201DF057FD00203E
:103310001DF054FD00201DF051FD00201DF04EFD5C
:1033200000201DF04BFD00201DF048FD00201DF089
:1033300045FD00201DF042FD00201DF03FFD002056
:103340001DF03CFD00201DF039FD00201DF036FD74
:1033500000201DF033FD00201DF030FD00201DF089
:103360002DFD00201DF02AFD00201DF027FD00206E
:103370001DF024FD00201DF021FD00201DF01EFD8C
:1033800000201DF01BFD00201DF018FD00201DF089
:1033900015FD00201DF012FD00201DF00FFD002086
:1033A0001DF00CFD00201DF009FD00201DF006FDA4
:1033B00000201DF003FD00201DF000FD00201DF089
:1033C000FDFC00201DF0FAFC00201DF0F7FC0020A1
:1033D0001DF0F4FC00201DF0F1FC00201DF0EEFCBF
:1033E00000201DF0EBFC00201DF0E8FC00201DF08B
:1033F000E5FC00201DF0E2FC00201DF0DFFC0020B9
:103400001DF0DCFC00201DF0D9FC00201DF0D6FCD6
:1034100000201DF0D3FC00201DF0D0FC00201DF08A
:10342000CDFC00201DF0CAFC00201DF0C7FC0020D0
:103430001DF0C4FC00201DF0C1FC00201DF0BEFCEE
:1034400000201DF0BBFC00201DF0B8FC00201DF08A
:10345000B5FC00201DF0B2FC00201DF0AFFC0020E8
:103460001DF0ACFC00201DF0A9FC00201DF0A6FC06
:1034700000201DF0A3FC00201DF0A0FC00201DF08A
:103480009DFC00201DF09AFC00201DF097FC002000
:103490001DF094FC00201DF091FC00201DF08EFC1E
:1034A00000201DF08BFC00201DF088FC00201DF08A
:1034B00085FC00201DF082FC00201DF07FFC002018
:1034C0001DF07CFC00201DF079FC00201DF076FC36
:1034D00000201DF073FC00201DF070FC00201DF08A
:1034E0006DFC00201DF06AFC00201DF067FC002030
:1034F0001DF064FC00201DF061FC00201DF05EFC4E
:1035000000201DF05BFC00201DF058FC00201DF089
:1035100055FC00201DF052FC00201DF04FFC002047
:103520001DF04CFC00201DF049FC00201DF046FC65
:1035300000201DF043FC00201DF040FC00201DF089
:103540003DFC00201DF03AFC00201DF037FC00205F
:103550001DF034FC00201DF031FC00201DF02EFC7D
:1035600000201DF02BFC00201DF028FC00201DF089
:1035700025FC00201DF022FC00201DF01FFC002077
:103580001DF01CFC00201DF019FC00201DF016FC95
:1035900000201DF013FC00201DF010FC00201DF089
:1035A0000DFC00201DF00AFC00201DF007FC00208F
:1035B0001DF004FC00201DF001FC00201DF0FEFBAE
:1035C00000201DF0FBFB00201DF0F8FB00201DF08B
:1035D000F5FB00201DF0F2FB00201DF0EFFB0020AA
:1035E0001DF0ECFB00201DF0E9FB00201DF0E6FBC8
:1035F00000201DF0E3FB00201DF0E0FB00201DF08B
:10360000DDFB00201DF0DAFB00201DF0D7FB0020C1
:103610001DF0D4FB00201DF0D1FB00201DF0CEFBDF
:1036200000201DF0CBFB00201DF0C8FB00201DF08A
:10363000C5FB00201DF0C2FB00201DF0BFFB0020D9
:103640001DF0BCFB00201DF0B9FB00201DF0B6FBF7
:1036500000201DF0B3FB00201DF0B0FB00201DF08A
:10366000ADFB00201DF0AAFB00201DF0A7FB0020F1
:103670001DF0A4FB00201DF0A1FB00201DF09EFB0F
:1036800000201DF09BFB00201DF098FB00201DF08A
:1036900095FB00201DF092FB00201DF08FFB002009
:1036A0001DF08CFB00201DF089FB00201DF086FB27
:1036B00000201DF083FB00201DF080FB00201DF08A
:1036C0007DFB00201DF07AFB00201DF077FB002021
:1036D0001DF074FB00201DF071FB00201DF06EFB3F
:1036E00000201DF06BFB00201DF068FB00201DF08A
:1036F00065FB00201DF062FB00201DF05FFB002039
:103700001DF05CFB00201DF059FB00201DF056FB56
:1037100000201DF053FB00201DF050FB00201DF089
:103720004DFB00201DF04AFB00201DF047FB002050
:103730001DF044FB00201DF041FB00201DF03EFB6E
:1037400000201DF03BFB00201DF038FB00201DF089
:1037500035FB00201DF032FB00201DF02FFB002068
:103760001DF02CFB00201DF029FB00201DF026FB86
:1037700000201DF023FB00201DF020FB00201DF089
:103780001DFB00201DF01AFB00201DF017FB002080
:103790001DF014FB00201DF011FB00201DF00EFB9E
:1037A00000201DF00BFB00201DF008FB00201DF089
:1037B00005FB00201DF002FB00201DF0FFFA002099
:1037C0001DF0FCFA00201DF0F9FA00201DF0F6FAB9
:1037D00000201DF0F3FA00201DF0F0FA00201DF08B
:1037E000EDFA00201DF0EAFA00201DF0E7FA0020B3
:1037F0001DF0E4FA00201DF0E1FA00201DF0DEFAD1
:1038000000201DF0DBFA00201DF0D8FA00201DF08A
:10381000D5FA00201DF0D2FA00201DF0CFFA0020CA
:103820001DF0CCFA00201DF0C9FA00201DF0C6FAE8
:1038300000201DF0C3FA00201DF0C0FA00201DF08A
:10384000BDFA00201DF0BAFA00201DF0B7FA0020E2
:103850001DF0B4FA00201DF0B1FA00201DF0AEFA00
:1038600000201DF0ABFA00201DF0A8FA00201DF08A
:10387000A5FA00201DF0A2FA00201DF09FFA0020FA
:103880001DF09CFA00201DF099FA00201DF096FA18
:1038900000201DF093FA00201DF090FA00201DF08A
:1038A0008DFA00201DF08AFA00201DF087FA002012
:1038B0001DF084FA00201DF081FA00201DF07EFA30
:1038C00000201DF07BFA00201DF078FA00201DF08A
:1038D00075FA00201DF072FA00201DF06FFA00202A
:1038E0001DF06CFA00201DF069FA00201DF066FA48
:1038F00000201DF063FA00201DF060FA00201DF08A
:103900005DFA00201DF05AFA00201DF057FA002041
:103910001DF054FA00201DF051FA00201DF04EFA5F
:1039200000201DF04BFA00201DF048FA00201DF089
:1039300045FA00201DF042FA00201DF03FFA002059
:103940001DF03CFA00201DF039FA00201DF036FA77
:1039500000201DF033FA00201DF030FA00201DF089
:103960002DFA00201DF02AFA00201DF027FA002071
:103970001DF024FA00201DF021FA00201DF01EFA8F
:1039800000201DF01BFA00201DF018FA00201DF089
:1039900015FA00201DF012FA00201DF00FFA002089
:1039A0001DF00CFA00201DF009FA00201DF006FAA7
:1039B00000201DF003FA00201DF000FA00201DF089
:1039C000FDF900201DF0FAF900201DF0F7F90020A4
:1039D0001DF0F4F900201DF0F1F900201DF0EEF9C2
:1039E00000201DF0EBF900201DF0E8F900201DF08B
:1039F000E5F900201DF0E2F900201DF0DFF90020BC
:103A00001DF0DCF900201DF0D9F900201DF0D6F9D9
:103A100000201DF0D3F900201DF0D0F900201DF08A
:103A2000CDF900201DF0CAF900201DF0C7F90020D3
:103A30001DF0C4F900201DF0C1F900201DF0BEF9F1
:103A400000201DF0BBF900201DF0B8F900201DF08A
:103A5000B5F900201DF0B2F900201DF0AFF90020EB
:103A60001DF0ACF900201DF0A9F900201DF0A6F909
:103A700000201DF0A3F900201DF0A0F900201DF08A
:103A80009DF900201DF09AF900201DF097F9002003
:103A90001DF094F900201DF091F900201DF08EF921
:103AA00000201DF08BF900201DF088F900201DF08A
:103AB00085F900201DF082F900201DF07FF900201B
:103AC0001DF07CF900201DF079F900201DF076F939
:103AD00000201DF073F900201DF070F900201DF08A
:103AE0006DF900201DF06AF900201DF067F9002033
:103AF0001DF064F900201DF061F900201DF05EF951
:103B000000201DF05BF900201DF058F900201DF089
:103B100055F900201DF052F900201DF04FF900204A
:103B20001DF04CF900201DF049F900201DF046F968
:103B300000201DF043F900201DF040F900201DF089
:103B40003DF900201DF03AF900201DF037F9002062
:103B50001DF034F900201DF031F900201DF02EF980
:103B600000201DF02BF900201DF028F900201DF089
:103B700025F900201DF022F900201DF01FF900207A
:103B80001DF01CF900201DF019F900201DF016F998
:103B900000201DF013F900201DF010F900201DF089
:103BA0000DF900201DF00AF900201DF007F9002092
:103BB0001DF004F900201DF001F900201DF0FEF8B1
:103BC00000201DF0FBF800201DF0F8F800201DF08B
:103BD000F5F800201DF0F2F800201DF0EFF80020AD
:103BE0001DF0ECF800201DF0E9F800201DF0E6F8CB
:103BF00000201DF0E3F800201DF0E0F800201DF08B
:103C0000DDF800201DF0DAF800201DF0D7F80020C4
:103C10001DF0D4F800201DF0D1F800201DF0CEF8E2
:103C200000201DF0CBF800201DF0C8F800201DF08A
:103C3000C5F800201DF0C2F800201DF0BFF80020DC
:103C40001DF0BCF800201DF0B9F800201DF0B6F8FA
:103C500000201DF0B3F800201DF0B0F800201DF08A
:103C6000ADF800201DF0AAF800201DF0A7F80020F4
:103C70001DF0A4F800201DF0A1F800201DF09EF812
:103C800000201DF09BF800201DF098F800201DF08A
:103C900095F800201DF092F800201DF08FF800200C
:103CA0001DF08CF800201DF089F800201DF086F82A
:103CB00000201DF083F800201DF080F800201DF08A
:103CC0007DF800201DF07AF800201DF077F8002024
:103CD0001DF074F800201DF071F800201DF06EF842
:103CE00000201DF06BF800201DF068F800201DF08A
:103CF00065F800201DF062F800201DF05FF800203C
:103D00001DF05CF800201DF059F800201DF056F859
:103D100000201DF053F800201DF050F800201DF089
:103D20004DF800201DF04AF800201DF047F8002053
:103D30001DF044F800201DF041F800201DF03EF871
:103D400000201DF03BF800201DF038F800201DF089
:103D500035F800201DF032F800201DF02FF800206B
:103D60001DF02CF800201DF029F800201DF026F889
:103D700000201DF023F800201DF020F800201DF089
:103D80001DF800201DF01AF800201DF017F8002083
:103D90001DF014F800201DF011F800201DF00EF8A1
:103DA00000201DF00BF800201DF008F800201DF089
:103DB00005F800201DF002F800201CF0FFFF002095
:103DC0001CF0FCFF00201CF0F9FF00201CF0F6FFA7
:103DD00000201CF0F3FF00201CF0F0FF00201CF07E
:103DE000EDFF00201CF0EAFF00201CF0E7FF0020A0
:103DF0001CF0E4FF00201CF0E1FF00201CF0DEFFBF
:103E000000201CF0DBFF00201CF0D8FF00201CF07D
:103E1000D5FF00201CF0D2FF00201CF0CFFF0020B7
:103E20001CF0CCFF00201CF0C9FF00201CF0C6FFD6
:103E300000201CF0C3FF00201CF0C0FF00201CF07D
:103E4000BDFF00201CF0BAFF00201CF0B7FF0020CF
:103E50001CF0B4FF00201CF0B1FF00201CF0AEFFEE
:103E600000201CF0ABFF00201CF0A8FF00201CF07D
:103E7000A5FF00201CF0A2FF00201CF09FFF0020E7
:103E80001CF09CFF00201CF099FF00201CF096FF06
:103E900000201CF093FF00201CF090FF00201CF07D
:103EA0008DFF00201CF08AFF00201CF087FF0020FF
:103EB0001CF084FF00201CF081FF00201CF07EFF1E
:103EC00000201CF07BFF00201CF078FF00201CF07D
:103ED00075FF00201CF072FF00201CF06FFF002017
:103EE0001CF06CFF00201CF069FF00201CF066FF36
:103EF00000201CF063FF00201CF060FF00201CF07D
:103F00005DFF00201CF05AFF00201CF057FF00202E
:103F10001CF054FF00201CF051FF00201CF04EFF4D
:103F200000201CF04BFF00201CF048FF00201CF07C
:103F300045FF00201CF042FF00201CF03FFF002046
:103F40001CF03CFF00201CF039FF00201CF036FF65
:103F500000201CF033FF00201CF030FF00201CF07C
:103F60002DFF00201CF02AFF00201CF027FF00205E
:103F70001CF024FF00201CF021FF00201CF01EFF7D
:103F800000201CF01BFF00201CF018FF00201CF07C
:103F900015FF00201CF012FF00201CF00FFF002076
:103FA0001CF00CFF00201CF009FF00201CF006FF95
:103FB00000201CF003FF00201CF000FF00201CF07C
:103FC000FDFE00201CF0FAFE00201CF0F7FE002091
:103FD0001CF0F4FE00201CF0F1FE00201CF0EEFEB0
:103FE00000201CF0EBFE00201CF0E8FE00201CF07E
:103FF000E5FE00201CF0E2FE00201CF0DFFE0020A9
:104000001CF0DCFE00201CF0D9FE00201CF0D6FEC7
:1040100000201CF0D3FE00201CF0D0FE00201CF07D
:10402000CDFE00201CF0CAFE00201CF0C7FE0020C0
:104030001CF0C4FE00201CF0C1FE00201CF0BEFEDF
:1040400000201CF0BBFE00201CF0B8FE00201CF07D
:10405000B5FE00201CF0B2FE00201CF0AFFE0020D8
:104060001CF0ACFE00201CF0A9FE00201CF0A6FEF7
:1040700000201CF0A3FE00201CF0A0FE00201CF07D
:104080009DFE00201CF09AFE00201CF097FE0020F0
:104090001CF094FE00201CF091FE00201CF08EFE0F
:1040A00000201CF08BFE00201CF088FE00201CF07D
:1040B00085FE00201CF082FE00201CF07FFE002008
:1040C0001CF07CFE00201CF079FE00201CF076FE27
:1040D00000201CF073FE00201CF070FE00201CF07D
:1040E0006DFE00201CF06AFE00201CF067FE002020
:1040F0001CF064FE00201CF061FE00201CF05EFE3F
:1041000000201CF05BFE00201CF058FE00201CF07C
:1041100055FE00201CF052FE00201CF04FFE002037
:104120001CF04CFE00201CF049FE00201CF046FE56
:1041300000201CF043FE00201CF040FE00201CF07C
:104140003DFE00201CF03AFE00201CF037FE00204F
:104150001CF034FE00201CF031FE00201CF02EFE6E
:1041600000201CF02BFE00201CF028FE00201CF07C
:1041700025FE00201CF022FE00201CF01FFE002067
:104180001CF01CFE00201CF019FE00201CF016FE86
:1041900000201CF013FE00201CF010FE00201CF07C
:1041A0000DFE00201CF00AFE00201CF007FE00207F
:1041B0001CF004FE00201CF001FE00201CF0FEFD9F
:1041C00000201CF0FBFD00201CF0F8FD00201CF07E
:1041D000F5FD00201CF0F2FD00201CF0EFFD00209A
:1041E0001CF0ECFD00201CF0E9FD00201CF0E6FDB9
:1041F00000201CF0E3FD00201CF0E0FD00201CF07E
:10420000DDFD00201CF0DAFD00201CF0D7FD0020B1
:104210001CF0D4FD00201CF0D1FD00201CF0CEFDD0
:1042200000201CF0CBFD00201CF0C8FD00201CF07D
:10423000C5FD00201CF0C2FD00201CF0BFFD0020C9
:104240001CF0BCFD00201CF0B9FD00201CF0B6FDE8
:1042500000201CF0B3FD00201CF0B0FD00201CF07D
:10426000ADFD00201CF0AAFD00201CF0A7FD0020E1
:104270001CF0A4FD00201CF0A1FD00201CF09EFD00
:1042800000201CF09BFD00201CF098FD00201CF07D
:1042900095FD00201CF092FD00201CF08FFD0020F9
:1042A0001CF08CFD00201CF089FD00201CF086FD18
:1042B00000201CF083FD00201CF080FD00201CF07D
:1042C0007DFD00201CF07AFD00201CF077FD002011
:1042D0001CF074FD00201CF071FD00201CF06EFD30
:1042E00000201CF06BFD00201CF068FD00201CF07D
:1042F00065FD00201CF062FD00201CF05FFD002029
:104300001CF05CFD00201CF059FD00201CF056FD47
:1043100000201CF053FD00201CF050FD00201CF07C
:104320004DFD00201CF04AFD00201CF047FD002040
:104330001CF044FD00201CF041FD00201CF03EFD5F
:1043400000201CF03BFD00201CF038FD00201CF07C
:1043500035FD00201CF032FD00201CF02FFD002058
:104360001CF02CFD00201CF029FD00201CF026FD77
:1043700000201CF023FD00201CF020FD00201CF07C
:104380001DFD00201CF01AFD00201CF017FD002070
:104390001CF014FD00201CF011FD00201CF00EFD8F
:1043A00000201CF00BFD00201CF008FD00201CF07C
:1043B00005FD00201CF002FD00201CF0FFFC002089
:1043C0001CF0FCFC00201CF0F9FC00201CF0F6FCAA
:1043D00000201CF0F3FC00201CF0F0FC00201CF07E
:1043E000EDFC00201CF0EAFC00201CF0E7FC0020A3
:1043F0001CF0E4FC00201CF0E1FC00201CF0DEFCC2
:1044000000201CF0DBFC00201CF0D8FC00201CF07D
:10441000D5FC00201CF0D2FC00201CF0CFFC0020BA
:104420001CF0CCFC00201CF0C9FC00201CF0C6FCD9
:1044300000201CF0C3FC00201CF0C0FC00201CF07D
:10444000BDFC00201CF0BAFC00201CF0B7FC0020D2
:104450001CF0B4FC00201CF0B1FC00201CF0AEFCF1
:1044600000201CF0ABFC00201CF0A8FC00201CF07D
:10447000A5FC00201CF0A2FC00201CF09FFC0020EA
:104480001CF09CFC00201CF099FC00201CF096FC09
:1044900000201CF093FC00201CF090FC00201CF07D
:1044A0008DFC00201CF08AFC00201CF087FC002002
:1044B0001CF084FC00201CF081FC00201CF07EFC21
:1044C00000201CF07BFC00201CF078FC00201CF07D
:1044D00075FC00201CF072FC00201CF06FFC00201A
:1044E0001CF06CFC00201CF069FC00201CF066FC39
:1044F00000201CF063FC00201CF060FC00201CF07D
:104500005DFC00201CF05AFC00201CF057FC002031
:104510001CF054FC00201CF051FC00201CF04EFC50
:1045200000201CF04BFC00201CF048FC00201CF07C
:1045300045FC00201CF042FC00201CF03FFC002049
:104540001CF03CFC00201CF039FC00201CF036FC68
:1045500000201CF033FC00201CF030FC00201CF07C
:104560002DFC00201CF02AFC00201CF027FC002061
:104570001CF024FC00201CF021FC00201CF01EFC80
:1045800000201CF01BFC00201CF018FC00201CF07C
:1045900015FC00201CF012FC00201CF00FFC002079
:1045A0001CF00CFC00201CF009FC00201CF006FC98
:1045B00000201CF003FC00201CF000FC00201CF07C
:1045C000FDFB00201CF0FAFB00201CF0F7FB002094
:1045D0001CF0F4FB00201CF0F1FB00201CF0EEFBB3
:1045E00000201CF0EBFB00201CF0E8FB00201CF07E
:1045F000E5FB00201CF0E2FB00201CF0DFFB0020AC
:104600001CF0DCFB00201CF0D9FB00201CF0D6FBCA
:1046100000201CF0D3FB00201CF0D0FB00201CF07D
:10462000CDFB00201CF0CAFB00201CF0C7FB0020C3
:104630001CF0C4FB00201CF0C1FB00201CF0BEFBE2
:1046400000201CF0BBFB00201CF0B8FB00201CF07D
:10465000B5FB00201CF0B2FB00201CF0AFFB0020DB
:104660001CF0ACFB00201CF0A9FB00201CF0A6FBFA
:1046700000201CF0A3FB00201CF0A0FB00201CF07D
:104680009DFB00201CF09AFB00201CF097FB0020F3
:104690001CF094FB00201CF091FB00201CF08EFB12
:1046A00000201CF08BFB00201CF088FB00201CF07D
:1046B00085FB00201CF082FB00201CF07FFB00200B
:1046C0001CF07CFB00201CF079FB00201CF076FB2A
:1046D00000201CF073FB00201CF070FB00201CF07D
:1046E0006DFB00201CF06AFB00201CF067FB002023
:1046F0001CF064FB00201CF061FB00201CF05EFB42
:1047000000201CF05BFB00201CF058FB00201CF07C
:1047100055FB00201CF052FB00201CF04FFB00203A
:104720001CF04CFB00201CF049FB00201CF046FB59
:1047300000201CF043FB00201CF040FB00201CF07C
:104740003DFB00201CF03AFB00201CF037FB002052
:104750001CF034FB00201CF031FB00201CF02EFB71
:1047600000201CF02BFB00201CF028FB00201CF07C
:1047700025FB00201CF022FB00201CF01FFB00206A
:104780001CF01CFB00201CF019FB00201CF016FB89
:1047900000201CF013FB00201CF010FB00201CF07C
:1047A0000DFB00201CF00AFB00201CF007FB002082
:1047B0001CF004FB00201CF001FB00201CF0FEFAA2
:1047C00000201CF0FBFA00201CF0F8FA00201CF07E
:1047D000F5FA00201CF0F2FA00201CF0EFFA00209D
:1047E0001CF0ECFA00201CF0E9FA00201CF0E6FABC
:1047F00000201CF0E3FA00201CF0E0FA00201CF07E
:10480000DDFA00201CF0DAFA00201CF0D7FA0020B4
:104810001CF0D4FA00201CF0D1FA00201CF0CEFAD3
:1048200000201CF0CBFA00201CF0C8FA00201CF07D
:10483000C5FA00201CF0C2FA00201CF0BFFA0020CC
:104840001CF0BCFA00201CF0B9FA00201CF0B6FAEB
:1048500000201CF0B3FA00201CF0B0FA00201CF07D
:10486000ADFA00201CF0AAFA00201CF0A7FA0020E4
:104870001CF0A4FA00201CF0A1FA00201CF09EFA03
:1048800000201CF09BFA00201CF098FA00201CF07D
:1048900095FA00201CF092FA00201CF08FFA0020FC
:1048A0001CF08CFA00201CF089FA00201CF086FA1B
:1048B00000201CF083FA00201CF080FA00201CF07D
:1048C0007DFA00201CF07AFA00201CF077FA002014
:1048D0001CF074FA00201CF071FA00201CF06EFA33
:1048E00000201CF06BFA00201CF068FA00201CF07D
:1048F00065FA00201CF062FA00201CF05FFA00202C
:104900001CF05CFA00201CF059FA00201CF056FA4A
:1049100000201CF053FA00201CF050FA00201CF07C
:104920004DFA00201CF04AFA00201CF047FA002043
:104930001CF044FA00201CF041FA00201CF03EFA62
:1049400000201CF03BFA00201CF038FA00201CF07C
:1049500035FA00201CF032FA00201CF02FFA00205B
:104960001CF02CFA00201CF029FA00201CF026FA7A
:1049700000201CF023FA00201CF020FA00201CF07C
:104980001DFA00201CF01AFA00201CF017FA002073
:104990001CF014FA00201CF011FA00201CF00EFA92
:1049A00000201CF00BFA00201CF008FA00201CF07C
:1049B00005FA00201CF002FA00201CF0FFF900208C
:1049C0001CF0FCF900201CF0F9F900201CF0F6F9AD
:1049D00000201CF0F3F900201CF0F0F900201CF07E
:1049E000EDF900201CF0EAF900201CF0E7F90020A6
:1049F0001CF0E4F900201CF0E1F900201CF0DEF9C5
:104A000000201CF0DBF900201CF0D8F900201CF07D
:104A1000D5F900201CF0D2F900201CF0CFF90020BD
:104A20001CF0CCF900201CF0C9F900201CF0C6F9DC
:104A300000201CF0C3F900201CF0C0F900201CF07D
:104A4000BDF900201CF0BAF900201CF0B7F90020D5
:104A50001CF0B4F900201CF0B1F900201CF0AEF9F4
:104A600000201CF0ABF900201CF0A8F900201CF07D
:104A7000A5F900201CF0A2F900201CF09FF90020ED
:104A80001CF09CF900201CF099F900201CF096F90C
:104A900000201CF093F900201CF090F900201CF07D
:104AA0008DF900201CF08AF900201CF087F9002005
:104AB0001CF084F900201CF081F900201CF07EF924
:104AC00000201CF07BF900201CF078F900201CF07D
:104AD00075F900201CF072F900201CF06FF900201D
:104AE0001CF06CF900201CF069F900201CF066F93C
:104AF00000201CF063F900201CF060F900201CF07D
:104B00005DF900201CF05AF900201CF057F9002034
:104B10001CF054F900201CF051F900201CF04EF953
:104B200000201CF04BF900201CF048F900201CF07C
:104B300045F900201CF042F900201CF03FF900204C
:104B40001CF03CF900201CF039F900201CF036F96B
:104B500000201CF033F900201CF030F900201CF07C
:104B60002DF900201CF02AF900201CF027F9002064
:104B70001CF024F900201CF021F900201CF01EF983
:104B800000201CF01BF900201CF018F900201CF07C
:104B900015F900201CF012F900201CF00FF900207C
:104BA0001CF00CF900201CF009F900201CF006F99B
:104BB00000201CF003F900201CF000F900201CF07C
:104BC000FDF800201CF0FAF800201CF0F7F8002097
:104BD0001CF0F4F800201CF0F1F800201CF0EEF8B6
:104BE00000201CF0EBF800201CF0E8F800201CF07E
:104BF000E5F800201CF0E2F800201CF0DFF80020AF
:104C00001CF0DCF800201CF0D9F800201CF0D6F8CD
:104C100000201CF0D3F800201CF0D0F800201CF07D
:104C2000CDF800201CF0CAF800201CF0C7F80020C6
:104C30001CF0C4F800201CF0C1F800201CF0BEF8E5
:104C400000201CF0BBF800201CF0B8F800201CF07D
:104C5000B5F800201CF0B2F800201CF0AFF80020DE
:104C60001CF0ACF800201CF0A9F800201CF0A6F8FD
:104C700000201CF0A3F800201CF0A0F800201CF07D
:104C80009DF800201CF09AF800201CF097F80020F6
:104C90001CF094F800201CF091F800201CF08EF815
:104CA00000201CF08BF800201CF088F800201CF07D
:104CB00085F800201CF082F800201CF07FF800200E
:104CC0001CF07CF800201CF079F800201CF076F82D
:104CD00000201CF073F800201CF070F800201CF07D
:104CE0006DF800201CF06AF800201CF067F8002026
:104CF0001CF064F800201CF061F800201CF05EF845
:104D000000201CF05BF800201CF058F800201CF07C
:104D100055F800201CF052F800201CF04FF800203D
:104D20001CF04CF800201CF049F800201CF046F85C
:104D300000201CF043F800201CF040F800201CF07C
:104D40003DF800201CF03AF800201CF037F8002055
:104D50001CF034F800201CF031F800201CF02EF874
:104D600000201CF02BF800201CF028F800201CF07C
:104D700025F800201CF022F800201CF01FF800206D
:104D80001CF01CF800201CF019F800201CF016F88C
:104D900000201CF013F800201CF010F800201CF07C
:104DA0000DF800201CF00AF800201CF007F8002085
:104DB0001CF004F800201CF001F800201BF0FEFF9E
:104DC00000201BF0FBFF00201BF0F8FF00201BF071
:104DD000F5FF00201BF0F2FF00201BF0EFFF00208A
:104DE0001BF0ECFF00201BF0E9FF00201BF0E6FFAA
:104DF00000201BF0E3FF00201BF0E0FF00201BF071
:104E0000DDFF00201BF0DAFF00201BF0D7FF0020A1
:104E10001BF0D4FF00201BF0D1FF00201BF0CEFFC1
:104E200000201BF0CBFF00201BF0C8FF00201BF070
:104E3000C5FF00201BF0C2FF00201BF0BFFF0020B9
:104E40001BF0BCFF00201BF0B9FF00201BF0B6FFD9
:104E500000201BF0B3FF00201BF0B0FF00201BF070
:104E6000ADFF00201BF0AAFF00201BF0A7FF0020D1
:104E70001BF0A4FF00201BF0A1FF00201BF09EFFF1
:104E800000201BF09BFF00201BF098FF00201BF070
:104E900095FF00201BF092FF00201BF08FFF0020E9
:104EA0001BF08CFF00201BF089FF00201BF086FF09
:104EB00000201BF083FF00201BF080FF00201BF070
:104EC0007DFF00201BF07AFF00201BF077FF002001
:104ED0001BF074FF00201BF071FF00201BF06EFF21
:104EE00000201BF06BFF00201BF068FF00201BF070
:104EF00065FF00201BF062FF00201BF05FFF002019
:104F00001BF05CFF00201BF059FF00201BF056FF38
:104F100000201BF053FF00201BF050FF00201BF06F
:104F20004DFF00201BF04AFF00201BF047FF002030
:104F30001BF044FF00201BF041FF00201BF03EFF50
:104F400000201BF03BFF00201BF038FF00201BF06F
:104F500035FF00201BF032FF00201BF02FFF002048
:104F60001BF02CFF00201BF029FF00201BF026FF68
:104F700000201BF023FF00201BF020FF00201BF06F
:104F80001DFF00201BF01AFF00201BF017FF002060
:104F90001BF014FF00201BF011FF00201BF00EFF80
:104FA00000201BF00BFF00201BF008FF00201BF06F
:104FB00005FF00201BF002FF00201BF0FFFE002079
:104FC0001BF0FCFE00201BF0F9FE00201BF0F6FE9B
:104FD00000201BF0F3FE00201BF0F0FE00201BF071
:104FE000EDFE00201BF0EAFE00201BF0E7FE002093
:104FF0001BF0E4FE00201BF0E1FE00201BF0DEFEB3
:1050000000201BF0DBFE00201BF0D8FE00201BF070
:10501000D5FE00201BF0D2FE00201BF0CFFE0020AA
:105020001BF0CCFE00201BF0C9FE00201BF0C6FECA
:1050300000201BF0C3FE00201BF0C0FE00201BF070
:10504000BDFE00201BF0BAFE00201BF0B7FE0020C2
:105050001BF0B4FE00201BF0B1FE00201BF0AEFEE2
:1050600000201BF0ABFE00201BF0A8FE00201BF070
:10507000A5FE00201BF0A2FE00201BF09FFE0020DA
:105080001BF09CFE00201BF099FE00201BF096FEFA
:1050900000201BF093FE00201BF090FE00201BF070
:1050A0008DFE00201BF08AFE00201BF087FE0020F2
:1050B0001BF084FE00201BF081FE00201BF07EFE12
:1050C00000201BF07BFE00201BF078FE00201BF070
:1050D00075FE00201BF072FE00201BF06FFE00200A
:1050E0001BF06CFE00201BF069FE00201BF066FE2A
:1050F00000201BF063FE00201BF060FE00201BF070
:105100005DFE00201BF05AFE00201BF057FE002021
:105110001BF054FE00201BF051FE00201BF04EFE41
:1051200000201BF04BFE00201BF048FE00201BF06F
:1051300045FE00201BF042FE00201BF03FFE002039
:105140001BF03CFE00201BF039FE00201BF036FE59
:1051500000201BF033FE00201BF030FE00201BF06F
:105160002DFE00201BF02AFE00201BF027FE002051
:105170001BF024FE00201BF021FE00201BF01EFE71
:1051800000201BF01BFE00201BF018FE00201BF06F
:1051900015FE00201BF012FE00201BF00FFE002069
:1051A0001BF00CFE00201BF009FE00201BF006FE89
:1051B00000201BF003FE00201BF000FE00201BF06F
:1051C000FDFD00201BF0FAFD00201BF0F7FD002084
:1051D0001BF0F4FD00201BF0F1FD00201BF0EEFDA4
:1051E00000201BF0EBFD00201BF0E8FD00201BF071
:1051F000E5FD00201BF0E2FD00201BF0DFFD00209C
:105200001BF0DCFD00201BF0D9FD00201BF0D6FDBB
:1052100000201BF0D3FD00201BF0D0FD00201BF070
:10522000CDFD00201BF0CAFD00201BF0C7FD0020B3
:105230001BF0C4FD00201BF0C1FD00201BF0BEFDD3
:1052400000201BF0BBFD00201BF0B8FD00201BF070
:10525000B5FD00201BF0B2FD00201BF0AFFD0020CB
:105260001BF0ACFD00201BF0A9FD00201BF0A6FDEB
:1052700000201BF0A3FD00201BF0A0FD00201BF070
:105280009DFD00201BF09AFD00201BF097FD0020E3
:105290001BF094FD00201BF091FD00201BF08EFD03
:1052A00000201BF08BFD00201BF088FD00201BF070
:1052B00085FD00201BF082FD00201BF07FFD0020FB
:1052C0001BF07CFD00201BF079FD00201BF076FD1B
:1052D00000201BF073FD00201BF070FD00201BF070
:1052E0006DFD00201BF06AFD00201BF067FD002013
:1052F0001BF064FD00201BF061FD00201BF05EFD33
:1053000000201BF05BFD00201BF058FD00201BF06F
:1053100055FD00201BF052FD00201BF04FFD00202A
:105320001BF04CFD00201BF049FD00201BF046FD4A
:1053300000201BF043FD00201BF040FD00201BF06F
:105340003DFD00201BF03AFD00201BF037FD002042
:105350001BF034FD00201BF031FD00201BF02EFD62
:1053600000201BF02BFD00201BF028FD00201BF06F
:1053700025FD00201BF022FD00201BF01FFD00205A
:105380001BF01CFD00201BF019FD00201BF016FD7A
:1053900000201BF013FD00201BF010FD00201BF06F
:1053A0000DFD00201BF00AFD00201BF007FD002072
:1053B0001BF004FD00201BF001FD00201BF0FEFC93
:1053C00000201BF0FBFC00201BF0F8FC00201BF071
:1053D000F5FC00201BF0F2FC00201BF0EFFC00208D
:1053E0001BF0ECFC00201BF0E9FC00201BF0E6FCAD
:1053F00000201BF0E3FC00201BF0E0FC00201BF071
:10540000DDFC00201BF0DAFC00201BF0D7FC0020A4
:105410001BF0D4FC00201BF0D1FC00201BF0CEFCC4
:1054200000201BF0CBFC00201BF0C8FC00201BF070
:10543000C5FC00201BF0C2FC00201BF0BFFC0020BC
:105440001BF0BCFC00201BF0B9FC00201BF0B6FCDC
:1054500000201BF0B3FC00201BF0B0FC00201BF070
:10546000ADFC00201BF0AAFC00201BF0A7FC0020D4
:105470001BF0A4FC00201BF0A1FC00201BF09EFCF4
:1054800000201BF09BFC00201BF098FC00201BF070
:1054900095FC00201BF092FC00201BF08FFC0020EC
:1054A0001BF08CFC00201BF089FC00201BF086FC0C
:1054B00000201BF083FC00201BF080FC00201BF070
:1054C0007DFC00201BF07AFC00201BF077FC002004
:1054D0001BF074FC00201BF071FC00201BF06EFC24
:1054E00000201BF06BFC00201BF068FC00201BF070
:1054F00065FC00201BF062FC00201BF05FFC00201C
:105500001BF05CFC00201BF059FC00201BF056FC3B
:1055100000201BF053FC00201BF050FC00201BF06F
:105520004DFC00201BF04AFC00201BF047FC002033
:105530001BF044FC00201BF041FC00201BF03EFC53
:1055400000201BF03BFC00201BF038FC00201BF06F
:1055500035FC00201BF032FC00201BF02FFC00204B
:105560001BF02CFC00201BF029FC00201BF026FC6B
:1055700000201BF023FC00201BF020FC00201BF06F
:105580001DFC00201BF01AFC00201BF017FC002063
:105590001BF014FC00201BF011FC00201BF00EFC83
:1055A00000201BF00BFC00201BF008FC00201BF06F
:1055B00005FC00201BF002FC00201BF0FFFB00207C
:1055C0001BF0FCFB00201BF0F9FB00201BF0F6FB9E
:1055D00000201BF0F3FB00201BF0F0FB00201BF071
:1055E000EDFB00201BF0EAFB00201BF0E7FB002096
:1055F0001BF0E4FB00201BF0E1FB00201BF0DEFBB6
:1056000000201BF0DBFB00201BF0D8FB00201BF070
:10561000D5FB00201BF0D2FB00201BF0CFFB0020AD
:105620001BF0CCFB00201BF0C9FB00201BF0C6FBCD
:1056300000201BF0C3FB00201BF0C0FB00201BF070
:10564000BDFB00201BF0BAFB00201BF0B7FB0020C5
:105650001BF0B4FB00201BF0B1FB00201BF0AEFBE5
:1056600000201BF0ABFB00201BF0A8FB00201BF070
:10567000A5FB00201BF0A2FB00201BF09FFB0020DD
:105680001BF09CFB00201BF099FB00201BF096FBFD
:1056900000201BF093FB00201BF090FB00201BF070
:1056A0008DFB00201BF08AFB00201BF087FB0020F5
:1056B0001BF084FB00201BF081FB00201BF07EFB15
:1056C00000201BF07BFB00201BF078FB00201BF070
:1056D00075FB00201BF072FB00201BF06FFB00200D
:1056E0001BF06CFB00201BF069FB00201BF066FB2D
:1056F00000201BF063FB00201BF060FB00201BF070
:105700005DFB00201BF05AFB00201BF057FB002024
:105710001BF054FB00201BF051FB00201BF04EFB44
:1057200000201BF04BFB00201BF048FB00201BF06F
:1057300045FB00201BF042FB00201BF03FFB00203C
:105740001BF03CFB00201BF039FB00201BF036FB5C
:1057500000201BF033FB00201BF030FB00201BF06F
:105760002DFB00201BF02AFB00201BF027FB002054
:105770001BF024FB00201BF021FB00201BF01EFB74
:1057800000201BF01BFB00201BF018FB00201BF06F
:1057900015FB00201BF012FB00201BF00FFB00206C
:1057A0001BF00CFB00201BF009FB00201BF006FB8C
:1057B00000201BF003FB00201BF000FB00201BF06F
:1057C000FDFA00201BF0FAFA00201BF0F7FA002087
:1057D0001BF0F4FA00201BF0F1FA00201BF0EEFAA7
:1057E00000201BF0EBFA00201BF0E8FA00201BF071
:1057F000E5FA00201BF0E2FA00201BF0DFFA00209F
:105800001BF0DCFA00201BF0D9FA00201BF0D6FABE
:1058100000201BF0D3FA00201BF0D0FA00201BF070
:10582000CDFA00201BF0CAFA00201BF0C7FA0020B6
:105830001BF0C4FA00201BF0C1FA00201BF0BEFAD6
:1058400000201BF0BBFA00201BF0B8FA00201BF070
:10585000B5FA00201BF0B2FA00201BF0AFFA0020CE
:105860001BF0ACFA00201BF0A9FA00201BF0A6FAEE
:1058700000201BF0A3FA00201BF0A0FA00201BF070
:105880009DFA00201BF09AFA00201BF097FA0020E6
:105890001BF094FA00201BF091FA00201BF08EFA06
:1058A00000201BF08BFA00201BF088FA00201BF070
:1058B00085FA00201BF082FA00201BF07FFA0020FE
:1058C0001BF07CFA00201BF079FA00201BF076FA1E
:1058D00000201BF073FA00201BF070FA00201BF070
:1058E0006DFA00201BF06AFA00201BF067FA002016
:1058F0001BF064FA00201BF061FA00201BF05EFA36
:1059000000201BF05BFA00201BF058FA00201BF06F
:1059100055FA00201BF052FA00201BF04FFA00202D
:105920001BF04CFA00201BF049FA00201BF046FA4D
:1059300000201BF043FA00201BF040FA00201BF06F
:105940003DFA00201BF03AFA00201BF037FA002045
:105950001BF034FA00201BF031FA00201BF02EFA65
:1059600000201BF02BFA00201BF028FA00201BF06F
:1059700025FA00201BF022FA00201BF01FFA00205D
:105980001BF01CFA00201BF019FA00201BF016FA7D
:1059900000201BF013FA00201BF010FA00201BF06F
:1059A0000DFA00201BF00AFA00201BF007FA002075
:1059B0001BF004FA00201BF001FA00201BF0FEF996
:1059C00000201BF0FBF900201BF0F8F900201BF071
:1059D000F5F900201BF0F2F900201BF0EFF9002090
:1059E0001BF0ECF900201BF0E9F900201BF0E6F9B0
:1059F00000201BF0E3F900201BF0E0F900201BF071
:105A0000DDF900201BF0DAF900201BF0D7F90020A7
:105A10001BF0D4F900201BF0D1F900201BF0CEF9C7
:105A200000201BF0CBF900201BF0C8F900201BF070
:105A3000C5F900201BF0C2F900201BF0BFF90020BF
:105A40001BF0BCF900201BF0B9F900201BF0B6F9DF
:105A500000201BF0B3F900201BF0B0F900201BF070
:105A6000ADF900201BF0AAF900201BF0A7F90020D7
:105A70001BF0A4F900201BF0A1F900201BF09EF9F7
:105A800000201BF09BF900201BF098F900201BF070
:105A900095F900201BF092F900201BF08FF90020EF
:105AA0001BF08CF900201BF089F900201BF086F90F
:105AB00000201BF083F900201BF080F900201BF070
:105AC0007DF900201BF07AF900201BF077F9002007
:105AD0001BF074F900201BF071F900201BF06EF927
